{
	"contracts/MyToken.sol": {
		"MyToken": {
			"abi": [
				{
					"inputs": [
						{
							"internalType": "string",
							"name": "name",
							"type": "string"
						},
						{
							"internalType": "string",
							"name": "symbol",
							"type": "string"
						},
						{
							"internalType": "uint8",
							"name": "decimals",
							"type": "uint8"
						}
					],
					"stateMutability": "nonpayable",
					"type": "constructor"
				},
				{
					"anonymous": false,
					"inputs": [
						{
							"indexed": true,
							"internalType": "address",
							"name": "owner",
							"type": "address"
						},
						{
							"indexed": true,
							"internalType": "address",
							"name": "spender",
							"type": "address"
						},
						{
							"indexed": false,
							"internalType": "uint256",
							"name": "value",
							"type": "uint256"
						}
					],
					"name": "Approval",
					"type": "event"
				},
				{
					"anonymous": false,
					"inputs": [
						{
							"indexed": true,
							"internalType": "address",
							"name": "from",
							"type": "address"
						},
						{
							"indexed": true,
							"internalType": "address",
							"name": "to",
							"type": "address"
						},
						{
							"indexed": false,
							"internalType": "uint256",
							"name": "value",
							"type": "uint256"
						}
					],
					"name": "Transfer",
					"type": "event"
				},
				{
					"inputs": [
						{
							"internalType": "address",
							"name": "",
							"type": "address"
						},
						{
							"internalType": "address",
							"name": "",
							"type": "address"
						}
					],
					"name": "allowance",
					"outputs": [
						{
							"internalType": "uint256",
							"name": "",
							"type": "uint256"
						}
					],
					"stateMutability": "view",
					"type": "function"
				},
				{
					"inputs": [
						{
							"internalType": "address",
							"name": "spender",
							"type": "address"
						},
						{
							"internalType": "uint256",
							"name": "amount",
							"type": "uint256"
						}
					],
					"name": "approve",
					"outputs": [
						{
							"internalType": "bool",
							"name": "",
							"type": "bool"
						}
					],
					"stateMutability": "nonpayable",
					"type": "function"
				},
				{
					"inputs": [
						{
							"internalType": "address",
							"name": "",
							"type": "address"
						}
					],
					"name": "balanceOf",
					"outputs": [
						{
							"internalType": "uint256",
							"name": "",
							"type": "uint256"
						}
					],
					"stateMutability": "view",
					"type": "function"
				},
				{
					"inputs": [
						{
							"internalType": "address",
							"name": "from",
							"type": "address"
						},
						{
							"internalType": "uint256",
							"name": "amount",
							"type": "uint256"
						}
					],
					"name": "burn",
					"outputs": [],
					"stateMutability": "nonpayable",
					"type": "function"
				},
				{
					"inputs": [],
					"name": "decimals",
					"outputs": [
						{
							"internalType": "uint8",
							"name": "",
							"type": "uint8"
						}
					],
					"stateMutability": "view",
					"type": "function"
				},
				{
					"inputs": [],
					"name": "get",
					"outputs": [
						{
							"internalType": "address",
							"name": "",
							"type": "address"
						}
					],
					"stateMutability": "view",
					"type": "function"
				},
				{
					"inputs": [
						{
							"internalType": "address",
							"name": "to",
							"type": "address"
						},
						{
							"internalType": "uint256",
							"name": "amount",
							"type": "uint256"
						}
					],
					"name": "mint",
					"outputs": [],
					"stateMutability": "nonpayable",
					"type": "function"
				},
				{
					"inputs": [],
					"name": "name",
					"outputs": [
						{
							"internalType": "string",
							"name": "",
							"type": "string"
						}
					],
					"stateMutability": "view",
					"type": "function"
				},
				{
					"inputs": [],
					"name": "owner",
					"outputs": [
						{
							"internalType": "address",
							"name": "",
							"type": "address"
						}
					],
					"stateMutability": "view",
					"type": "function"
				},
				{
					"inputs": [],
					"name": "symbol",
					"outputs": [
						{
							"internalType": "string",
							"name": "",
							"type": "string"
						}
					],
					"stateMutability": "view",
					"type": "function"
				},
				{
					"inputs": [],
					"name": "totalSupply",
					"outputs": [
						{
							"internalType": "uint256",
							"name": "",
							"type": "uint256"
						}
					],
					"stateMutability": "view",
					"type": "function"
				},
				{
					"inputs": [
						{
							"internalType": "address",
							"name": "recipient",
							"type": "address"
						},
						{
							"internalType": "uint256",
							"name": "amount",
							"type": "uint256"
						}
					],
					"name": "transfer",
					"outputs": [
						{
							"internalType": "bool",
							"name": "",
							"type": "bool"
						}
					],
					"stateMutability": "nonpayable",
					"type": "function"
				},
				{
					"inputs": [
						{
							"internalType": "address",
							"name": "sender",
							"type": "address"
						},
						{
							"internalType": "address",
							"name": "recipient",
							"type": "address"
						},
						{
							"internalType": "uint256",
							"name": "amount",
							"type": "uint256"
						}
					],
					"name": "transferFrom",
					"outputs": [
						{
							"internalType": "bool",
							"name": "",
							"type": "bool"
						}
					],
					"stateMutability": "nonpayable",
					"type": "function"
				}
			],
			"devdoc": {
				"kind": "dev",
				"methods": {},
				"version": 1
			},
			"evm": {
				"assembly": "    /* \"contracts/MyToken.sol\":86:571  contract MyToken is ERC20 ... */\n  mstore(0x40, 0x80)\n    /* \"contracts/MyToken.sol\":144:154  msg.sender */\n  caller\n    /* \"contracts/MyToken.sol\":121:154  address public owner = msg.sender */\n  0x05\n  exp(0x0100, 0x01)\n  dup2\n  sload\n  dup2\n  0xffffffffffffffffffffffffffffffffffffffff\n  mul\n  not\n  and\n  swap1\n  dup4\n  0xffffffffffffffffffffffffffffffffffffffff\n  and\n  mul\n  or\n  swap1\n  sstore\n  pop\n    /* \"contracts/MyToken.sol\":161:477  constructor(string memory name, string memory symbol, uint8 decimals)... */\n  callvalue\n  dup1\n  iszero\n  tag_1\n  jumpi\n  0x00\n  dup1\n  revert\ntag_1:\n  pop\n  mload(0x40)\n  sub(codesize, bytecodeSize)\n  dup1\n  bytecodeSize\n  dup4\n  codecopy\n  dup2\n  dup2\n  add\n  0x40\n  mstore\n  dup2\n  add\n  swap1\n  tag_2\n  swap2\n  swap1\n  tag_3\n  jump\t// in\ntag_2:\n    /* \"contracts/MyToken.sol\":246:250  name */\n  dup3\n    /* \"contracts/MyToken.sol\":252:258  symbol */\n  dup3\n    /* \"contracts/MyToken.sol\":260:268  decimals */\n  dup3\n    /* \"contracts/ERC20.sol\":612:617  _name */\n  dup3\n    /* \"contracts/ERC20.sol\":605:609  name */\n  0x03\n    /* \"contracts/ERC20.sol\":605:617  name = _name */\n  swap1\n  dup2\n  tag_7\n  swap2\n  swap1\n  tag_8\n  jump\t// in\ntag_7:\n  pop\n    /* \"contracts/ERC20.sol\":637:644  _symbol */\n  dup2\n    /* \"contracts/ERC20.sol\":628:634  symbol */\n  0x04\n    /* \"contracts/ERC20.sol\":628:644  symbol = _symbol */\n  swap1\n  dup2\n  tag_9\n  swap2\n  swap1\n  tag_8\n  jump\t// in\ntag_9:\n  pop\n    /* \"contracts/ERC20.sol\":666:675  _decimals */\n  dup1\n    /* \"contracts/ERC20.sol\":655:663  decimals */\n  0x05\n  0x00\n    /* \"contracts/ERC20.sol\":655:675  decimals = _decimals */\n  0x0100\n  exp\n  dup2\n  sload\n  dup2\n  0xff\n  mul\n  not\n  and\n  swap1\n  dup4\n  0xff\n  and\n  mul\n  or\n  swap1\n  sstore\n  pop\n    /* \"contracts/ERC20.sol\":515:683  constructor(string memory _name, string memory _symbol, uint8 _decimals) ... */\n  pop\n  pop\n  pop\n    /* \"contracts/MyToken.sol\":431:469  _mint(msg.sender, 10 * 10 ** decimals) */\n  tag_11\n    /* \"contracts/MyToken.sol\":437:447  msg.sender */\n  caller\n    /* \"contracts/MyToken.sol\":460:468  decimals */\n  dup3\n    /* \"contracts/MyToken.sol\":454:456  10 */\n  0x0a\n    /* \"contracts/MyToken.sol\":454:468  10 ** decimals */\n  tag_12\n  swap2\n  swap1\n  tag_13\n  jump\t// in\ntag_12:\n    /* \"contracts/MyToken.sol\":449:451  10 */\n  0x0a\n    /* \"contracts/MyToken.sol\":449:468  10 * 10 ** decimals */\n  tag_14\n  swap2\n  swap1\n  tag_15\n  jump\t// in\ntag_14:\n    /* \"contracts/MyToken.sol\":431:436  _mint */\n  shl(0x20, tag_16)\n    /* \"contracts/MyToken.sol\":431:469  _mint(msg.sender, 10 * 10 ** decimals) */\n  0x20\n  shr\n  jump\t// in\ntag_11:\n    /* \"contracts/MyToken.sol\":161:477  constructor(string memory name, string memory symbol, uint8 decimals)... */\n  pop\n  pop\n  pop\n    /* \"contracts/MyToken.sol\":86:571  contract MyToken is ERC20 ... */\n  jump(tag_17)\n    /* \"contracts/ERC20.sol\":1489:1669  function _mint(address to, uint256 amount) internal ... */\ntag_16:\n    /* \"contracts/ERC20.sol\":1575:1581  amount */\n  dup1\n    /* \"contracts/ERC20.sol\":1558:1567  balanceOf */\n  0x01\n    /* \"contracts/ERC20.sol\":1558:1571  balanceOf[to] */\n  0x00\n    /* \"contracts/ERC20.sol\":1568:1570  to */\n  dup5\n    /* \"contracts/ERC20.sol\":1558:1571  balanceOf[to] */\n  0xffffffffffffffffffffffffffffffffffffffff\n  and\n  0xffffffffffffffffffffffffffffffffffffffff\n  and\n  dup2\n  mstore\n  0x20\n  add\n  swap1\n  dup2\n  mstore\n  0x20\n  add\n  0x00\n  keccak256\n  0x00\n    /* \"contracts/ERC20.sol\":1558:1581  balanceOf[to] += amount */\n  dup3\n  dup3\n  sload\n  tag_19\n  swap2\n  swap1\n  tag_20\n  jump\t// in\ntag_19:\n  swap3\n  pop\n  pop\n  dup2\n  swap1\n  sstore\n  pop\n    /* \"contracts/ERC20.sol\":1607:1613  amount */\n  dup1\n    /* \"contracts/ERC20.sol\":1592:1603  totalSupply */\n  0x00\n  dup1\n    /* \"contracts/ERC20.sol\":1592:1613  totalSupply += amount */\n  dup3\n  dup3\n  sload\n  tag_21\n  swap2\n  swap1\n  tag_20\n  jump\t// in\ntag_21:\n  swap3\n  pop\n  pop\n  dup2\n  swap1\n  sstore\n  pop\n    /* \"contracts/ERC20.sol\":1650:1652  to */\n  dup2\n    /* \"contracts/ERC20.sol\":1629:1661  Transfer(address(0), to, amount) */\n  0xffffffffffffffffffffffffffffffffffffffff\n  and\n    /* \"contracts/ERC20.sol\":1646:1647  0 */\n  0x00\n    /* \"contracts/ERC20.sol\":1629:1661  Transfer(address(0), to, amount) */\n  0xffffffffffffffffffffffffffffffffffffffff\n  and\n  0xddf252ad1be2c89b69c2b068fc378daa952ba7f163c4a11628f55a4df523b3ef\n    /* \"contracts/ERC20.sol\":1654:1660  amount */\n  dup4\n    /* \"contracts/ERC20.sol\":1629:1661  Transfer(address(0), to, amount) */\n  mload(0x40)\n  tag_22\n  swap2\n  swap1\n  tag_23\n  jump\t// in\ntag_22:\n  mload(0x40)\n  dup1\n  swap2\n  sub\n  swap1\n  log3\n    /* \"contracts/ERC20.sol\":1489:1669  function _mint(address to, uint256 amount) internal ... */\n  pop\n  pop\n  jump\t// out\n    /* \"#utility.yul\":7:82   */\ntag_24:\n    /* \"#utility.yul\":40:46   */\n  0x00\n    /* \"#utility.yul\":73:75   */\n  0x40\n    /* \"#utility.yul\":67:76   */\n  mload\n    /* \"#utility.yul\":57:76   */\n  swap1\n  pop\n    /* \"#utility.yul\":7:82   */\n  swap1\n  jump\t// out\n    /* \"#utility.yul\":88:205   */\ntag_25:\n    /* \"#utility.yul\":197:198   */\n  0x00\n    /* \"#utility.yul\":194:195   */\n  dup1\n    /* \"#utility.yul\":187:199   */\n  revert\n    /* \"#utility.yul\":211:328   */\ntag_26:\n    /* \"#utility.yul\":320:321   */\n  0x00\n    /* \"#utility.yul\":317:318   */\n  dup1\n    /* \"#utility.yul\":310:322   */\n  revert\n    /* \"#utility.yul\":334:451   */\ntag_27:\n    /* \"#utility.yul\":443:444   */\n  0x00\n    /* \"#utility.yul\":440:441   */\n  dup1\n    /* \"#utility.yul\":433:445   */\n  revert\n    /* \"#utility.yul\":457:574   */\ntag_28:\n    /* \"#utility.yul\":566:567   */\n  0x00\n    /* \"#utility.yul\":563:564   */\n  dup1\n    /* \"#utility.yul\":556:568   */\n  revert\n    /* \"#utility.yul\":580:682   */\ntag_29:\n    /* \"#utility.yul\":621:627   */\n  0x00\n    /* \"#utility.yul\":672:674   */\n  0x1f\n    /* \"#utility.yul\":668:675   */\n  not\n    /* \"#utility.yul\":663:665   */\n  0x1f\n    /* \"#utility.yul\":656:661   */\n  dup4\n    /* \"#utility.yul\":652:666   */\n  add\n    /* \"#utility.yul\":648:676   */\n  and\n    /* \"#utility.yul\":638:676   */\n  swap1\n  pop\n    /* \"#utility.yul\":580:682   */\n  swap2\n  swap1\n  pop\n  jump\t// out\n    /* \"#utility.yul\":688:868   */\ntag_30:\n    /* \"#utility.yul\":736:813   */\n  0x4e487b7100000000000000000000000000000000000000000000000000000000\n    /* \"#utility.yul\":733:734   */\n  0x00\n    /* \"#utility.yul\":726:814   */\n  mstore\n    /* \"#utility.yul\":833:837   */\n  0x41\n    /* \"#utility.yul\":830:831   */\n  0x04\n    /* \"#utility.yul\":823:838   */\n  mstore\n    /* \"#utility.yul\":857:861   */\n  0x24\n    /* \"#utility.yul\":854:855   */\n  0x00\n    /* \"#utility.yul\":847:862   */\n  revert\n    /* \"#utility.yul\":874:1155   */\ntag_31:\n    /* \"#utility.yul\":957:984   */\n  tag_73\n    /* \"#utility.yul\":979:983   */\n  dup3\n    /* \"#utility.yul\":957:984   */\n  tag_29\n  jump\t// in\ntag_73:\n    /* \"#utility.yul\":949:955   */\n  dup2\n    /* \"#utility.yul\":945:985   */\n  add\n    /* \"#utility.yul\":1087:1093   */\n  dup2\n    /* \"#utility.yul\":1075:1085   */\n  dup2\n    /* \"#utility.yul\":1072:1094   */\n  lt\n    /* \"#utility.yul\":1051:1069   */\n  0xffffffffffffffff\n    /* \"#utility.yul\":1039:1049   */\n  dup3\n    /* \"#utility.yul\":1036:1070   */\n  gt\n    /* \"#utility.yul\":1033:1095   */\n  or\n    /* \"#utility.yul\":1030:1118   */\n  iszero\n  tag_74\n  jumpi\n    /* \"#utility.yul\":1098:1116   */\n  tag_75\n  tag_30\n  jump\t// in\ntag_75:\n    /* \"#utility.yul\":1030:1118   */\ntag_74:\n    /* \"#utility.yul\":1138:1148   */\n  dup1\n    /* \"#utility.yul\":1134:1136   */\n  0x40\n    /* \"#utility.yul\":1127:1149   */\n  mstore\n    /* \"#utility.yul\":917:1155   */\n  pop\n    /* \"#utility.yul\":874:1155   */\n  pop\n  pop\n  jump\t// out\n    /* \"#utility.yul\":1161:1290   */\ntag_32:\n    /* \"#utility.yul\":1195:1201   */\n  0x00\n    /* \"#utility.yul\":1222:1242   */\n  tag_77\n  tag_24\n  jump\t// in\ntag_77:\n    /* \"#utility.yul\":1212:1242   */\n  swap1\n  pop\n    /* \"#utility.yul\":1251:1284   */\n  tag_78\n    /* \"#utility.yul\":1279:1283   */\n  dup3\n    /* \"#utility.yul\":1271:1277   */\n  dup3\n    /* \"#utility.yul\":1251:1284   */\n  tag_31\n  jump\t// in\ntag_78:\n    /* \"#utility.yul\":1161:1290   */\n  swap2\n  swap1\n  pop\n  jump\t// out\n    /* \"#utility.yul\":1296:1604   */\ntag_33:\n    /* \"#utility.yul\":1358:1362   */\n  0x00\n    /* \"#utility.yul\":1448:1466   */\n  0xffffffffffffffff\n    /* \"#utility.yul\":1440:1446   */\n  dup3\n    /* \"#utility.yul\":1437:1467   */\n  gt\n    /* \"#utility.yul\":1434:1490   */\n  iszero\n  tag_80\n  jumpi\n    /* \"#utility.yul\":1470:1488   */\n  tag_81\n  tag_30\n  jump\t// in\ntag_81:\n    /* \"#utility.yul\":1434:1490   */\ntag_80:\n    /* \"#utility.yul\":1508:1537   */\n  tag_82\n    /* \"#utility.yul\":1530:1536   */\n  dup3\n    /* \"#utility.yul\":1508:1537   */\n  tag_29\n  jump\t// in\ntag_82:\n    /* \"#utility.yul\":1500:1537   */\n  swap1\n  pop\n    /* \"#utility.yul\":1592:1596   */\n  0x20\n    /* \"#utility.yul\":1586:1590   */\n  dup2\n    /* \"#utility.yul\":1582:1597   */\n  add\n    /* \"#utility.yul\":1574:1597   */\n  swap1\n  pop\n    /* \"#utility.yul\":1296:1604   */\n  swap2\n  swap1\n  pop\n  jump\t// out\n    /* \"#utility.yul\":1610:1749   */\ntag_34:\n    /* \"#utility.yul\":1699:1705   */\n  dup3\n    /* \"#utility.yul\":1694:1697   */\n  dup2\n    /* \"#utility.yul\":1689:1692   */\n  dup4\n    /* \"#utility.yul\":1683:1706   */\n  mcopy\n    /* \"#utility.yul\":1740:1741   */\n  0x00\n    /* \"#utility.yul\":1731:1737   */\n  dup4\n    /* \"#utility.yul\":1726:1729   */\n  dup4\n    /* \"#utility.yul\":1722:1738   */\n  add\n    /* \"#utility.yul\":1715:1742   */\n  mstore\n    /* \"#utility.yul\":1610:1749   */\n  pop\n  pop\n  pop\n  jump\t// out\n    /* \"#utility.yul\":1755:2189   */\ntag_35:\n    /* \"#utility.yul\":1844:1849   */\n  0x00\n    /* \"#utility.yul\":1869:1935   */\n  tag_85\n    /* \"#utility.yul\":1885:1934   */\n  tag_86\n    /* \"#utility.yul\":1927:1933   */\n  dup5\n    /* \"#utility.yul\":1885:1934   */\n  tag_33\n  jump\t// in\ntag_86:\n    /* \"#utility.yul\":1869:1935   */\n  tag_32\n  jump\t// in\ntag_85:\n    /* \"#utility.yul\":1860:1935   */\n  swap1\n  pop\n    /* \"#utility.yul\":1958:1964   */\n  dup3\n    /* \"#utility.yul\":1951:1956   */\n  dup2\n    /* \"#utility.yul\":1944:1965   */\n  mstore\n    /* \"#utility.yul\":1996:2000   */\n  0x20\n    /* \"#utility.yul\":1989:1994   */\n  dup2\n    /* \"#utility.yul\":1985:2001   */\n  add\n    /* \"#utility.yul\":2034:2037   */\n  dup5\n    /* \"#utility.yul\":2025:2031   */\n  dup5\n    /* \"#utility.yul\":2020:2023   */\n  dup5\n    /* \"#utility.yul\":2016:2032   */\n  add\n    /* \"#utility.yul\":2013:2038   */\n  gt\n    /* \"#utility.yul\":2010:2122   */\n  iszero\n  tag_87\n  jumpi\n    /* \"#utility.yul\":2041:2120   */\n  tag_88\n  tag_28\n  jump\t// in\ntag_88:\n    /* \"#utility.yul\":2010:2122   */\ntag_87:\n    /* \"#utility.yul\":2131:2183   */\n  tag_89\n    /* \"#utility.yul\":2176:2182   */\n  dup5\n    /* \"#utility.yul\":2171:2174   */\n  dup3\n    /* \"#utility.yul\":2166:2169   */\n  dup6\n    /* \"#utility.yul\":2131:2183   */\n  tag_34\n  jump\t// in\ntag_89:\n    /* \"#utility.yul\":1850:2189   */\n  pop\n    /* \"#utility.yul\":1755:2189   */\n  swap4\n  swap3\n  pop\n  pop\n  pop\n  jump\t// out\n    /* \"#utility.yul\":2209:2564   */\ntag_36:\n    /* \"#utility.yul\":2276:2281   */\n  0x00\n    /* \"#utility.yul\":2325:2328   */\n  dup3\n    /* \"#utility.yul\":2318:2322   */\n  0x1f\n    /* \"#utility.yul\":2310:2316   */\n  dup4\n    /* \"#utility.yul\":2306:2323   */\n  add\n    /* \"#utility.yul\":2302:2329   */\n  slt\n    /* \"#utility.yul\":2292:2414   */\n  tag_91\n  jumpi\n    /* \"#utility.yul\":2333:2412   */\n  tag_92\n  tag_27\n  jump\t// in\ntag_92:\n    /* \"#utility.yul\":2292:2414   */\ntag_91:\n    /* \"#utility.yul\":2443:2449   */\n  dup2\n    /* \"#utility.yul\":2437:2450   */\n  mload\n    /* \"#utility.yul\":2468:2558   */\n  tag_93\n    /* \"#utility.yul\":2554:2557   */\n  dup5\n    /* \"#utility.yul\":2546:2552   */\n  dup3\n    /* \"#utility.yul\":2539:2543   */\n  0x20\n    /* \"#utility.yul\":2531:2537   */\n  dup7\n    /* \"#utility.yul\":2527:2544   */\n  add\n    /* \"#utility.yul\":2468:2558   */\n  tag_35\n  jump\t// in\ntag_93:\n    /* \"#utility.yul\":2459:2558   */\n  swap2\n  pop\n    /* \"#utility.yul\":2282:2564   */\n  pop\n    /* \"#utility.yul\":2209:2564   */\n  swap3\n  swap2\n  pop\n  pop\n  jump\t// out\n    /* \"#utility.yul\":2570:2656   */\ntag_37:\n    /* \"#utility.yul\":2605:2612   */\n  0x00\n    /* \"#utility.yul\":2645:2649   */\n  0xff\n    /* \"#utility.yul\":2638:2643   */\n  dup3\n    /* \"#utility.yul\":2634:2650   */\n  and\n    /* \"#utility.yul\":2623:2650   */\n  swap1\n  pop\n    /* \"#utility.yul\":2570:2656   */\n  swap2\n  swap1\n  pop\n  jump\t// out\n    /* \"#utility.yul\":2662:2780   */\ntag_38:\n    /* \"#utility.yul\":2733:2755   */\n  tag_96\n    /* \"#utility.yul\":2749:2754   */\n  dup2\n    /* \"#utility.yul\":2733:2755   */\n  tag_37\n  jump\t// in\ntag_96:\n    /* \"#utility.yul\":2726:2731   */\n  dup2\n    /* \"#utility.yul\":2723:2756   */\n  eq\n    /* \"#utility.yul\":2713:2774   */\n  tag_97\n  jumpi\n    /* \"#utility.yul\":2770:2771   */\n  0x00\n    /* \"#utility.yul\":2767:2768   */\n  dup1\n    /* \"#utility.yul\":2760:2772   */\n  revert\n    /* \"#utility.yul\":2713:2774   */\ntag_97:\n    /* \"#utility.yul\":2662:2780   */\n  pop\n  jump\t// out\n    /* \"#utility.yul\":2786:2925   */\ntag_39:\n    /* \"#utility.yul\":2841:2846   */\n  0x00\n    /* \"#utility.yul\":2872:2878   */\n  dup2\n    /* \"#utility.yul\":2866:2879   */\n  mload\n    /* \"#utility.yul\":2857:2879   */\n  swap1\n  pop\n    /* \"#utility.yul\":2888:2919   */\n  tag_99\n    /* \"#utility.yul\":2913:2918   */\n  dup2\n    /* \"#utility.yul\":2888:2919   */\n  tag_38\n  jump\t// in\ntag_99:\n    /* \"#utility.yul\":2786:2925   */\n  swap3\n  swap2\n  pop\n  pop\n  jump\t// out\n    /* \"#utility.yul\":2931:3936   */\ntag_3:\n    /* \"#utility.yul\":3037:3043   */\n  0x00\n    /* \"#utility.yul\":3045:3051   */\n  dup1\n    /* \"#utility.yul\":3053:3059   */\n  0x00\n    /* \"#utility.yul\":3102:3104   */\n  0x60\n    /* \"#utility.yul\":3090:3099   */\n  dup5\n    /* \"#utility.yul\":3081:3088   */\n  dup7\n    /* \"#utility.yul\":3077:3100   */\n  sub\n    /* \"#utility.yul\":3073:3105   */\n  slt\n    /* \"#utility.yul\":3070:3189   */\n  iszero\n  tag_101\n  jumpi\n    /* \"#utility.yul\":3108:3187   */\n  tag_102\n  tag_25\n  jump\t// in\ntag_102:\n    /* \"#utility.yul\":3070:3189   */\ntag_101:\n    /* \"#utility.yul\":3249:3250   */\n  0x00\n    /* \"#utility.yul\":3238:3247   */\n  dup5\n    /* \"#utility.yul\":3234:3251   */\n  add\n    /* \"#utility.yul\":3228:3252   */\n  mload\n    /* \"#utility.yul\":3279:3297   */\n  0xffffffffffffffff\n    /* \"#utility.yul\":3271:3277   */\n  dup2\n    /* \"#utility.yul\":3268:3298   */\n  gt\n    /* \"#utility.yul\":3265:3382   */\n  iszero\n  tag_103\n  jumpi\n    /* \"#utility.yul\":3301:3380   */\n  tag_104\n  tag_26\n  jump\t// in\ntag_104:\n    /* \"#utility.yul\":3265:3382   */\ntag_103:\n    /* \"#utility.yul\":3406:3480   */\n  tag_105\n    /* \"#utility.yul\":3472:3479   */\n  dup7\n    /* \"#utility.yul\":3463:3469   */\n  dup3\n    /* \"#utility.yul\":3452:3461   */\n  dup8\n    /* \"#utility.yul\":3448:3470   */\n  add\n    /* \"#utility.yul\":3406:3480   */\n  tag_36\n  jump\t// in\ntag_105:\n    /* \"#utility.yul\":3396:3480   */\n  swap4\n  pop\n    /* \"#utility.yul\":3199:3490   */\n  pop\n    /* \"#utility.yul\":3550:3552   */\n  0x20\n    /* \"#utility.yul\":3539:3548   */\n  dup5\n    /* \"#utility.yul\":3535:3553   */\n  add\n    /* \"#utility.yul\":3529:3554   */\n  mload\n    /* \"#utility.yul\":3581:3599   */\n  0xffffffffffffffff\n    /* \"#utility.yul\":3573:3579   */\n  dup2\n    /* \"#utility.yul\":3570:3600   */\n  gt\n    /* \"#utility.yul\":3567:3684   */\n  iszero\n  tag_106\n  jumpi\n    /* \"#utility.yul\":3603:3682   */\n  tag_107\n  tag_26\n  jump\t// in\ntag_107:\n    /* \"#utility.yul\":3567:3684   */\ntag_106:\n    /* \"#utility.yul\":3708:3782   */\n  tag_108\n    /* \"#utility.yul\":3774:3781   */\n  dup7\n    /* \"#utility.yul\":3765:3771   */\n  dup3\n    /* \"#utility.yul\":3754:3763   */\n  dup8\n    /* \"#utility.yul\":3750:3772   */\n  add\n    /* \"#utility.yul\":3708:3782   */\n  tag_36\n  jump\t// in\ntag_108:\n    /* \"#utility.yul\":3698:3782   */\n  swap3\n  pop\n    /* \"#utility.yul\":3500:3792   */\n  pop\n    /* \"#utility.yul\":3831:3833   */\n  0x40\n    /* \"#utility.yul\":3857:3919   */\n  tag_109\n    /* \"#utility.yul\":3911:3918   */\n  dup7\n    /* \"#utility.yul\":3902:3908   */\n  dup3\n    /* \"#utility.yul\":3891:3900   */\n  dup8\n    /* \"#utility.yul\":3887:3909   */\n  add\n    /* \"#utility.yul\":3857:3919   */\n  tag_39\n  jump\t// in\ntag_109:\n    /* \"#utility.yul\":3847:3919   */\n  swap2\n  pop\n    /* \"#utility.yul\":3802:3929   */\n  pop\n    /* \"#utility.yul\":2931:3936   */\n  swap3\n  pop\n  swap3\n  pop\n  swap3\n  jump\t// out\n    /* \"#utility.yul\":3942:4041   */\ntag_40:\n    /* \"#utility.yul\":3994:4000   */\n  0x00\n    /* \"#utility.yul\":4028:4033   */\n  dup2\n    /* \"#utility.yul\":4022:4034   */\n  mload\n    /* \"#utility.yul\":4012:4034   */\n  swap1\n  pop\n    /* \"#utility.yul\":3942:4041   */\n  swap2\n  swap1\n  pop\n  jump\t// out\n    /* \"#utility.yul\":4047:4227   */\ntag_41:\n    /* \"#utility.yul\":4095:4172   */\n  0x4e487b7100000000000000000000000000000000000000000000000000000000\n    /* \"#utility.yul\":4092:4093   */\n  0x00\n    /* \"#utility.yul\":4085:4173   */\n  mstore\n    /* \"#utility.yul\":4192:4196   */\n  0x22\n    /* \"#utility.yul\":4189:4190   */\n  0x04\n    /* \"#utility.yul\":4182:4197   */\n  mstore\n    /* \"#utility.yul\":4216:4220   */\n  0x24\n    /* \"#utility.yul\":4213:4214   */\n  0x00\n    /* \"#utility.yul\":4206:4221   */\n  revert\n    /* \"#utility.yul\":4233:4553   */\ntag_42:\n    /* \"#utility.yul\":4277:4283   */\n  0x00\n    /* \"#utility.yul\":4314:4315   */\n  0x02\n    /* \"#utility.yul\":4308:4312   */\n  dup3\n    /* \"#utility.yul\":4304:4316   */\n  div\n    /* \"#utility.yul\":4294:4316   */\n  swap1\n  pop\n    /* \"#utility.yul\":4361:4362   */\n  0x01\n    /* \"#utility.yul\":4355:4359   */\n  dup3\n    /* \"#utility.yul\":4351:4363   */\n  and\n    /* \"#utility.yul\":4382:4400   */\n  dup1\n    /* \"#utility.yul\":4372:4453   */\n  tag_113\n  jumpi\n    /* \"#utility.yul\":4438:4442   */\n  0x7f\n    /* \"#utility.yul\":4430:4436   */\n  dup3\n    /* \"#utility.yul\":4426:4443   */\n  and\n    /* \"#utility.yul\":4416:4443   */\n  swap2\n  pop\n    /* \"#utility.yul\":4372:4453   */\ntag_113:\n    /* \"#utility.yul\":4500:4502   */\n  0x20\n    /* \"#utility.yul\":4492:4498   */\n  dup3\n    /* \"#utility.yul\":4489:4503   */\n  lt\n    /* \"#utility.yul\":4469:4487   */\n  dup2\n    /* \"#utility.yul\":4466:4504   */\n  sub\n    /* \"#utility.yul\":4463:4547   */\n  tag_114\n  jumpi\n    /* \"#utility.yul\":4519:4537   */\n  tag_115\n  tag_41\n  jump\t// in\ntag_115:\n    /* \"#utility.yul\":4463:4547   */\ntag_114:\n    /* \"#utility.yul\":4284:4553   */\n  pop\n    /* \"#utility.yul\":4233:4553   */\n  swap2\n  swap1\n  pop\n  jump\t// out\n    /* \"#utility.yul\":4559:4700   */\ntag_43:\n    /* \"#utility.yul\":4608:4612   */\n  0x00\n    /* \"#utility.yul\":4631:4634   */\n  dup2\n    /* \"#utility.yul\":4623:4634   */\n  swap1\n  pop\n    /* \"#utility.yul\":4654:4657   */\n  dup2\n    /* \"#utility.yul\":4651:4652   */\n  0x00\n    /* \"#utility.yul\":4644:4658   */\n  mstore\n    /* \"#utility.yul\":4688:4692   */\n  0x20\n    /* \"#utility.yul\":4685:4686   */\n  0x00\n    /* \"#utility.yul\":4675:4693   */\n  keccak256\n    /* \"#utility.yul\":4667:4693   */\n  swap1\n  pop\n    /* \"#utility.yul\":4559:4700   */\n  swap2\n  swap1\n  pop\n  jump\t// out\n    /* \"#utility.yul\":4706:4799   */\ntag_44:\n    /* \"#utility.yul\":4743:4749   */\n  0x00\n    /* \"#utility.yul\":4790:4792   */\n  0x20\n    /* \"#utility.yul\":4785:4787   */\n  0x1f\n    /* \"#utility.yul\":4778:4783   */\n  dup4\n    /* \"#utility.yul\":4774:4788   */\n  add\n    /* \"#utility.yul\":4770:4793   */\n  div\n    /* \"#utility.yul\":4760:4793   */\n  swap1\n  pop\n    /* \"#utility.yul\":4706:4799   */\n  swap2\n  swap1\n  pop\n  jump\t// out\n    /* \"#utility.yul\":4805:4912   */\ntag_45:\n    /* \"#utility.yul\":4849:4857   */\n  0x00\n    /* \"#utility.yul\":4899:4904   */\n  dup3\n    /* \"#utility.yul\":4893:4897   */\n  dup3\n    /* \"#utility.yul\":4889:4905   */\n  shl\n    /* \"#utility.yul\":4868:4905   */\n  swap1\n  pop\n    /* \"#utility.yul\":4805:4912   */\n  swap3\n  swap2\n  pop\n  pop\n  jump\t// out\n    /* \"#utility.yul\":4918:5311   */\ntag_46:\n    /* \"#utility.yul\":4987:4993   */\n  0x00\n    /* \"#utility.yul\":5037:5038   */\n  0x08\n    /* \"#utility.yul\":5025:5035   */\n  dup4\n    /* \"#utility.yul\":5021:5039   */\n  mul\n    /* \"#utility.yul\":5060:5157   */\n  tag_120\n    /* \"#utility.yul\":5090:5156   */\n  0xffffffffffffffffffffffffffffffffffffffffffffffffffffffffffffffff\n    /* \"#utility.yul\":5079:5088   */\n  dup3\n    /* \"#utility.yul\":5060:5157   */\n  tag_45\n  jump\t// in\ntag_120:\n    /* \"#utility.yul\":5178:5217   */\n  tag_121\n    /* \"#utility.yul\":5208:5216   */\n  dup7\n    /* \"#utility.yul\":5197:5206   */\n  dup4\n    /* \"#utility.yul\":5178:5217   */\n  tag_45\n  jump\t// in\ntag_121:\n    /* \"#utility.yul\":5166:5217   */\n  swap6\n  pop\n    /* \"#utility.yul\":5250:5254   */\n  dup1\n    /* \"#utility.yul\":5246:5255   */\n  not\n    /* \"#utility.yul\":5239:5244   */\n  dup5\n    /* \"#utility.yul\":5235:5256   */\n  and\n    /* \"#utility.yul\":5226:5256   */\n  swap4\n  pop\n    /* \"#utility.yul\":5299:5303   */\n  dup1\n    /* \"#utility.yul\":5289:5297   */\n  dup7\n    /* \"#utility.yul\":5285:5304   */\n  and\n    /* \"#utility.yul\":5278:5283   */\n  dup5\n    /* \"#utility.yul\":5275:5305   */\n  or\n    /* \"#utility.yul\":5265:5305   */\n  swap3\n  pop\n    /* \"#utility.yul\":4994:5311   */\n  pop\n  pop\n    /* \"#utility.yul\":4918:5311   */\n  swap4\n  swap3\n  pop\n  pop\n  pop\n  jump\t// out\n    /* \"#utility.yul\":5317:5394   */\ntag_47:\n    /* \"#utility.yul\":5354:5361   */\n  0x00\n    /* \"#utility.yul\":5383:5388   */\n  dup2\n    /* \"#utility.yul\":5372:5388   */\n  swap1\n  pop\n    /* \"#utility.yul\":5317:5394   */\n  swap2\n  swap1\n  pop\n  jump\t// out\n    /* \"#utility.yul\":5400:5460   */\ntag_48:\n    /* \"#utility.yul\":5428:5431   */\n  0x00\n    /* \"#utility.yul\":5449:5454   */\n  dup2\n    /* \"#utility.yul\":5442:5454   */\n  swap1\n  pop\n    /* \"#utility.yul\":5400:5460   */\n  swap2\n  swap1\n  pop\n  jump\t// out\n    /* \"#utility.yul\":5466:5608   */\ntag_49:\n    /* \"#utility.yul\":5516:5525   */\n  0x00\n    /* \"#utility.yul\":5549:5602   */\n  tag_125\n    /* \"#utility.yul\":5567:5601   */\n  tag_126\n    /* \"#utility.yul\":5576:5600   */\n  tag_127\n    /* \"#utility.yul\":5594:5599   */\n  dup5\n    /* \"#utility.yul\":5576:5600   */\n  tag_47\n  jump\t// in\ntag_127:\n    /* \"#utility.yul\":5567:5601   */\n  tag_48\n  jump\t// in\ntag_126:\n    /* \"#utility.yul\":5549:5602   */\n  tag_47\n  jump\t// in\ntag_125:\n    /* \"#utility.yul\":5536:5602   */\n  swap1\n  pop\n    /* \"#utility.yul\":5466:5608   */\n  swap2\n  swap1\n  pop\n  jump\t// out\n    /* \"#utility.yul\":5614:5689   */\ntag_50:\n    /* \"#utility.yul\":5657:5660   */\n  0x00\n    /* \"#utility.yul\":5678:5683   */\n  dup2\n    /* \"#utility.yul\":5671:5683   */\n  swap1\n  pop\n    /* \"#utility.yul\":5614:5689   */\n  swap2\n  swap1\n  pop\n  jump\t// out\n    /* \"#utility.yul\":5695:5964   */\ntag_51:\n    /* \"#utility.yul\":5805:5844   */\n  tag_130\n    /* \"#utility.yul\":5836:5843   */\n  dup4\n    /* \"#utility.yul\":5805:5844   */\n  tag_49\n  jump\t// in\ntag_130:\n    /* \"#utility.yul\":5866:5957   */\n  tag_131\n    /* \"#utility.yul\":5915:5956   */\n  tag_132\n    /* \"#utility.yul\":5939:5955   */\n  dup3\n    /* \"#utility.yul\":5915:5956   */\n  tag_50\n  jump\t// in\ntag_132:\n    /* \"#utility.yul\":5907:5913   */\n  dup5\n    /* \"#utility.yul\":5900:5904   */\n  dup5\n    /* \"#utility.yul\":5894:5905   */\n  sload\n    /* \"#utility.yul\":5866:5957   */\n  tag_46\n  jump\t// in\ntag_131:\n    /* \"#utility.yul\":5860:5864   */\n  dup3\n    /* \"#utility.yul\":5853:5958   */\n  sstore\n    /* \"#utility.yul\":5771:5964   */\n  pop\n    /* \"#utility.yul\":5695:5964   */\n  pop\n  pop\n  pop\n  jump\t// out\n    /* \"#utility.yul\":5970:6043   */\ntag_52:\n    /* \"#utility.yul\":6015:6018   */\n  0x00\n    /* \"#utility.yul\":5970:6043   */\n  swap1\n  jump\t// out\n    /* \"#utility.yul\":6049:6238   */\ntag_53:\n    /* \"#utility.yul\":6126:6158   */\n  tag_135\n  tag_52\n  jump\t// in\ntag_135:\n    /* \"#utility.yul\":6167:6232   */\n  tag_136\n    /* \"#utility.yul\":6225:6231   */\n  dup2\n    /* \"#utility.yul\":6217:6223   */\n  dup5\n    /* \"#utility.yul\":6211:6215   */\n  dup5\n    /* \"#utility.yul\":6167:6232   */\n  tag_51\n  jump\t// in\ntag_136:\n    /* \"#utility.yul\":6102:6238   */\n  pop\n    /* \"#utility.yul\":6049:6238   */\n  pop\n  pop\n  jump\t// out\n    /* \"#utility.yul\":6244:6430   */\ntag_54:\n    /* \"#utility.yul\":6304:6424   */\ntag_138:\n    /* \"#utility.yul\":6321:6324   */\n  dup2\n    /* \"#utility.yul\":6314:6319   */\n  dup2\n    /* \"#utility.yul\":6311:6325   */\n  lt\n    /* \"#utility.yul\":6304:6424   */\n  iszero\n  tag_140\n  jumpi\n    /* \"#utility.yul\":6375:6414   */\n  tag_141\n    /* \"#utility.yul\":6412:6413   */\n  0x00\n    /* \"#utility.yul\":6405:6410   */\n  dup3\n    /* \"#utility.yul\":6375:6414   */\n  tag_53\n  jump\t// in\ntag_141:\n    /* \"#utility.yul\":6348:6349   */\n  0x01\n    /* \"#utility.yul\":6341:6346   */\n  dup2\n    /* \"#utility.yul\":6337:6350   */\n  add\n    /* \"#utility.yul\":6328:6350   */\n  swap1\n  pop\n    /* \"#utility.yul\":6304:6424   */\n  jump(tag_138)\ntag_140:\n    /* \"#utility.yul\":6244:6430   */\n  pop\n  pop\n  jump\t// out\n    /* \"#utility.yul\":6436:6979   */\ntag_55:\n    /* \"#utility.yul\":6537:6539   */\n  0x1f\n    /* \"#utility.yul\":6532:6535   */\n  dup3\n    /* \"#utility.yul\":6529:6540   */\n  gt\n    /* \"#utility.yul\":6526:6972   */\n  iszero\n  tag_143\n  jumpi\n    /* \"#utility.yul\":6571:6609   */\n  tag_144\n    /* \"#utility.yul\":6603:6608   */\n  dup2\n    /* \"#utility.yul\":6571:6609   */\n  tag_43\n  jump\t// in\ntag_144:\n    /* \"#utility.yul\":6655:6684   */\n  tag_145\n    /* \"#utility.yul\":6673:6683   */\n  dup5\n    /* \"#utility.yul\":6655:6684   */\n  tag_44\n  jump\t// in\ntag_145:\n    /* \"#utility.yul\":6645:6653   */\n  dup2\n    /* \"#utility.yul\":6641:6685   */\n  add\n    /* \"#utility.yul\":6838:6840   */\n  0x20\n    /* \"#utility.yul\":6826:6836   */\n  dup6\n    /* \"#utility.yul\":6823:6841   */\n  lt\n    /* \"#utility.yul\":6820:6869   */\n  iszero\n  tag_146\n  jumpi\n    /* \"#utility.yul\":6859:6867   */\n  dup2\n    /* \"#utility.yul\":6844:6867   */\n  swap1\n  pop\n    /* \"#utility.yul\":6820:6869   */\ntag_146:\n    /* \"#utility.yul\":6882:6962   */\n  tag_147\n    /* \"#utility.yul\":6938:6960   */\n  tag_148\n    /* \"#utility.yul\":6956:6959   */\n  dup6\n    /* \"#utility.yul\":6938:6960   */\n  tag_44\n  jump\t// in\ntag_148:\n    /* \"#utility.yul\":6928:6936   */\n  dup4\n    /* \"#utility.yul\":6924:6961   */\n  add\n    /* \"#utility.yul\":6911:6922   */\n  dup3\n    /* \"#utility.yul\":6882:6962   */\n  tag_54\n  jump\t// in\ntag_147:\n    /* \"#utility.yul\":6541:6972   */\n  pop\n  pop\n    /* \"#utility.yul\":6526:6972   */\ntag_143:\n    /* \"#utility.yul\":6436:6979   */\n  pop\n  pop\n  pop\n  jump\t// out\n    /* \"#utility.yul\":6985:7102   */\ntag_56:\n    /* \"#utility.yul\":7039:7047   */\n  0x00\n    /* \"#utility.yul\":7089:7094   */\n  dup3\n    /* \"#utility.yul\":7083:7087   */\n  dup3\n    /* \"#utility.yul\":7079:7095   */\n  shr\n    /* \"#utility.yul\":7058:7095   */\n  swap1\n  pop\n    /* \"#utility.yul\":6985:7102   */\n  swap3\n  swap2\n  pop\n  pop\n  jump\t// out\n    /* \"#utility.yul\":7108:7277   */\ntag_57:\n    /* \"#utility.yul\":7152:7158   */\n  0x00\n    /* \"#utility.yul\":7185:7236   */\n  tag_151\n    /* \"#utility.yul\":7233:7234   */\n  0x00\n    /* \"#utility.yul\":7229:7235   */\n  not\n    /* \"#utility.yul\":7221:7226   */\n  dup5\n    /* \"#utility.yul\":7218:7219   */\n  0x08\n    /* \"#utility.yul\":7214:7227   */\n  mul\n    /* \"#utility.yul\":7185:7236   */\n  tag_56\n  jump\t// in\ntag_151:\n    /* \"#utility.yul\":7181:7237   */\n  not\n    /* \"#utility.yul\":7266:7270   */\n  dup1\n    /* \"#utility.yul\":7260:7264   */\n  dup4\n    /* \"#utility.yul\":7256:7271   */\n  and\n    /* \"#utility.yul\":7246:7271   */\n  swap2\n  pop\n    /* \"#utility.yul\":7159:7277   */\n  pop\n    /* \"#utility.yul\":7108:7277   */\n  swap3\n  swap2\n  pop\n  pop\n  jump\t// out\n    /* \"#utility.yul\":7282:7577   */\ntag_58:\n    /* \"#utility.yul\":7358:7362   */\n  0x00\n    /* \"#utility.yul\":7504:7533   */\n  tag_153\n    /* \"#utility.yul\":7529:7532   */\n  dup4\n    /* \"#utility.yul\":7523:7527   */\n  dup4\n    /* \"#utility.yul\":7504:7533   */\n  tag_57\n  jump\t// in\ntag_153:\n    /* \"#utility.yul\":7496:7533   */\n  swap2\n  pop\n    /* \"#utility.yul\":7566:7569   */\n  dup3\n    /* \"#utility.yul\":7563:7564   */\n  0x02\n    /* \"#utility.yul\":7559:7570   */\n  mul\n    /* \"#utility.yul\":7553:7557   */\n  dup3\n    /* \"#utility.yul\":7550:7571   */\n  or\n    /* \"#utility.yul\":7542:7571   */\n  swap1\n  pop\n    /* \"#utility.yul\":7282:7577   */\n  swap3\n  swap2\n  pop\n  pop\n  jump\t// out\n    /* \"#utility.yul\":7582:8977   */\ntag_8:\n    /* \"#utility.yul\":7699:7736   */\n  tag_155\n    /* \"#utility.yul\":7732:7735   */\n  dup3\n    /* \"#utility.yul\":7699:7736   */\n  tag_40\n  jump\t// in\ntag_155:\n    /* \"#utility.yul\":7801:7819   */\n  0xffffffffffffffff\n    /* \"#utility.yul\":7793:7799   */\n  dup2\n    /* \"#utility.yul\":7790:7820   */\n  gt\n    /* \"#utility.yul\":7787:7843   */\n  iszero\n  tag_156\n  jumpi\n    /* \"#utility.yul\":7823:7841   */\n  tag_157\n  tag_30\n  jump\t// in\ntag_157:\n    /* \"#utility.yul\":7787:7843   */\ntag_156:\n    /* \"#utility.yul\":7867:7905   */\n  tag_158\n    /* \"#utility.yul\":7899:7903   */\n  dup3\n    /* \"#utility.yul\":7893:7904   */\n  sload\n    /* \"#utility.yul\":7867:7905   */\n  tag_42\n  jump\t// in\ntag_158:\n    /* \"#utility.yul\":7952:8019   */\n  tag_159\n    /* \"#utility.yul\":8012:8018   */\n  dup3\n    /* \"#utility.yul\":8004:8010   */\n  dup3\n    /* \"#utility.yul\":7998:8002   */\n  dup6\n    /* \"#utility.yul\":7952:8019   */\n  tag_55\n  jump\t// in\ntag_159:\n    /* \"#utility.yul\":8046:8047   */\n  0x00\n    /* \"#utility.yul\":8070:8074   */\n  0x20\n    /* \"#utility.yul\":8057:8074   */\n  swap1\n  pop\n    /* \"#utility.yul\":8102:8104   */\n  0x1f\n    /* \"#utility.yul\":8094:8100   */\n  dup4\n    /* \"#utility.yul\":8091:8105   */\n  gt\n    /* \"#utility.yul\":8119:8120   */\n  0x01\n    /* \"#utility.yul\":8114:8732   */\n  dup2\n  eq\n  tag_161\n  jumpi\n    /* \"#utility.yul\":8776:8777   */\n  0x00\n    /* \"#utility.yul\":8793:8799   */\n  dup5\n    /* \"#utility.yul\":8790:8867   */\n  iszero\n  tag_162\n  jumpi\n    /* \"#utility.yul\":8842:8851   */\n  dup3\n    /* \"#utility.yul\":8837:8840   */\n  dup8\n    /* \"#utility.yul\":8833:8852   */\n  add\n    /* \"#utility.yul\":8827:8853   */\n  mload\n    /* \"#utility.yul\":8818:8853   */\n  swap1\n  pop\n    /* \"#utility.yul\":8790:8867   */\ntag_162:\n    /* \"#utility.yul\":8893:8960   */\n  tag_163\n    /* \"#utility.yul\":8953:8959   */\n  dup6\n    /* \"#utility.yul\":8946:8951   */\n  dup3\n    /* \"#utility.yul\":8893:8960   */\n  tag_58\n  jump\t// in\ntag_163:\n    /* \"#utility.yul\":8887:8891   */\n  dup7\n    /* \"#utility.yul\":8880:8961   */\n  sstore\n    /* \"#utility.yul\":8749:8971   */\n  pop\n    /* \"#utility.yul\":8084:8971   */\n  jump(tag_160)\n    /* \"#utility.yul\":8114:8732   */\ntag_161:\n    /* \"#utility.yul\":8166:8170   */\n  0x1f\n    /* \"#utility.yul\":8162:8171   */\n  not\n    /* \"#utility.yul\":8154:8160   */\n  dup5\n    /* \"#utility.yul\":8150:8172   */\n  and\n    /* \"#utility.yul\":8200:8237   */\n  tag_164\n    /* \"#utility.yul\":8232:8236   */\n  dup7\n    /* \"#utility.yul\":8200:8237   */\n  tag_43\n  jump\t// in\ntag_164:\n    /* \"#utility.yul\":8259:8260   */\n  0x00\n    /* \"#utility.yul\":8273:8481   */\ntag_165:\n    /* \"#utility.yul\":8287:8294   */\n  dup3\n    /* \"#utility.yul\":8284:8285   */\n  dup2\n    /* \"#utility.yul\":8281:8295   */\n  lt\n    /* \"#utility.yul\":8273:8481   */\n  iszero\n  tag_167\n  jumpi\n    /* \"#utility.yul\":8366:8375   */\n  dup5\n    /* \"#utility.yul\":8361:8364   */\n  dup10\n    /* \"#utility.yul\":8357:8376   */\n  add\n    /* \"#utility.yul\":8351:8377   */\n  mload\n    /* \"#utility.yul\":8343:8349   */\n  dup3\n    /* \"#utility.yul\":8336:8378   */\n  sstore\n    /* \"#utility.yul\":8417:8418   */\n  0x01\n    /* \"#utility.yul\":8409:8415   */\n  dup3\n    /* \"#utility.yul\":8405:8419   */\n  add\n    /* \"#utility.yul\":8395:8419   */\n  swap2\n  pop\n    /* \"#utility.yul\":8464:8466   */\n  0x20\n    /* \"#utility.yul\":8453:8462   */\n  dup6\n    /* \"#utility.yul\":8449:8467   */\n  add\n    /* \"#utility.yul\":8436:8467   */\n  swap5\n  pop\n    /* \"#utility.yul\":8310:8314   */\n  0x20\n    /* \"#utility.yul\":8307:8308   */\n  dup2\n    /* \"#utility.yul\":8303:8315   */\n  add\n    /* \"#utility.yul\":8298:8315   */\n  swap1\n  pop\n    /* \"#utility.yul\":8273:8481   */\n  jump(tag_165)\ntag_167:\n    /* \"#utility.yul\":8509:8515   */\n  dup7\n    /* \"#utility.yul\":8500:8507   */\n  dup4\n    /* \"#utility.yul\":8497:8516   */\n  lt\n    /* \"#utility.yul\":8494:8673   */\n  iszero\n  tag_168\n  jumpi\n    /* \"#utility.yul\":8567:8576   */\n  dup5\n    /* \"#utility.yul\":8562:8565   */\n  dup10\n    /* \"#utility.yul\":8558:8577   */\n  add\n    /* \"#utility.yul\":8552:8578   */\n  mload\n    /* \"#utility.yul\":8610:8658   */\n  tag_169\n    /* \"#utility.yul\":8652:8656   */\n  0x1f\n    /* \"#utility.yul\":8644:8650   */\n  dup10\n    /* \"#utility.yul\":8640:8657   */\n  and\n    /* \"#utility.yul\":8629:8638   */\n  dup3\n    /* \"#utility.yul\":8610:8658   */\n  tag_57\n  jump\t// in\ntag_169:\n    /* \"#utility.yul\":8602:8608   */\n  dup4\n    /* \"#utility.yul\":8595:8659   */\n  sstore\n    /* \"#utility.yul\":8517:8673   */\n  pop\n    /* \"#utility.yul\":8494:8673   */\ntag_168:\n    /* \"#utility.yul\":8719:8720   */\n  0x01\n    /* \"#utility.yul\":8715:8716   */\n  0x02\n    /* \"#utility.yul\":8707:8713   */\n  dup9\n    /* \"#utility.yul\":8703:8717   */\n  mul\n    /* \"#utility.yul\":8699:8721   */\n  add\n    /* \"#utility.yul\":8693:8697   */\n  dup9\n    /* \"#utility.yul\":8686:8722   */\n  sstore\n    /* \"#utility.yul\":8121:8732   */\n  pop\n  pop\n  pop\n    /* \"#utility.yul\":8084:8971   */\ntag_160:\n  pop\n    /* \"#utility.yul\":7674:8977   */\n  pop\n  pop\n  pop\n    /* \"#utility.yul\":7582:8977   */\n  pop\n  pop\n  jump\t// out\n    /* \"#utility.yul\":8983:9163   */\ntag_59:\n    /* \"#utility.yul\":9031:9108   */\n  0x4e487b7100000000000000000000000000000000000000000000000000000000\n    /* \"#utility.yul\":9028:9029   */\n  0x00\n    /* \"#utility.yul\":9021:9109   */\n  mstore\n    /* \"#utility.yul\":9128:9132   */\n  0x11\n    /* \"#utility.yul\":9125:9126   */\n  0x04\n    /* \"#utility.yul\":9118:9133   */\n  mstore\n    /* \"#utility.yul\":9152:9156   */\n  0x24\n    /* \"#utility.yul\":9149:9150   */\n  0x00\n    /* \"#utility.yul\":9142:9157   */\n  revert\n    /* \"#utility.yul\":9169:9271   */\ntag_60:\n    /* \"#utility.yul\":9211:9219   */\n  0x00\n    /* \"#utility.yul\":9258:9263   */\n  dup2\n    /* \"#utility.yul\":9255:9256   */\n  0x01\n    /* \"#utility.yul\":9251:9264   */\n  shr\n    /* \"#utility.yul\":9230:9264   */\n  swap1\n  pop\n    /* \"#utility.yul\":9169:9271   */\n  swap2\n  swap1\n  pop\n  jump\t// out\n    /* \"#utility.yul\":9277:10125   */\ntag_61:\n    /* \"#utility.yul\":9338:9343   */\n  0x00\n    /* \"#utility.yul\":9345:9349   */\n  dup1\n    /* \"#utility.yul\":9369:9375   */\n  dup3\n    /* \"#utility.yul\":9360:9375   */\n  swap2\n  pop\n    /* \"#utility.yul\":9393:9398   */\n  dup4\n    /* \"#utility.yul\":9384:9398   */\n  swap1\n  pop\n    /* \"#utility.yul\":9407:10119   */\ntag_173:\n    /* \"#utility.yul\":9428:9429   */\n  0x01\n    /* \"#utility.yul\":9418:9426   */\n  dup6\n    /* \"#utility.yul\":9415:9430   */\n  gt\n    /* \"#utility.yul\":9407:10119   */\n  iszero\n  tag_175\n  jumpi\n    /* \"#utility.yul\":9523:9527   */\n  dup1\n    /* \"#utility.yul\":9518:9521   */\n  dup7\n    /* \"#utility.yul\":9514:9528   */\n  div\n    /* \"#utility.yul\":9508:9512   */\n  dup2\n    /* \"#utility.yul\":9505:9529   */\n  gt\n    /* \"#utility.yul\":9502:9552   */\n  iszero\n  tag_176\n  jumpi\n    /* \"#utility.yul\":9532:9550   */\n  tag_177\n  tag_59\n  jump\t// in\ntag_177:\n    /* \"#utility.yul\":9502:9552   */\ntag_176:\n    /* \"#utility.yul\":9582:9583   */\n  0x01\n    /* \"#utility.yul\":9572:9580   */\n  dup6\n    /* \"#utility.yul\":9568:9584   */\n  and\n    /* \"#utility.yul\":9565:10016   */\n  iszero\n  tag_178\n  jumpi\n    /* \"#utility.yul\":9997:10001   */\n  dup1\n    /* \"#utility.yul\":9990:9995   */\n  dup3\n    /* \"#utility.yul\":9986:10002   */\n  mul\n    /* \"#utility.yul\":9977:10002   */\n  swap2\n  pop\n    /* \"#utility.yul\":9565:10016   */\ntag_178:\n    /* \"#utility.yul\":10047:10051   */\n  dup1\n    /* \"#utility.yul\":10041:10045   */\n  dup2\n    /* \"#utility.yul\":10037:10052   */\n  mul\n    /* \"#utility.yul\":10029:10052   */\n  swap1\n  pop\n    /* \"#utility.yul\":10077:10109   */\n  tag_179\n    /* \"#utility.yul\":10100:10108   */\n  dup6\n    /* \"#utility.yul\":10077:10109   */\n  tag_60\n  jump\t// in\ntag_179:\n    /* \"#utility.yul\":10065:10109   */\n  swap5\n  pop\n    /* \"#utility.yul\":9407:10119   */\n  jump(tag_173)\ntag_175:\n    /* \"#utility.yul\":9277:10125   */\n  swap5\n  pop\n  swap5\n  swap3\n  pop\n  pop\n  pop\n  jump\t// out\n    /* \"#utility.yul\":10131:11204   */\ntag_62:\n    /* \"#utility.yul\":10185:10190   */\n  0x00\n    /* \"#utility.yul\":10376:10384   */\n  dup3\n    /* \"#utility.yul\":10366:10406   */\n  tag_181\n  jumpi\n    /* \"#utility.yul\":10397:10398   */\n  0x01\n    /* \"#utility.yul\":10388:10398   */\n  swap1\n  pop\n    /* \"#utility.yul\":10399:10404   */\n  jump(tag_180)\n    /* \"#utility.yul\":10366:10406   */\ntag_181:\n    /* \"#utility.yul\":10425:10429   */\n  dup2\n    /* \"#utility.yul\":10415:10451   */\n  tag_182\n  jumpi\n    /* \"#utility.yul\":10442:10443   */\n  0x00\n    /* \"#utility.yul\":10433:10443   */\n  swap1\n  pop\n    /* \"#utility.yul\":10444:10449   */\n  jump(tag_180)\n    /* \"#utility.yul\":10415:10451   */\ntag_182:\n    /* \"#utility.yul\":10511:10515   */\n  dup2\n    /* \"#utility.yul\":10559:10560   */\n  0x01\n    /* \"#utility.yul\":10554:10581   */\n  dup2\n  eq\n  tag_184\n  jumpi\n    /* \"#utility.yul\":10595:10596   */\n  0x02\n    /* \"#utility.yul\":10590:10781   */\n  dup2\n  eq\n  tag_185\n  jumpi\n    /* \"#utility.yul\":10504:10781   */\n  jump(tag_183)\n    /* \"#utility.yul\":10554:10581   */\ntag_184:\n    /* \"#utility.yul\":10572:10573   */\n  0x01\n    /* \"#utility.yul\":10563:10573   */\n  swap2\n  pop\n    /* \"#utility.yul\":10574:10579   */\n  pop\n  jump(tag_180)\n    /* \"#utility.yul\":10590:10781   */\ntag_185:\n    /* \"#utility.yul\":10635:10638   */\n  0xff\n    /* \"#utility.yul\":10625:10633   */\n  dup5\n    /* \"#utility.yul\":10622:10639   */\n  gt\n    /* \"#utility.yul\":10619:10662   */\n  iszero\n  tag_186\n  jumpi\n    /* \"#utility.yul\":10642:10660   */\n  tag_187\n  tag_59\n  jump\t// in\ntag_187:\n    /* \"#utility.yul\":10619:10662   */\ntag_186:\n    /* \"#utility.yul\":10691:10699   */\n  dup4\n    /* \"#utility.yul\":10688:10689   */\n  0x02\n    /* \"#utility.yul\":10684:10700   */\n  exp\n    /* \"#utility.yul\":10675:10700   */\n  swap2\n  pop\n    /* \"#utility.yul\":10726:10729   */\n  dup5\n    /* \"#utility.yul\":10719:10724   */\n  dup3\n    /* \"#utility.yul\":10716:10730   */\n  gt\n    /* \"#utility.yul\":10713:10753   */\n  iszero\n  tag_188\n  jumpi\n    /* \"#utility.yul\":10733:10751   */\n  tag_189\n  tag_59\n  jump\t// in\ntag_189:\n    /* \"#utility.yul\":10713:10753   */\ntag_188:\n    /* \"#utility.yul\":10766:10771   */\n  pop\n  jump(tag_180)\n    /* \"#utility.yul\":10504:10781   */\ntag_183:\n  pop\n    /* \"#utility.yul\":10890:10892   */\n  0x20\n    /* \"#utility.yul\":10880:10888   */\n  dup4\n    /* \"#utility.yul\":10877:10893   */\n  lt\n    /* \"#utility.yul\":10871:10874   */\n  0x0133\n    /* \"#utility.yul\":10865:10869   */\n  dup4\n    /* \"#utility.yul\":10862:10875   */\n  lt\n    /* \"#utility.yul\":10858:10894   */\n  and\n    /* \"#utility.yul\":10840:10842   */\n  0x4e\n    /* \"#utility.yul\":10830:10838   */\n  dup5\n    /* \"#utility.yul\":10827:10843   */\n  lt\n    /* \"#utility.yul\":10822:10824   */\n  0x0b\n    /* \"#utility.yul\":10816:10820   */\n  dup5\n    /* \"#utility.yul\":10813:10825   */\n  lt\n    /* \"#utility.yul\":10809:10844   */\n  and\n    /* \"#utility.yul\":10793:10904   */\n  or\n    /* \"#utility.yul\":10790:11036   */\n  iszero\n  tag_190\n  jumpi\n    /* \"#utility.yul\":10946:10954   */\n  dup3\n    /* \"#utility.yul\":10940:10944   */\n  dup3\n    /* \"#utility.yul\":10936:10955   */\n  exp\n    /* \"#utility.yul\":10927:10955   */\n  swap1\n  pop\n    /* \"#utility.yul\":10981:10984   */\n  dup4\n    /* \"#utility.yul\":10974:10979   */\n  dup2\n    /* \"#utility.yul\":10971:10985   */\n  gt\n    /* \"#utility.yul\":10968:11008   */\n  iszero\n  tag_191\n  jumpi\n    /* \"#utility.yul\":10988:11006   */\n  tag_192\n  tag_59\n  jump\t// in\ntag_192:\n    /* \"#utility.yul\":10968:11008   */\ntag_191:\n    /* \"#utility.yul\":11021:11026   */\n  jump(tag_180)\n    /* \"#utility.yul\":10790:11036   */\ntag_190:\n    /* \"#utility.yul\":11061:11103   */\n  tag_193\n    /* \"#utility.yul\":11099:11102   */\n  dup5\n    /* \"#utility.yul\":11089:11097   */\n  dup5\n    /* \"#utility.yul\":11083:11087   */\n  dup5\n    /* \"#utility.yul\":11080:11081   */\n  0x01\n    /* \"#utility.yul\":11061:11103   */\n  tag_61\n  jump\t// in\ntag_193:\n    /* \"#utility.yul\":11046:11103   */\n  swap3\n  pop\n  swap1\n  pop\n    /* \"#utility.yul\":11135:11139   */\n  dup2\n    /* \"#utility.yul\":11130:11133   */\n  dup5\n    /* \"#utility.yul\":11126:11140   */\n  div\n    /* \"#utility.yul\":11119:11124   */\n  dup2\n    /* \"#utility.yul\":11116:11141   */\n  gt\n    /* \"#utility.yul\":11113:11164   */\n  iszero\n  tag_194\n  jumpi\n    /* \"#utility.yul\":11144:11162   */\n  tag_195\n  tag_59\n  jump\t// in\ntag_195:\n    /* \"#utility.yul\":11113:11164   */\ntag_194:\n    /* \"#utility.yul\":11193:11197   */\n  dup2\n    /* \"#utility.yul\":11186:11191   */\n  dup2\n    /* \"#utility.yul\":11182:11198   */\n  mul\n    /* \"#utility.yul\":11173:11198   */\n  swap1\n  pop\n    /* \"#utility.yul\":10131:11204   */\ntag_180:\n  swap4\n  swap3\n  pop\n  pop\n  pop\n  jump\t// out\n    /* \"#utility.yul\":11210:11491   */\ntag_13:\n    /* \"#utility.yul\":11268:11273   */\n  0x00\n    /* \"#utility.yul\":11292:11315   */\n  tag_197\n    /* \"#utility.yul\":11310:11314   */\n  dup3\n    /* \"#utility.yul\":11292:11315   */\n  tag_47\n  jump\t// in\ntag_197:\n    /* \"#utility.yul\":11284:11315   */\n  swap2\n  pop\n    /* \"#utility.yul\":11336:11361   */\n  tag_198\n    /* \"#utility.yul\":11352:11360   */\n  dup4\n    /* \"#utility.yul\":11336:11361   */\n  tag_37\n  jump\t// in\ntag_198:\n    /* \"#utility.yul\":11324:11361   */\n  swap3\n  pop\n    /* \"#utility.yul\":11380:11484   */\n  tag_199\n    /* \"#utility.yul\":11417:11483   */\n  0xffffffffffffffffffffffffffffffffffffffffffffffffffffffffffffffff\n    /* \"#utility.yul\":11407:11415   */\n  dup5\n    /* \"#utility.yul\":11401:11405   */\n  dup5\n    /* \"#utility.yul\":11380:11484   */\n  tag_62\n  jump\t// in\ntag_199:\n    /* \"#utility.yul\":11371:11484   */\n  swap1\n  pop\n    /* \"#utility.yul\":11210:11491   */\n  swap3\n  swap2\n  pop\n  pop\n  jump\t// out\n    /* \"#utility.yul\":11497:11907   */\ntag_15:\n    /* \"#utility.yul\":11537:11544   */\n  0x00\n    /* \"#utility.yul\":11560:11580   */\n  tag_201\n    /* \"#utility.yul\":11578:11579   */\n  dup3\n    /* \"#utility.yul\":11560:11580   */\n  tag_47\n  jump\t// in\ntag_201:\n    /* \"#utility.yul\":11555:11580   */\n  swap2\n  pop\n    /* \"#utility.yul\":11594:11614   */\n  tag_202\n    /* \"#utility.yul\":11612:11613   */\n  dup4\n    /* \"#utility.yul\":11594:11614   */\n  tag_47\n  jump\t// in\ntag_202:\n    /* \"#utility.yul\":11589:11614   */\n  swap3\n  pop\n    /* \"#utility.yul\":11649:11650   */\n  dup3\n    /* \"#utility.yul\":11646:11647   */\n  dup3\n    /* \"#utility.yul\":11642:11651   */\n  mul\n    /* \"#utility.yul\":11671:11701   */\n  tag_203\n    /* \"#utility.yul\":11689:11700   */\n  dup2\n    /* \"#utility.yul\":11671:11701   */\n  tag_47\n  jump\t// in\ntag_203:\n    /* \"#utility.yul\":11660:11701   */\n  swap2\n  pop\n    /* \"#utility.yul\":11850:11851   */\n  dup3\n    /* \"#utility.yul\":11841:11848   */\n  dup3\n    /* \"#utility.yul\":11837:11852   */\n  div\n    /* \"#utility.yul\":11834:11835   */\n  dup5\n    /* \"#utility.yul\":11831:11853   */\n  eq\n    /* \"#utility.yul\":11811:11812   */\n  dup4\n    /* \"#utility.yul\":11804:11813   */\n  iszero\n    /* \"#utility.yul\":11784:11867   */\n  or\n    /* \"#utility.yul\":11761:11900   */\n  tag_204\n  jumpi\n    /* \"#utility.yul\":11880:11898   */\n  tag_205\n  tag_59\n  jump\t// in\ntag_205:\n    /* \"#utility.yul\":11761:11900   */\ntag_204:\n    /* \"#utility.yul\":11545:11907   */\n  pop\n    /* \"#utility.yul\":11497:11907   */\n  swap3\n  swap2\n  pop\n  pop\n  jump\t// out\n    /* \"#utility.yul\":11913:12104   */\ntag_20:\n    /* \"#utility.yul\":11953:11956   */\n  0x00\n    /* \"#utility.yul\":11972:11992   */\n  tag_207\n    /* \"#utility.yul\":11990:11991   */\n  dup3\n    /* \"#utility.yul\":11972:11992   */\n  tag_47\n  jump\t// in\ntag_207:\n    /* \"#utility.yul\":11967:11992   */\n  swap2\n  pop\n    /* \"#utility.yul\":12006:12026   */\n  tag_208\n    /* \"#utility.yul\":12024:12025   */\n  dup4\n    /* \"#utility.yul\":12006:12026   */\n  tag_47\n  jump\t// in\ntag_208:\n    /* \"#utility.yul\":12001:12026   */\n  swap3\n  pop\n    /* \"#utility.yul\":12049:12050   */\n  dup3\n    /* \"#utility.yul\":12046:12047   */\n  dup3\n    /* \"#utility.yul\":12042:12051   */\n  add\n    /* \"#utility.yul\":12035:12051   */\n  swap1\n  pop\n    /* \"#utility.yul\":12070:12073   */\n  dup1\n    /* \"#utility.yul\":12067:12068   */\n  dup3\n    /* \"#utility.yul\":12064:12074   */\n  gt\n    /* \"#utility.yul\":12061:12097   */\n  iszero\n  tag_209\n  jumpi\n    /* \"#utility.yul\":12077:12095   */\n  tag_210\n  tag_59\n  jump\t// in\ntag_210:\n    /* \"#utility.yul\":12061:12097   */\ntag_209:\n    /* \"#utility.yul\":11913:12104   */\n  swap3\n  swap2\n  pop\n  pop\n  jump\t// out\n    /* \"#utility.yul\":12110:12228   */\ntag_63:\n    /* \"#utility.yul\":12197:12221   */\n  tag_212\n    /* \"#utility.yul\":12215:12220   */\n  dup2\n    /* \"#utility.yul\":12197:12221   */\n  tag_47\n  jump\t// in\ntag_212:\n    /* \"#utility.yul\":12192:12195   */\n  dup3\n    /* \"#utility.yul\":12185:12222   */\n  mstore\n    /* \"#utility.yul\":12110:12228   */\n  pop\n  pop\n  jump\t// out\n    /* \"#utility.yul\":12234:12456   */\ntag_23:\n    /* \"#utility.yul\":12327:12331   */\n  0x00\n    /* \"#utility.yul\":12365:12367   */\n  0x20\n    /* \"#utility.yul\":12354:12363   */\n  dup3\n    /* \"#utility.yul\":12350:12368   */\n  add\n    /* \"#utility.yul\":12342:12368   */\n  swap1\n  pop\n    /* \"#utility.yul\":12378:12449   */\n  tag_214\n    /* \"#utility.yul\":12446:12447   */\n  0x00\n    /* \"#utility.yul\":12435:12444   */\n  dup4\n    /* \"#utility.yul\":12431:12448   */\n  add\n    /* \"#utility.yul\":12422:12428   */\n  dup5\n    /* \"#utility.yul\":12378:12449   */\n  tag_63\n  jump\t// in\ntag_214:\n    /* \"#utility.yul\":12234:12456   */\n  swap3\n  swap2\n  pop\n  pop\n  jump\t// out\n    /* \"contracts/MyToken.sol\":86:571  contract MyToken is ERC20 ... */\ntag_17:\n  dataSize(sub_0)\n  dup1\n  dataOffset(sub_0)\n  0x00\n  codecopy\n  0x00\n  return\nstop\n\nsub_0: assembly {\n        /* \"contracts/MyToken.sol\":86:571  contract MyToken is ERC20 ... */\n      mstore(0x40, 0x80)\n      callvalue\n      dup1\n      iszero\n      tag_1\n      jumpi\n      0x00\n      dup1\n      revert\n    tag_1:\n      pop\n      jumpi(tag_2, lt(calldatasize, 0x04))\n      shr(0xe0, calldataload(0x00))\n      dup1\n      0x6d4ce63c\n      gt\n      tag_16\n      jumpi\n      dup1\n      0x95d89b41\n      gt\n      tag_17\n      jumpi\n      dup1\n      0x95d89b41\n      eq\n      tag_12\n      jumpi\n      dup1\n      0x9dc29fac\n      eq\n      tag_13\n      jumpi\n      dup1\n      0xa9059cbb\n      eq\n      tag_14\n      jumpi\n      dup1\n      0xdd62ed3e\n      eq\n      tag_15\n      jumpi\n      jump(tag_2)\n    tag_17:\n      dup1\n      0x6d4ce63c\n      eq\n      tag_9\n      jumpi\n      dup1\n      0x70a08231\n      eq\n      tag_10\n      jumpi\n      dup1\n      0x8da5cb5b\n      eq\n      tag_11\n      jumpi\n      jump(tag_2)\n    tag_16:\n      dup1\n      0x06fdde03\n      eq\n      tag_3\n      jumpi\n      dup1\n      0x095ea7b3\n      eq\n      tag_4\n      jumpi\n      dup1\n      0x18160ddd\n      eq\n      tag_5\n      jumpi\n      dup1\n      0x23b872dd\n      eq\n      tag_6\n      jumpi\n      dup1\n      0x313ce567\n      eq\n      tag_7\n      jumpi\n      dup1\n      0x40c10f19\n      eq\n      tag_8\n      jumpi\n    tag_2:\n      0x00\n      dup1\n      revert\n        /* \"contracts/ERC20.sol\":433:451  string public name */\n    tag_3:\n      tag_18\n      tag_19\n      jump\t// in\n    tag_18:\n      mload(0x40)\n      tag_20\n      swap2\n      swap1\n      tag_21\n      jump\t// in\n    tag_20:\n      mload(0x40)\n      dup1\n      swap2\n      sub\n      swap1\n      return\n        /* \"contracts/ERC20.sol\":948:1161  function approve(address spender, uint256 amount) external returns (bool) ... */\n    tag_4:\n      tag_22\n      0x04\n      dup1\n      calldatasize\n      sub\n      dup2\n      add\n      swap1\n      tag_23\n      swap2\n      swap1\n      tag_24\n      jump\t// in\n    tag_23:\n      tag_25\n      jump\t// in\n    tag_22:\n      mload(0x40)\n      tag_26\n      swap2\n      swap1\n      tag_27\n      jump\t// in\n    tag_26:\n      mload(0x40)\n      dup1\n      swap2\n      sub\n      swap1\n      return\n        /* \"contracts/ERC20.sol\":278:304  uint256 public totalSupply */\n    tag_5:\n      tag_28\n      tag_29\n      jump\t// in\n    tag_28:\n      mload(0x40)\n      tag_30\n      swap2\n      swap1\n      tag_31\n      jump\t// in\n    tag_30:\n      mload(0x40)\n      dup1\n      swap2\n      sub\n      swap1\n      return\n        /* \"contracts/ERC20.sol\":1169:1481  function transferFrom(address sender, address recipient, uint256 amount) external returns (bool)... */\n    tag_6:\n      tag_32\n      0x04\n      dup1\n      calldatasize\n      sub\n      dup2\n      add\n      swap1\n      tag_33\n      swap2\n      swap1\n      tag_34\n      jump\t// in\n    tag_33:\n      tag_35\n      jump\t// in\n    tag_32:\n      mload(0x40)\n      tag_36\n      swap2\n      swap1\n      tag_27\n      jump\t// in\n    tag_36:\n      mload(0x40)\n      dup1\n      swap2\n      sub\n      swap1\n      return\n        /* \"contracts/ERC20.sol\":485:506  uint8 public decimals */\n    tag_7:\n      tag_37\n      tag_38\n      jump\t// in\n    tag_37:\n      mload(0x40)\n      tag_39\n      swap2\n      swap1\n      tag_40\n      jump\t// in\n    tag_39:\n      mload(0x40)\n      dup1\n      swap2\n      sub\n      swap1\n      return\n        /* \"contracts/ERC20.sol\":1871:1964  function mint(address to, uint256 amount) external ... */\n    tag_8:\n      tag_41\n      0x04\n      dup1\n      calldatasize\n      sub\n      dup2\n      add\n      swap1\n      tag_42\n      swap2\n      swap1\n      tag_24\n      jump\t// in\n    tag_42:\n      tag_43\n      jump\t// in\n    tag_41:\n      stop\n        /* \"contracts/MyToken.sol\":485:566  function get() public view returns (address)... */\n    tag_9:\n      tag_44\n      tag_45\n      jump\t// in\n    tag_44:\n      mload(0x40)\n      tag_46\n      swap2\n      swap1\n      tag_47\n      jump\t// in\n    tag_46:\n      mload(0x40)\n      dup1\n      swap2\n      sub\n      swap1\n      return\n        /* \"contracts/ERC20.sol\":311:355  mapping(address => uint256) public balanceOf */\n    tag_10:\n      tag_48\n      0x04\n      dup1\n      calldatasize\n      sub\n      dup2\n      add\n      swap1\n      tag_49\n      swap2\n      swap1\n      tag_50\n      jump\t// in\n    tag_49:\n      tag_51\n      jump\t// in\n    tag_48:\n      mload(0x40)\n      tag_52\n      swap2\n      swap1\n      tag_31\n      jump\t// in\n    tag_52:\n      mload(0x40)\n      dup1\n      swap2\n      sub\n      swap1\n      return\n        /* \"contracts/MyToken.sol\":121:154  address public owner = msg.sender */\n    tag_11:\n      tag_53\n      tag_54\n      jump\t// in\n    tag_53:\n      mload(0x40)\n      tag_55\n      swap2\n      swap1\n      tag_47\n      jump\t// in\n    tag_55:\n      mload(0x40)\n      dup1\n      swap2\n      sub\n      swap1\n      return\n        /* \"contracts/ERC20.sol\":458:478  string public symbol */\n    tag_12:\n      tag_56\n      tag_57\n      jump\t// in\n    tag_56:\n      mload(0x40)\n      tag_58\n      swap2\n      swap1\n      tag_21\n      jump\t// in\n    tag_58:\n      mload(0x40)\n      dup1\n      swap2\n      sub\n      swap1\n      return\n        /* \"contracts/ERC20.sol\":1972:2069  function burn(address from, uint256 amount) external ... */\n    tag_13:\n      tag_59\n      0x04\n      dup1\n      calldatasize\n      sub\n      dup2\n      add\n      swap1\n      tag_60\n      swap2\n      swap1\n      tag_24\n      jump\t// in\n    tag_60:\n      tag_61\n      jump\t// in\n    tag_59:\n      stop\n        /* \"contracts/ERC20.sol\":691:940  function transfer(address recipient, uint256 amount)external returns (bool)... */\n    tag_14:\n      tag_62\n      0x04\n      dup1\n      calldatasize\n      sub\n      dup2\n      add\n      swap1\n      tag_63\n      swap2\n      swap1\n      tag_24\n      jump\t// in\n    tag_63:\n      tag_64\n      jump\t// in\n    tag_62:\n      mload(0x40)\n      tag_65\n      swap2\n      swap1\n      tag_27\n      jump\t// in\n    tag_65:\n      mload(0x40)\n      dup1\n      swap2\n      sub\n      swap1\n      return\n        /* \"contracts/ERC20.sol\":362:426  mapping(address => mapping(address => uint256)) public allowance */\n    tag_15:\n      tag_66\n      0x04\n      dup1\n      calldatasize\n      sub\n      dup2\n      add\n      swap1\n      tag_67\n      swap2\n      swap1\n      tag_68\n      jump\t// in\n    tag_67:\n      tag_69\n      jump\t// in\n    tag_66:\n      mload(0x40)\n      tag_70\n      swap2\n      swap1\n      tag_31\n      jump\t// in\n    tag_70:\n      mload(0x40)\n      dup1\n      swap2\n      sub\n      swap1\n      return\n        /* \"contracts/ERC20.sol\":433:451  string public name */\n    tag_19:\n      0x03\n      dup1\n      sload\n      tag_71\n      swap1\n      tag_72\n      jump\t// in\n    tag_71:\n      dup1\n      0x1f\n      add\n      0x20\n      dup1\n      swap2\n      div\n      mul\n      0x20\n      add\n      mload(0x40)\n      swap1\n      dup2\n      add\n      0x40\n      mstore\n      dup1\n      swap3\n      swap2\n      swap1\n      dup2\n      dup2\n      mstore\n      0x20\n      add\n      dup3\n      dup1\n      sload\n      tag_73\n      swap1\n      tag_72\n      jump\t// in\n    tag_73:\n      dup1\n      iszero\n      tag_74\n      jumpi\n      dup1\n      0x1f\n      lt\n      tag_75\n      jumpi\n      0x0100\n      dup1\n      dup4\n      sload\n      div\n      mul\n      dup4\n      mstore\n      swap2\n      0x20\n      add\n      swap2\n      jump(tag_74)\n    tag_75:\n      dup3\n      add\n      swap2\n      swap1\n      0x00\n      mstore\n      keccak256(0x00, 0x20)\n      swap1\n    tag_76:\n      dup2\n      sload\n      dup2\n      mstore\n      swap1\n      0x01\n      add\n      swap1\n      0x20\n      add\n      dup1\n      dup4\n      gt\n      tag_76\n      jumpi\n      dup3\n      swap1\n      sub\n      0x1f\n      and\n      dup3\n      add\n      swap2\n    tag_74:\n      pop\n      pop\n      pop\n      pop\n      pop\n      dup2\n      jump\t// out\n        /* \"contracts/ERC20.sol\":948:1161  function approve(address spender, uint256 amount) external returns (bool) ... */\n    tag_25:\n        /* \"contracts/ERC20.sol\":1016:1020  bool */\n      0x00\n        /* \"contracts/ERC20.sol\":1072:1078  amount */\n      dup2\n        /* \"contracts/ERC20.sol\":1039:1048  allowance */\n      0x02\n        /* \"contracts/ERC20.sol\":1039:1060  allowance[msg.sender] */\n      0x00\n        /* \"contracts/ERC20.sol\":1049:1059  msg.sender */\n      caller\n        /* \"contracts/ERC20.sol\":1039:1060  allowance[msg.sender] */\n      0xffffffffffffffffffffffffffffffffffffffff\n      and\n      0xffffffffffffffffffffffffffffffffffffffff\n      and\n      dup2\n      mstore\n      0x20\n      add\n      swap1\n      dup2\n      mstore\n      0x20\n      add\n      0x00\n      keccak256\n        /* \"contracts/ERC20.sol\":1039:1069  allowance[msg.sender][spender] */\n      0x00\n        /* \"contracts/ERC20.sol\":1061:1068  spender */\n      dup6\n        /* \"contracts/ERC20.sol\":1039:1069  allowance[msg.sender][spender] */\n      0xffffffffffffffffffffffffffffffffffffffff\n      and\n      0xffffffffffffffffffffffffffffffffffffffff\n      and\n      dup2\n      mstore\n      0x20\n      add\n      swap1\n      dup2\n      mstore\n      0x20\n      add\n      0x00\n      keccak256\n        /* \"contracts/ERC20.sol\":1039:1078  allowance[msg.sender][spender] = amount */\n      dup2\n      swap1\n      sstore\n      pop\n        /* \"contracts/ERC20.sol\":1115:1122  spender */\n      dup3\n        /* \"contracts/ERC20.sol\":1094:1131  Approval(msg.sender, spender, amount) */\n      0xffffffffffffffffffffffffffffffffffffffff\n      and\n        /* \"contracts/ERC20.sol\":1103:1113  msg.sender */\n      caller\n        /* \"contracts/ERC20.sol\":1094:1131  Approval(msg.sender, spender, amount) */\n      0xffffffffffffffffffffffffffffffffffffffff\n      and\n      0x8c5be1e5ebec7d5bd14f71427d1e84f3dd0314c0f7b2291e5b200ac8c7c3b925\n        /* \"contracts/ERC20.sol\":1124:1130  amount */\n      dup5\n        /* \"contracts/ERC20.sol\":1094:1131  Approval(msg.sender, spender, amount) */\n      mload(0x40)\n      tag_78\n      swap2\n      swap1\n      tag_31\n      jump\t// in\n    tag_78:\n      mload(0x40)\n      dup1\n      swap2\n      sub\n      swap1\n      log3\n        /* \"contracts/ERC20.sol\":1149:1153  true */\n      0x01\n        /* \"contracts/ERC20.sol\":1142:1153  return true */\n      swap1\n      pop\n        /* \"contracts/ERC20.sol\":948:1161  function approve(address spender, uint256 amount) external returns (bool) ... */\n      swap3\n      swap2\n      pop\n      pop\n      jump\t// out\n        /* \"contracts/ERC20.sol\":278:304  uint256 public totalSupply */\n    tag_29:\n      sload(0x00)\n      dup2\n      jump\t// out\n        /* \"contracts/ERC20.sol\":1169:1481  function transferFrom(address sender, address recipient, uint256 amount) external returns (bool)... */\n    tag_35:\n        /* \"contracts/ERC20.sol\":1260:1264  bool */\n      0x00\n        /* \"contracts/ERC20.sol\":1315:1321  amount */\n      dup2\n        /* \"contracts/ERC20.sol\":1282:1291  allowance */\n      0x02\n        /* \"contracts/ERC20.sol\":1282:1299  allowance[sender] */\n      0x00\n        /* \"contracts/ERC20.sol\":1292:1298  sender */\n      dup7\n        /* \"contracts/ERC20.sol\":1282:1299  allowance[sender] */\n      0xffffffffffffffffffffffffffffffffffffffff\n      and\n      0xffffffffffffffffffffffffffffffffffffffff\n      and\n      dup2\n      mstore\n      0x20\n      add\n      swap1\n      dup2\n      mstore\n      0x20\n      add\n      0x00\n      keccak256\n        /* \"contracts/ERC20.sol\":1282:1311  allowance[sender][msg.sender] */\n      0x00\n        /* \"contracts/ERC20.sol\":1300:1310  msg.sender */\n      caller\n        /* \"contracts/ERC20.sol\":1282:1311  allowance[sender][msg.sender] */\n      0xffffffffffffffffffffffffffffffffffffffff\n      and\n      0xffffffffffffffffffffffffffffffffffffffff\n      and\n      dup2\n      mstore\n      0x20\n      add\n      swap1\n      dup2\n      mstore\n      0x20\n      add\n      0x00\n      keccak256\n      0x00\n        /* \"contracts/ERC20.sol\":1282:1321  allowance[sender][msg.sender] -= amount */\n      dup3\n      dup3\n      sload\n      tag_80\n      swap2\n      swap1\n      tag_81\n      jump\t// in\n    tag_80:\n      swap3\n      pop\n      pop\n      dup2\n      swap1\n      sstore\n      pop\n        /* \"contracts/ERC20.sol\":1353:1359  amount */\n      dup2\n        /* \"contracts/ERC20.sol\":1332:1341  balanceOf */\n      0x01\n        /* \"contracts/ERC20.sol\":1332:1349  balanceOf[sender] */\n      0x00\n        /* \"contracts/ERC20.sol\":1342:1348  sender */\n      dup7\n        /* \"contracts/ERC20.sol\":1332:1349  balanceOf[sender] */\n      0xffffffffffffffffffffffffffffffffffffffff\n      and\n      0xffffffffffffffffffffffffffffffffffffffff\n      and\n      dup2\n      mstore\n      0x20\n      add\n      swap1\n      dup2\n      mstore\n      0x20\n      add\n      0x00\n      keccak256\n      0x00\n        /* \"contracts/ERC20.sol\":1332:1359  balanceOf[sender] -= amount */\n      dup3\n      dup3\n      sload\n      tag_82\n      swap2\n      swap1\n      tag_81\n      jump\t// in\n    tag_82:\n      swap3\n      pop\n      pop\n      dup2\n      swap1\n      sstore\n      pop\n        /* \"contracts/ERC20.sol\":1394:1400  amount */\n      dup2\n        /* \"contracts/ERC20.sol\":1370:1379  balanceOf */\n      0x01\n        /* \"contracts/ERC20.sol\":1370:1390  balanceOf[recipient] */\n      0x00\n        /* \"contracts/ERC20.sol\":1380:1389  recipient */\n      dup6\n        /* \"contracts/ERC20.sol\":1370:1390  balanceOf[recipient] */\n      0xffffffffffffffffffffffffffffffffffffffff\n      and\n      0xffffffffffffffffffffffffffffffffffffffff\n      and\n      dup2\n      mstore\n      0x20\n      add\n      swap1\n      dup2\n      mstore\n      0x20\n      add\n      0x00\n      keccak256\n      0x00\n        /* \"contracts/ERC20.sol\":1370:1400  balanceOf[recipient] += amount */\n      dup3\n      dup3\n      sload\n      tag_83\n      swap2\n      swap1\n      tag_84\n      jump\t// in\n    tag_83:\n      swap3\n      pop\n      pop\n      dup2\n      swap1\n      sstore\n      pop\n        /* \"contracts/ERC20.sol\":1433:1442  recipient */\n      dup3\n        /* \"contracts/ERC20.sol\":1416:1451  Transfer(sender, recipient, amount) */\n      0xffffffffffffffffffffffffffffffffffffffff\n      and\n        /* \"contracts/ERC20.sol\":1425:1431  sender */\n      dup5\n        /* \"contracts/ERC20.sol\":1416:1451  Transfer(sender, recipient, amount) */\n      0xffffffffffffffffffffffffffffffffffffffff\n      and\n      0xddf252ad1be2c89b69c2b068fc378daa952ba7f163c4a11628f55a4df523b3ef\n        /* \"contracts/ERC20.sol\":1444:1450  amount */\n      dup5\n        /* \"contracts/ERC20.sol\":1416:1451  Transfer(sender, recipient, amount) */\n      mload(0x40)\n      tag_85\n      swap2\n      swap1\n      tag_31\n      jump\t// in\n    tag_85:\n      mload(0x40)\n      dup1\n      swap2\n      sub\n      swap1\n      log3\n        /* \"contracts/ERC20.sol\":1469:1473  true */\n      0x01\n        /* \"contracts/ERC20.sol\":1462:1473  return true */\n      swap1\n      pop\n        /* \"contracts/ERC20.sol\":1169:1481  function transferFrom(address sender, address recipient, uint256 amount) external returns (bool)... */\n      swap4\n      swap3\n      pop\n      pop\n      pop\n      jump\t// out\n        /* \"contracts/ERC20.sol\":485:506  uint8 public decimals */\n    tag_38:\n      0x05\n      0x00\n      swap1\n      sload\n      swap1\n      0x0100\n      exp\n      swap1\n      div\n      0xff\n      and\n      dup2\n      jump\t// out\n        /* \"contracts/ERC20.sol\":1871:1964  function mint(address to, uint256 amount) external ... */\n    tag_43:\n        /* \"contracts/ERC20.sol\":1939:1956  _mint(to, amount) */\n      tag_87\n        /* \"contracts/ERC20.sol\":1945:1947  to */\n      dup3\n        /* \"contracts/ERC20.sol\":1949:1955  amount */\n      dup3\n        /* \"contracts/ERC20.sol\":1939:1944  _mint */\n      tag_88\n        /* \"contracts/ERC20.sol\":1939:1956  _mint(to, amount) */\n      jump\t// in\n    tag_87:\n        /* \"contracts/ERC20.sol\":1871:1964  function mint(address to, uint256 amount) external ... */\n      pop\n      pop\n      jump\t// out\n        /* \"contracts/MyToken.sol\":485:566  function get() public view returns (address)... */\n    tag_45:\n        /* \"contracts/MyToken.sol\":521:528  address */\n      0x00\n        /* \"contracts/MyToken.sol\":553:558  owner */\n      0x05\n      0x01\n      swap1\n      sload\n      swap1\n      0x0100\n      exp\n      swap1\n      div\n      0xffffffffffffffffffffffffffffffffffffffff\n      and\n        /* \"contracts/MyToken.sol\":546:558  return owner */\n      swap1\n      pop\n        /* \"contracts/MyToken.sol\":485:566  function get() public view returns (address)... */\n      swap1\n      jump\t// out\n        /* \"contracts/ERC20.sol\":311:355  mapping(address => uint256) public balanceOf */\n    tag_51:\n      mstore(0x20, 0x01)\n      dup1\n      0x00\n      mstore\n      keccak256(0x00, 0x40)\n      0x00\n      swap2\n      pop\n      swap1\n      pop\n      sload\n      dup2\n      jump\t// out\n        /* \"contracts/MyToken.sol\":121:154  address public owner = msg.sender */\n    tag_54:\n      0x05\n      0x01\n      swap1\n      sload\n      swap1\n      0x0100\n      exp\n      swap1\n      div\n      0xffffffffffffffffffffffffffffffffffffffff\n      and\n      dup2\n      jump\t// out\n        /* \"contracts/ERC20.sol\":458:478  string public symbol */\n    tag_57:\n      0x04\n      dup1\n      sload\n      tag_90\n      swap1\n      tag_72\n      jump\t// in\n    tag_90:\n      dup1\n      0x1f\n      add\n      0x20\n      dup1\n      swap2\n      div\n      mul\n      0x20\n      add\n      mload(0x40)\n      swap1\n      dup2\n      add\n      0x40\n      mstore\n      dup1\n      swap3\n      swap2\n      swap1\n      dup2\n      dup2\n      mstore\n      0x20\n      add\n      dup3\n      dup1\n      sload\n      tag_91\n      swap1\n      tag_72\n      jump\t// in\n    tag_91:\n      dup1\n      iszero\n      tag_92\n      jumpi\n      dup1\n      0x1f\n      lt\n      tag_93\n      jumpi\n      0x0100\n      dup1\n      dup4\n      sload\n      div\n      mul\n      dup4\n      mstore\n      swap2\n      0x20\n      add\n      swap2\n      jump(tag_92)\n    tag_93:\n      dup3\n      add\n      swap2\n      swap1\n      0x00\n      mstore\n      keccak256(0x00, 0x20)\n      swap1\n    tag_94:\n      dup2\n      sload\n      dup2\n      mstore\n      swap1\n      0x01\n      add\n      swap1\n      0x20\n      add\n      dup1\n      dup4\n      gt\n      tag_94\n      jumpi\n      dup3\n      swap1\n      sub\n      0x1f\n      and\n      dup3\n      add\n      swap2\n    tag_92:\n      pop\n      pop\n      pop\n      pop\n      pop\n      dup2\n      jump\t// out\n        /* \"contracts/ERC20.sol\":1972:2069  function burn(address from, uint256 amount) external ... */\n    tag_61:\n        /* \"contracts/ERC20.sol\":2042:2061  _burn(from, amount) */\n      tag_96\n        /* \"contracts/ERC20.sol\":2048:2052  from */\n      dup3\n        /* \"contracts/ERC20.sol\":2054:2060  amount */\n      dup3\n        /* \"contracts/ERC20.sol\":2042:2047  _burn */\n      tag_97\n        /* \"contracts/ERC20.sol\":2042:2061  _burn(from, amount) */\n      jump\t// in\n    tag_96:\n        /* \"contracts/ERC20.sol\":1972:2069  function burn(address from, uint256 amount) external ... */\n      pop\n      pop\n      jump\t// out\n        /* \"contracts/ERC20.sol\":691:940  function transfer(address recipient, uint256 amount)external returns (bool)... */\n    tag_64:\n        /* \"contracts/ERC20.sol\":761:765  bool */\n      0x00\n        /* \"contracts/ERC20.sol\":808:814  amount */\n      dup2\n        /* \"contracts/ERC20.sol\":783:792  balanceOf */\n      0x01\n        /* \"contracts/ERC20.sol\":783:804  balanceOf[msg.sender] */\n      0x00\n        /* \"contracts/ERC20.sol\":793:803  msg.sender */\n      caller\n        /* \"contracts/ERC20.sol\":783:804  balanceOf[msg.sender] */\n      0xffffffffffffffffffffffffffffffffffffffff\n      and\n      0xffffffffffffffffffffffffffffffffffffffff\n      and\n      dup2\n      mstore\n      0x20\n      add\n      swap1\n      dup2\n      mstore\n      0x20\n      add\n      0x00\n      keccak256\n      0x00\n        /* \"contracts/ERC20.sol\":783:814  balanceOf[msg.sender] -= amount */\n      dup3\n      dup3\n      sload\n      tag_99\n      swap2\n      swap1\n      tag_81\n      jump\t// in\n    tag_99:\n      swap3\n      pop\n      pop\n      dup2\n      swap1\n      sstore\n      pop\n        /* \"contracts/ERC20.sol\":849:855  amount */\n      dup2\n        /* \"contracts/ERC20.sol\":825:834  balanceOf */\n      0x01\n        /* \"contracts/ERC20.sol\":825:845  balanceOf[recipient] */\n      0x00\n        /* \"contracts/ERC20.sol\":835:844  recipient */\n      dup6\n        /* \"contracts/ERC20.sol\":825:845  balanceOf[recipient] */\n      0xffffffffffffffffffffffffffffffffffffffff\n      and\n      0xffffffffffffffffffffffffffffffffffffffff\n      and\n      dup2\n      mstore\n      0x20\n      add\n      swap1\n      dup2\n      mstore\n      0x20\n      add\n      0x00\n      keccak256\n      0x00\n        /* \"contracts/ERC20.sol\":825:855  balanceOf[recipient] += amount */\n      dup3\n      dup3\n      sload\n      tag_100\n      swap2\n      swap1\n      tag_84\n      jump\t// in\n    tag_100:\n      swap3\n      pop\n      pop\n      dup2\n      swap1\n      sstore\n      pop\n        /* \"contracts/ERC20.sol\":892:901  recipient */\n      dup3\n        /* \"contracts/ERC20.sol\":871:910  Transfer(msg.sender, recipient, amount) */\n      0xffffffffffffffffffffffffffffffffffffffff\n      and\n        /* \"contracts/ERC20.sol\":880:890  msg.sender */\n      caller\n        /* \"contracts/ERC20.sol\":871:910  Transfer(msg.sender, recipient, amount) */\n      0xffffffffffffffffffffffffffffffffffffffff\n      and\n      0xddf252ad1be2c89b69c2b068fc378daa952ba7f163c4a11628f55a4df523b3ef\n        /* \"contracts/ERC20.sol\":903:909  amount */\n      dup5\n        /* \"contracts/ERC20.sol\":871:910  Transfer(msg.sender, recipient, amount) */\n      mload(0x40)\n      tag_101\n      swap2\n      swap1\n      tag_31\n      jump\t// in\n    tag_101:\n      mload(0x40)\n      dup1\n      swap2\n      sub\n      swap1\n      log3\n        /* \"contracts/ERC20.sol\":928:932  true */\n      0x01\n        /* \"contracts/ERC20.sol\":921:932  return true */\n      swap1\n      pop\n        /* \"contracts/ERC20.sol\":691:940  function transfer(address recipient, uint256 amount)external returns (bool)... */\n      swap3\n      swap2\n      pop\n      pop\n      jump\t// out\n        /* \"contracts/ERC20.sol\":362:426  mapping(address => mapping(address => uint256)) public allowance */\n    tag_69:\n      mstore(0x20, 0x02)\n      dup2\n      0x00\n      mstore\n      mstore(0x20, keccak256(0x00, 0x40))\n      dup1\n      0x00\n      mstore\n      keccak256(0x00, 0x40)\n      0x00\n      swap2\n      pop\n      swap2\n      pop\n      pop\n      sload\n      dup2\n      jump\t// out\n        /* \"contracts/ERC20.sol\":1489:1669  function _mint(address to, uint256 amount) internal ... */\n    tag_88:\n        /* \"contracts/ERC20.sol\":1575:1581  amount */\n      dup1\n        /* \"contracts/ERC20.sol\":1558:1567  balanceOf */\n      0x01\n        /* \"contracts/ERC20.sol\":1558:1571  balanceOf[to] */\n      0x00\n        /* \"contracts/ERC20.sol\":1568:1570  to */\n      dup5\n        /* \"contracts/ERC20.sol\":1558:1571  balanceOf[to] */\n      0xffffffffffffffffffffffffffffffffffffffff\n      and\n      0xffffffffffffffffffffffffffffffffffffffff\n      and\n      dup2\n      mstore\n      0x20\n      add\n      swap1\n      dup2\n      mstore\n      0x20\n      add\n      0x00\n      keccak256\n      0x00\n        /* \"contracts/ERC20.sol\":1558:1581  balanceOf[to] += amount */\n      dup3\n      dup3\n      sload\n      tag_103\n      swap2\n      swap1\n      tag_84\n      jump\t// in\n    tag_103:\n      swap3\n      pop\n      pop\n      dup2\n      swap1\n      sstore\n      pop\n        /* \"contracts/ERC20.sol\":1607:1613  amount */\n      dup1\n        /* \"contracts/ERC20.sol\":1592:1603  totalSupply */\n      0x00\n      dup1\n        /* \"contracts/ERC20.sol\":1592:1613  totalSupply += amount */\n      dup3\n      dup3\n      sload\n      tag_104\n      swap2\n      swap1\n      tag_84\n      jump\t// in\n    tag_104:\n      swap3\n      pop\n      pop\n      dup2\n      swap1\n      sstore\n      pop\n        /* \"contracts/ERC20.sol\":1650:1652  to */\n      dup2\n        /* \"contracts/ERC20.sol\":1629:1661  Transfer(address(0), to, amount) */\n      0xffffffffffffffffffffffffffffffffffffffff\n      and\n        /* \"contracts/ERC20.sol\":1646:1647  0 */\n      0x00\n        /* \"contracts/ERC20.sol\":1629:1661  Transfer(address(0), to, amount) */\n      0xffffffffffffffffffffffffffffffffffffffff\n      and\n      0xddf252ad1be2c89b69c2b068fc378daa952ba7f163c4a11628f55a4df523b3ef\n        /* \"contracts/ERC20.sol\":1654:1660  amount */\n      dup4\n        /* \"contracts/ERC20.sol\":1629:1661  Transfer(address(0), to, amount) */\n      mload(0x40)\n      tag_105\n      swap2\n      swap1\n      tag_31\n      jump\t// in\n    tag_105:\n      mload(0x40)\n      dup1\n      swap2\n      sub\n      swap1\n      log3\n        /* \"contracts/ERC20.sol\":1489:1669  function _mint(address to, uint256 amount) internal ... */\n      pop\n      pop\n      jump\t// out\n        /* \"contracts/ERC20.sol\":1677:1863  function _burn(address from, uint256 amount) internal ... */\n    tag_97:\n        /* \"contracts/ERC20.sol\":1767:1773  amount */\n      dup1\n        /* \"contracts/ERC20.sol\":1748:1757  balanceOf */\n      0x01\n        /* \"contracts/ERC20.sol\":1748:1763  balanceOf[from] */\n      0x00\n        /* \"contracts/ERC20.sol\":1758:1762  from */\n      dup5\n        /* \"contracts/ERC20.sol\":1748:1763  balanceOf[from] */\n      0xffffffffffffffffffffffffffffffffffffffff\n      and\n      0xffffffffffffffffffffffffffffffffffffffff\n      and\n      dup2\n      mstore\n      0x20\n      add\n      swap1\n      dup2\n      mstore\n      0x20\n      add\n      0x00\n      keccak256\n      0x00\n        /* \"contracts/ERC20.sol\":1748:1773  balanceOf[from] -= amount */\n      dup3\n      dup3\n      sload\n      tag_107\n      swap2\n      swap1\n      tag_81\n      jump\t// in\n    tag_107:\n      swap3\n      pop\n      pop\n      dup2\n      swap1\n      sstore\n      pop\n        /* \"contracts/ERC20.sol\":1799:1805  amount */\n      dup1\n        /* \"contracts/ERC20.sol\":1784:1795  totalSupply */\n      0x00\n      dup1\n        /* \"contracts/ERC20.sol\":1784:1805  totalSupply -= amount */\n      dup3\n      dup3\n      sload\n      tag_108\n      swap2\n      swap1\n      tag_81\n      jump\t// in\n    tag_108:\n      swap3\n      pop\n      pop\n      dup2\n      swap1\n      sstore\n      pop\n        /* \"contracts/ERC20.sol\":1844:1845  0 */\n      0x00\n        /* \"contracts/ERC20.sol\":1821:1855  Transfer(from, address(0), amount) */\n      0xffffffffffffffffffffffffffffffffffffffff\n      and\n        /* \"contracts/ERC20.sol\":1830:1834  from */\n      dup3\n        /* \"contracts/ERC20.sol\":1821:1855  Transfer(from, address(0), amount) */\n      0xffffffffffffffffffffffffffffffffffffffff\n      and\n      0xddf252ad1be2c89b69c2b068fc378daa952ba7f163c4a11628f55a4df523b3ef\n        /* \"contracts/ERC20.sol\":1848:1854  amount */\n      dup4\n        /* \"contracts/ERC20.sol\":1821:1855  Transfer(from, address(0), amount) */\n      mload(0x40)\n      tag_109\n      swap2\n      swap1\n      tag_31\n      jump\t// in\n    tag_109:\n      mload(0x40)\n      dup1\n      swap2\n      sub\n      swap1\n      log3\n        /* \"contracts/ERC20.sol\":1677:1863  function _burn(address from, uint256 amount) internal ... */\n      pop\n      pop\n      jump\t// out\n        /* \"#utility.yul\":7:106   */\n    tag_110:\n        /* \"#utility.yul\":59:65   */\n      0x00\n        /* \"#utility.yul\":93:98   */\n      dup2\n        /* \"#utility.yul\":87:99   */\n      mload\n        /* \"#utility.yul\":77:99   */\n      swap1\n      pop\n        /* \"#utility.yul\":7:106   */\n      swap2\n      swap1\n      pop\n      jump\t// out\n        /* \"#utility.yul\":112:281   */\n    tag_111:\n        /* \"#utility.yul\":196:207   */\n      0x00\n        /* \"#utility.yul\":230:236   */\n      dup3\n        /* \"#utility.yul\":225:228   */\n      dup3\n        /* \"#utility.yul\":218:237   */\n      mstore\n        /* \"#utility.yul\":270:274   */\n      0x20\n        /* \"#utility.yul\":265:268   */\n      dup3\n        /* \"#utility.yul\":261:275   */\n      add\n        /* \"#utility.yul\":246:275   */\n      swap1\n      pop\n        /* \"#utility.yul\":112:281   */\n      swap3\n      swap2\n      pop\n      pop\n      jump\t// out\n        /* \"#utility.yul\":287:426   */\n    tag_112:\n        /* \"#utility.yul\":376:382   */\n      dup3\n        /* \"#utility.yul\":371:374   */\n      dup2\n        /* \"#utility.yul\":366:369   */\n      dup4\n        /* \"#utility.yul\":360:383   */\n      mcopy\n        /* \"#utility.yul\":417:418   */\n      0x00\n        /* \"#utility.yul\":408:414   */\n      dup4\n        /* \"#utility.yul\":403:406   */\n      dup4\n        /* \"#utility.yul\":399:415   */\n      add\n        /* \"#utility.yul\":392:419   */\n      mstore\n        /* \"#utility.yul\":287:426   */\n      pop\n      pop\n      pop\n      jump\t// out\n        /* \"#utility.yul\":432:534   */\n    tag_113:\n        /* \"#utility.yul\":473:479   */\n      0x00\n        /* \"#utility.yul\":524:526   */\n      0x1f\n        /* \"#utility.yul\":520:527   */\n      not\n        /* \"#utility.yul\":515:517   */\n      0x1f\n        /* \"#utility.yul\":508:513   */\n      dup4\n        /* \"#utility.yul\":504:518   */\n      add\n        /* \"#utility.yul\":500:528   */\n      and\n        /* \"#utility.yul\":490:528   */\n      swap1\n      pop\n        /* \"#utility.yul\":432:534   */\n      swap2\n      swap1\n      pop\n      jump\t// out\n        /* \"#utility.yul\":540:917   */\n    tag_114:\n        /* \"#utility.yul\":628:631   */\n      0x00\n        /* \"#utility.yul\":656:695   */\n      tag_139\n        /* \"#utility.yul\":689:694   */\n      dup3\n        /* \"#utility.yul\":656:695   */\n      tag_110\n      jump\t// in\n    tag_139:\n        /* \"#utility.yul\":711:782   */\n      tag_140\n        /* \"#utility.yul\":775:781   */\n      dup2\n        /* \"#utility.yul\":770:773   */\n      dup6\n        /* \"#utility.yul\":711:782   */\n      tag_111\n      jump\t// in\n    tag_140:\n        /* \"#utility.yul\":704:782   */\n      swap4\n      pop\n        /* \"#utility.yul\":791:856   */\n      tag_141\n        /* \"#utility.yul\":849:855   */\n      dup2\n        /* \"#utility.yul\":844:847   */\n      dup6\n        /* \"#utility.yul\":837:841   */\n      0x20\n        /* \"#utility.yul\":830:835   */\n      dup7\n        /* \"#utility.yul\":826:842   */\n      add\n        /* \"#utility.yul\":791:856   */\n      tag_112\n      jump\t// in\n    tag_141:\n        /* \"#utility.yul\":881:910   */\n      tag_142\n        /* \"#utility.yul\":903:909   */\n      dup2\n        /* \"#utility.yul\":881:910   */\n      tag_113\n      jump\t// in\n    tag_142:\n        /* \"#utility.yul\":876:879   */\n      dup5\n        /* \"#utility.yul\":872:911   */\n      add\n        /* \"#utility.yul\":865:911   */\n      swap2\n      pop\n        /* \"#utility.yul\":632:917   */\n      pop\n        /* \"#utility.yul\":540:917   */\n      swap3\n      swap2\n      pop\n      pop\n      jump\t// out\n        /* \"#utility.yul\":923:1236   */\n    tag_21:\n        /* \"#utility.yul\":1036:1040   */\n      0x00\n        /* \"#utility.yul\":1074:1076   */\n      0x20\n        /* \"#utility.yul\":1063:1072   */\n      dup3\n        /* \"#utility.yul\":1059:1077   */\n      add\n        /* \"#utility.yul\":1051:1077   */\n      swap1\n      pop\n        /* \"#utility.yul\":1123:1132   */\n      dup2\n        /* \"#utility.yul\":1117:1121   */\n      dup2\n        /* \"#utility.yul\":1113:1133   */\n      sub\n        /* \"#utility.yul\":1109:1110   */\n      0x00\n        /* \"#utility.yul\":1098:1107   */\n      dup4\n        /* \"#utility.yul\":1094:1111   */\n      add\n        /* \"#utility.yul\":1087:1134   */\n      mstore\n        /* \"#utility.yul\":1151:1229   */\n      tag_144\n        /* \"#utility.yul\":1224:1228   */\n      dup2\n        /* \"#utility.yul\":1215:1221   */\n      dup5\n        /* \"#utility.yul\":1151:1229   */\n      tag_114\n      jump\t// in\n    tag_144:\n        /* \"#utility.yul\":1143:1229   */\n      swap1\n      pop\n        /* \"#utility.yul\":923:1236   */\n      swap3\n      swap2\n      pop\n      pop\n      jump\t// out\n        /* \"#utility.yul\":1323:1440   */\n    tag_116:\n        /* \"#utility.yul\":1432:1433   */\n      0x00\n        /* \"#utility.yul\":1429:1430   */\n      dup1\n        /* \"#utility.yul\":1422:1434   */\n      revert\n        /* \"#utility.yul\":1569:1695   */\n    tag_118:\n        /* \"#utility.yul\":1606:1613   */\n      0x00\n        /* \"#utility.yul\":1646:1688   */\n      0xffffffffffffffffffffffffffffffffffffffff\n        /* \"#utility.yul\":1639:1644   */\n      dup3\n        /* \"#utility.yul\":1635:1689   */\n      and\n        /* \"#utility.yul\":1624:1689   */\n      swap1\n      pop\n        /* \"#utility.yul\":1569:1695   */\n      swap2\n      swap1\n      pop\n      jump\t// out\n        /* \"#utility.yul\":1701:1797   */\n    tag_119:\n        /* \"#utility.yul\":1738:1745   */\n      0x00\n        /* \"#utility.yul\":1767:1791   */\n      tag_150\n        /* \"#utility.yul\":1785:1790   */\n      dup3\n        /* \"#utility.yul\":1767:1791   */\n      tag_118\n      jump\t// in\n    tag_150:\n        /* \"#utility.yul\":1756:1791   */\n      swap1\n      pop\n        /* \"#utility.yul\":1701:1797   */\n      swap2\n      swap1\n      pop\n      jump\t// out\n        /* \"#utility.yul\":1803:1925   */\n    tag_120:\n        /* \"#utility.yul\":1876:1900   */\n      tag_152\n        /* \"#utility.yul\":1894:1899   */\n      dup2\n        /* \"#utility.yul\":1876:1900   */\n      tag_119\n      jump\t// in\n    tag_152:\n        /* \"#utility.yul\":1869:1874   */\n      dup2\n        /* \"#utility.yul\":1866:1901   */\n      eq\n        /* \"#utility.yul\":1856:1919   */\n      tag_153\n      jumpi\n        /* \"#utility.yul\":1915:1916   */\n      0x00\n        /* \"#utility.yul\":1912:1913   */\n      dup1\n        /* \"#utility.yul\":1905:1917   */\n      revert\n        /* \"#utility.yul\":1856:1919   */\n    tag_153:\n        /* \"#utility.yul\":1803:1925   */\n      pop\n      jump\t// out\n        /* \"#utility.yul\":1931:2070   */\n    tag_121:\n        /* \"#utility.yul\":1977:1982   */\n      0x00\n        /* \"#utility.yul\":2015:2021   */\n      dup2\n        /* \"#utility.yul\":2002:2022   */\n      calldataload\n        /* \"#utility.yul\":1993:2022   */\n      swap1\n      pop\n        /* \"#utility.yul\":2031:2064   */\n      tag_155\n        /* \"#utility.yul\":2058:2063   */\n      dup2\n        /* \"#utility.yul\":2031:2064   */\n      tag_120\n      jump\t// in\n    tag_155:\n        /* \"#utility.yul\":1931:2070   */\n      swap3\n      swap2\n      pop\n      pop\n      jump\t// out\n        /* \"#utility.yul\":2076:2153   */\n    tag_122:\n        /* \"#utility.yul\":2113:2120   */\n      0x00\n        /* \"#utility.yul\":2142:2147   */\n      dup2\n        /* \"#utility.yul\":2131:2147   */\n      swap1\n      pop\n        /* \"#utility.yul\":2076:2153   */\n      swap2\n      swap1\n      pop\n      jump\t// out\n        /* \"#utility.yul\":2159:2281   */\n    tag_123:\n        /* \"#utility.yul\":2232:2256   */\n      tag_158\n        /* \"#utility.yul\":2250:2255   */\n      dup2\n        /* \"#utility.yul\":2232:2256   */\n      tag_122\n      jump\t// in\n    tag_158:\n        /* \"#utility.yul\":2225:2230   */\n      dup2\n        /* \"#utility.yul\":2222:2257   */\n      eq\n        /* \"#utility.yul\":2212:2275   */\n      tag_159\n      jumpi\n        /* \"#utility.yul\":2271:2272   */\n      0x00\n        /* \"#utility.yul\":2268:2269   */\n      dup1\n        /* \"#utility.yul\":2261:2273   */\n      revert\n        /* \"#utility.yul\":2212:2275   */\n    tag_159:\n        /* \"#utility.yul\":2159:2281   */\n      pop\n      jump\t// out\n        /* \"#utility.yul\":2287:2426   */\n    tag_124:\n        /* \"#utility.yul\":2333:2338   */\n      0x00\n        /* \"#utility.yul\":2371:2377   */\n      dup2\n        /* \"#utility.yul\":2358:2378   */\n      calldataload\n        /* \"#utility.yul\":2349:2378   */\n      swap1\n      pop\n        /* \"#utility.yul\":2387:2420   */\n      tag_161\n        /* \"#utility.yul\":2414:2419   */\n      dup2\n        /* \"#utility.yul\":2387:2420   */\n      tag_123\n      jump\t// in\n    tag_161:\n        /* \"#utility.yul\":2287:2426   */\n      swap3\n      swap2\n      pop\n      pop\n      jump\t// out\n        /* \"#utility.yul\":2432:2906   */\n    tag_24:\n        /* \"#utility.yul\":2500:2506   */\n      0x00\n        /* \"#utility.yul\":2508:2514   */\n      dup1\n        /* \"#utility.yul\":2557:2559   */\n      0x40\n        /* \"#utility.yul\":2545:2554   */\n      dup4\n        /* \"#utility.yul\":2536:2543   */\n      dup6\n        /* \"#utility.yul\":2532:2555   */\n      sub\n        /* \"#utility.yul\":2528:2560   */\n      slt\n        /* \"#utility.yul\":2525:2644   */\n      iszero\n      tag_163\n      jumpi\n        /* \"#utility.yul\":2563:2642   */\n      tag_164\n      tag_116\n      jump\t// in\n    tag_164:\n        /* \"#utility.yul\":2525:2644   */\n    tag_163:\n        /* \"#utility.yul\":2683:2684   */\n      0x00\n        /* \"#utility.yul\":2708:2761   */\n      tag_165\n        /* \"#utility.yul\":2753:2760   */\n      dup6\n        /* \"#utility.yul\":2744:2750   */\n      dup3\n        /* \"#utility.yul\":2733:2742   */\n      dup7\n        /* \"#utility.yul\":2729:2751   */\n      add\n        /* \"#utility.yul\":2708:2761   */\n      tag_121\n      jump\t// in\n    tag_165:\n        /* \"#utility.yul\":2698:2761   */\n      swap3\n      pop\n        /* \"#utility.yul\":2654:2771   */\n      pop\n        /* \"#utility.yul\":2810:2812   */\n      0x20\n        /* \"#utility.yul\":2836:2889   */\n      tag_166\n        /* \"#utility.yul\":2881:2888   */\n      dup6\n        /* \"#utility.yul\":2872:2878   */\n      dup3\n        /* \"#utility.yul\":2861:2870   */\n      dup7\n        /* \"#utility.yul\":2857:2879   */\n      add\n        /* \"#utility.yul\":2836:2889   */\n      tag_124\n      jump\t// in\n    tag_166:\n        /* \"#utility.yul\":2826:2889   */\n      swap2\n      pop\n        /* \"#utility.yul\":2781:2899   */\n      pop\n        /* \"#utility.yul\":2432:2906   */\n      swap3\n      pop\n      swap3\n      swap1\n      pop\n      jump\t// out\n        /* \"#utility.yul\":2912:3002   */\n    tag_125:\n        /* \"#utility.yul\":2946:2953   */\n      0x00\n        /* \"#utility.yul\":2989:2994   */\n      dup2\n        /* \"#utility.yul\":2982:2995   */\n      iszero\n        /* \"#utility.yul\":2975:2996   */\n      iszero\n        /* \"#utility.yul\":2964:2996   */\n      swap1\n      pop\n        /* \"#utility.yul\":2912:3002   */\n      swap2\n      swap1\n      pop\n      jump\t// out\n        /* \"#utility.yul\":3008:3117   */\n    tag_126:\n        /* \"#utility.yul\":3089:3110   */\n      tag_169\n        /* \"#utility.yul\":3104:3109   */\n      dup2\n        /* \"#utility.yul\":3089:3110   */\n      tag_125\n      jump\t// in\n    tag_169:\n        /* \"#utility.yul\":3084:3087   */\n      dup3\n        /* \"#utility.yul\":3077:3111   */\n      mstore\n        /* \"#utility.yul\":3008:3117   */\n      pop\n      pop\n      jump\t// out\n        /* \"#utility.yul\":3123:3333   */\n    tag_27:\n        /* \"#utility.yul\":3210:3214   */\n      0x00\n        /* \"#utility.yul\":3248:3250   */\n      0x20\n        /* \"#utility.yul\":3237:3246   */\n      dup3\n        /* \"#utility.yul\":3233:3251   */\n      add\n        /* \"#utility.yul\":3225:3251   */\n      swap1\n      pop\n        /* \"#utility.yul\":3261:3326   */\n      tag_171\n        /* \"#utility.yul\":3323:3324   */\n      0x00\n        /* \"#utility.yul\":3312:3321   */\n      dup4\n        /* \"#utility.yul\":3308:3325   */\n      add\n        /* \"#utility.yul\":3299:3305   */\n      dup5\n        /* \"#utility.yul\":3261:3326   */\n      tag_126\n      jump\t// in\n    tag_171:\n        /* \"#utility.yul\":3123:3333   */\n      swap3\n      swap2\n      pop\n      pop\n      jump\t// out\n        /* \"#utility.yul\":3339:3457   */\n    tag_127:\n        /* \"#utility.yul\":3426:3450   */\n      tag_173\n        /* \"#utility.yul\":3444:3449   */\n      dup2\n        /* \"#utility.yul\":3426:3450   */\n      tag_122\n      jump\t// in\n    tag_173:\n        /* \"#utility.yul\":3421:3424   */\n      dup3\n        /* \"#utility.yul\":3414:3451   */\n      mstore\n        /* \"#utility.yul\":3339:3457   */\n      pop\n      pop\n      jump\t// out\n        /* \"#utility.yul\":3463:3685   */\n    tag_31:\n        /* \"#utility.yul\":3556:3560   */\n      0x00\n        /* \"#utility.yul\":3594:3596   */\n      0x20\n        /* \"#utility.yul\":3583:3592   */\n      dup3\n        /* \"#utility.yul\":3579:3597   */\n      add\n        /* \"#utility.yul\":3571:3597   */\n      swap1\n      pop\n        /* \"#utility.yul\":3607:3678   */\n      tag_175\n        /* \"#utility.yul\":3675:3676   */\n      0x00\n        /* \"#utility.yul\":3664:3673   */\n      dup4\n        /* \"#utility.yul\":3660:3677   */\n      add\n        /* \"#utility.yul\":3651:3657   */\n      dup5\n        /* \"#utility.yul\":3607:3678   */\n      tag_127\n      jump\t// in\n    tag_175:\n        /* \"#utility.yul\":3463:3685   */\n      swap3\n      swap2\n      pop\n      pop\n      jump\t// out\n        /* \"#utility.yul\":3691:4310   */\n    tag_34:\n        /* \"#utility.yul\":3768:3774   */\n      0x00\n        /* \"#utility.yul\":3776:3782   */\n      dup1\n        /* \"#utility.yul\":3784:3790   */\n      0x00\n        /* \"#utility.yul\":3833:3835   */\n      0x60\n        /* \"#utility.yul\":3821:3830   */\n      dup5\n        /* \"#utility.yul\":3812:3819   */\n      dup7\n        /* \"#utility.yul\":3808:3831   */\n      sub\n        /* \"#utility.yul\":3804:3836   */\n      slt\n        /* \"#utility.yul\":3801:3920   */\n      iszero\n      tag_177\n      jumpi\n        /* \"#utility.yul\":3839:3918   */\n      tag_178\n      tag_116\n      jump\t// in\n    tag_178:\n        /* \"#utility.yul\":3801:3920   */\n    tag_177:\n        /* \"#utility.yul\":3959:3960   */\n      0x00\n        /* \"#utility.yul\":3984:4037   */\n      tag_179\n        /* \"#utility.yul\":4029:4036   */\n      dup7\n        /* \"#utility.yul\":4020:4026   */\n      dup3\n        /* \"#utility.yul\":4009:4018   */\n      dup8\n        /* \"#utility.yul\":4005:4027   */\n      add\n        /* \"#utility.yul\":3984:4037   */\n      tag_121\n      jump\t// in\n    tag_179:\n        /* \"#utility.yul\":3974:4037   */\n      swap4\n      pop\n        /* \"#utility.yul\":3930:4047   */\n      pop\n        /* \"#utility.yul\":4086:4088   */\n      0x20\n        /* \"#utility.yul\":4112:4165   */\n      tag_180\n        /* \"#utility.yul\":4157:4164   */\n      dup7\n        /* \"#utility.yul\":4148:4154   */\n      dup3\n        /* \"#utility.yul\":4137:4146   */\n      dup8\n        /* \"#utility.yul\":4133:4155   */\n      add\n        /* \"#utility.yul\":4112:4165   */\n      tag_121\n      jump\t// in\n    tag_180:\n        /* \"#utility.yul\":4102:4165   */\n      swap3\n      pop\n        /* \"#utility.yul\":4057:4175   */\n      pop\n        /* \"#utility.yul\":4214:4216   */\n      0x40\n        /* \"#utility.yul\":4240:4293   */\n      tag_181\n        /* \"#utility.yul\":4285:4292   */\n      dup7\n        /* \"#utility.yul\":4276:4282   */\n      dup3\n        /* \"#utility.yul\":4265:4274   */\n      dup8\n        /* \"#utility.yul\":4261:4283   */\n      add\n        /* \"#utility.yul\":4240:4293   */\n      tag_124\n      jump\t// in\n    tag_181:\n        /* \"#utility.yul\":4230:4293   */\n      swap2\n      pop\n        /* \"#utility.yul\":4185:4303   */\n      pop\n        /* \"#utility.yul\":3691:4310   */\n      swap3\n      pop\n      swap3\n      pop\n      swap3\n      jump\t// out\n        /* \"#utility.yul\":4316:4402   */\n    tag_128:\n        /* \"#utility.yul\":4351:4358   */\n      0x00\n        /* \"#utility.yul\":4391:4395   */\n      0xff\n        /* \"#utility.yul\":4384:4389   */\n      dup3\n        /* \"#utility.yul\":4380:4396   */\n      and\n        /* \"#utility.yul\":4369:4396   */\n      swap1\n      pop\n        /* \"#utility.yul\":4316:4402   */\n      swap2\n      swap1\n      pop\n      jump\t// out\n        /* \"#utility.yul\":4408:4520   */\n    tag_129:\n        /* \"#utility.yul\":4491:4513   */\n      tag_184\n        /* \"#utility.yul\":4507:4512   */\n      dup2\n        /* \"#utility.yul\":4491:4513   */\n      tag_128\n      jump\t// in\n    tag_184:\n        /* \"#utility.yul\":4486:4489   */\n      dup3\n        /* \"#utility.yul\":4479:4514   */\n      mstore\n        /* \"#utility.yul\":4408:4520   */\n      pop\n      pop\n      jump\t// out\n        /* \"#utility.yul\":4526:4740   */\n    tag_40:\n        /* \"#utility.yul\":4615:4619   */\n      0x00\n        /* \"#utility.yul\":4653:4655   */\n      0x20\n        /* \"#utility.yul\":4642:4651   */\n      dup3\n        /* \"#utility.yul\":4638:4656   */\n      add\n        /* \"#utility.yul\":4630:4656   */\n      swap1\n      pop\n        /* \"#utility.yul\":4666:4733   */\n      tag_186\n        /* \"#utility.yul\":4730:4731   */\n      0x00\n        /* \"#utility.yul\":4719:4728   */\n      dup4\n        /* \"#utility.yul\":4715:4732   */\n      add\n        /* \"#utility.yul\":4706:4712   */\n      dup5\n        /* \"#utility.yul\":4666:4733   */\n      tag_129\n      jump\t// in\n    tag_186:\n        /* \"#utility.yul\":4526:4740   */\n      swap3\n      swap2\n      pop\n      pop\n      jump\t// out\n        /* \"#utility.yul\":4746:4864   */\n    tag_130:\n        /* \"#utility.yul\":4833:4857   */\n      tag_188\n        /* \"#utility.yul\":4851:4856   */\n      dup2\n        /* \"#utility.yul\":4833:4857   */\n      tag_119\n      jump\t// in\n    tag_188:\n        /* \"#utility.yul\":4828:4831   */\n      dup3\n        /* \"#utility.yul\":4821:4858   */\n      mstore\n        /* \"#utility.yul\":4746:4864   */\n      pop\n      pop\n      jump\t// out\n        /* \"#utility.yul\":4870:5092   */\n    tag_47:\n        /* \"#utility.yul\":4963:4967   */\n      0x00\n        /* \"#utility.yul\":5001:5003   */\n      0x20\n        /* \"#utility.yul\":4990:4999   */\n      dup3\n        /* \"#utility.yul\":4986:5004   */\n      add\n        /* \"#utility.yul\":4978:5004   */\n      swap1\n      pop\n        /* \"#utility.yul\":5014:5085   */\n      tag_190\n        /* \"#utility.yul\":5082:5083   */\n      0x00\n        /* \"#utility.yul\":5071:5080   */\n      dup4\n        /* \"#utility.yul\":5067:5084   */\n      add\n        /* \"#utility.yul\":5058:5064   */\n      dup5\n        /* \"#utility.yul\":5014:5085   */\n      tag_130\n      jump\t// in\n    tag_190:\n        /* \"#utility.yul\":4870:5092   */\n      swap3\n      swap2\n      pop\n      pop\n      jump\t// out\n        /* \"#utility.yul\":5098:5427   */\n    tag_50:\n        /* \"#utility.yul\":5157:5163   */\n      0x00\n        /* \"#utility.yul\":5206:5208   */\n      0x20\n        /* \"#utility.yul\":5194:5203   */\n      dup3\n        /* \"#utility.yul\":5185:5192   */\n      dup5\n        /* \"#utility.yul\":5181:5204   */\n      sub\n        /* \"#utility.yul\":5177:5209   */\n      slt\n        /* \"#utility.yul\":5174:5293   */\n      iszero\n      tag_192\n      jumpi\n        /* \"#utility.yul\":5212:5291   */\n      tag_193\n      tag_116\n      jump\t// in\n    tag_193:\n        /* \"#utility.yul\":5174:5293   */\n    tag_192:\n        /* \"#utility.yul\":5332:5333   */\n      0x00\n        /* \"#utility.yul\":5357:5410   */\n      tag_194\n        /* \"#utility.yul\":5402:5409   */\n      dup5\n        /* \"#utility.yul\":5393:5399   */\n      dup3\n        /* \"#utility.yul\":5382:5391   */\n      dup6\n        /* \"#utility.yul\":5378:5400   */\n      add\n        /* \"#utility.yul\":5357:5410   */\n      tag_121\n      jump\t// in\n    tag_194:\n        /* \"#utility.yul\":5347:5410   */\n      swap2\n      pop\n        /* \"#utility.yul\":5303:5420   */\n      pop\n        /* \"#utility.yul\":5098:5427   */\n      swap3\n      swap2\n      pop\n      pop\n      jump\t// out\n        /* \"#utility.yul\":5433:5907   */\n    tag_68:\n        /* \"#utility.yul\":5501:5507   */\n      0x00\n        /* \"#utility.yul\":5509:5515   */\n      dup1\n        /* \"#utility.yul\":5558:5560   */\n      0x40\n        /* \"#utility.yul\":5546:5555   */\n      dup4\n        /* \"#utility.yul\":5537:5544   */\n      dup6\n        /* \"#utility.yul\":5533:5556   */\n      sub\n        /* \"#utility.yul\":5529:5561   */\n      slt\n        /* \"#utility.yul\":5526:5645   */\n      iszero\n      tag_196\n      jumpi\n        /* \"#utility.yul\":5564:5643   */\n      tag_197\n      tag_116\n      jump\t// in\n    tag_197:\n        /* \"#utility.yul\":5526:5645   */\n    tag_196:\n        /* \"#utility.yul\":5684:5685   */\n      0x00\n        /* \"#utility.yul\":5709:5762   */\n      tag_198\n        /* \"#utility.yul\":5754:5761   */\n      dup6\n        /* \"#utility.yul\":5745:5751   */\n      dup3\n        /* \"#utility.yul\":5734:5743   */\n      dup7\n        /* \"#utility.yul\":5730:5752   */\n      add\n        /* \"#utility.yul\":5709:5762   */\n      tag_121\n      jump\t// in\n    tag_198:\n        /* \"#utility.yul\":5699:5762   */\n      swap3\n      pop\n        /* \"#utility.yul\":5655:5772   */\n      pop\n        /* \"#utility.yul\":5811:5813   */\n      0x20\n        /* \"#utility.yul\":5837:5890   */\n      tag_199\n        /* \"#utility.yul\":5882:5889   */\n      dup6\n        /* \"#utility.yul\":5873:5879   */\n      dup3\n        /* \"#utility.yul\":5862:5871   */\n      dup7\n        /* \"#utility.yul\":5858:5880   */\n      add\n        /* \"#utility.yul\":5837:5890   */\n      tag_121\n      jump\t// in\n    tag_199:\n        /* \"#utility.yul\":5827:5890   */\n      swap2\n      pop\n        /* \"#utility.yul\":5782:5900   */\n      pop\n        /* \"#utility.yul\":5433:5907   */\n      swap3\n      pop\n      swap3\n      swap1\n      pop\n      jump\t// out\n        /* \"#utility.yul\":5913:6093   */\n    tag_131:\n        /* \"#utility.yul\":5961:6038   */\n      0x4e487b7100000000000000000000000000000000000000000000000000000000\n        /* \"#utility.yul\":5958:5959   */\n      0x00\n        /* \"#utility.yul\":5951:6039   */\n      mstore\n        /* \"#utility.yul\":6058:6062   */\n      0x22\n        /* \"#utility.yul\":6055:6056   */\n      0x04\n        /* \"#utility.yul\":6048:6063   */\n      mstore\n        /* \"#utility.yul\":6082:6086   */\n      0x24\n        /* \"#utility.yul\":6079:6080   */\n      0x00\n        /* \"#utility.yul\":6072:6087   */\n      revert\n        /* \"#utility.yul\":6099:6419   */\n    tag_72:\n        /* \"#utility.yul\":6143:6149   */\n      0x00\n        /* \"#utility.yul\":6180:6181   */\n      0x02\n        /* \"#utility.yul\":6174:6178   */\n      dup3\n        /* \"#utility.yul\":6170:6182   */\n      div\n        /* \"#utility.yul\":6160:6182   */\n      swap1\n      pop\n        /* \"#utility.yul\":6227:6228   */\n      0x01\n        /* \"#utility.yul\":6221:6225   */\n      dup3\n        /* \"#utility.yul\":6217:6229   */\n      and\n        /* \"#utility.yul\":6248:6266   */\n      dup1\n        /* \"#utility.yul\":6238:6319   */\n      tag_202\n      jumpi\n        /* \"#utility.yul\":6304:6308   */\n      0x7f\n        /* \"#utility.yul\":6296:6302   */\n      dup3\n        /* \"#utility.yul\":6292:6309   */\n      and\n        /* \"#utility.yul\":6282:6309   */\n      swap2\n      pop\n        /* \"#utility.yul\":6238:6319   */\n    tag_202:\n        /* \"#utility.yul\":6366:6368   */\n      0x20\n        /* \"#utility.yul\":6358:6364   */\n      dup3\n        /* \"#utility.yul\":6355:6369   */\n      lt\n        /* \"#utility.yul\":6335:6353   */\n      dup2\n        /* \"#utility.yul\":6332:6370   */\n      sub\n        /* \"#utility.yul\":6329:6413   */\n      tag_203\n      jumpi\n        /* \"#utility.yul\":6385:6403   */\n      tag_204\n      tag_131\n      jump\t// in\n    tag_204:\n        /* \"#utility.yul\":6329:6413   */\n    tag_203:\n        /* \"#utility.yul\":6150:6419   */\n      pop\n        /* \"#utility.yul\":6099:6419   */\n      swap2\n      swap1\n      pop\n      jump\t// out\n        /* \"#utility.yul\":6425:6605   */\n    tag_132:\n        /* \"#utility.yul\":6473:6550   */\n      0x4e487b7100000000000000000000000000000000000000000000000000000000\n        /* \"#utility.yul\":6470:6471   */\n      0x00\n        /* \"#utility.yul\":6463:6551   */\n      mstore\n        /* \"#utility.yul\":6570:6574   */\n      0x11\n        /* \"#utility.yul\":6567:6568   */\n      0x04\n        /* \"#utility.yul\":6560:6575   */\n      mstore\n        /* \"#utility.yul\":6594:6598   */\n      0x24\n        /* \"#utility.yul\":6591:6592   */\n      0x00\n        /* \"#utility.yul\":6584:6599   */\n      revert\n        /* \"#utility.yul\":6611:6805   */\n    tag_81:\n        /* \"#utility.yul\":6651:6655   */\n      0x00\n        /* \"#utility.yul\":6671:6691   */\n      tag_207\n        /* \"#utility.yul\":6689:6690   */\n      dup3\n        /* \"#utility.yul\":6671:6691   */\n      tag_122\n      jump\t// in\n    tag_207:\n        /* \"#utility.yul\":6666:6691   */\n      swap2\n      pop\n        /* \"#utility.yul\":6705:6725   */\n      tag_208\n        /* \"#utility.yul\":6723:6724   */\n      dup4\n        /* \"#utility.yul\":6705:6725   */\n      tag_122\n      jump\t// in\n    tag_208:\n        /* \"#utility.yul\":6700:6725   */\n      swap3\n      pop\n        /* \"#utility.yul\":6749:6750   */\n      dup3\n        /* \"#utility.yul\":6746:6747   */\n      dup3\n        /* \"#utility.yul\":6742:6751   */\n      sub\n        /* \"#utility.yul\":6734:6751   */\n      swap1\n      pop\n        /* \"#utility.yul\":6773:6774   */\n      dup2\n        /* \"#utility.yul\":6767:6771   */\n      dup2\n        /* \"#utility.yul\":6764:6775   */\n      gt\n        /* \"#utility.yul\":6761:6798   */\n      iszero\n      tag_209\n      jumpi\n        /* \"#utility.yul\":6778:6796   */\n      tag_210\n      tag_132\n      jump\t// in\n    tag_210:\n        /* \"#utility.yul\":6761:6798   */\n    tag_209:\n        /* \"#utility.yul\":6611:6805   */\n      swap3\n      swap2\n      pop\n      pop\n      jump\t// out\n        /* \"#utility.yul\":6811:7002   */\n    tag_84:\n        /* \"#utility.yul\":6851:6854   */\n      0x00\n        /* \"#utility.yul\":6870:6890   */\n      tag_212\n        /* \"#utility.yul\":6888:6889   */\n      dup3\n        /* \"#utility.yul\":6870:6890   */\n      tag_122\n      jump\t// in\n    tag_212:\n        /* \"#utility.yul\":6865:6890   */\n      swap2\n      pop\n        /* \"#utility.yul\":6904:6924   */\n      tag_213\n        /* \"#utility.yul\":6922:6923   */\n      dup4\n        /* \"#utility.yul\":6904:6924   */\n      tag_122\n      jump\t// in\n    tag_213:\n        /* \"#utility.yul\":6899:6924   */\n      swap3\n      pop\n        /* \"#utility.yul\":6947:6948   */\n      dup3\n        /* \"#utility.yul\":6944:6945   */\n      dup3\n        /* \"#utility.yul\":6940:6949   */\n      add\n        /* \"#utility.yul\":6933:6949   */\n      swap1\n      pop\n        /* \"#utility.yul\":6968:6971   */\n      dup1\n        /* \"#utility.yul\":6965:6966   */\n      dup3\n        /* \"#utility.yul\":6962:6972   */\n      gt\n        /* \"#utility.yul\":6959:6995   */\n      iszero\n      tag_214\n      jumpi\n        /* \"#utility.yul\":6975:6993   */\n      tag_215\n      tag_132\n      jump\t// in\n    tag_215:\n        /* \"#utility.yul\":6959:6995   */\n    tag_214:\n        /* \"#utility.yul\":6811:7002   */\n      swap3\n      swap2\n      pop\n      pop\n      jump\t// out\n\n    auxdata: 0xa2646970667358221220e3ecf8426034310de55e2a5daa1f8782021ada1ad30e78f27c5a66f90a2c04f564736f6c634300081a0033\n}\n",
				"bytecode": {
					"linkReferences": {},
					"object": "608060405233600560016101000a81548173ffffffffffffffffffffffffffffffffffffffff021916908373ffffffffffffffffffffffffffffffffffffffff160217905550348015610050575f80fd5b506040516116aa3803806116aa83398181016040528101906100729190610338565b828282826003908161008491906105cd565b50816004908161009491906105cd565b508060055f6101000a81548160ff021916908360ff1602179055505050506100da3382600a6100c391906107f8565b600a6100cf9190610842565b6100e260201b60201c565b5050506108de565b8060015f8473ffffffffffffffffffffffffffffffffffffffff1673ffffffffffffffffffffffffffffffffffffffff1681526020019081526020015f205f82825461012e9190610883565b92505081905550805f808282546101459190610883565b925050819055508173ffffffffffffffffffffffffffffffffffffffff165f73ffffffffffffffffffffffffffffffffffffffff167fddf252ad1be2c89b69c2b068fc378daa952ba7f163c4a11628f55a4df523b3ef836040516101a991906108c5565b60405180910390a35050565b5f604051905090565b5f80fd5b5f80fd5b5f80fd5b5f80fd5b5f601f19601f8301169050919050565b7f4e487b71000000000000000000000000000000000000000000000000000000005f52604160045260245ffd5b610214826101ce565b810181811067ffffffffffffffff82111715610233576102326101de565b5b80604052505050565b5f6102456101b5565b9050610251828261020b565b919050565b5f67ffffffffffffffff8211156102705761026f6101de565b5b610279826101ce565b9050602081019050919050565b8281835e5f83830152505050565b5f6102a66102a184610256565b61023c565b9050828152602081018484840111156102c2576102c16101ca565b5b6102cd848285610286565b509392505050565b5f82601f8301126102e9576102e86101c6565b5b81516102f9848260208601610294565b91505092915050565b5f60ff82169050919050565b61031781610302565b8114610321575f80fd5b50565b5f815190506103328161030e565b92915050565b5f805f6060848603121561034f5761034e6101be565b5b5f84015167ffffffffffffffff81111561036c5761036b6101c2565b5b610378868287016102d5565b935050602084015167ffffffffffffffff811115610399576103986101c2565b5b6103a5868287016102d5565b92505060406103b686828701610324565b9150509250925092565b5f81519050919050565b7f4e487b71000000000000000000000000000000000000000000000000000000005f52602260045260245ffd5b5f600282049050600182168061040e57607f821691505b602082108103610421576104206103ca565b5b50919050565b5f819050815f5260205f209050919050565b5f6020601f8301049050919050565b5f82821b905092915050565b5f600883026104837fffffffffffffffffffffffffffffffffffffffffffffffffffffffffffffffff82610448565b61048d8683610448565b95508019841693508086168417925050509392505050565b5f819050919050565b5f819050919050565b5f6104d16104cc6104c7846104a5565b6104ae565b6104a5565b9050919050565b5f819050919050565b6104ea836104b7565b6104fe6104f6826104d8565b848454610454565b825550505050565b5f90565b610512610506565b61051d8184846104e1565b505050565b5b81811015610540576105355f8261050a565b600181019050610523565b5050565b601f8211156105855761055681610427565b61055f84610439565b8101602085101561056e578190505b61058261057a85610439565b830182610522565b50505b505050565b5f82821c905092915050565b5f6105a55f198460080261058a565b1980831691505092915050565b5f6105bd8383610596565b9150826002028217905092915050565b6105d6826103c0565b67ffffffffffffffff8111156105ef576105ee6101de565b5b6105f982546103f7565b610604828285610544565b5f60209050601f831160018114610635575f8415610623578287015190505b61062d85826105b2565b865550610694565b601f19841661064386610427565b5f5b8281101561066a57848901518255600182019150602085019450602081019050610645565b868310156106875784890151610683601f891682610596565b8355505b6001600288020188555050505b505050505050565b7f4e487b71000000000000000000000000000000000000000000000000000000005f52601160045260245ffd5b5f8160011c9050919050565b5f808291508390505b600185111561071e578086048111156106fa576106f961069c565b5b60018516156107095780820291505b8081029050610717856106c9565b94506106de565b94509492505050565b5f8261073657600190506107f1565b81610743575f90506107f1565b8160018114610759576002811461076357610792565b60019150506107f1565b60ff8411156107755761077461069c565b5b8360020a91508482111561078c5761078b61069c565b5b506107f1565b5060208310610133831016604e8410600b84101617156107c75782820a9050838111156107c2576107c161069c565b5b6107f1565b6107d484848460016106d5565b925090508184048111156107eb576107ea61069c565b5b81810290505b9392505050565b5f610802826104a5565b915061080d83610302565b925061083a7fffffffffffffffffffffffffffffffffffffffffffffffffffffffffffffffff8484610727565b905092915050565b5f61084c826104a5565b9150610857836104a5565b9250828202610865816104a5565b9150828204841483151761087c5761087b61069c565b5b5092915050565b5f61088d826104a5565b9150610898836104a5565b92508282019050808211156108b0576108af61069c565b5b92915050565b6108bf816104a5565b82525050565b5f6020820190506108d85f8301846108b6565b92915050565b610dbf806108eb5f395ff3fe608060405234801561000f575f80fd5b50600436106100cd575f3560e01c80636d4ce63c1161008a57806395d89b411161006457806395d89b41146102135780639dc29fac14610231578063a9059cbb1461024d578063dd62ed3e1461027d576100cd565b80636d4ce63c146101a757806370a08231146101c55780638da5cb5b146101f5576100cd565b806306fdde03146100d1578063095ea7b3146100ef57806318160ddd1461011f57806323b872dd1461013d578063313ce5671461016d57806340c10f191461018b575b5f80fd5b6100d96102ad565b6040516100e69190610a3a565b60405180910390f35b61010960048036038101906101049190610aeb565b610339565b6040516101169190610b43565b60405180910390f35b610127610426565b6040516101349190610b6b565b60405180910390f35b61015760048036038101906101529190610b84565b61042b565b6040516101649190610b43565b60405180910390f35b6101756105d0565b6040516101829190610bef565b60405180910390f35b6101a560048036038101906101a09190610aeb565b6105e2565b005b6101af6105f0565b6040516101bc9190610c17565b60405180910390f35b6101df60048036038101906101da9190610c30565b610619565b6040516101ec9190610b6b565b60405180910390f35b6101fd61062e565b60405161020a9190610c17565b60405180910390f35b61021b610654565b6040516102289190610a3a565b60405180910390f35b61024b60048036038101906102469190610aeb565b6106e0565b005b61026760048036038101906102629190610aeb565b6106ee565b6040516102749190610b43565b60405180910390f35b61029760048036038101906102929190610c5b565b610804565b6040516102a49190610b6b565b60405180910390f35b600380546102ba90610cc6565b80601f01602080910402602001604051908101604052809291908181526020018280546102e690610cc6565b80156103315780601f1061030857610100808354040283529160200191610331565b820191905f5260205f20905b81548152906001019060200180831161031457829003601f168201915b505050505081565b5f8160025f3373ffffffffffffffffffffffffffffffffffffffff1673ffffffffffffffffffffffffffffffffffffffff1681526020019081526020015f205f8573ffffffffffffffffffffffffffffffffffffffff1673ffffffffffffffffffffffffffffffffffffffff1681526020019081526020015f20819055508273ffffffffffffffffffffffffffffffffffffffff163373ffffffffffffffffffffffffffffffffffffffff167f8c5be1e5ebec7d5bd14f71427d1e84f3dd0314c0f7b2291e5b200ac8c7c3b925846040516104149190610b6b565b60405180910390a36001905092915050565b5f5481565b5f8160025f8673ffffffffffffffffffffffffffffffffffffffff1673ffffffffffffffffffffffffffffffffffffffff1681526020019081526020015f205f3373ffffffffffffffffffffffffffffffffffffffff1673ffffffffffffffffffffffffffffffffffffffff1681526020019081526020015f205f8282546104b39190610d23565b925050819055508160015f8673ffffffffffffffffffffffffffffffffffffffff1673ffffffffffffffffffffffffffffffffffffffff1681526020019081526020015f205f8282546105069190610d23565b925050819055508160015f8573ffffffffffffffffffffffffffffffffffffffff1673ffffffffffffffffffffffffffffffffffffffff1681526020019081526020015f205f8282546105599190610d56565b925050819055508273ffffffffffffffffffffffffffffffffffffffff168473ffffffffffffffffffffffffffffffffffffffff167fddf252ad1be2c89b69c2b068fc378daa952ba7f163c4a11628f55a4df523b3ef846040516105bd9190610b6b565b60405180910390a3600190509392505050565b60055f9054906101000a900460ff1681565b6105ec8282610824565b5050565b5f600560019054906101000a900473ffffffffffffffffffffffffffffffffffffffff16905090565b6001602052805f5260405f205f915090505481565b600560019054906101000a900473ffffffffffffffffffffffffffffffffffffffff1681565b6004805461066190610cc6565b80601f016020809104026020016040519081016040528092919081815260200182805461068d90610cc6565b80156106d85780601f106106af576101008083540402835291602001916106d8565b820191905f5260205f20905b8154815290600101906020018083116106bb57829003601f168201915b505050505081565b6106ea82826108f7565b5050565b5f8160015f3373ffffffffffffffffffffffffffffffffffffffff1673ffffffffffffffffffffffffffffffffffffffff1681526020019081526020015f205f82825461073b9190610d23565b925050819055508160015f8573ffffffffffffffffffffffffffffffffffffffff1673ffffffffffffffffffffffffffffffffffffffff1681526020019081526020015f205f82825461078e9190610d56565b925050819055508273ffffffffffffffffffffffffffffffffffffffff163373ffffffffffffffffffffffffffffffffffffffff167fddf252ad1be2c89b69c2b068fc378daa952ba7f163c4a11628f55a4df523b3ef846040516107f29190610b6b565b60405180910390a36001905092915050565b6002602052815f5260405f20602052805f5260405f205f91509150505481565b8060015f8473ffffffffffffffffffffffffffffffffffffffff1673ffffffffffffffffffffffffffffffffffffffff1681526020019081526020015f205f8282546108709190610d56565b92505081905550805f808282546108879190610d56565b925050819055508173ffffffffffffffffffffffffffffffffffffffff165f73ffffffffffffffffffffffffffffffffffffffff167fddf252ad1be2c89b69c2b068fc378daa952ba7f163c4a11628f55a4df523b3ef836040516108eb9190610b6b565b60405180910390a35050565b8060015f8473ffffffffffffffffffffffffffffffffffffffff1673ffffffffffffffffffffffffffffffffffffffff1681526020019081526020015f205f8282546109439190610d23565b92505081905550805f8082825461095a9190610d23565b925050819055505f73ffffffffffffffffffffffffffffffffffffffff168273ffffffffffffffffffffffffffffffffffffffff167fddf252ad1be2c89b69c2b068fc378daa952ba7f163c4a11628f55a4df523b3ef836040516109be9190610b6b565b60405180910390a35050565b5f81519050919050565b5f82825260208201905092915050565b8281835e5f83830152505050565b5f601f19601f8301169050919050565b5f610a0c826109ca565b610a1681856109d4565b9350610a268185602086016109e4565b610a2f816109f2565b840191505092915050565b5f6020820190508181035f830152610a528184610a02565b905092915050565b5f80fd5b5f73ffffffffffffffffffffffffffffffffffffffff82169050919050565b5f610a8782610a5e565b9050919050565b610a9781610a7d565b8114610aa1575f80fd5b50565b5f81359050610ab281610a8e565b92915050565b5f819050919050565b610aca81610ab8565b8114610ad4575f80fd5b50565b5f81359050610ae581610ac1565b92915050565b5f8060408385031215610b0157610b00610a5a565b5b5f610b0e85828601610aa4565b9250506020610b1f85828601610ad7565b9150509250929050565b5f8115159050919050565b610b3d81610b29565b82525050565b5f602082019050610b565f830184610b34565b92915050565b610b6581610ab8565b82525050565b5f602082019050610b7e5f830184610b5c565b92915050565b5f805f60608486031215610b9b57610b9a610a5a565b5b5f610ba886828701610aa4565b9350506020610bb986828701610aa4565b9250506040610bca86828701610ad7565b9150509250925092565b5f60ff82169050919050565b610be981610bd4565b82525050565b5f602082019050610c025f830184610be0565b92915050565b610c1181610a7d565b82525050565b5f602082019050610c2a5f830184610c08565b92915050565b5f60208284031215610c4557610c44610a5a565b5b5f610c5284828501610aa4565b91505092915050565b5f8060408385031215610c7157610c70610a5a565b5b5f610c7e85828601610aa4565b9250506020610c8f85828601610aa4565b9150509250929050565b7f4e487b71000000000000000000000000000000000000000000000000000000005f52602260045260245ffd5b5f6002820490506001821680610cdd57607f821691505b602082108103610cf057610cef610c99565b5b50919050565b7f4e487b71000000000000000000000000000000000000000000000000000000005f52601160045260245ffd5b5f610d2d82610ab8565b9150610d3883610ab8565b9250828203905081811115610d5057610d4f610cf6565b5b92915050565b5f610d6082610ab8565b9150610d6b83610ab8565b9250828201905080821115610d8357610d82610cf6565b5b9291505056fea2646970667358221220e3ecf8426034310de55e2a5daa1f8782021ada1ad30e78f27c5a66f90a2c04f564736f6c634300081a0033",
					"opcodes": "PUSH1 0x80 PUSH1 0x40 MSTORE CALLER PUSH1 0x5 PUSH1 0x1 PUSH2 0x100 EXP DUP2 SLOAD DUP2 PUSH20 0xFFFFFFFFFFFFFFFFFFFFFFFFFFFFFFFFFFFFFFFF MUL NOT AND SWAP1 DUP4 PUSH20 0xFFFFFFFFFFFFFFFFFFFFFFFFFFFFFFFFFFFFFFFF AND MUL OR SWAP1 SSTORE POP CALLVALUE DUP1 ISZERO PUSH2 0x50 JUMPI PUSH0 DUP1 REVERT JUMPDEST POP PUSH1 0x40 MLOAD PUSH2 0x16AA CODESIZE SUB DUP1 PUSH2 0x16AA DUP4 CODECOPY DUP2 DUP2 ADD PUSH1 0x40 MSTORE DUP2 ADD SWAP1 PUSH2 0x72 SWAP2 SWAP1 PUSH2 0x338 JUMP JUMPDEST DUP3 DUP3 DUP3 DUP3 PUSH1 0x3 SWAP1 DUP2 PUSH2 0x84 SWAP2 SWAP1 PUSH2 0x5CD JUMP JUMPDEST POP DUP2 PUSH1 0x4 SWAP1 DUP2 PUSH2 0x94 SWAP2 SWAP1 PUSH2 0x5CD JUMP JUMPDEST POP DUP1 PUSH1 0x5 PUSH0 PUSH2 0x100 EXP DUP2 SLOAD DUP2 PUSH1 0xFF MUL NOT AND SWAP1 DUP4 PUSH1 0xFF AND MUL OR SWAP1 SSTORE POP POP POP POP PUSH2 0xDA CALLER DUP3 PUSH1 0xA PUSH2 0xC3 SWAP2 SWAP1 PUSH2 0x7F8 JUMP JUMPDEST PUSH1 0xA PUSH2 0xCF SWAP2 SWAP1 PUSH2 0x842 JUMP JUMPDEST PUSH2 0xE2 PUSH1 0x20 SHL PUSH1 0x20 SHR JUMP JUMPDEST POP POP POP PUSH2 0x8DE JUMP JUMPDEST DUP1 PUSH1 0x1 PUSH0 DUP5 PUSH20 0xFFFFFFFFFFFFFFFFFFFFFFFFFFFFFFFFFFFFFFFF AND PUSH20 0xFFFFFFFFFFFFFFFFFFFFFFFFFFFFFFFFFFFFFFFF AND DUP2 MSTORE PUSH1 0x20 ADD SWAP1 DUP2 MSTORE PUSH1 0x20 ADD PUSH0 KECCAK256 PUSH0 DUP3 DUP3 SLOAD PUSH2 0x12E SWAP2 SWAP1 PUSH2 0x883 JUMP JUMPDEST SWAP3 POP POP DUP2 SWAP1 SSTORE POP DUP1 PUSH0 DUP1 DUP3 DUP3 SLOAD PUSH2 0x145 SWAP2 SWAP1 PUSH2 0x883 JUMP JUMPDEST SWAP3 POP POP DUP2 SWAP1 SSTORE POP DUP2 PUSH20 0xFFFFFFFFFFFFFFFFFFFFFFFFFFFFFFFFFFFFFFFF AND PUSH0 PUSH20 0xFFFFFFFFFFFFFFFFFFFFFFFFFFFFFFFFFFFFFFFF AND PUSH32 0xDDF252AD1BE2C89B69C2B068FC378DAA952BA7F163C4A11628F55A4DF523B3EF DUP4 PUSH1 0x40 MLOAD PUSH2 0x1A9 SWAP2 SWAP1 PUSH2 0x8C5 JUMP JUMPDEST PUSH1 0x40 MLOAD DUP1 SWAP2 SUB SWAP1 LOG3 POP POP JUMP JUMPDEST PUSH0 PUSH1 0x40 MLOAD SWAP1 POP SWAP1 JUMP JUMPDEST PUSH0 DUP1 REVERT JUMPDEST PUSH0 DUP1 REVERT JUMPDEST PUSH0 DUP1 REVERT JUMPDEST PUSH0 DUP1 REVERT JUMPDEST PUSH0 PUSH1 0x1F NOT PUSH1 0x1F DUP4 ADD AND SWAP1 POP SWAP2 SWAP1 POP JUMP JUMPDEST PUSH32 0x4E487B7100000000000000000000000000000000000000000000000000000000 PUSH0 MSTORE PUSH1 0x41 PUSH1 0x4 MSTORE PUSH1 0x24 PUSH0 REVERT JUMPDEST PUSH2 0x214 DUP3 PUSH2 0x1CE JUMP JUMPDEST DUP2 ADD DUP2 DUP2 LT PUSH8 0xFFFFFFFFFFFFFFFF DUP3 GT OR ISZERO PUSH2 0x233 JUMPI PUSH2 0x232 PUSH2 0x1DE JUMP JUMPDEST JUMPDEST DUP1 PUSH1 0x40 MSTORE POP POP POP JUMP JUMPDEST PUSH0 PUSH2 0x245 PUSH2 0x1B5 JUMP JUMPDEST SWAP1 POP PUSH2 0x251 DUP3 DUP3 PUSH2 0x20B JUMP JUMPDEST SWAP2 SWAP1 POP JUMP JUMPDEST PUSH0 PUSH8 0xFFFFFFFFFFFFFFFF DUP3 GT ISZERO PUSH2 0x270 JUMPI PUSH2 0x26F PUSH2 0x1DE JUMP JUMPDEST JUMPDEST PUSH2 0x279 DUP3 PUSH2 0x1CE JUMP JUMPDEST SWAP1 POP PUSH1 0x20 DUP2 ADD SWAP1 POP SWAP2 SWAP1 POP JUMP JUMPDEST DUP3 DUP2 DUP4 MCOPY PUSH0 DUP4 DUP4 ADD MSTORE POP POP POP JUMP JUMPDEST PUSH0 PUSH2 0x2A6 PUSH2 0x2A1 DUP5 PUSH2 0x256 JUMP JUMPDEST PUSH2 0x23C JUMP JUMPDEST SWAP1 POP DUP3 DUP2 MSTORE PUSH1 0x20 DUP2 ADD DUP5 DUP5 DUP5 ADD GT ISZERO PUSH2 0x2C2 JUMPI PUSH2 0x2C1 PUSH2 0x1CA JUMP JUMPDEST JUMPDEST PUSH2 0x2CD DUP5 DUP3 DUP6 PUSH2 0x286 JUMP JUMPDEST POP SWAP4 SWAP3 POP POP POP JUMP JUMPDEST PUSH0 DUP3 PUSH1 0x1F DUP4 ADD SLT PUSH2 0x2E9 JUMPI PUSH2 0x2E8 PUSH2 0x1C6 JUMP JUMPDEST JUMPDEST DUP2 MLOAD PUSH2 0x2F9 DUP5 DUP3 PUSH1 0x20 DUP7 ADD PUSH2 0x294 JUMP JUMPDEST SWAP2 POP POP SWAP3 SWAP2 POP POP JUMP JUMPDEST PUSH0 PUSH1 0xFF DUP3 AND SWAP1 POP SWAP2 SWAP1 POP JUMP JUMPDEST PUSH2 0x317 DUP2 PUSH2 0x302 JUMP JUMPDEST DUP2 EQ PUSH2 0x321 JUMPI PUSH0 DUP1 REVERT JUMPDEST POP JUMP JUMPDEST PUSH0 DUP2 MLOAD SWAP1 POP PUSH2 0x332 DUP2 PUSH2 0x30E JUMP JUMPDEST SWAP3 SWAP2 POP POP JUMP JUMPDEST PUSH0 DUP1 PUSH0 PUSH1 0x60 DUP5 DUP7 SUB SLT ISZERO PUSH2 0x34F JUMPI PUSH2 0x34E PUSH2 0x1BE JUMP JUMPDEST JUMPDEST PUSH0 DUP5 ADD MLOAD PUSH8 0xFFFFFFFFFFFFFFFF DUP2 GT ISZERO PUSH2 0x36C JUMPI PUSH2 0x36B PUSH2 0x1C2 JUMP JUMPDEST JUMPDEST PUSH2 0x378 DUP7 DUP3 DUP8 ADD PUSH2 0x2D5 JUMP JUMPDEST SWAP4 POP POP PUSH1 0x20 DUP5 ADD MLOAD PUSH8 0xFFFFFFFFFFFFFFFF DUP2 GT ISZERO PUSH2 0x399 JUMPI PUSH2 0x398 PUSH2 0x1C2 JUMP JUMPDEST JUMPDEST PUSH2 0x3A5 DUP7 DUP3 DUP8 ADD PUSH2 0x2D5 JUMP JUMPDEST SWAP3 POP POP PUSH1 0x40 PUSH2 0x3B6 DUP7 DUP3 DUP8 ADD PUSH2 0x324 JUMP JUMPDEST SWAP2 POP POP SWAP3 POP SWAP3 POP SWAP3 JUMP JUMPDEST PUSH0 DUP2 MLOAD SWAP1 POP SWAP2 SWAP1 POP JUMP JUMPDEST PUSH32 0x4E487B7100000000000000000000000000000000000000000000000000000000 PUSH0 MSTORE PUSH1 0x22 PUSH1 0x4 MSTORE PUSH1 0x24 PUSH0 REVERT JUMPDEST PUSH0 PUSH1 0x2 DUP3 DIV SWAP1 POP PUSH1 0x1 DUP3 AND DUP1 PUSH2 0x40E JUMPI PUSH1 0x7F DUP3 AND SWAP2 POP JUMPDEST PUSH1 0x20 DUP3 LT DUP2 SUB PUSH2 0x421 JUMPI PUSH2 0x420 PUSH2 0x3CA JUMP JUMPDEST JUMPDEST POP SWAP2 SWAP1 POP JUMP JUMPDEST PUSH0 DUP2 SWAP1 POP DUP2 PUSH0 MSTORE PUSH1 0x20 PUSH0 KECCAK256 SWAP1 POP SWAP2 SWAP1 POP JUMP JUMPDEST PUSH0 PUSH1 0x20 PUSH1 0x1F DUP4 ADD DIV SWAP1 POP SWAP2 SWAP1 POP JUMP JUMPDEST PUSH0 DUP3 DUP3 SHL SWAP1 POP SWAP3 SWAP2 POP POP JUMP JUMPDEST PUSH0 PUSH1 0x8 DUP4 MUL PUSH2 0x483 PUSH32 0xFFFFFFFFFFFFFFFFFFFFFFFFFFFFFFFFFFFFFFFFFFFFFFFFFFFFFFFFFFFFFFFF DUP3 PUSH2 0x448 JUMP JUMPDEST PUSH2 0x48D DUP7 DUP4 PUSH2 0x448 JUMP JUMPDEST SWAP6 POP DUP1 NOT DUP5 AND SWAP4 POP DUP1 DUP7 AND DUP5 OR SWAP3 POP POP POP SWAP4 SWAP3 POP POP POP JUMP JUMPDEST PUSH0 DUP2 SWAP1 POP SWAP2 SWAP1 POP JUMP JUMPDEST PUSH0 DUP2 SWAP1 POP SWAP2 SWAP1 POP JUMP JUMPDEST PUSH0 PUSH2 0x4D1 PUSH2 0x4CC PUSH2 0x4C7 DUP5 PUSH2 0x4A5 JUMP JUMPDEST PUSH2 0x4AE JUMP JUMPDEST PUSH2 0x4A5 JUMP JUMPDEST SWAP1 POP SWAP2 SWAP1 POP JUMP JUMPDEST PUSH0 DUP2 SWAP1 POP SWAP2 SWAP1 POP JUMP JUMPDEST PUSH2 0x4EA DUP4 PUSH2 0x4B7 JUMP JUMPDEST PUSH2 0x4FE PUSH2 0x4F6 DUP3 PUSH2 0x4D8 JUMP JUMPDEST DUP5 DUP5 SLOAD PUSH2 0x454 JUMP JUMPDEST DUP3 SSTORE POP POP POP POP JUMP JUMPDEST PUSH0 SWAP1 JUMP JUMPDEST PUSH2 0x512 PUSH2 0x506 JUMP JUMPDEST PUSH2 0x51D DUP2 DUP5 DUP5 PUSH2 0x4E1 JUMP JUMPDEST POP POP POP JUMP JUMPDEST JUMPDEST DUP2 DUP2 LT ISZERO PUSH2 0x540 JUMPI PUSH2 0x535 PUSH0 DUP3 PUSH2 0x50A JUMP JUMPDEST PUSH1 0x1 DUP2 ADD SWAP1 POP PUSH2 0x523 JUMP JUMPDEST POP POP JUMP JUMPDEST PUSH1 0x1F DUP3 GT ISZERO PUSH2 0x585 JUMPI PUSH2 0x556 DUP2 PUSH2 0x427 JUMP JUMPDEST PUSH2 0x55F DUP5 PUSH2 0x439 JUMP JUMPDEST DUP2 ADD PUSH1 0x20 DUP6 LT ISZERO PUSH2 0x56E JUMPI DUP2 SWAP1 POP JUMPDEST PUSH2 0x582 PUSH2 0x57A DUP6 PUSH2 0x439 JUMP JUMPDEST DUP4 ADD DUP3 PUSH2 0x522 JUMP JUMPDEST POP POP JUMPDEST POP POP POP JUMP JUMPDEST PUSH0 DUP3 DUP3 SHR SWAP1 POP SWAP3 SWAP2 POP POP JUMP JUMPDEST PUSH0 PUSH2 0x5A5 PUSH0 NOT DUP5 PUSH1 0x8 MUL PUSH2 0x58A JUMP JUMPDEST NOT DUP1 DUP4 AND SWAP2 POP POP SWAP3 SWAP2 POP POP JUMP JUMPDEST PUSH0 PUSH2 0x5BD DUP4 DUP4 PUSH2 0x596 JUMP JUMPDEST SWAP2 POP DUP3 PUSH1 0x2 MUL DUP3 OR SWAP1 POP SWAP3 SWAP2 POP POP JUMP JUMPDEST PUSH2 0x5D6 DUP3 PUSH2 0x3C0 JUMP JUMPDEST PUSH8 0xFFFFFFFFFFFFFFFF DUP2 GT ISZERO PUSH2 0x5EF JUMPI PUSH2 0x5EE PUSH2 0x1DE JUMP JUMPDEST JUMPDEST PUSH2 0x5F9 DUP3 SLOAD PUSH2 0x3F7 JUMP JUMPDEST PUSH2 0x604 DUP3 DUP3 DUP6 PUSH2 0x544 JUMP JUMPDEST PUSH0 PUSH1 0x20 SWAP1 POP PUSH1 0x1F DUP4 GT PUSH1 0x1 DUP2 EQ PUSH2 0x635 JUMPI PUSH0 DUP5 ISZERO PUSH2 0x623 JUMPI DUP3 DUP8 ADD MLOAD SWAP1 POP JUMPDEST PUSH2 0x62D DUP6 DUP3 PUSH2 0x5B2 JUMP JUMPDEST DUP7 SSTORE POP PUSH2 0x694 JUMP JUMPDEST PUSH1 0x1F NOT DUP5 AND PUSH2 0x643 DUP7 PUSH2 0x427 JUMP JUMPDEST PUSH0 JUMPDEST DUP3 DUP2 LT ISZERO PUSH2 0x66A JUMPI DUP5 DUP10 ADD MLOAD DUP3 SSTORE PUSH1 0x1 DUP3 ADD SWAP2 POP PUSH1 0x20 DUP6 ADD SWAP5 POP PUSH1 0x20 DUP2 ADD SWAP1 POP PUSH2 0x645 JUMP JUMPDEST DUP7 DUP4 LT ISZERO PUSH2 0x687 JUMPI DUP5 DUP10 ADD MLOAD PUSH2 0x683 PUSH1 0x1F DUP10 AND DUP3 PUSH2 0x596 JUMP JUMPDEST DUP4 SSTORE POP JUMPDEST PUSH1 0x1 PUSH1 0x2 DUP9 MUL ADD DUP9 SSTORE POP POP POP JUMPDEST POP POP POP POP POP POP JUMP JUMPDEST PUSH32 0x4E487B7100000000000000000000000000000000000000000000000000000000 PUSH0 MSTORE PUSH1 0x11 PUSH1 0x4 MSTORE PUSH1 0x24 PUSH0 REVERT JUMPDEST PUSH0 DUP2 PUSH1 0x1 SHR SWAP1 POP SWAP2 SWAP1 POP JUMP JUMPDEST PUSH0 DUP1 DUP3 SWAP2 POP DUP4 SWAP1 POP JUMPDEST PUSH1 0x1 DUP6 GT ISZERO PUSH2 0x71E JUMPI DUP1 DUP7 DIV DUP2 GT ISZERO PUSH2 0x6FA JUMPI PUSH2 0x6F9 PUSH2 0x69C JUMP JUMPDEST JUMPDEST PUSH1 0x1 DUP6 AND ISZERO PUSH2 0x709 JUMPI DUP1 DUP3 MUL SWAP2 POP JUMPDEST DUP1 DUP2 MUL SWAP1 POP PUSH2 0x717 DUP6 PUSH2 0x6C9 JUMP JUMPDEST SWAP5 POP PUSH2 0x6DE JUMP JUMPDEST SWAP5 POP SWAP5 SWAP3 POP POP POP JUMP JUMPDEST PUSH0 DUP3 PUSH2 0x736 JUMPI PUSH1 0x1 SWAP1 POP PUSH2 0x7F1 JUMP JUMPDEST DUP2 PUSH2 0x743 JUMPI PUSH0 SWAP1 POP PUSH2 0x7F1 JUMP JUMPDEST DUP2 PUSH1 0x1 DUP2 EQ PUSH2 0x759 JUMPI PUSH1 0x2 DUP2 EQ PUSH2 0x763 JUMPI PUSH2 0x792 JUMP JUMPDEST PUSH1 0x1 SWAP2 POP POP PUSH2 0x7F1 JUMP JUMPDEST PUSH1 0xFF DUP5 GT ISZERO PUSH2 0x775 JUMPI PUSH2 0x774 PUSH2 0x69C JUMP JUMPDEST JUMPDEST DUP4 PUSH1 0x2 EXP SWAP2 POP DUP5 DUP3 GT ISZERO PUSH2 0x78C JUMPI PUSH2 0x78B PUSH2 0x69C JUMP JUMPDEST JUMPDEST POP PUSH2 0x7F1 JUMP JUMPDEST POP PUSH1 0x20 DUP4 LT PUSH2 0x133 DUP4 LT AND PUSH1 0x4E DUP5 LT PUSH1 0xB DUP5 LT AND OR ISZERO PUSH2 0x7C7 JUMPI DUP3 DUP3 EXP SWAP1 POP DUP4 DUP2 GT ISZERO PUSH2 0x7C2 JUMPI PUSH2 0x7C1 PUSH2 0x69C JUMP JUMPDEST JUMPDEST PUSH2 0x7F1 JUMP JUMPDEST PUSH2 0x7D4 DUP5 DUP5 DUP5 PUSH1 0x1 PUSH2 0x6D5 JUMP JUMPDEST SWAP3 POP SWAP1 POP DUP2 DUP5 DIV DUP2 GT ISZERO PUSH2 0x7EB JUMPI PUSH2 0x7EA PUSH2 0x69C JUMP JUMPDEST JUMPDEST DUP2 DUP2 MUL SWAP1 POP JUMPDEST SWAP4 SWAP3 POP POP POP JUMP JUMPDEST PUSH0 PUSH2 0x802 DUP3 PUSH2 0x4A5 JUMP JUMPDEST SWAP2 POP PUSH2 0x80D DUP4 PUSH2 0x302 JUMP JUMPDEST SWAP3 POP PUSH2 0x83A PUSH32 0xFFFFFFFFFFFFFFFFFFFFFFFFFFFFFFFFFFFFFFFFFFFFFFFFFFFFFFFFFFFFFFFF DUP5 DUP5 PUSH2 0x727 JUMP JUMPDEST SWAP1 POP SWAP3 SWAP2 POP POP JUMP JUMPDEST PUSH0 PUSH2 0x84C DUP3 PUSH2 0x4A5 JUMP JUMPDEST SWAP2 POP PUSH2 0x857 DUP4 PUSH2 0x4A5 JUMP JUMPDEST SWAP3 POP DUP3 DUP3 MUL PUSH2 0x865 DUP2 PUSH2 0x4A5 JUMP JUMPDEST SWAP2 POP DUP3 DUP3 DIV DUP5 EQ DUP4 ISZERO OR PUSH2 0x87C JUMPI PUSH2 0x87B PUSH2 0x69C JUMP JUMPDEST JUMPDEST POP SWAP3 SWAP2 POP POP JUMP JUMPDEST PUSH0 PUSH2 0x88D DUP3 PUSH2 0x4A5 JUMP JUMPDEST SWAP2 POP PUSH2 0x898 DUP4 PUSH2 0x4A5 JUMP JUMPDEST SWAP3 POP DUP3 DUP3 ADD SWAP1 POP DUP1 DUP3 GT ISZERO PUSH2 0x8B0 JUMPI PUSH2 0x8AF PUSH2 0x69C JUMP JUMPDEST JUMPDEST SWAP3 SWAP2 POP POP JUMP JUMPDEST PUSH2 0x8BF DUP2 PUSH2 0x4A5 JUMP JUMPDEST DUP3 MSTORE POP POP JUMP JUMPDEST PUSH0 PUSH1 0x20 DUP3 ADD SWAP1 POP PUSH2 0x8D8 PUSH0 DUP4 ADD DUP5 PUSH2 0x8B6 JUMP JUMPDEST SWAP3 SWAP2 POP POP JUMP JUMPDEST PUSH2 0xDBF DUP1 PUSH2 0x8EB PUSH0 CODECOPY PUSH0 RETURN INVALID PUSH1 0x80 PUSH1 0x40 MSTORE CALLVALUE DUP1 ISZERO PUSH2 0xF JUMPI PUSH0 DUP1 REVERT JUMPDEST POP PUSH1 0x4 CALLDATASIZE LT PUSH2 0xCD JUMPI PUSH0 CALLDATALOAD PUSH1 0xE0 SHR DUP1 PUSH4 0x6D4CE63C GT PUSH2 0x8A JUMPI DUP1 PUSH4 0x95D89B41 GT PUSH2 0x64 JUMPI DUP1 PUSH4 0x95D89B41 EQ PUSH2 0x213 JUMPI DUP1 PUSH4 0x9DC29FAC EQ PUSH2 0x231 JUMPI DUP1 PUSH4 0xA9059CBB EQ PUSH2 0x24D JUMPI DUP1 PUSH4 0xDD62ED3E EQ PUSH2 0x27D JUMPI PUSH2 0xCD JUMP JUMPDEST DUP1 PUSH4 0x6D4CE63C EQ PUSH2 0x1A7 JUMPI DUP1 PUSH4 0x70A08231 EQ PUSH2 0x1C5 JUMPI DUP1 PUSH4 0x8DA5CB5B EQ PUSH2 0x1F5 JUMPI PUSH2 0xCD JUMP JUMPDEST DUP1 PUSH4 0x6FDDE03 EQ PUSH2 0xD1 JUMPI DUP1 PUSH4 0x95EA7B3 EQ PUSH2 0xEF JUMPI DUP1 PUSH4 0x18160DDD EQ PUSH2 0x11F JUMPI DUP1 PUSH4 0x23B872DD EQ PUSH2 0x13D JUMPI DUP1 PUSH4 0x313CE567 EQ PUSH2 0x16D JUMPI DUP1 PUSH4 0x40C10F19 EQ PUSH2 0x18B JUMPI JUMPDEST PUSH0 DUP1 REVERT JUMPDEST PUSH2 0xD9 PUSH2 0x2AD JUMP JUMPDEST PUSH1 0x40 MLOAD PUSH2 0xE6 SWAP2 SWAP1 PUSH2 0xA3A JUMP JUMPDEST PUSH1 0x40 MLOAD DUP1 SWAP2 SUB SWAP1 RETURN JUMPDEST PUSH2 0x109 PUSH1 0x4 DUP1 CALLDATASIZE SUB DUP2 ADD SWAP1 PUSH2 0x104 SWAP2 SWAP1 PUSH2 0xAEB JUMP JUMPDEST PUSH2 0x339 JUMP JUMPDEST PUSH1 0x40 MLOAD PUSH2 0x116 SWAP2 SWAP1 PUSH2 0xB43 JUMP JUMPDEST PUSH1 0x40 MLOAD DUP1 SWAP2 SUB SWAP1 RETURN JUMPDEST PUSH2 0x127 PUSH2 0x426 JUMP JUMPDEST PUSH1 0x40 MLOAD PUSH2 0x134 SWAP2 SWAP1 PUSH2 0xB6B JUMP JUMPDEST PUSH1 0x40 MLOAD DUP1 SWAP2 SUB SWAP1 RETURN JUMPDEST PUSH2 0x157 PUSH1 0x4 DUP1 CALLDATASIZE SUB DUP2 ADD SWAP1 PUSH2 0x152 SWAP2 SWAP1 PUSH2 0xB84 JUMP JUMPDEST PUSH2 0x42B JUMP JUMPDEST PUSH1 0x40 MLOAD PUSH2 0x164 SWAP2 SWAP1 PUSH2 0xB43 JUMP JUMPDEST PUSH1 0x40 MLOAD DUP1 SWAP2 SUB SWAP1 RETURN JUMPDEST PUSH2 0x175 PUSH2 0x5D0 JUMP JUMPDEST PUSH1 0x40 MLOAD PUSH2 0x182 SWAP2 SWAP1 PUSH2 0xBEF JUMP JUMPDEST PUSH1 0x40 MLOAD DUP1 SWAP2 SUB SWAP1 RETURN JUMPDEST PUSH2 0x1A5 PUSH1 0x4 DUP1 CALLDATASIZE SUB DUP2 ADD SWAP1 PUSH2 0x1A0 SWAP2 SWAP1 PUSH2 0xAEB JUMP JUMPDEST PUSH2 0x5E2 JUMP JUMPDEST STOP JUMPDEST PUSH2 0x1AF PUSH2 0x5F0 JUMP JUMPDEST PUSH1 0x40 MLOAD PUSH2 0x1BC SWAP2 SWAP1 PUSH2 0xC17 JUMP JUMPDEST PUSH1 0x40 MLOAD DUP1 SWAP2 SUB SWAP1 RETURN JUMPDEST PUSH2 0x1DF PUSH1 0x4 DUP1 CALLDATASIZE SUB DUP2 ADD SWAP1 PUSH2 0x1DA SWAP2 SWAP1 PUSH2 0xC30 JUMP JUMPDEST PUSH2 0x619 JUMP JUMPDEST PUSH1 0x40 MLOAD PUSH2 0x1EC SWAP2 SWAP1 PUSH2 0xB6B JUMP JUMPDEST PUSH1 0x40 MLOAD DUP1 SWAP2 SUB SWAP1 RETURN JUMPDEST PUSH2 0x1FD PUSH2 0x62E JUMP JUMPDEST PUSH1 0x40 MLOAD PUSH2 0x20A SWAP2 SWAP1 PUSH2 0xC17 JUMP JUMPDEST PUSH1 0x40 MLOAD DUP1 SWAP2 SUB SWAP1 RETURN JUMPDEST PUSH2 0x21B PUSH2 0x654 JUMP JUMPDEST PUSH1 0x40 MLOAD PUSH2 0x228 SWAP2 SWAP1 PUSH2 0xA3A JUMP JUMPDEST PUSH1 0x40 MLOAD DUP1 SWAP2 SUB SWAP1 RETURN JUMPDEST PUSH2 0x24B PUSH1 0x4 DUP1 CALLDATASIZE SUB DUP2 ADD SWAP1 PUSH2 0x246 SWAP2 SWAP1 PUSH2 0xAEB JUMP JUMPDEST PUSH2 0x6E0 JUMP JUMPDEST STOP JUMPDEST PUSH2 0x267 PUSH1 0x4 DUP1 CALLDATASIZE SUB DUP2 ADD SWAP1 PUSH2 0x262 SWAP2 SWAP1 PUSH2 0xAEB JUMP JUMPDEST PUSH2 0x6EE JUMP JUMPDEST PUSH1 0x40 MLOAD PUSH2 0x274 SWAP2 SWAP1 PUSH2 0xB43 JUMP JUMPDEST PUSH1 0x40 MLOAD DUP1 SWAP2 SUB SWAP1 RETURN JUMPDEST PUSH2 0x297 PUSH1 0x4 DUP1 CALLDATASIZE SUB DUP2 ADD SWAP1 PUSH2 0x292 SWAP2 SWAP1 PUSH2 0xC5B JUMP JUMPDEST PUSH2 0x804 JUMP JUMPDEST PUSH1 0x40 MLOAD PUSH2 0x2A4 SWAP2 SWAP1 PUSH2 0xB6B JUMP JUMPDEST PUSH1 0x40 MLOAD DUP1 SWAP2 SUB SWAP1 RETURN JUMPDEST PUSH1 0x3 DUP1 SLOAD PUSH2 0x2BA SWAP1 PUSH2 0xCC6 JUMP JUMPDEST DUP1 PUSH1 0x1F ADD PUSH1 0x20 DUP1 SWAP2 DIV MUL PUSH1 0x20 ADD PUSH1 0x40 MLOAD SWAP1 DUP2 ADD PUSH1 0x40 MSTORE DUP1 SWAP3 SWAP2 SWAP1 DUP2 DUP2 MSTORE PUSH1 0x20 ADD DUP3 DUP1 SLOAD PUSH2 0x2E6 SWAP1 PUSH2 0xCC6 JUMP JUMPDEST DUP1 ISZERO PUSH2 0x331 JUMPI DUP1 PUSH1 0x1F LT PUSH2 0x308 JUMPI PUSH2 0x100 DUP1 DUP4 SLOAD DIV MUL DUP4 MSTORE SWAP2 PUSH1 0x20 ADD SWAP2 PUSH2 0x331 JUMP JUMPDEST DUP3 ADD SWAP2 SWAP1 PUSH0 MSTORE PUSH1 0x20 PUSH0 KECCAK256 SWAP1 JUMPDEST DUP2 SLOAD DUP2 MSTORE SWAP1 PUSH1 0x1 ADD SWAP1 PUSH1 0x20 ADD DUP1 DUP4 GT PUSH2 0x314 JUMPI DUP3 SWAP1 SUB PUSH1 0x1F AND DUP3 ADD SWAP2 JUMPDEST POP POP POP POP POP DUP2 JUMP JUMPDEST PUSH0 DUP2 PUSH1 0x2 PUSH0 CALLER PUSH20 0xFFFFFFFFFFFFFFFFFFFFFFFFFFFFFFFFFFFFFFFF AND PUSH20 0xFFFFFFFFFFFFFFFFFFFFFFFFFFFFFFFFFFFFFFFF AND DUP2 MSTORE PUSH1 0x20 ADD SWAP1 DUP2 MSTORE PUSH1 0x20 ADD PUSH0 KECCAK256 PUSH0 DUP6 PUSH20 0xFFFFFFFFFFFFFFFFFFFFFFFFFFFFFFFFFFFFFFFF AND PUSH20 0xFFFFFFFFFFFFFFFFFFFFFFFFFFFFFFFFFFFFFFFF AND DUP2 MSTORE PUSH1 0x20 ADD SWAP1 DUP2 MSTORE PUSH1 0x20 ADD PUSH0 KECCAK256 DUP2 SWAP1 SSTORE POP DUP3 PUSH20 0xFFFFFFFFFFFFFFFFFFFFFFFFFFFFFFFFFFFFFFFF AND CALLER PUSH20 0xFFFFFFFFFFFFFFFFFFFFFFFFFFFFFFFFFFFFFFFF AND PUSH32 0x8C5BE1E5EBEC7D5BD14F71427D1E84F3DD0314C0F7B2291E5B200AC8C7C3B925 DUP5 PUSH1 0x40 MLOAD PUSH2 0x414 SWAP2 SWAP1 PUSH2 0xB6B JUMP JUMPDEST PUSH1 0x40 MLOAD DUP1 SWAP2 SUB SWAP1 LOG3 PUSH1 0x1 SWAP1 POP SWAP3 SWAP2 POP POP JUMP JUMPDEST PUSH0 SLOAD DUP2 JUMP JUMPDEST PUSH0 DUP2 PUSH1 0x2 PUSH0 DUP7 PUSH20 0xFFFFFFFFFFFFFFFFFFFFFFFFFFFFFFFFFFFFFFFF AND PUSH20 0xFFFFFFFFFFFFFFFFFFFFFFFFFFFFFFFFFFFFFFFF AND DUP2 MSTORE PUSH1 0x20 ADD SWAP1 DUP2 MSTORE PUSH1 0x20 ADD PUSH0 KECCAK256 PUSH0 CALLER PUSH20 0xFFFFFFFFFFFFFFFFFFFFFFFFFFFFFFFFFFFFFFFF AND PUSH20 0xFFFFFFFFFFFFFFFFFFFFFFFFFFFFFFFFFFFFFFFF AND DUP2 MSTORE PUSH1 0x20 ADD SWAP1 DUP2 MSTORE PUSH1 0x20 ADD PUSH0 KECCAK256 PUSH0 DUP3 DUP3 SLOAD PUSH2 0x4B3 SWAP2 SWAP1 PUSH2 0xD23 JUMP JUMPDEST SWAP3 POP POP DUP2 SWAP1 SSTORE POP DUP2 PUSH1 0x1 PUSH0 DUP7 PUSH20 0xFFFFFFFFFFFFFFFFFFFFFFFFFFFFFFFFFFFFFFFF AND PUSH20 0xFFFFFFFFFFFFFFFFFFFFFFFFFFFFFFFFFFFFFFFF AND DUP2 MSTORE PUSH1 0x20 ADD SWAP1 DUP2 MSTORE PUSH1 0x20 ADD PUSH0 KECCAK256 PUSH0 DUP3 DUP3 SLOAD PUSH2 0x506 SWAP2 SWAP1 PUSH2 0xD23 JUMP JUMPDEST SWAP3 POP POP DUP2 SWAP1 SSTORE POP DUP2 PUSH1 0x1 PUSH0 DUP6 PUSH20 0xFFFFFFFFFFFFFFFFFFFFFFFFFFFFFFFFFFFFFFFF AND PUSH20 0xFFFFFFFFFFFFFFFFFFFFFFFFFFFFFFFFFFFFFFFF AND DUP2 MSTORE PUSH1 0x20 ADD SWAP1 DUP2 MSTORE PUSH1 0x20 ADD PUSH0 KECCAK256 PUSH0 DUP3 DUP3 SLOAD PUSH2 0x559 SWAP2 SWAP1 PUSH2 0xD56 JUMP JUMPDEST SWAP3 POP POP DUP2 SWAP1 SSTORE POP DUP3 PUSH20 0xFFFFFFFFFFFFFFFFFFFFFFFFFFFFFFFFFFFFFFFF AND DUP5 PUSH20 0xFFFFFFFFFFFFFFFFFFFFFFFFFFFFFFFFFFFFFFFF AND PUSH32 0xDDF252AD1BE2C89B69C2B068FC378DAA952BA7F163C4A11628F55A4DF523B3EF DUP5 PUSH1 0x40 MLOAD PUSH2 0x5BD SWAP2 SWAP1 PUSH2 0xB6B JUMP JUMPDEST PUSH1 0x40 MLOAD DUP1 SWAP2 SUB SWAP1 LOG3 PUSH1 0x1 SWAP1 POP SWAP4 SWAP3 POP POP POP JUMP JUMPDEST PUSH1 0x5 PUSH0 SWAP1 SLOAD SWAP1 PUSH2 0x100 EXP SWAP1 DIV PUSH1 0xFF AND DUP2 JUMP JUMPDEST PUSH2 0x5EC DUP3 DUP3 PUSH2 0x824 JUMP JUMPDEST POP POP JUMP JUMPDEST PUSH0 PUSH1 0x5 PUSH1 0x1 SWAP1 SLOAD SWAP1 PUSH2 0x100 EXP SWAP1 DIV PUSH20 0xFFFFFFFFFFFFFFFFFFFFFFFFFFFFFFFFFFFFFFFF AND SWAP1 POP SWAP1 JUMP JUMPDEST PUSH1 0x1 PUSH1 0x20 MSTORE DUP1 PUSH0 MSTORE PUSH1 0x40 PUSH0 KECCAK256 PUSH0 SWAP2 POP SWAP1 POP SLOAD DUP2 JUMP JUMPDEST PUSH1 0x5 PUSH1 0x1 SWAP1 SLOAD SWAP1 PUSH2 0x100 EXP SWAP1 DIV PUSH20 0xFFFFFFFFFFFFFFFFFFFFFFFFFFFFFFFFFFFFFFFF AND DUP2 JUMP JUMPDEST PUSH1 0x4 DUP1 SLOAD PUSH2 0x661 SWAP1 PUSH2 0xCC6 JUMP JUMPDEST DUP1 PUSH1 0x1F ADD PUSH1 0x20 DUP1 SWAP2 DIV MUL PUSH1 0x20 ADD PUSH1 0x40 MLOAD SWAP1 DUP2 ADD PUSH1 0x40 MSTORE DUP1 SWAP3 SWAP2 SWAP1 DUP2 DUP2 MSTORE PUSH1 0x20 ADD DUP3 DUP1 SLOAD PUSH2 0x68D SWAP1 PUSH2 0xCC6 JUMP JUMPDEST DUP1 ISZERO PUSH2 0x6D8 JUMPI DUP1 PUSH1 0x1F LT PUSH2 0x6AF JUMPI PUSH2 0x100 DUP1 DUP4 SLOAD DIV MUL DUP4 MSTORE SWAP2 PUSH1 0x20 ADD SWAP2 PUSH2 0x6D8 JUMP JUMPDEST DUP3 ADD SWAP2 SWAP1 PUSH0 MSTORE PUSH1 0x20 PUSH0 KECCAK256 SWAP1 JUMPDEST DUP2 SLOAD DUP2 MSTORE SWAP1 PUSH1 0x1 ADD SWAP1 PUSH1 0x20 ADD DUP1 DUP4 GT PUSH2 0x6BB JUMPI DUP3 SWAP1 SUB PUSH1 0x1F AND DUP3 ADD SWAP2 JUMPDEST POP POP POP POP POP DUP2 JUMP JUMPDEST PUSH2 0x6EA DUP3 DUP3 PUSH2 0x8F7 JUMP JUMPDEST POP POP JUMP JUMPDEST PUSH0 DUP2 PUSH1 0x1 PUSH0 CALLER PUSH20 0xFFFFFFFFFFFFFFFFFFFFFFFFFFFFFFFFFFFFFFFF AND PUSH20 0xFFFFFFFFFFFFFFFFFFFFFFFFFFFFFFFFFFFFFFFF AND DUP2 MSTORE PUSH1 0x20 ADD SWAP1 DUP2 MSTORE PUSH1 0x20 ADD PUSH0 KECCAK256 PUSH0 DUP3 DUP3 SLOAD PUSH2 0x73B SWAP2 SWAP1 PUSH2 0xD23 JUMP JUMPDEST SWAP3 POP POP DUP2 SWAP1 SSTORE POP DUP2 PUSH1 0x1 PUSH0 DUP6 PUSH20 0xFFFFFFFFFFFFFFFFFFFFFFFFFFFFFFFFFFFFFFFF AND PUSH20 0xFFFFFFFFFFFFFFFFFFFFFFFFFFFFFFFFFFFFFFFF AND DUP2 MSTORE PUSH1 0x20 ADD SWAP1 DUP2 MSTORE PUSH1 0x20 ADD PUSH0 KECCAK256 PUSH0 DUP3 DUP3 SLOAD PUSH2 0x78E SWAP2 SWAP1 PUSH2 0xD56 JUMP JUMPDEST SWAP3 POP POP DUP2 SWAP1 SSTORE POP DUP3 PUSH20 0xFFFFFFFFFFFFFFFFFFFFFFFFFFFFFFFFFFFFFFFF AND CALLER PUSH20 0xFFFFFFFFFFFFFFFFFFFFFFFFFFFFFFFFFFFFFFFF AND PUSH32 0xDDF252AD1BE2C89B69C2B068FC378DAA952BA7F163C4A11628F55A4DF523B3EF DUP5 PUSH1 0x40 MLOAD PUSH2 0x7F2 SWAP2 SWAP1 PUSH2 0xB6B JUMP JUMPDEST PUSH1 0x40 MLOAD DUP1 SWAP2 SUB SWAP1 LOG3 PUSH1 0x1 SWAP1 POP SWAP3 SWAP2 POP POP JUMP JUMPDEST PUSH1 0x2 PUSH1 0x20 MSTORE DUP2 PUSH0 MSTORE PUSH1 0x40 PUSH0 KECCAK256 PUSH1 0x20 MSTORE DUP1 PUSH0 MSTORE PUSH1 0x40 PUSH0 KECCAK256 PUSH0 SWAP2 POP SWAP2 POP POP SLOAD DUP2 JUMP JUMPDEST DUP1 PUSH1 0x1 PUSH0 DUP5 PUSH20 0xFFFFFFFFFFFFFFFFFFFFFFFFFFFFFFFFFFFFFFFF AND PUSH20 0xFFFFFFFFFFFFFFFFFFFFFFFFFFFFFFFFFFFFFFFF AND DUP2 MSTORE PUSH1 0x20 ADD SWAP1 DUP2 MSTORE PUSH1 0x20 ADD PUSH0 KECCAK256 PUSH0 DUP3 DUP3 SLOAD PUSH2 0x870 SWAP2 SWAP1 PUSH2 0xD56 JUMP JUMPDEST SWAP3 POP POP DUP2 SWAP1 SSTORE POP DUP1 PUSH0 DUP1 DUP3 DUP3 SLOAD PUSH2 0x887 SWAP2 SWAP1 PUSH2 0xD56 JUMP JUMPDEST SWAP3 POP POP DUP2 SWAP1 SSTORE POP DUP2 PUSH20 0xFFFFFFFFFFFFFFFFFFFFFFFFFFFFFFFFFFFFFFFF AND PUSH0 PUSH20 0xFFFFFFFFFFFFFFFFFFFFFFFFFFFFFFFFFFFFFFFF AND PUSH32 0xDDF252AD1BE2C89B69C2B068FC378DAA952BA7F163C4A11628F55A4DF523B3EF DUP4 PUSH1 0x40 MLOAD PUSH2 0x8EB SWAP2 SWAP1 PUSH2 0xB6B JUMP JUMPDEST PUSH1 0x40 MLOAD DUP1 SWAP2 SUB SWAP1 LOG3 POP POP JUMP JUMPDEST DUP1 PUSH1 0x1 PUSH0 DUP5 PUSH20 0xFFFFFFFFFFFFFFFFFFFFFFFFFFFFFFFFFFFFFFFF AND PUSH20 0xFFFFFFFFFFFFFFFFFFFFFFFFFFFFFFFFFFFFFFFF AND DUP2 MSTORE PUSH1 0x20 ADD SWAP1 DUP2 MSTORE PUSH1 0x20 ADD PUSH0 KECCAK256 PUSH0 DUP3 DUP3 SLOAD PUSH2 0x943 SWAP2 SWAP1 PUSH2 0xD23 JUMP JUMPDEST SWAP3 POP POP DUP2 SWAP1 SSTORE POP DUP1 PUSH0 DUP1 DUP3 DUP3 SLOAD PUSH2 0x95A SWAP2 SWAP1 PUSH2 0xD23 JUMP JUMPDEST SWAP3 POP POP DUP2 SWAP1 SSTORE POP PUSH0 PUSH20 0xFFFFFFFFFFFFFFFFFFFFFFFFFFFFFFFFFFFFFFFF AND DUP3 PUSH20 0xFFFFFFFFFFFFFFFFFFFFFFFFFFFFFFFFFFFFFFFF AND PUSH32 0xDDF252AD1BE2C89B69C2B068FC378DAA952BA7F163C4A11628F55A4DF523B3EF DUP4 PUSH1 0x40 MLOAD PUSH2 0x9BE SWAP2 SWAP1 PUSH2 0xB6B JUMP JUMPDEST PUSH1 0x40 MLOAD DUP1 SWAP2 SUB SWAP1 LOG3 POP POP JUMP JUMPDEST PUSH0 DUP2 MLOAD SWAP1 POP SWAP2 SWAP1 POP JUMP JUMPDEST PUSH0 DUP3 DUP3 MSTORE PUSH1 0x20 DUP3 ADD SWAP1 POP SWAP3 SWAP2 POP POP JUMP JUMPDEST DUP3 DUP2 DUP4 MCOPY PUSH0 DUP4 DUP4 ADD MSTORE POP POP POP JUMP JUMPDEST PUSH0 PUSH1 0x1F NOT PUSH1 0x1F DUP4 ADD AND SWAP1 POP SWAP2 SWAP1 POP JUMP JUMPDEST PUSH0 PUSH2 0xA0C DUP3 PUSH2 0x9CA JUMP JUMPDEST PUSH2 0xA16 DUP2 DUP6 PUSH2 0x9D4 JUMP JUMPDEST SWAP4 POP PUSH2 0xA26 DUP2 DUP6 PUSH1 0x20 DUP7 ADD PUSH2 0x9E4 JUMP JUMPDEST PUSH2 0xA2F DUP2 PUSH2 0x9F2 JUMP JUMPDEST DUP5 ADD SWAP2 POP POP SWAP3 SWAP2 POP POP JUMP JUMPDEST PUSH0 PUSH1 0x20 DUP3 ADD SWAP1 POP DUP2 DUP2 SUB PUSH0 DUP4 ADD MSTORE PUSH2 0xA52 DUP2 DUP5 PUSH2 0xA02 JUMP JUMPDEST SWAP1 POP SWAP3 SWAP2 POP POP JUMP JUMPDEST PUSH0 DUP1 REVERT JUMPDEST PUSH0 PUSH20 0xFFFFFFFFFFFFFFFFFFFFFFFFFFFFFFFFFFFFFFFF DUP3 AND SWAP1 POP SWAP2 SWAP1 POP JUMP JUMPDEST PUSH0 PUSH2 0xA87 DUP3 PUSH2 0xA5E JUMP JUMPDEST SWAP1 POP SWAP2 SWAP1 POP JUMP JUMPDEST PUSH2 0xA97 DUP2 PUSH2 0xA7D JUMP JUMPDEST DUP2 EQ PUSH2 0xAA1 JUMPI PUSH0 DUP1 REVERT JUMPDEST POP JUMP JUMPDEST PUSH0 DUP2 CALLDATALOAD SWAP1 POP PUSH2 0xAB2 DUP2 PUSH2 0xA8E JUMP JUMPDEST SWAP3 SWAP2 POP POP JUMP JUMPDEST PUSH0 DUP2 SWAP1 POP SWAP2 SWAP1 POP JUMP JUMPDEST PUSH2 0xACA DUP2 PUSH2 0xAB8 JUMP JUMPDEST DUP2 EQ PUSH2 0xAD4 JUMPI PUSH0 DUP1 REVERT JUMPDEST POP JUMP JUMPDEST PUSH0 DUP2 CALLDATALOAD SWAP1 POP PUSH2 0xAE5 DUP2 PUSH2 0xAC1 JUMP JUMPDEST SWAP3 SWAP2 POP POP JUMP JUMPDEST PUSH0 DUP1 PUSH1 0x40 DUP4 DUP6 SUB SLT ISZERO PUSH2 0xB01 JUMPI PUSH2 0xB00 PUSH2 0xA5A JUMP JUMPDEST JUMPDEST PUSH0 PUSH2 0xB0E DUP6 DUP3 DUP7 ADD PUSH2 0xAA4 JUMP JUMPDEST SWAP3 POP POP PUSH1 0x20 PUSH2 0xB1F DUP6 DUP3 DUP7 ADD PUSH2 0xAD7 JUMP JUMPDEST SWAP2 POP POP SWAP3 POP SWAP3 SWAP1 POP JUMP JUMPDEST PUSH0 DUP2 ISZERO ISZERO SWAP1 POP SWAP2 SWAP1 POP JUMP JUMPDEST PUSH2 0xB3D DUP2 PUSH2 0xB29 JUMP JUMPDEST DUP3 MSTORE POP POP JUMP JUMPDEST PUSH0 PUSH1 0x20 DUP3 ADD SWAP1 POP PUSH2 0xB56 PUSH0 DUP4 ADD DUP5 PUSH2 0xB34 JUMP JUMPDEST SWAP3 SWAP2 POP POP JUMP JUMPDEST PUSH2 0xB65 DUP2 PUSH2 0xAB8 JUMP JUMPDEST DUP3 MSTORE POP POP JUMP JUMPDEST PUSH0 PUSH1 0x20 DUP3 ADD SWAP1 POP PUSH2 0xB7E PUSH0 DUP4 ADD DUP5 PUSH2 0xB5C JUMP JUMPDEST SWAP3 SWAP2 POP POP JUMP JUMPDEST PUSH0 DUP1 PUSH0 PUSH1 0x60 DUP5 DUP7 SUB SLT ISZERO PUSH2 0xB9B JUMPI PUSH2 0xB9A PUSH2 0xA5A JUMP JUMPDEST JUMPDEST PUSH0 PUSH2 0xBA8 DUP7 DUP3 DUP8 ADD PUSH2 0xAA4 JUMP JUMPDEST SWAP4 POP POP PUSH1 0x20 PUSH2 0xBB9 DUP7 DUP3 DUP8 ADD PUSH2 0xAA4 JUMP JUMPDEST SWAP3 POP POP PUSH1 0x40 PUSH2 0xBCA DUP7 DUP3 DUP8 ADD PUSH2 0xAD7 JUMP JUMPDEST SWAP2 POP POP SWAP3 POP SWAP3 POP SWAP3 JUMP JUMPDEST PUSH0 PUSH1 0xFF DUP3 AND SWAP1 POP SWAP2 SWAP1 POP JUMP JUMPDEST PUSH2 0xBE9 DUP2 PUSH2 0xBD4 JUMP JUMPDEST DUP3 MSTORE POP POP JUMP JUMPDEST PUSH0 PUSH1 0x20 DUP3 ADD SWAP1 POP PUSH2 0xC02 PUSH0 DUP4 ADD DUP5 PUSH2 0xBE0 JUMP JUMPDEST SWAP3 SWAP2 POP POP JUMP JUMPDEST PUSH2 0xC11 DUP2 PUSH2 0xA7D JUMP JUMPDEST DUP3 MSTORE POP POP JUMP JUMPDEST PUSH0 PUSH1 0x20 DUP3 ADD SWAP1 POP PUSH2 0xC2A PUSH0 DUP4 ADD DUP5 PUSH2 0xC08 JUMP JUMPDEST SWAP3 SWAP2 POP POP JUMP JUMPDEST PUSH0 PUSH1 0x20 DUP3 DUP5 SUB SLT ISZERO PUSH2 0xC45 JUMPI PUSH2 0xC44 PUSH2 0xA5A JUMP JUMPDEST JUMPDEST PUSH0 PUSH2 0xC52 DUP5 DUP3 DUP6 ADD PUSH2 0xAA4 JUMP JUMPDEST SWAP2 POP POP SWAP3 SWAP2 POP POP JUMP JUMPDEST PUSH0 DUP1 PUSH1 0x40 DUP4 DUP6 SUB SLT ISZERO PUSH2 0xC71 JUMPI PUSH2 0xC70 PUSH2 0xA5A JUMP JUMPDEST JUMPDEST PUSH0 PUSH2 0xC7E DUP6 DUP3 DUP7 ADD PUSH2 0xAA4 JUMP JUMPDEST SWAP3 POP POP PUSH1 0x20 PUSH2 0xC8F DUP6 DUP3 DUP7 ADD PUSH2 0xAA4 JUMP JUMPDEST SWAP2 POP POP SWAP3 POP SWAP3 SWAP1 POP JUMP JUMPDEST PUSH32 0x4E487B7100000000000000000000000000000000000000000000000000000000 PUSH0 MSTORE PUSH1 0x22 PUSH1 0x4 MSTORE PUSH1 0x24 PUSH0 REVERT JUMPDEST PUSH0 PUSH1 0x2 DUP3 DIV SWAP1 POP PUSH1 0x1 DUP3 AND DUP1 PUSH2 0xCDD JUMPI PUSH1 0x7F DUP3 AND SWAP2 POP JUMPDEST PUSH1 0x20 DUP3 LT DUP2 SUB PUSH2 0xCF0 JUMPI PUSH2 0xCEF PUSH2 0xC99 JUMP JUMPDEST JUMPDEST POP SWAP2 SWAP1 POP JUMP JUMPDEST PUSH32 0x4E487B7100000000000000000000000000000000000000000000000000000000 PUSH0 MSTORE PUSH1 0x11 PUSH1 0x4 MSTORE PUSH1 0x24 PUSH0 REVERT JUMPDEST PUSH0 PUSH2 0xD2D DUP3 PUSH2 0xAB8 JUMP JUMPDEST SWAP2 POP PUSH2 0xD38 DUP4 PUSH2 0xAB8 JUMP JUMPDEST SWAP3 POP DUP3 DUP3 SUB SWAP1 POP DUP2 DUP2 GT ISZERO PUSH2 0xD50 JUMPI PUSH2 0xD4F PUSH2 0xCF6 JUMP JUMPDEST JUMPDEST SWAP3 SWAP2 POP POP JUMP JUMPDEST PUSH0 PUSH2 0xD60 DUP3 PUSH2 0xAB8 JUMP JUMPDEST SWAP2 POP PUSH2 0xD6B DUP4 PUSH2 0xAB8 JUMP JUMPDEST SWAP3 POP DUP3 DUP3 ADD SWAP1 POP DUP1 DUP3 GT ISZERO PUSH2 0xD83 JUMPI PUSH2 0xD82 PUSH2 0xCF6 JUMP JUMPDEST JUMPDEST SWAP3 SWAP2 POP POP JUMP INVALID LOG2 PUSH5 0x6970667358 0x22 SLT KECCAK256 0xE3 0xEC 0xF8 TIMESTAMP PUSH1 0x34 BALANCE 0xD 0xE5 MCOPY 0x2A TSTORE 0xAA 0x1F DUP8 DUP3 MUL BYTE 0xDA BYTE 0xD3 0xE PUSH25 0xF27C5A66F90A2C04F564736F6C634300081A00330000000000 "
				},
				"gasEstimates": {
					"creation": {
						"codeDepositCost": "703800",
						"executionCost": "infinite",
						"totalCost": "infinite"
					},
					"external": {
						"allowance(address,address)": "infinite",
						"approve(address,uint256)": "infinite",
						"balanceOf(address)": "2847",
						"burn(address,uint256)": "infinite",
						"decimals()": "2555",
						"get()": "2589",
						"mint(address,uint256)": "infinite",
						"name()": "infinite",
						"owner()": "2626",
						"symbol()": "infinite",
						"totalSupply()": "2469",
						"transfer(address,uint256)": "infinite",
						"transferFrom(address,address,uint256)": "infinite"
					}
				},
				"methodIdentifiers": {
					"allowance(address,address)": "dd62ed3e",
					"approve(address,uint256)": "095ea7b3",
					"balanceOf(address)": "70a08231",
					"burn(address,uint256)": "9dc29fac",
					"decimals()": "313ce567",
					"get()": "6d4ce63c",
					"mint(address,uint256)": "40c10f19",
					"name()": "06fdde03",
					"owner()": "8da5cb5b",
					"symbol()": "95d89b41",
					"totalSupply()": "18160ddd",
					"transfer(address,uint256)": "a9059cbb",
					"transferFrom(address,address,uint256)": "23b872dd"
				}
			},
			"storageLayout": {
				"storage": [
					{
						"astId": 249,
						"contract": "contracts/MyToken.sol:MyToken",
						"label": "totalSupply",
						"offset": 0,
						"slot": "0",
						"type": "t_uint256"
					},
					{
						"astId": 253,
						"contract": "contracts/MyToken.sol:MyToken",
						"label": "balanceOf",
						"offset": 0,
						"slot": "1",
						"type": "t_mapping(t_address,t_uint256)"
					},
					{
						"astId": 259,
						"contract": "contracts/MyToken.sol:MyToken",
						"label": "allowance",
						"offset": 0,
						"slot": "2",
						"type": "t_mapping(t_address,t_mapping(t_address,t_uint256))"
					},
					{
						"astId": 261,
						"contract": "contracts/MyToken.sol:MyToken",
						"label": "name",
						"offset": 0,
						"slot": "3",
						"type": "t_string_storage"
					},
					{
						"astId": 263,
						"contract": "contracts/MyToken.sol:MyToken",
						"label": "symbol",
						"offset": 0,
						"slot": "4",
						"type": "t_string_storage"
					},
					{
						"astId": 265,
						"contract": "contracts/MyToken.sol:MyToken",
						"label": "decimals",
						"offset": 0,
						"slot": "5",
						"type": "t_uint8"
					},
					{
						"astId": 478,
						"contract": "contracts/MyToken.sol:MyToken",
						"label": "owner",
						"offset": 1,
						"slot": "5",
						"type": "t_address"
					}
				],
				"types": {
					"t_address": {
						"encoding": "inplace",
						"label": "address",
						"numberOfBytes": "20"
					},
					"t_mapping(t_address,t_mapping(t_address,t_uint256))": {
						"encoding": "mapping",
						"key": "t_address",
						"label": "mapping(address => mapping(address => uint256))",
						"numberOfBytes": "32",
						"value": "t_mapping(t_address,t_uint256)"
					},
					"t_mapping(t_address,t_uint256)": {
						"encoding": "mapping",
						"key": "t_address",
						"label": "mapping(address => uint256)",
						"numberOfBytes": "32",
						"value": "t_uint256"
					},
					"t_string_storage": {
						"encoding": "bytes",
						"label": "string",
						"numberOfBytes": "32"
					},
					"t_uint256": {
						"encoding": "inplace",
						"label": "uint256",
						"numberOfBytes": "32"
					},
					"t_uint8": {
						"encoding": "inplace",
						"label": "uint8",
						"numberOfBytes": "1"
					}
				}
			},
			"userdoc": {
				"kind": "user",
				"methods": {},
				"version": 1
			}
		}
	}
}