{
	"contracts/Bank_Token.sol": {
		"Bank_Token": {
			"abi": [
				{
					"inputs": [
						{
							"internalType": "address",
							"name": "tokenAddress",
							"type": "address"
						}
					],
					"stateMutability": "nonpayable",
					"type": "constructor"
				},
				{
					"inputs": [],
					"name": "MAX_WITHDRAWAL",
					"outputs": [
						{
							"internalType": "uint256",
							"name": "",
							"type": "uint256"
						}
					],
					"stateMutability": "view",
					"type": "function"
				},
				{
					"inputs": [],
					"name": "MIN_DEPOSIT",
					"outputs": [
						{
							"internalType": "uint256",
							"name": "",
							"type": "uint256"
						}
					],
					"stateMutability": "view",
					"type": "function"
				},
				{
					"inputs": [
						{
							"internalType": "uint256",
							"name": "amount",
							"type": "uint256"
						}
					],
					"name": "deposit",
					"outputs": [],
					"stateMutability": "nonpayable",
					"type": "function"
				},
				{
					"inputs": [
						{
							"internalType": "address",
							"name": "_user",
							"type": "address"
						}
					],
					"name": "getUserProfile",
					"outputs": [
						{
							"internalType": "string",
							"name": "",
							"type": "string"
						},
						{
							"internalType": "address",
							"name": "",
							"type": "address"
						},
						{
							"internalType": "uint256",
							"name": "",
							"type": "uint256"
						}
					],
					"stateMutability": "view",
					"type": "function"
				},
				{
					"inputs": [],
					"name": "get_balance",
					"outputs": [
						{
							"internalType": "uint256",
							"name": "",
							"type": "uint256"
						}
					],
					"stateMutability": "view",
					"type": "function"
				},
				{
					"inputs": [],
					"name": "ret_own",
					"outputs": [
						{
							"internalType": "address",
							"name": "",
							"type": "address"
						}
					],
					"stateMutability": "view",
					"type": "function"
				},
				{
					"inputs": [
						{
							"internalType": "string",
							"name": "_name",
							"type": "string"
						},
						{
							"internalType": "address",
							"name": "_addr",
							"type": "address"
						}
					],
					"name": "setUserProfile",
					"outputs": [],
					"stateMutability": "nonpayable",
					"type": "function"
				},
				{
					"inputs": [],
					"name": "token",
					"outputs": [
						{
							"internalType": "contract ERC20",
							"name": "",
							"type": "address"
						}
					],
					"stateMutability": "view",
					"type": "function"
				},
				{
					"inputs": [],
					"name": "transactionState",
					"outputs": [
						{
							"internalType": "enum Bank_Token.TransactionState",
							"name": "",
							"type": "uint8"
						}
					],
					"stateMutability": "view",
					"type": "function"
				},
				{
					"inputs": [
						{
							"internalType": "address",
							"name": "",
							"type": "address"
						}
					],
					"name": "userProfiles",
					"outputs": [
						{
							"internalType": "string",
							"name": "name",
							"type": "string"
						},
						{
							"internalType": "address",
							"name": "userAddress",
							"type": "address"
						},
						{
							"internalType": "uint256",
							"name": "balance",
							"type": "uint256"
						}
					],
					"stateMutability": "view",
					"type": "function"
				},
				{
					"inputs": [
						{
							"internalType": "address",
							"name": "_addr",
							"type": "address"
						},
						{
							"internalType": "uint256",
							"name": "_amount",
							"type": "uint256"
						}
					],
					"name": "withdraw",
					"outputs": [],
					"stateMutability": "nonpayable",
					"type": "function"
				}
			],
			"devdoc": {
				"kind": "dev",
				"methods": {},
				"version": 1
			},
			"evm": {
				"assembly": "    /* \"contracts/Bank_Token.sol\":211:2459  contract Bank_Token ... */\n  mstore(0x40, 0x80)\n    /* \"contracts/Bank_Token.sol\":896:1024  constructor(address tokenAddress) ... */\n  callvalue\n  dup1\n  iszero\n  tag_1\n  jumpi\n  0x00\n  dup1\n  revert\ntag_1:\n  pop\n  mload(0x40)\n  sub(codesize, bytecodeSize)\n  dup1\n  bytecodeSize\n  dup4\n  codecopy\n  dup2\n  dup2\n  add\n  0x40\n  mstore\n  dup2\n  add\n  swap1\n  tag_2\n  swap2\n  swap1\n  tag_3\n  jump\t// in\ntag_2:\n    /* \"contracts/Bank_Token.sol\":961:973  tokenAddress */\n  dup1\n    /* \"contracts/Bank_Token.sol\":947:952  token */\n  0x02\n  0x00\n    /* \"contracts/Bank_Token.sol\":947:974  token = ERC20(tokenAddress) */\n  0x0100\n  exp\n  dup2\n  sload\n  dup2\n  0xffffffffffffffffffffffffffffffffffffffff\n  mul\n  not\n  and\n  swap1\n  dup4\n  0xffffffffffffffffffffffffffffffffffffffff\n  and\n  mul\n  or\n  swap1\n  sstore\n  pop\n    /* \"contracts/Bank_Token.sol\":896:1024  constructor(address tokenAddress) ... */\n  pop\n    /* \"contracts/Bank_Token.sol\":211:2459  contract Bank_Token ... */\n  jump(tag_6)\n    /* \"#utility.yul\":88:205   */\ntag_8:\n    /* \"#utility.yul\":197:198   */\n  0x00\n    /* \"#utility.yul\":194:195   */\n  dup1\n    /* \"#utility.yul\":187:199   */\n  revert\n    /* \"#utility.yul\":334:460   */\ntag_10:\n    /* \"#utility.yul\":371:378   */\n  0x00\n    /* \"#utility.yul\":411:453   */\n  0xffffffffffffffffffffffffffffffffffffffff\n    /* \"#utility.yul\":404:409   */\n  dup3\n    /* \"#utility.yul\":400:454   */\n  and\n    /* \"#utility.yul\":389:454   */\n  swap1\n  pop\n    /* \"#utility.yul\":334:460   */\n  swap2\n  swap1\n  pop\n  jump\t// out\n    /* \"#utility.yul\":466:562   */\ntag_11:\n    /* \"#utility.yul\":503:510   */\n  0x00\n    /* \"#utility.yul\":532:556   */\n  tag_20\n    /* \"#utility.yul\":550:555   */\n  dup3\n    /* \"#utility.yul\":532:556   */\n  tag_10\n  jump\t// in\ntag_20:\n    /* \"#utility.yul\":521:556   */\n  swap1\n  pop\n    /* \"#utility.yul\":466:562   */\n  swap2\n  swap1\n  pop\n  jump\t// out\n    /* \"#utility.yul\":568:690   */\ntag_12:\n    /* \"#utility.yul\":641:665   */\n  tag_22\n    /* \"#utility.yul\":659:664   */\n  dup2\n    /* \"#utility.yul\":641:665   */\n  tag_11\n  jump\t// in\ntag_22:\n    /* \"#utility.yul\":634:639   */\n  dup2\n    /* \"#utility.yul\":631:666   */\n  eq\n    /* \"#utility.yul\":621:684   */\n  tag_23\n  jumpi\n    /* \"#utility.yul\":680:681   */\n  0x00\n    /* \"#utility.yul\":677:678   */\n  dup1\n    /* \"#utility.yul\":670:682   */\n  revert\n    /* \"#utility.yul\":621:684   */\ntag_23:\n    /* \"#utility.yul\":568:690   */\n  pop\n  jump\t// out\n    /* \"#utility.yul\":696:839   */\ntag_13:\n    /* \"#utility.yul\":753:758   */\n  0x00\n    /* \"#utility.yul\":784:790   */\n  dup2\n    /* \"#utility.yul\":778:791   */\n  mload\n    /* \"#utility.yul\":769:791   */\n  swap1\n  pop\n    /* \"#utility.yul\":800:833   */\n  tag_25\n    /* \"#utility.yul\":827:832   */\n  dup2\n    /* \"#utility.yul\":800:833   */\n  tag_12\n  jump\t// in\ntag_25:\n    /* \"#utility.yul\":696:839   */\n  swap3\n  swap2\n  pop\n  pop\n  jump\t// out\n    /* \"#utility.yul\":845:1196   */\ntag_3:\n    /* \"#utility.yul\":915:921   */\n  0x00\n    /* \"#utility.yul\":964:966   */\n  0x20\n    /* \"#utility.yul\":952:961   */\n  dup3\n    /* \"#utility.yul\":943:950   */\n  dup5\n    /* \"#utility.yul\":939:962   */\n  sub\n    /* \"#utility.yul\":935:967   */\n  slt\n    /* \"#utility.yul\":932:1051   */\n  iszero\n  tag_27\n  jumpi\n    /* \"#utility.yul\":970:1049   */\n  tag_28\n  tag_8\n  jump\t// in\ntag_28:\n    /* \"#utility.yul\":932:1051   */\ntag_27:\n    /* \"#utility.yul\":1090:1091   */\n  0x00\n    /* \"#utility.yul\":1115:1179   */\n  tag_29\n    /* \"#utility.yul\":1171:1178   */\n  dup5\n    /* \"#utility.yul\":1162:1168   */\n  dup3\n    /* \"#utility.yul\":1151:1160   */\n  dup6\n    /* \"#utility.yul\":1147:1169   */\n  add\n    /* \"#utility.yul\":1115:1179   */\n  tag_13\n  jump\t// in\ntag_29:\n    /* \"#utility.yul\":1105:1179   */\n  swap2\n  pop\n    /* \"#utility.yul\":1061:1189   */\n  pop\n    /* \"#utility.yul\":845:1196   */\n  swap3\n  swap2\n  pop\n  pop\n  jump\t// out\n    /* \"contracts/Bank_Token.sol\":211:2459  contract Bank_Token ... */\ntag_6:\n  dataSize(sub_0)\n  dup1\n  dataOffset(sub_0)\n  0x00\n  codecopy\n  0x00\n  return\nstop\n\nsub_0: assembly {\n        /* \"contracts/Bank_Token.sol\":211:2459  contract Bank_Token ... */\n      mstore(0x40, 0x80)\n      callvalue\n      dup1\n      iszero\n      tag_1\n      jumpi\n      0x00\n      dup1\n      revert\n    tag_1:\n      pop\n      jumpi(tag_2, lt(calldatasize, 0x04))\n      shr(0xe0, calldataload(0x00))\n      dup1\n      0xb7d38f58\n      gt\n      tag_14\n      jumpi\n      dup1\n      0xb7d38f58\n      eq\n      tag_8\n      jumpi\n      dup1\n      0xc1cfb99a\n      eq\n      tag_9\n      jumpi\n      dup1\n      0xc2da9d0d\n      eq\n      tag_10\n      jumpi\n      dup1\n      0xe1e158a5\n      eq\n      tag_11\n      jumpi\n      dup1\n      0xf3fef3a3\n      eq\n      tag_12\n      jumpi\n      dup1\n      0xfc0c546a\n      eq\n      tag_13\n      jumpi\n      jump(tag_2)\n    tag_14:\n      dup1\n      0x332d56d7\n      eq\n      tag_3\n      jumpi\n      dup1\n      0x428669ba\n      eq\n      tag_4\n      jumpi\n      dup1\n      0x97ec642c\n      eq\n      tag_5\n      jumpi\n      dup1\n      0x987ee156\n      eq\n      tag_6\n      jumpi\n      dup1\n      0xb6b55f25\n      eq\n      tag_7\n      jumpi\n    tag_2:\n      0x00\n      dup1\n      revert\n        /* \"contracts/Bank_Token.sol\":479:530  mapping(address => UserProfile) public userProfiles */\n    tag_3:\n      tag_15\n      0x04\n      dup1\n      calldatasize\n      sub\n      dup2\n      add\n      swap1\n      tag_16\n      swap2\n      swap1\n      tag_17\n      jump\t// in\n    tag_16:\n      tag_18\n      jump\t// in\n    tag_15:\n      mload(0x40)\n      tag_19\n      swap4\n      swap3\n      swap2\n      swap1\n      tag_20\n      jump\t// in\n    tag_19:\n      mload(0x40)\n      dup1\n      swap2\n      sub\n      swap1\n      return\n        /* \"contracts/Bank_Token.sol\":430:470  TransactionState public transactionState */\n    tag_4:\n      tag_21\n      tag_22\n      jump\t// in\n    tag_21:\n      mload(0x40)\n      tag_23\n      swap2\n      swap1\n      tag_24\n      jump\t// in\n    tag_23:\n      mload(0x40)\n      dup1\n      swap2\n      sub\n      swap1\n      return\n        /* \"contracts/Bank_Token.sol\":657:714  uint256 public constant MAX_WITHDRAWAL = 500 * (10 ** 18) */\n    tag_5:\n      tag_25\n      tag_26\n      jump\t// in\n    tag_25:\n      mload(0x40)\n      tag_27\n      swap2\n      swap1\n      tag_28\n      jump\t// in\n    tag_27:\n      mload(0x40)\n      dup1\n      swap2\n      sub\n      swap1\n      return\n        /* \"contracts/Bank_Token.sol\":2232:2456  function getUserProfile(address _user) public view returns (string memory, address, uint256) ... */\n    tag_6:\n      tag_29\n      0x04\n      dup1\n      calldatasize\n      sub\n      dup2\n      add\n      swap1\n      tag_30\n      swap2\n      swap1\n      tag_17\n      jump\t// in\n    tag_30:\n      tag_31\n      jump\t// in\n    tag_29:\n      mload(0x40)\n      tag_32\n      swap4\n      swap3\n      swap2\n      swap1\n      tag_20\n      jump\t// in\n    tag_32:\n      mload(0x40)\n      dup1\n      swap2\n      sub\n      swap1\n      return\n        /* \"contracts/Bank_Token.sol\":1214:1510  function deposit(uint256 amount) public updateTransactionState(amount >= MIN_DEPOSIT) ... */\n    tag_7:\n      tag_33\n      0x04\n      dup1\n      calldatasize\n      sub\n      dup2\n      add\n      swap1\n      tag_34\n      swap2\n      swap1\n      tag_35\n      jump\t// in\n    tag_34:\n      tag_36\n      jump\t// in\n    tag_33:\n      stop\n        /* \"contracts/Bank_Token.sol\":2014:2107  function ret_own () public view returns (address)... */\n    tag_8:\n      tag_37\n      tag_38\n      jump\t// in\n    tag_37:\n      mload(0x40)\n      tag_39\n      swap2\n      swap1\n      tag_40\n      jump\t// in\n    tag_39:\n      mload(0x40)\n      dup1\n      swap2\n      sub\n      swap1\n      return\n        /* \"contracts/Bank_Token.sol\":2115:2218  function get_balance () public view returns (uint)... */\n    tag_9:\n      tag_41\n      tag_42\n      jump\t// in\n    tag_41:\n      mload(0x40)\n      tag_43\n      swap2\n      swap1\n      tag_28\n      jump\t// in\n    tag_43:\n      mload(0x40)\n      dup1\n      swap2\n      sub\n      swap1\n      return\n        /* \"contracts/Bank_Token.sol\":1032:1206  function setUserProfile(string memory _name, address _addr) public ... */\n    tag_10:\n      tag_44\n      0x04\n      dup1\n      calldatasize\n      sub\n      dup2\n      add\n      swap1\n      tag_45\n      swap2\n      swap1\n      tag_46\n      jump\t// in\n    tag_45:\n      tag_47\n      jump\t// in\n    tag_44:\n      stop\n        /* \"contracts/Bank_Token.sol\":595:648  uint256 public constant MIN_DEPOSIT = 10 * (10 ** 18) */\n    tag_11:\n      tag_48\n      tag_49\n      jump\t// in\n    tag_48:\n      mload(0x40)\n      tag_50\n      swap2\n      swap1\n      tag_28\n      jump\t// in\n    tag_50:\n      mload(0x40)\n      dup1\n      swap2\n      sub\n      swap1\n      return\n        /* \"contracts/Bank_Token.sol\":1518:2006  function withdraw(address _addr, uint256 _amount) public updateTransactionState(_amount <= MAX_WITHDRAWAL && userProfiles[_addr].balance >= _amount) ... */\n    tag_12:\n      tag_51\n      0x04\n      dup1\n      calldatasize\n      sub\n      dup2\n      add\n      swap1\n      tag_52\n      swap2\n      swap1\n      tag_53\n      jump\t// in\n    tag_52:\n      tag_54\n      jump\t// in\n    tag_51:\n      stop\n        /* \"contracts/Bank_Token.sol\":539:557  ERC20 public token */\n    tag_13:\n      tag_55\n      tag_56\n      jump\t// in\n    tag_55:\n      mload(0x40)\n      tag_57\n      swap2\n      swap1\n      tag_58\n      jump\t// in\n    tag_57:\n      mload(0x40)\n      dup1\n      swap2\n      sub\n      swap1\n      return\n        /* \"contracts/Bank_Token.sol\":479:530  mapping(address => UserProfile) public userProfiles */\n    tag_18:\n      mstore(0x20, 0x01)\n      dup1\n      0x00\n      mstore\n      keccak256(0x00, 0x40)\n      0x00\n      swap2\n      pop\n      swap1\n      pop\n      dup1\n      0x00\n      add\n      dup1\n      sload\n      tag_59\n      swap1\n      tag_60\n      jump\t// in\n    tag_59:\n      dup1\n      0x1f\n      add\n      0x20\n      dup1\n      swap2\n      div\n      mul\n      0x20\n      add\n      mload(0x40)\n      swap1\n      dup2\n      add\n      0x40\n      mstore\n      dup1\n      swap3\n      swap2\n      swap1\n      dup2\n      dup2\n      mstore\n      0x20\n      add\n      dup3\n      dup1\n      sload\n      tag_61\n      swap1\n      tag_60\n      jump\t// in\n    tag_61:\n      dup1\n      iszero\n      tag_62\n      jumpi\n      dup1\n      0x1f\n      lt\n      tag_63\n      jumpi\n      0x0100\n      dup1\n      dup4\n      sload\n      div\n      mul\n      dup4\n      mstore\n      swap2\n      0x20\n      add\n      swap2\n      jump(tag_62)\n    tag_63:\n      dup3\n      add\n      swap2\n      swap1\n      0x00\n      mstore\n      keccak256(0x00, 0x20)\n      swap1\n    tag_64:\n      dup2\n      sload\n      dup2\n      mstore\n      swap1\n      0x01\n      add\n      swap1\n      0x20\n      add\n      dup1\n      dup4\n      gt\n      tag_64\n      jumpi\n      dup3\n      swap1\n      sub\n      0x1f\n      and\n      dup3\n      add\n      swap2\n    tag_62:\n      pop\n      pop\n      pop\n      pop\n      pop\n      swap1\n      dup1\n      0x01\n      add\n      0x00\n      swap1\n      sload\n      swap1\n      0x0100\n      exp\n      swap1\n      div\n      0xffffffffffffffffffffffffffffffffffffffff\n      and\n      swap1\n      dup1\n      0x02\n      add\n      sload\n      swap1\n      pop\n      dup4\n      jump\t// out\n        /* \"contracts/Bank_Token.sol\":430:470  TransactionState public transactionState */\n    tag_22:\n      0x00\n      dup1\n      sload\n      swap1\n      0x0100\n      exp\n      swap1\n      div\n      0xff\n      and\n      dup2\n      jump\t// out\n        /* \"contracts/Bank_Token.sol\":657:714  uint256 public constant MAX_WITHDRAWAL = 500 * (10 ** 18) */\n    tag_26:\n        /* \"contracts/Bank_Token.sol\":698:714  500 * (10 ** 18) */\n      0x1b1ae4d6e2ef500000\n        /* \"contracts/Bank_Token.sol\":657:714  uint256 public constant MAX_WITHDRAWAL = 500 * (10 ** 18) */\n      dup2\n      jump\t// out\n        /* \"contracts/Bank_Token.sol\":2232:2456  function getUserProfile(address _user) public view returns (string memory, address, uint256) ... */\n    tag_31:\n        /* \"contracts/Bank_Token.sol\":2292:2305  string memory */\n      0x60\n        /* \"contracts/Bank_Token.sol\":2307:2314  address */\n      0x00\n        /* \"contracts/Bank_Token.sol\":2316:2323  uint256 */\n      dup1\n        /* \"contracts/Bank_Token.sol\":2342:2365  UserProfile memory user */\n      0x00\n        /* \"contracts/Bank_Token.sol\":2368:2380  userProfiles */\n      0x01\n        /* \"contracts/Bank_Token.sol\":2368:2387  userProfiles[_user] */\n      0x00\n        /* \"contracts/Bank_Token.sol\":2381:2386  _user */\n      dup7\n        /* \"contracts/Bank_Token.sol\":2368:2387  userProfiles[_user] */\n      0xffffffffffffffffffffffffffffffffffffffff\n      and\n      0xffffffffffffffffffffffffffffffffffffffff\n      and\n      dup2\n      mstore\n      0x20\n      add\n      swap1\n      dup2\n      mstore\n      0x20\n      add\n      0x00\n      keccak256\n        /* \"contracts/Bank_Token.sol\":2342:2387  UserProfile memory user = userProfiles[_user] */\n      mload(0x40)\n      dup1\n      0x60\n      add\n      0x40\n      mstore\n      swap1\n      dup2\n      0x00\n      dup3\n      add\n      dup1\n      sload\n      tag_66\n      swap1\n      tag_60\n      jump\t// in\n    tag_66:\n      dup1\n      0x1f\n      add\n      0x20\n      dup1\n      swap2\n      div\n      mul\n      0x20\n      add\n      mload(0x40)\n      swap1\n      dup2\n      add\n      0x40\n      mstore\n      dup1\n      swap3\n      swap2\n      swap1\n      dup2\n      dup2\n      mstore\n      0x20\n      add\n      dup3\n      dup1\n      sload\n      tag_67\n      swap1\n      tag_60\n      jump\t// in\n    tag_67:\n      dup1\n      iszero\n      tag_68\n      jumpi\n      dup1\n      0x1f\n      lt\n      tag_69\n      jumpi\n      0x0100\n      dup1\n      dup4\n      sload\n      div\n      mul\n      dup4\n      mstore\n      swap2\n      0x20\n      add\n      swap2\n      jump(tag_68)\n    tag_69:\n      dup3\n      add\n      swap2\n      swap1\n      0x00\n      mstore\n      keccak256(0x00, 0x20)\n      swap1\n    tag_70:\n      dup2\n      sload\n      dup2\n      mstore\n      swap1\n      0x01\n      add\n      swap1\n      0x20\n      add\n      dup1\n      dup4\n      gt\n      tag_70\n      jumpi\n      dup3\n      swap1\n      sub\n      0x1f\n      and\n      dup3\n      add\n      swap2\n    tag_68:\n      pop\n      pop\n      pop\n      pop\n      pop\n      dup2\n      mstore\n      0x20\n      add\n      0x01\n      dup3\n      add\n      0x00\n      swap1\n      sload\n      swap1\n      0x0100\n      exp\n      swap1\n      div\n      0xffffffffffffffffffffffffffffffffffffffff\n      and\n      0xffffffffffffffffffffffffffffffffffffffff\n      and\n      0xffffffffffffffffffffffffffffffffffffffff\n      and\n      dup2\n      mstore\n      0x20\n      add\n      0x02\n      dup3\n      add\n      sload\n      dup2\n      mstore\n      pop\n      pop\n      swap1\n      pop\n        /* \"contracts/Bank_Token.sol\":2406:2410  user */\n      dup1\n        /* \"contracts/Bank_Token.sol\":2406:2415  user.name */\n      0x00\n      add\n      mload\n        /* \"contracts/Bank_Token.sol\":2417:2421  user */\n      dup2\n        /* \"contracts/Bank_Token.sol\":2417:2433  user.userAddress */\n      0x20\n      add\n      mload\n        /* \"contracts/Bank_Token.sol\":2435:2439  user */\n      dup3\n        /* \"contracts/Bank_Token.sol\":2435:2447  user.balance */\n      0x40\n      add\n      mload\n        /* \"contracts/Bank_Token.sol\":2398:2448  return (user.name, user.userAddress, user.balance) */\n      swap4\n      pop\n      swap4\n      pop\n      swap4\n      pop\n      pop\n        /* \"contracts/Bank_Token.sol\":2232:2456  function getUserProfile(address _user) public view returns (string memory, address, uint256) ... */\n      swap2\n      swap4\n      swap1\n      swap3\n      pop\n      jump\t// out\n        /* \"contracts/Bank_Token.sol\":1214:1510  function deposit(uint256 amount) public updateTransactionState(amount >= MIN_DEPOSIT) ... */\n    tag_36:\n        /* \"contracts/Bank_Token.sol\":633:648  10 * (10 ** 18) */\n      0x8ac7230489e80000\n        /* \"contracts/Bank_Token.sol\":1277:1283  amount */\n      dup2\n        /* \"contracts/Bank_Token.sol\":1277:1298  amount >= MIN_DEPOSIT */\n      lt\n      iszero\n        /* \"contracts/Bank_Token.sol\":805:812  success */\n      dup1\n        /* \"contracts/Bank_Token.sol\":805:868  success ? TransactionState.Successful : TransactionState.Failed */\n      tag_72\n      jumpi\n        /* \"contracts/Bank_Token.sol\":845:868  TransactionState.Failed */\n      0x00\n        /* \"contracts/Bank_Token.sol\":805:868  success ? TransactionState.Successful : TransactionState.Failed */\n      jump(tag_73)\n    tag_72:\n        /* \"contracts/Bank_Token.sol\":815:842  TransactionState.Successful */\n      0x01\n        /* \"contracts/Bank_Token.sol\":805:868  success ? TransactionState.Successful : TransactionState.Failed */\n    tag_73:\n        /* \"contracts/Bank_Token.sol\":786:802  transactionState */\n      0x00\n      dup1\n        /* \"contracts/Bank_Token.sol\":786:868  transactionState = success ? TransactionState.Successful : TransactionState.Failed */\n      0x0100\n      exp\n      dup2\n      sload\n      dup2\n      0xff\n      mul\n      not\n      and\n      swap1\n      dup4\n      0x01\n      dup2\n      gt\n      iszero\n      tag_74\n      jumpi\n      tag_75\n      tag_76\n      jump\t// in\n    tag_75:\n    tag_74:\n      mul\n      or\n      swap1\n      sstore\n      pop\n        /* \"contracts/Bank_Token.sol\":633:648  10 * (10 ** 18) */\n      0x8ac7230489e80000\n        /* \"contracts/Bank_Token.sol\":1327:1333  amount */\n      dup3\n        /* \"contracts/Bank_Token.sol\":1327:1348  amount >= MIN_DEPOSIT */\n      lt\n      iszero\n        /* \"contracts/Bank_Token.sol\":1319:1381  require(amount >= MIN_DEPOSIT, \"Deposit amount is too small.\") */\n      tag_78\n      jumpi\n      mload(0x40)\n      0x08c379a000000000000000000000000000000000000000000000000000000000\n      dup2\n      mstore\n      0x04\n      add\n      tag_79\n      swap1\n      tag_80\n      jump\t// in\n    tag_79:\n      mload(0x40)\n      dup1\n      swap2\n      sub\n      swap1\n      revert\n    tag_78:\n        /* \"contracts/Bank_Token.sol\":1394:1399  token */\n      0x02\n      0x00\n      swap1\n      sload\n      swap1\n      0x0100\n      exp\n      swap1\n      div\n      0xffffffffffffffffffffffffffffffffffffffff\n      and\n        /* \"contracts/Bank_Token.sol\":1394:1412  token.transferFrom */\n      0xffffffffffffffffffffffffffffffffffffffff\n      and\n      0x23b872dd\n        /* \"contracts/Bank_Token.sol\":1413:1423  msg.sender */\n      caller\n        /* \"contracts/Bank_Token.sol\":1433:1437  this */\n      address\n        /* \"contracts/Bank_Token.sol\":1440:1446  amount */\n      dup6\n        /* \"contracts/Bank_Token.sol\":1394:1447  token.transferFrom(msg.sender, address(this), amount) */\n      mload(0x40)\n      dup5\n      0xffffffff\n      and\n      0xe0\n      shl\n      dup2\n      mstore\n      0x04\n      add\n      tag_81\n      swap4\n      swap3\n      swap2\n      swap1\n      tag_82\n      jump\t// in\n    tag_81:\n      0x20\n      mload(0x40)\n      dup1\n      dup4\n      sub\n      dup2\n      0x00\n      dup8\n      gas\n      call\n      iszero\n      dup1\n      iszero\n      tag_84\n      jumpi\n      returndatasize\n      0x00\n      dup1\n      returndatacopy\n      revert(0x00, returndatasize)\n    tag_84:\n      pop\n      pop\n      pop\n      pop\n      mload(0x40)\n      returndatasize\n      not(0x1f)\n      0x1f\n      dup3\n      add\n      and\n      dup3\n      add\n      dup1\n      0x40\n      mstore\n      pop\n      dup2\n      add\n      swap1\n      tag_85\n      swap2\n      swap1\n      tag_86\n      jump\t// in\n    tag_85:\n      pop\n        /* \"contracts/Bank_Token.sol\":1496:1502  amount */\n      dup2\n        /* \"contracts/Bank_Token.sol\":1460:1472  userProfiles */\n      0x01\n        /* \"contracts/Bank_Token.sol\":1460:1484  userProfiles[msg.sender] */\n      0x00\n        /* \"contracts/Bank_Token.sol\":1473:1483  msg.sender */\n      caller\n        /* \"contracts/Bank_Token.sol\":1460:1484  userProfiles[msg.sender] */\n      0xffffffffffffffffffffffffffffffffffffffff\n      and\n      0xffffffffffffffffffffffffffffffffffffffff\n      and\n      dup2\n      mstore\n      0x20\n      add\n      swap1\n      dup2\n      mstore\n      0x20\n      add\n      0x00\n      keccak256\n        /* \"contracts/Bank_Token.sol\":1460:1492  userProfiles[msg.sender].balance */\n      0x02\n      add\n      0x00\n        /* \"contracts/Bank_Token.sol\":1460:1502  userProfiles[msg.sender].balance += amount */\n      dup3\n      dup3\n      sload\n      tag_87\n      swap2\n      swap1\n      tag_88\n      jump\t// in\n    tag_87:\n      swap3\n      pop\n      pop\n      dup2\n      swap1\n      sstore\n      pop\n        /* \"contracts/Bank_Token.sol\":1214:1510  function deposit(uint256 amount) public updateTransactionState(amount >= MIN_DEPOSIT) ... */\n      pop\n      pop\n      jump\t// out\n        /* \"contracts/Bank_Token.sol\":2014:2107  function ret_own () public view returns (address)... */\n    tag_38:\n        /* \"contracts/Bank_Token.sol\":2055:2062  address */\n      0x00\n        /* \"contracts/Bank_Token.sol\":2088:2098  msg.sender */\n      caller\n        /* \"contracts/Bank_Token.sol\":2080:2099  return (msg.sender) */\n      swap1\n      pop\n        /* \"contracts/Bank_Token.sol\":2014:2107  function ret_own () public view returns (address)... */\n      swap1\n      jump\t// out\n        /* \"contracts/Bank_Token.sol\":2115:2218  function get_balance () public view returns (uint)... */\n    tag_42:\n        /* \"contracts/Bank_Token.sol\":2160:2164  uint */\n      0x00\n        /* \"contracts/Bank_Token.sol\":2189:2210  address(this).balance */\n      selfbalance\n        /* \"contracts/Bank_Token.sol\":2182:2210  return address(this).balance */\n      swap1\n      pop\n        /* \"contracts/Bank_Token.sol\":2115:2218  function get_balance () public view returns (uint)... */\n      swap1\n      jump\t// out\n        /* \"contracts/Bank_Token.sol\":1032:1206  function setUserProfile(string memory _name, address _addr) public ... */\n    tag_47:\n        /* \"contracts/Bank_Token.sol\":1143:1148  _name */\n      dup2\n        /* \"contracts/Bank_Token.sol\":1116:1128  userProfiles */\n      0x01\n        /* \"contracts/Bank_Token.sol\":1116:1135  userProfiles[_addr] */\n      0x00\n        /* \"contracts/Bank_Token.sol\":1129:1134  _addr */\n      dup4\n        /* \"contracts/Bank_Token.sol\":1116:1135  userProfiles[_addr] */\n      0xffffffffffffffffffffffffffffffffffffffff\n      and\n      0xffffffffffffffffffffffffffffffffffffffff\n      and\n      dup2\n      mstore\n      0x20\n      add\n      swap1\n      dup2\n      mstore\n      0x20\n      add\n      0x00\n      keccak256\n        /* \"contracts/Bank_Token.sol\":1116:1140  userProfiles[_addr].name */\n      0x00\n      add\n        /* \"contracts/Bank_Token.sol\":1116:1148  userProfiles[_addr].name = _name */\n      swap1\n      dup2\n      tag_92\n      swap2\n      swap1\n      tag_93\n      jump\t// in\n    tag_92:\n      pop\n        /* \"contracts/Bank_Token.sol\":1193:1198  _addr */\n      dup1\n        /* \"contracts/Bank_Token.sol\":1159:1171  userProfiles */\n      0x01\n        /* \"contracts/Bank_Token.sol\":1159:1178  userProfiles[_addr] */\n      0x00\n        /* \"contracts/Bank_Token.sol\":1172:1177  _addr */\n      dup4\n        /* \"contracts/Bank_Token.sol\":1159:1178  userProfiles[_addr] */\n      0xffffffffffffffffffffffffffffffffffffffff\n      and\n      0xffffffffffffffffffffffffffffffffffffffff\n      and\n      dup2\n      mstore\n      0x20\n      add\n      swap1\n      dup2\n      mstore\n      0x20\n      add\n      0x00\n      keccak256\n        /* \"contracts/Bank_Token.sol\":1159:1190  userProfiles[_addr].userAddress */\n      0x01\n      add\n      0x00\n        /* \"contracts/Bank_Token.sol\":1159:1198  userProfiles[_addr].userAddress = _addr */\n      0x0100\n      exp\n      dup2\n      sload\n      dup2\n      0xffffffffffffffffffffffffffffffffffffffff\n      mul\n      not\n      and\n      swap1\n      dup4\n      0xffffffffffffffffffffffffffffffffffffffff\n      and\n      mul\n      or\n      swap1\n      sstore\n      pop\n        /* \"contracts/Bank_Token.sol\":1032:1206  function setUserProfile(string memory _name, address _addr) public ... */\n      pop\n      pop\n      jump\t// out\n        /* \"contracts/Bank_Token.sol\":595:648  uint256 public constant MIN_DEPOSIT = 10 * (10 ** 18) */\n    tag_49:\n        /* \"contracts/Bank_Token.sol\":633:648  10 * (10 ** 18) */\n      0x8ac7230489e80000\n        /* \"contracts/Bank_Token.sol\":595:648  uint256 public constant MIN_DEPOSIT = 10 * (10 ** 18) */\n      dup2\n      jump\t// out\n        /* \"contracts/Bank_Token.sol\":1518:2006  function withdraw(address _addr, uint256 _amount) public updateTransactionState(_amount <= MAX_WITHDRAWAL && userProfiles[_addr].balance >= _amount) ... */\n    tag_54:\n        /* \"contracts/Bank_Token.sol\":698:714  500 * (10 ** 18) */\n      0x1b1ae4d6e2ef500000\n        /* \"contracts/Bank_Token.sol\":1598:1605  _amount */\n      dup2\n        /* \"contracts/Bank_Token.sol\":1598:1623  _amount <= MAX_WITHDRAWAL */\n      gt\n      iszero\n        /* \"contracts/Bank_Token.sol\":1598:1665  _amount <= MAX_WITHDRAWAL && userProfiles[_addr].balance >= _amount */\n      dup1\n      iszero\n      tag_94\n      jumpi\n      pop\n        /* \"contracts/Bank_Token.sol\":1658:1665  _amount */\n      dup1\n        /* \"contracts/Bank_Token.sol\":1627:1639  userProfiles */\n      0x01\n        /* \"contracts/Bank_Token.sol\":1627:1646  userProfiles[_addr] */\n      0x00\n        /* \"contracts/Bank_Token.sol\":1640:1645  _addr */\n      dup5\n        /* \"contracts/Bank_Token.sol\":1627:1646  userProfiles[_addr] */\n      0xffffffffffffffffffffffffffffffffffffffff\n      and\n      0xffffffffffffffffffffffffffffffffffffffff\n      and\n      dup2\n      mstore\n      0x20\n      add\n      swap1\n      dup2\n      mstore\n      0x20\n      add\n      0x00\n      keccak256\n        /* \"contracts/Bank_Token.sol\":1627:1654  userProfiles[_addr].balance */\n      0x02\n      add\n      sload\n        /* \"contracts/Bank_Token.sol\":1627:1665  userProfiles[_addr].balance >= _amount */\n      lt\n      iszero\n        /* \"contracts/Bank_Token.sol\":1598:1665  _amount <= MAX_WITHDRAWAL && userProfiles[_addr].balance >= _amount */\n    tag_94:\n        /* \"contracts/Bank_Token.sol\":805:812  success */\n      dup1\n        /* \"contracts/Bank_Token.sol\":805:868  success ? TransactionState.Successful : TransactionState.Failed */\n      tag_96\n      jumpi\n        /* \"contracts/Bank_Token.sol\":845:868  TransactionState.Failed */\n      0x00\n        /* \"contracts/Bank_Token.sol\":805:868  success ? TransactionState.Successful : TransactionState.Failed */\n      jump(tag_97)\n    tag_96:\n        /* \"contracts/Bank_Token.sol\":815:842  TransactionState.Successful */\n      0x01\n        /* \"contracts/Bank_Token.sol\":805:868  success ? TransactionState.Successful : TransactionState.Failed */\n    tag_97:\n        /* \"contracts/Bank_Token.sol\":786:802  transactionState */\n      0x00\n      dup1\n        /* \"contracts/Bank_Token.sol\":786:868  transactionState = success ? TransactionState.Successful : TransactionState.Failed */\n      0x0100\n      exp\n      dup2\n      sload\n      dup2\n      0xff\n      mul\n      not\n      and\n      swap1\n      dup4\n      0x01\n      dup2\n      gt\n      iszero\n      tag_98\n      jumpi\n      tag_99\n      tag_76\n      jump\t// in\n    tag_99:\n    tag_98:\n      mul\n      or\n      swap1\n      sstore\n      pop\n        /* \"contracts/Bank_Token.sol\":698:714  500 * (10 ** 18) */\n      0x1b1ae4d6e2ef500000\n        /* \"contracts/Bank_Token.sol\":1694:1701  _amount */\n      dup3\n        /* \"contracts/Bank_Token.sol\":1694:1719  _amount <= MAX_WITHDRAWAL */\n      gt\n      iszero\n        /* \"contracts/Bank_Token.sol\":1686:1768  require(_amount <= MAX_WITHDRAWAL, \"Withdrawal amount exceeds the maximum limit.\") */\n      tag_101\n      jumpi\n      mload(0x40)\n      0x08c379a000000000000000000000000000000000000000000000000000000000\n      dup2\n      mstore\n      0x04\n      add\n      tag_102\n      swap1\n      tag_103\n      jump\t// in\n    tag_102:\n      mload(0x40)\n      dup1\n      swap2\n      sub\n      swap1\n      revert\n    tag_101:\n        /* \"contracts/Bank_Token.sol\":1836:1843  _amount */\n      dup2\n        /* \"contracts/Bank_Token.sol\":1805:1817  userProfiles */\n      0x01\n        /* \"contracts/Bank_Token.sol\":1805:1824  userProfiles[_addr] */\n      0x00\n        /* \"contracts/Bank_Token.sol\":1818:1823  _addr */\n      dup6\n        /* \"contracts/Bank_Token.sol\":1805:1824  userProfiles[_addr] */\n      0xffffffffffffffffffffffffffffffffffffffff\n      and\n      0xffffffffffffffffffffffffffffffffffffffff\n      and\n      dup2\n      mstore\n      0x20\n      add\n      swap1\n      dup2\n      mstore\n      0x20\n      add\n      0x00\n      keccak256\n        /* \"contracts/Bank_Token.sol\":1805:1832  userProfiles[_addr].balance */\n      0x02\n      add\n      sload\n        /* \"contracts/Bank_Token.sol\":1805:1843  userProfiles[_addr].balance >= _amount */\n      lt\n      iszero\n        /* \"contracts/Bank_Token.sol\":1797:1869  require(userProfiles[_addr].balance >= _amount, \"Insufficient balance.\") */\n      tag_104\n      jumpi\n      mload(0x40)\n      0x08c379a000000000000000000000000000000000000000000000000000000000\n      dup2\n      mstore\n      0x04\n      add\n      tag_105\n      swap1\n      tag_106\n      jump\t// in\n    tag_105:\n      mload(0x40)\n      dup1\n      swap2\n      sub\n      swap1\n      revert\n    tag_104:\n        /* \"contracts/Bank_Token.sol\":1913:1920  _amount */\n      dup2\n        /* \"contracts/Bank_Token.sol\":1882:1894  userProfiles */\n      0x01\n        /* \"contracts/Bank_Token.sol\":1882:1901  userProfiles[_addr] */\n      0x00\n        /* \"contracts/Bank_Token.sol\":1895:1900  _addr */\n      dup6\n        /* \"contracts/Bank_Token.sol\":1882:1901  userProfiles[_addr] */\n      0xffffffffffffffffffffffffffffffffffffffff\n      and\n      0xffffffffffffffffffffffffffffffffffffffff\n      and\n      dup2\n      mstore\n      0x20\n      add\n      swap1\n      dup2\n      mstore\n      0x20\n      add\n      0x00\n      keccak256\n        /* \"contracts/Bank_Token.sol\":1882:1909  userProfiles[_addr].balance */\n      0x02\n      add\n      0x00\n        /* \"contracts/Bank_Token.sol\":1882:1920  userProfiles[_addr].balance -= _amount */\n      dup3\n      dup3\n      sload\n      tag_107\n      swap2\n      swap1\n      tag_108\n      jump\t// in\n    tag_107:\n      swap3\n      pop\n      pop\n      dup2\n      swap1\n      sstore\n      pop\n        /* \"contracts/Bank_Token.sol\":1941:1946  token */\n      0x02\n      0x00\n      swap1\n      sload\n      swap1\n      0x0100\n      exp\n      swap1\n      div\n      0xffffffffffffffffffffffffffffffffffffffff\n      and\n        /* \"contracts/Bank_Token.sol\":1941:1955  token.transfer */\n      0xffffffffffffffffffffffffffffffffffffffff\n      and\n      0xa9059cbb\n        /* \"contracts/Bank_Token.sol\":1956:1961  _addr */\n      dup5\n        /* \"contracts/Bank_Token.sol\":1963:1970  _amount */\n      dup5\n        /* \"contracts/Bank_Token.sol\":1941:1971  token.transfer(_addr, _amount) */\n      mload(0x40)\n      dup4\n      0xffffffff\n      and\n      0xe0\n      shl\n      dup2\n      mstore\n      0x04\n      add\n      tag_109\n      swap3\n      swap2\n      swap1\n      tag_110\n      jump\t// in\n    tag_109:\n      0x20\n      mload(0x40)\n      dup1\n      dup4\n      sub\n      dup2\n      0x00\n      dup8\n      gas\n      call\n      iszero\n      dup1\n      iszero\n      tag_112\n      jumpi\n      returndatasize\n      0x00\n      dup1\n      returndatacopy\n      revert(0x00, returndatasize)\n    tag_112:\n      pop\n      pop\n      pop\n      pop\n      mload(0x40)\n      returndatasize\n      not(0x1f)\n      0x1f\n      dup3\n      add\n      and\n      dup3\n      add\n      dup1\n      0x40\n      mstore\n      pop\n      dup2\n      add\n      swap1\n      tag_113\n      swap2\n      swap1\n      tag_86\n      jump\t// in\n    tag_113:\n        /* \"contracts/Bank_Token.sol\":1933:1998  require(token.transfer(_addr, _amount), \"Token transfer failed.\") */\n      tag_114\n      jumpi\n      mload(0x40)\n      0x08c379a000000000000000000000000000000000000000000000000000000000\n      dup2\n      mstore\n      0x04\n      add\n      tag_115\n      swap1\n      tag_116\n      jump\t// in\n    tag_115:\n      mload(0x40)\n      dup1\n      swap2\n      sub\n      swap1\n      revert\n    tag_114:\n        /* \"contracts/Bank_Token.sol\":1518:2006  function withdraw(address _addr, uint256 _amount) public updateTransactionState(_amount <= MAX_WITHDRAWAL && userProfiles[_addr].balance >= _amount) ... */\n      pop\n      pop\n      pop\n      jump\t// out\n        /* \"contracts/Bank_Token.sol\":539:557  ERC20 public token */\n    tag_56:\n      0x02\n      0x00\n      swap1\n      sload\n      swap1\n      0x0100\n      exp\n      swap1\n      div\n      0xffffffffffffffffffffffffffffffffffffffff\n      and\n      dup2\n      jump\t// out\n        /* \"#utility.yul\":7:82   */\n    tag_117:\n        /* \"#utility.yul\":40:46   */\n      0x00\n        /* \"#utility.yul\":73:75   */\n      0x40\n        /* \"#utility.yul\":67:76   */\n      mload\n        /* \"#utility.yul\":57:76   */\n      swap1\n      pop\n        /* \"#utility.yul\":7:82   */\n      swap1\n      jump\t// out\n        /* \"#utility.yul\":88:205   */\n    tag_118:\n        /* \"#utility.yul\":197:198   */\n      0x00\n        /* \"#utility.yul\":194:195   */\n      dup1\n        /* \"#utility.yul\":187:199   */\n      revert\n        /* \"#utility.yul\":211:328   */\n    tag_119:\n        /* \"#utility.yul\":320:321   */\n      0x00\n        /* \"#utility.yul\":317:318   */\n      dup1\n        /* \"#utility.yul\":310:322   */\n      revert\n        /* \"#utility.yul\":334:460   */\n    tag_120:\n        /* \"#utility.yul\":371:378   */\n      0x00\n        /* \"#utility.yul\":411:453   */\n      0xffffffffffffffffffffffffffffffffffffffff\n        /* \"#utility.yul\":404:409   */\n      dup3\n        /* \"#utility.yul\":400:454   */\n      and\n        /* \"#utility.yul\":389:454   */\n      swap1\n      pop\n        /* \"#utility.yul\":334:460   */\n      swap2\n      swap1\n      pop\n      jump\t// out\n        /* \"#utility.yul\":466:562   */\n    tag_121:\n        /* \"#utility.yul\":503:510   */\n      0x00\n        /* \"#utility.yul\":532:556   */\n      tag_185\n        /* \"#utility.yul\":550:555   */\n      dup3\n        /* \"#utility.yul\":532:556   */\n      tag_120\n      jump\t// in\n    tag_185:\n        /* \"#utility.yul\":521:556   */\n      swap1\n      pop\n        /* \"#utility.yul\":466:562   */\n      swap2\n      swap1\n      pop\n      jump\t// out\n        /* \"#utility.yul\":568:690   */\n    tag_122:\n        /* \"#utility.yul\":641:665   */\n      tag_187\n        /* \"#utility.yul\":659:664   */\n      dup2\n        /* \"#utility.yul\":641:665   */\n      tag_121\n      jump\t// in\n    tag_187:\n        /* \"#utility.yul\":634:639   */\n      dup2\n        /* \"#utility.yul\":631:666   */\n      eq\n        /* \"#utility.yul\":621:684   */\n      tag_188\n      jumpi\n        /* \"#utility.yul\":680:681   */\n      0x00\n        /* \"#utility.yul\":677:678   */\n      dup1\n        /* \"#utility.yul\":670:682   */\n      revert\n        /* \"#utility.yul\":621:684   */\n    tag_188:\n        /* \"#utility.yul\":568:690   */\n      pop\n      jump\t// out\n        /* \"#utility.yul\":696:835   */\n    tag_123:\n        /* \"#utility.yul\":742:747   */\n      0x00\n        /* \"#utility.yul\":780:786   */\n      dup2\n        /* \"#utility.yul\":767:787   */\n      calldataload\n        /* \"#utility.yul\":758:787   */\n      swap1\n      pop\n        /* \"#utility.yul\":796:829   */\n      tag_190\n        /* \"#utility.yul\":823:828   */\n      dup2\n        /* \"#utility.yul\":796:829   */\n      tag_122\n      jump\t// in\n    tag_190:\n        /* \"#utility.yul\":696:835   */\n      swap3\n      swap2\n      pop\n      pop\n      jump\t// out\n        /* \"#utility.yul\":841:1170   */\n    tag_17:\n        /* \"#utility.yul\":900:906   */\n      0x00\n        /* \"#utility.yul\":949:951   */\n      0x20\n        /* \"#utility.yul\":937:946   */\n      dup3\n        /* \"#utility.yul\":928:935   */\n      dup5\n        /* \"#utility.yul\":924:947   */\n      sub\n        /* \"#utility.yul\":920:952   */\n      slt\n        /* \"#utility.yul\":917:1036   */\n      iszero\n      tag_192\n      jumpi\n        /* \"#utility.yul\":955:1034   */\n      tag_193\n      tag_118\n      jump\t// in\n    tag_193:\n        /* \"#utility.yul\":917:1036   */\n    tag_192:\n        /* \"#utility.yul\":1075:1076   */\n      0x00\n        /* \"#utility.yul\":1100:1153   */\n      tag_194\n        /* \"#utility.yul\":1145:1152   */\n      dup5\n        /* \"#utility.yul\":1136:1142   */\n      dup3\n        /* \"#utility.yul\":1125:1134   */\n      dup6\n        /* \"#utility.yul\":1121:1143   */\n      add\n        /* \"#utility.yul\":1100:1153   */\n      tag_123\n      jump\t// in\n    tag_194:\n        /* \"#utility.yul\":1090:1153   */\n      swap2\n      pop\n        /* \"#utility.yul\":1046:1163   */\n      pop\n        /* \"#utility.yul\":841:1170   */\n      swap3\n      swap2\n      pop\n      pop\n      jump\t// out\n        /* \"#utility.yul\":1176:1275   */\n    tag_124:\n        /* \"#utility.yul\":1228:1234   */\n      0x00\n        /* \"#utility.yul\":1262:1267   */\n      dup2\n        /* \"#utility.yul\":1256:1268   */\n      mload\n        /* \"#utility.yul\":1246:1268   */\n      swap1\n      pop\n        /* \"#utility.yul\":1176:1275   */\n      swap2\n      swap1\n      pop\n      jump\t// out\n        /* \"#utility.yul\":1281:1450   */\n    tag_125:\n        /* \"#utility.yul\":1365:1376   */\n      0x00\n        /* \"#utility.yul\":1399:1405   */\n      dup3\n        /* \"#utility.yul\":1394:1397   */\n      dup3\n        /* \"#utility.yul\":1387:1406   */\n      mstore\n        /* \"#utility.yul\":1439:1443   */\n      0x20\n        /* \"#utility.yul\":1434:1437   */\n      dup3\n        /* \"#utility.yul\":1430:1444   */\n      add\n        /* \"#utility.yul\":1415:1444   */\n      swap1\n      pop\n        /* \"#utility.yul\":1281:1450   */\n      swap3\n      swap2\n      pop\n      pop\n      jump\t// out\n        /* \"#utility.yul\":1456:1595   */\n    tag_126:\n        /* \"#utility.yul\":1545:1551   */\n      dup3\n        /* \"#utility.yul\":1540:1543   */\n      dup2\n        /* \"#utility.yul\":1535:1538   */\n      dup4\n        /* \"#utility.yul\":1529:1552   */\n      mcopy\n        /* \"#utility.yul\":1586:1587   */\n      0x00\n        /* \"#utility.yul\":1577:1583   */\n      dup4\n        /* \"#utility.yul\":1572:1575   */\n      dup4\n        /* \"#utility.yul\":1568:1584   */\n      add\n        /* \"#utility.yul\":1561:1588   */\n      mstore\n        /* \"#utility.yul\":1456:1595   */\n      pop\n      pop\n      pop\n      jump\t// out\n        /* \"#utility.yul\":1601:1703   */\n    tag_127:\n        /* \"#utility.yul\":1642:1648   */\n      0x00\n        /* \"#utility.yul\":1693:1695   */\n      0x1f\n        /* \"#utility.yul\":1689:1696   */\n      not\n        /* \"#utility.yul\":1684:1686   */\n      0x1f\n        /* \"#utility.yul\":1677:1682   */\n      dup4\n        /* \"#utility.yul\":1673:1687   */\n      add\n        /* \"#utility.yul\":1669:1697   */\n      and\n        /* \"#utility.yul\":1659:1697   */\n      swap1\n      pop\n        /* \"#utility.yul\":1601:1703   */\n      swap2\n      swap1\n      pop\n      jump\t// out\n        /* \"#utility.yul\":1709:2086   */\n    tag_128:\n        /* \"#utility.yul\":1797:1800   */\n      0x00\n        /* \"#utility.yul\":1825:1864   */\n      tag_200\n        /* \"#utility.yul\":1858:1863   */\n      dup3\n        /* \"#utility.yul\":1825:1864   */\n      tag_124\n      jump\t// in\n    tag_200:\n        /* \"#utility.yul\":1880:1951   */\n      tag_201\n        /* \"#utility.yul\":1944:1950   */\n      dup2\n        /* \"#utility.yul\":1939:1942   */\n      dup6\n        /* \"#utility.yul\":1880:1951   */\n      tag_125\n      jump\t// in\n    tag_201:\n        /* \"#utility.yul\":1873:1951   */\n      swap4\n      pop\n        /* \"#utility.yul\":1960:2025   */\n      tag_202\n        /* \"#utility.yul\":2018:2024   */\n      dup2\n        /* \"#utility.yul\":2013:2016   */\n      dup6\n        /* \"#utility.yul\":2006:2010   */\n      0x20\n        /* \"#utility.yul\":1999:2004   */\n      dup7\n        /* \"#utility.yul\":1995:2011   */\n      add\n        /* \"#utility.yul\":1960:2025   */\n      tag_126\n      jump\t// in\n    tag_202:\n        /* \"#utility.yul\":2050:2079   */\n      tag_203\n        /* \"#utility.yul\":2072:2078   */\n      dup2\n        /* \"#utility.yul\":2050:2079   */\n      tag_127\n      jump\t// in\n    tag_203:\n        /* \"#utility.yul\":2045:2048   */\n      dup5\n        /* \"#utility.yul\":2041:2080   */\n      add\n        /* \"#utility.yul\":2034:2080   */\n      swap2\n      pop\n        /* \"#utility.yul\":1801:2086   */\n      pop\n        /* \"#utility.yul\":1709:2086   */\n      swap3\n      swap2\n      pop\n      pop\n      jump\t// out\n        /* \"#utility.yul\":2092:2210   */\n    tag_129:\n        /* \"#utility.yul\":2179:2203   */\n      tag_205\n        /* \"#utility.yul\":2197:2202   */\n      dup2\n        /* \"#utility.yul\":2179:2203   */\n      tag_121\n      jump\t// in\n    tag_205:\n        /* \"#utility.yul\":2174:2177   */\n      dup3\n        /* \"#utility.yul\":2167:2204   */\n      mstore\n        /* \"#utility.yul\":2092:2210   */\n      pop\n      pop\n      jump\t// out\n        /* \"#utility.yul\":2216:2293   */\n    tag_130:\n        /* \"#utility.yul\":2253:2260   */\n      0x00\n        /* \"#utility.yul\":2282:2287   */\n      dup2\n        /* \"#utility.yul\":2271:2287   */\n      swap1\n      pop\n        /* \"#utility.yul\":2216:2293   */\n      swap2\n      swap1\n      pop\n      jump\t// out\n        /* \"#utility.yul\":2299:2417   */\n    tag_131:\n        /* \"#utility.yul\":2386:2410   */\n      tag_208\n        /* \"#utility.yul\":2404:2409   */\n      dup2\n        /* \"#utility.yul\":2386:2410   */\n      tag_130\n      jump\t// in\n    tag_208:\n        /* \"#utility.yul\":2381:2384   */\n      dup3\n        /* \"#utility.yul\":2374:2411   */\n      mstore\n        /* \"#utility.yul\":2299:2417   */\n      pop\n      pop\n      jump\t// out\n        /* \"#utility.yul\":2423:2956   */\n    tag_20:\n        /* \"#utility.yul\":2592:2596   */\n      0x00\n        /* \"#utility.yul\":2630:2632   */\n      0x60\n        /* \"#utility.yul\":2619:2628   */\n      dup3\n        /* \"#utility.yul\":2615:2633   */\n      add\n        /* \"#utility.yul\":2607:2633   */\n      swap1\n      pop\n        /* \"#utility.yul\":2679:2688   */\n      dup2\n        /* \"#utility.yul\":2673:2677   */\n      dup2\n        /* \"#utility.yul\":2669:2689   */\n      sub\n        /* \"#utility.yul\":2665:2666   */\n      0x00\n        /* \"#utility.yul\":2654:2663   */\n      dup4\n        /* \"#utility.yul\":2650:2667   */\n      add\n        /* \"#utility.yul\":2643:2690   */\n      mstore\n        /* \"#utility.yul\":2707:2785   */\n      tag_210\n        /* \"#utility.yul\":2780:2784   */\n      dup2\n        /* \"#utility.yul\":2771:2777   */\n      dup7\n        /* \"#utility.yul\":2707:2785   */\n      tag_128\n      jump\t// in\n    tag_210:\n        /* \"#utility.yul\":2699:2785   */\n      swap1\n      pop\n        /* \"#utility.yul\":2795:2867   */\n      tag_211\n        /* \"#utility.yul\":2863:2865   */\n      0x20\n        /* \"#utility.yul\":2852:2861   */\n      dup4\n        /* \"#utility.yul\":2848:2866   */\n      add\n        /* \"#utility.yul\":2839:2845   */\n      dup6\n        /* \"#utility.yul\":2795:2867   */\n      tag_129\n      jump\t// in\n    tag_211:\n        /* \"#utility.yul\":2877:2949   */\n      tag_212\n        /* \"#utility.yul\":2945:2947   */\n      0x40\n        /* \"#utility.yul\":2934:2943   */\n      dup4\n        /* \"#utility.yul\":2930:2948   */\n      add\n        /* \"#utility.yul\":2921:2927   */\n      dup5\n        /* \"#utility.yul\":2877:2949   */\n      tag_131\n      jump\t// in\n    tag_212:\n        /* \"#utility.yul\":2423:2956   */\n      swap5\n      swap4\n      pop\n      pop\n      pop\n      pop\n      jump\t// out\n        /* \"#utility.yul\":2962:3142   */\n    tag_76:\n        /* \"#utility.yul\":3010:3087   */\n      0x4e487b7100000000000000000000000000000000000000000000000000000000\n        /* \"#utility.yul\":3007:3008   */\n      0x00\n        /* \"#utility.yul\":3000:3088   */\n      mstore\n        /* \"#utility.yul\":3107:3111   */\n      0x21\n        /* \"#utility.yul\":3104:3105   */\n      0x04\n        /* \"#utility.yul\":3097:3112   */\n      mstore\n        /* \"#utility.yul\":3131:3135   */\n      0x24\n        /* \"#utility.yul\":3128:3129   */\n      0x00\n        /* \"#utility.yul\":3121:3136   */\n      revert\n        /* \"#utility.yul\":3148:3272   */\n    tag_132:\n        /* \"#utility.yul\":3240:3241   */\n      0x02\n        /* \"#utility.yul\":3233:3238   */\n      dup2\n        /* \"#utility.yul\":3230:3242   */\n      lt\n        /* \"#utility.yul\":3220:3266   */\n      tag_215\n      jumpi\n        /* \"#utility.yul\":3246:3264   */\n      tag_216\n      tag_76\n      jump\t// in\n    tag_216:\n        /* \"#utility.yul\":3220:3266   */\n    tag_215:\n        /* \"#utility.yul\":3148:3272   */\n      pop\n      jump\t// out\n        /* \"#utility.yul\":3278:3427   */\n    tag_133:\n        /* \"#utility.yul\":3334:3341   */\n      0x00\n        /* \"#utility.yul\":3363:3368   */\n      dup2\n        /* \"#utility.yul\":3352:3368   */\n      swap1\n      pop\n        /* \"#utility.yul\":3369:3421   */\n      tag_218\n        /* \"#utility.yul\":3415:3420   */\n      dup3\n        /* \"#utility.yul\":3369:3421   */\n      tag_132\n      jump\t// in\n    tag_218:\n        /* \"#utility.yul\":3278:3427   */\n      swap2\n      swap1\n      pop\n      jump\t// out\n        /* \"#utility.yul\":3433:3582   */\n    tag_134:\n        /* \"#utility.yul\":3500:3509   */\n      0x00\n        /* \"#utility.yul\":3533:3576   */\n      tag_220\n        /* \"#utility.yul\":3570:3575   */\n      dup3\n        /* \"#utility.yul\":3533:3576   */\n      tag_133\n      jump\t// in\n    tag_220:\n        /* \"#utility.yul\":3520:3576   */\n      swap1\n      pop\n        /* \"#utility.yul\":3433:3582   */\n      swap2\n      swap1\n      pop\n      jump\t// out\n        /* \"#utility.yul\":3588:3753   */\n    tag_135:\n        /* \"#utility.yul\":3692:3746   */\n      tag_222\n        /* \"#utility.yul\":3740:3745   */\n      dup2\n        /* \"#utility.yul\":3692:3746   */\n      tag_134\n      jump\t// in\n    tag_222:\n        /* \"#utility.yul\":3687:3690   */\n      dup3\n        /* \"#utility.yul\":3680:3747   */\n      mstore\n        /* \"#utility.yul\":3588:3753   */\n      pop\n      pop\n      jump\t// out\n        /* \"#utility.yul\":3759:4015   */\n    tag_24:\n        /* \"#utility.yul\":3869:3873   */\n      0x00\n        /* \"#utility.yul\":3907:3909   */\n      0x20\n        /* \"#utility.yul\":3896:3905   */\n      dup3\n        /* \"#utility.yul\":3892:3910   */\n      add\n        /* \"#utility.yul\":3884:3910   */\n      swap1\n      pop\n        /* \"#utility.yul\":3920:4008   */\n      tag_224\n        /* \"#utility.yul\":4005:4006   */\n      0x00\n        /* \"#utility.yul\":3994:4003   */\n      dup4\n        /* \"#utility.yul\":3990:4007   */\n      add\n        /* \"#utility.yul\":3981:3987   */\n      dup5\n        /* \"#utility.yul\":3920:4008   */\n      tag_135\n      jump\t// in\n    tag_224:\n        /* \"#utility.yul\":3759:4015   */\n      swap3\n      swap2\n      pop\n      pop\n      jump\t// out\n        /* \"#utility.yul\":4021:4243   */\n    tag_28:\n        /* \"#utility.yul\":4114:4118   */\n      0x00\n        /* \"#utility.yul\":4152:4154   */\n      0x20\n        /* \"#utility.yul\":4141:4150   */\n      dup3\n        /* \"#utility.yul\":4137:4155   */\n      add\n        /* \"#utility.yul\":4129:4155   */\n      swap1\n      pop\n        /* \"#utility.yul\":4165:4236   */\n      tag_226\n        /* \"#utility.yul\":4233:4234   */\n      0x00\n        /* \"#utility.yul\":4222:4231   */\n      dup4\n        /* \"#utility.yul\":4218:4235   */\n      add\n        /* \"#utility.yul\":4209:4215   */\n      dup5\n        /* \"#utility.yul\":4165:4236   */\n      tag_131\n      jump\t// in\n    tag_226:\n        /* \"#utility.yul\":4021:4243   */\n      swap3\n      swap2\n      pop\n      pop\n      jump\t// out\n        /* \"#utility.yul\":4249:4371   */\n    tag_136:\n        /* \"#utility.yul\":4322:4346   */\n      tag_228\n        /* \"#utility.yul\":4340:4345   */\n      dup2\n        /* \"#utility.yul\":4322:4346   */\n      tag_130\n      jump\t// in\n    tag_228:\n        /* \"#utility.yul\":4315:4320   */\n      dup2\n        /* \"#utility.yul\":4312:4347   */\n      eq\n        /* \"#utility.yul\":4302:4365   */\n      tag_229\n      jumpi\n        /* \"#utility.yul\":4361:4362   */\n      0x00\n        /* \"#utility.yul\":4358:4359   */\n      dup1\n        /* \"#utility.yul\":4351:4363   */\n      revert\n        /* \"#utility.yul\":4302:4365   */\n    tag_229:\n        /* \"#utility.yul\":4249:4371   */\n      pop\n      jump\t// out\n        /* \"#utility.yul\":4377:4516   */\n    tag_137:\n        /* \"#utility.yul\":4423:4428   */\n      0x00\n        /* \"#utility.yul\":4461:4467   */\n      dup2\n        /* \"#utility.yul\":4448:4468   */\n      calldataload\n        /* \"#utility.yul\":4439:4468   */\n      swap1\n      pop\n        /* \"#utility.yul\":4477:4510   */\n      tag_231\n        /* \"#utility.yul\":4504:4509   */\n      dup2\n        /* \"#utility.yul\":4477:4510   */\n      tag_136\n      jump\t// in\n    tag_231:\n        /* \"#utility.yul\":4377:4516   */\n      swap3\n      swap2\n      pop\n      pop\n      jump\t// out\n        /* \"#utility.yul\":4522:4851   */\n    tag_35:\n        /* \"#utility.yul\":4581:4587   */\n      0x00\n        /* \"#utility.yul\":4630:4632   */\n      0x20\n        /* \"#utility.yul\":4618:4627   */\n      dup3\n        /* \"#utility.yul\":4609:4616   */\n      dup5\n        /* \"#utility.yul\":4605:4628   */\n      sub\n        /* \"#utility.yul\":4601:4633   */\n      slt\n        /* \"#utility.yul\":4598:4717   */\n      iszero\n      tag_233\n      jumpi\n        /* \"#utility.yul\":4636:4715   */\n      tag_234\n      tag_118\n      jump\t// in\n    tag_234:\n        /* \"#utility.yul\":4598:4717   */\n    tag_233:\n        /* \"#utility.yul\":4756:4757   */\n      0x00\n        /* \"#utility.yul\":4781:4834   */\n      tag_235\n        /* \"#utility.yul\":4826:4833   */\n      dup5\n        /* \"#utility.yul\":4817:4823   */\n      dup3\n        /* \"#utility.yul\":4806:4815   */\n      dup6\n        /* \"#utility.yul\":4802:4824   */\n      add\n        /* \"#utility.yul\":4781:4834   */\n      tag_137\n      jump\t// in\n    tag_235:\n        /* \"#utility.yul\":4771:4834   */\n      swap2\n      pop\n        /* \"#utility.yul\":4727:4844   */\n      pop\n        /* \"#utility.yul\":4522:4851   */\n      swap3\n      swap2\n      pop\n      pop\n      jump\t// out\n        /* \"#utility.yul\":4857:5079   */\n    tag_40:\n        /* \"#utility.yul\":4950:4954   */\n      0x00\n        /* \"#utility.yul\":4988:4990   */\n      0x20\n        /* \"#utility.yul\":4977:4986   */\n      dup3\n        /* \"#utility.yul\":4973:4991   */\n      add\n        /* \"#utility.yul\":4965:4991   */\n      swap1\n      pop\n        /* \"#utility.yul\":5001:5072   */\n      tag_237\n        /* \"#utility.yul\":5069:5070   */\n      0x00\n        /* \"#utility.yul\":5058:5067   */\n      dup4\n        /* \"#utility.yul\":5054:5071   */\n      add\n        /* \"#utility.yul\":5045:5051   */\n      dup5\n        /* \"#utility.yul\":5001:5072   */\n      tag_129\n      jump\t// in\n    tag_237:\n        /* \"#utility.yul\":4857:5079   */\n      swap3\n      swap2\n      pop\n      pop\n      jump\t// out\n        /* \"#utility.yul\":5085:5202   */\n    tag_138:\n        /* \"#utility.yul\":5194:5195   */\n      0x00\n        /* \"#utility.yul\":5191:5192   */\n      dup1\n        /* \"#utility.yul\":5184:5196   */\n      revert\n        /* \"#utility.yul\":5208:5325   */\n    tag_139:\n        /* \"#utility.yul\":5317:5318   */\n      0x00\n        /* \"#utility.yul\":5314:5315   */\n      dup1\n        /* \"#utility.yul\":5307:5319   */\n      revert\n        /* \"#utility.yul\":5331:5511   */\n    tag_140:\n        /* \"#utility.yul\":5379:5456   */\n      0x4e487b7100000000000000000000000000000000000000000000000000000000\n        /* \"#utility.yul\":5376:5377   */\n      0x00\n        /* \"#utility.yul\":5369:5457   */\n      mstore\n        /* \"#utility.yul\":5476:5480   */\n      0x41\n        /* \"#utility.yul\":5473:5474   */\n      0x04\n        /* \"#utility.yul\":5466:5481   */\n      mstore\n        /* \"#utility.yul\":5500:5504   */\n      0x24\n        /* \"#utility.yul\":5497:5498   */\n      0x00\n        /* \"#utility.yul\":5490:5505   */\n      revert\n        /* \"#utility.yul\":5517:5798   */\n    tag_141:\n        /* \"#utility.yul\":5600:5627   */\n      tag_242\n        /* \"#utility.yul\":5622:5626   */\n      dup3\n        /* \"#utility.yul\":5600:5627   */\n      tag_127\n      jump\t// in\n    tag_242:\n        /* \"#utility.yul\":5592:5598   */\n      dup2\n        /* \"#utility.yul\":5588:5628   */\n      add\n        /* \"#utility.yul\":5730:5736   */\n      dup2\n        /* \"#utility.yul\":5718:5728   */\n      dup2\n        /* \"#utility.yul\":5715:5737   */\n      lt\n        /* \"#utility.yul\":5694:5712   */\n      0xffffffffffffffff\n        /* \"#utility.yul\":5682:5692   */\n      dup3\n        /* \"#utility.yul\":5679:5713   */\n      gt\n        /* \"#utility.yul\":5676:5738   */\n      or\n        /* \"#utility.yul\":5673:5761   */\n      iszero\n      tag_243\n      jumpi\n        /* \"#utility.yul\":5741:5759   */\n      tag_244\n      tag_140\n      jump\t// in\n    tag_244:\n        /* \"#utility.yul\":5673:5761   */\n    tag_243:\n        /* \"#utility.yul\":5781:5791   */\n      dup1\n        /* \"#utility.yul\":5777:5779   */\n      0x40\n        /* \"#utility.yul\":5770:5792   */\n      mstore\n        /* \"#utility.yul\":5560:5798   */\n      pop\n        /* \"#utility.yul\":5517:5798   */\n      pop\n      pop\n      jump\t// out\n        /* \"#utility.yul\":5804:5933   */\n    tag_142:\n        /* \"#utility.yul\":5838:5844   */\n      0x00\n        /* \"#utility.yul\":5865:5885   */\n      tag_246\n      tag_117\n      jump\t// in\n    tag_246:\n        /* \"#utility.yul\":5855:5885   */\n      swap1\n      pop\n        /* \"#utility.yul\":5894:5927   */\n      tag_247\n        /* \"#utility.yul\":5922:5926   */\n      dup3\n        /* \"#utility.yul\":5914:5920   */\n      dup3\n        /* \"#utility.yul\":5894:5927   */\n      tag_141\n      jump\t// in\n    tag_247:\n        /* \"#utility.yul\":5804:5933   */\n      swap2\n      swap1\n      pop\n      jump\t// out\n        /* \"#utility.yul\":5939:6247   */\n    tag_143:\n        /* \"#utility.yul\":6001:6005   */\n      0x00\n        /* \"#utility.yul\":6091:6109   */\n      0xffffffffffffffff\n        /* \"#utility.yul\":6083:6089   */\n      dup3\n        /* \"#utility.yul\":6080:6110   */\n      gt\n        /* \"#utility.yul\":6077:6133   */\n      iszero\n      tag_249\n      jumpi\n        /* \"#utility.yul\":6113:6131   */\n      tag_250\n      tag_140\n      jump\t// in\n    tag_250:\n        /* \"#utility.yul\":6077:6133   */\n    tag_249:\n        /* \"#utility.yul\":6151:6180   */\n      tag_251\n        /* \"#utility.yul\":6173:6179   */\n      dup3\n        /* \"#utility.yul\":6151:6180   */\n      tag_127\n      jump\t// in\n    tag_251:\n        /* \"#utility.yul\":6143:6180   */\n      swap1\n      pop\n        /* \"#utility.yul\":6235:6239   */\n      0x20\n        /* \"#utility.yul\":6229:6233   */\n      dup2\n        /* \"#utility.yul\":6225:6240   */\n      add\n        /* \"#utility.yul\":6217:6240   */\n      swap1\n      pop\n        /* \"#utility.yul\":5939:6247   */\n      swap2\n      swap1\n      pop\n      jump\t// out\n        /* \"#utility.yul\":6253:6401   */\n    tag_144:\n        /* \"#utility.yul\":6351:6357   */\n      dup3\n        /* \"#utility.yul\":6346:6349   */\n      dup2\n        /* \"#utility.yul\":6341:6344   */\n      dup4\n        /* \"#utility.yul\":6328:6358   */\n      calldatacopy\n        /* \"#utility.yul\":6392:6393   */\n      0x00\n        /* \"#utility.yul\":6383:6389   */\n      dup4\n        /* \"#utility.yul\":6378:6381   */\n      dup4\n        /* \"#utility.yul\":6374:6390   */\n      add\n        /* \"#utility.yul\":6367:6394   */\n      mstore\n        /* \"#utility.yul\":6253:6401   */\n      pop\n      pop\n      pop\n      jump\t// out\n        /* \"#utility.yul\":6407:6832   */\n    tag_145:\n        /* \"#utility.yul\":6485:6490   */\n      0x00\n        /* \"#utility.yul\":6510:6576   */\n      tag_254\n        /* \"#utility.yul\":6526:6575   */\n      tag_255\n        /* \"#utility.yul\":6568:6574   */\n      dup5\n        /* \"#utility.yul\":6526:6575   */\n      tag_143\n      jump\t// in\n    tag_255:\n        /* \"#utility.yul\":6510:6576   */\n      tag_142\n      jump\t// in\n    tag_254:\n        /* \"#utility.yul\":6501:6576   */\n      swap1\n      pop\n        /* \"#utility.yul\":6599:6605   */\n      dup3\n        /* \"#utility.yul\":6592:6597   */\n      dup2\n        /* \"#utility.yul\":6585:6606   */\n      mstore\n        /* \"#utility.yul\":6637:6641   */\n      0x20\n        /* \"#utility.yul\":6630:6635   */\n      dup2\n        /* \"#utility.yul\":6626:6642   */\n      add\n        /* \"#utility.yul\":6675:6678   */\n      dup5\n        /* \"#utility.yul\":6666:6672   */\n      dup5\n        /* \"#utility.yul\":6661:6664   */\n      dup5\n        /* \"#utility.yul\":6657:6673   */\n      add\n        /* \"#utility.yul\":6654:6679   */\n      gt\n        /* \"#utility.yul\":6651:6763   */\n      iszero\n      tag_256\n      jumpi\n        /* \"#utility.yul\":6682:6761   */\n      tag_257\n      tag_139\n      jump\t// in\n    tag_257:\n        /* \"#utility.yul\":6651:6763   */\n    tag_256:\n        /* \"#utility.yul\":6772:6826   */\n      tag_258\n        /* \"#utility.yul\":6819:6825   */\n      dup5\n        /* \"#utility.yul\":6814:6817   */\n      dup3\n        /* \"#utility.yul\":6809:6812   */\n      dup6\n        /* \"#utility.yul\":6772:6826   */\n      tag_144\n      jump\t// in\n    tag_258:\n        /* \"#utility.yul\":6491:6832   */\n      pop\n        /* \"#utility.yul\":6407:6832   */\n      swap4\n      swap3\n      pop\n      pop\n      pop\n      jump\t// out\n        /* \"#utility.yul\":6852:7192   */\n    tag_146:\n        /* \"#utility.yul\":6908:6913   */\n      0x00\n        /* \"#utility.yul\":6957:6960   */\n      dup3\n        /* \"#utility.yul\":6950:6954   */\n      0x1f\n        /* \"#utility.yul\":6942:6948   */\n      dup4\n        /* \"#utility.yul\":6938:6955   */\n      add\n        /* \"#utility.yul\":6934:6961   */\n      slt\n        /* \"#utility.yul\":6924:7046   */\n      tag_260\n      jumpi\n        /* \"#utility.yul\":6965:7044   */\n      tag_261\n      tag_138\n      jump\t// in\n    tag_261:\n        /* \"#utility.yul\":6924:7046   */\n    tag_260:\n        /* \"#utility.yul\":7082:7088   */\n      dup2\n        /* \"#utility.yul\":7069:7089   */\n      calldataload\n        /* \"#utility.yul\":7107:7186   */\n      tag_262\n        /* \"#utility.yul\":7182:7185   */\n      dup5\n        /* \"#utility.yul\":7174:7180   */\n      dup3\n        /* \"#utility.yul\":7167:7171   */\n      0x20\n        /* \"#utility.yul\":7159:7165   */\n      dup7\n        /* \"#utility.yul\":7155:7172   */\n      add\n        /* \"#utility.yul\":7107:7186   */\n      tag_145\n      jump\t// in\n    tag_262:\n        /* \"#utility.yul\":7098:7186   */\n      swap2\n      pop\n        /* \"#utility.yul\":6914:7192   */\n      pop\n        /* \"#utility.yul\":6852:7192   */\n      swap3\n      swap2\n      pop\n      pop\n      jump\t// out\n        /* \"#utility.yul\":7198:7852   */\n    tag_46:\n        /* \"#utility.yul\":7276:7282   */\n      0x00\n        /* \"#utility.yul\":7284:7290   */\n      dup1\n        /* \"#utility.yul\":7333:7335   */\n      0x40\n        /* \"#utility.yul\":7321:7330   */\n      dup4\n        /* \"#utility.yul\":7312:7319   */\n      dup6\n        /* \"#utility.yul\":7308:7331   */\n      sub\n        /* \"#utility.yul\":7304:7336   */\n      slt\n        /* \"#utility.yul\":7301:7420   */\n      iszero\n      tag_264\n      jumpi\n        /* \"#utility.yul\":7339:7418   */\n      tag_265\n      tag_118\n      jump\t// in\n    tag_265:\n        /* \"#utility.yul\":7301:7420   */\n    tag_264:\n        /* \"#utility.yul\":7487:7488   */\n      0x00\n        /* \"#utility.yul\":7476:7485   */\n      dup4\n        /* \"#utility.yul\":7472:7489   */\n      add\n        /* \"#utility.yul\":7459:7490   */\n      calldataload\n        /* \"#utility.yul\":7517:7535   */\n      0xffffffffffffffff\n        /* \"#utility.yul\":7509:7515   */\n      dup2\n        /* \"#utility.yul\":7506:7536   */\n      gt\n        /* \"#utility.yul\":7503:7620   */\n      iszero\n      tag_266\n      jumpi\n        /* \"#utility.yul\":7539:7618   */\n      tag_267\n      tag_119\n      jump\t// in\n    tag_267:\n        /* \"#utility.yul\":7503:7620   */\n    tag_266:\n        /* \"#utility.yul\":7644:7707   */\n      tag_268\n        /* \"#utility.yul\":7699:7706   */\n      dup6\n        /* \"#utility.yul\":7690:7696   */\n      dup3\n        /* \"#utility.yul\":7679:7688   */\n      dup7\n        /* \"#utility.yul\":7675:7697   */\n      add\n        /* \"#utility.yul\":7644:7707   */\n      tag_146\n      jump\t// in\n    tag_268:\n        /* \"#utility.yul\":7634:7707   */\n      swap3\n      pop\n        /* \"#utility.yul\":7430:7717   */\n      pop\n        /* \"#utility.yul\":7756:7758   */\n      0x20\n        /* \"#utility.yul\":7782:7835   */\n      tag_269\n        /* \"#utility.yul\":7827:7834   */\n      dup6\n        /* \"#utility.yul\":7818:7824   */\n      dup3\n        /* \"#utility.yul\":7807:7816   */\n      dup7\n        /* \"#utility.yul\":7803:7825   */\n      add\n        /* \"#utility.yul\":7782:7835   */\n      tag_123\n      jump\t// in\n    tag_269:\n        /* \"#utility.yul\":7772:7835   */\n      swap2\n      pop\n        /* \"#utility.yul\":7727:7845   */\n      pop\n        /* \"#utility.yul\":7198:7852   */\n      swap3\n      pop\n      swap3\n      swap1\n      pop\n      jump\t// out\n        /* \"#utility.yul\":7858:8332   */\n    tag_53:\n        /* \"#utility.yul\":7926:7932   */\n      0x00\n        /* \"#utility.yul\":7934:7940   */\n      dup1\n        /* \"#utility.yul\":7983:7985   */\n      0x40\n        /* \"#utility.yul\":7971:7980   */\n      dup4\n        /* \"#utility.yul\":7962:7969   */\n      dup6\n        /* \"#utility.yul\":7958:7981   */\n      sub\n        /* \"#utility.yul\":7954:7986   */\n      slt\n        /* \"#utility.yul\":7951:8070   */\n      iszero\n      tag_271\n      jumpi\n        /* \"#utility.yul\":7989:8068   */\n      tag_272\n      tag_118\n      jump\t// in\n    tag_272:\n        /* \"#utility.yul\":7951:8070   */\n    tag_271:\n        /* \"#utility.yul\":8109:8110   */\n      0x00\n        /* \"#utility.yul\":8134:8187   */\n      tag_273\n        /* \"#utility.yul\":8179:8186   */\n      dup6\n        /* \"#utility.yul\":8170:8176   */\n      dup3\n        /* \"#utility.yul\":8159:8168   */\n      dup7\n        /* \"#utility.yul\":8155:8177   */\n      add\n        /* \"#utility.yul\":8134:8187   */\n      tag_123\n      jump\t// in\n    tag_273:\n        /* \"#utility.yul\":8124:8187   */\n      swap3\n      pop\n        /* \"#utility.yul\":8080:8197   */\n      pop\n        /* \"#utility.yul\":8236:8238   */\n      0x20\n        /* \"#utility.yul\":8262:8315   */\n      tag_274\n        /* \"#utility.yul\":8307:8314   */\n      dup6\n        /* \"#utility.yul\":8298:8304   */\n      dup3\n        /* \"#utility.yul\":8287:8296   */\n      dup7\n        /* \"#utility.yul\":8283:8305   */\n      add\n        /* \"#utility.yul\":8262:8315   */\n      tag_137\n      jump\t// in\n    tag_274:\n        /* \"#utility.yul\":8252:8315   */\n      swap2\n      pop\n        /* \"#utility.yul\":8207:8325   */\n      pop\n        /* \"#utility.yul\":7858:8332   */\n      swap3\n      pop\n      swap3\n      swap1\n      pop\n      jump\t// out\n        /* \"#utility.yul\":8338:8398   */\n    tag_147:\n        /* \"#utility.yul\":8366:8369   */\n      0x00\n        /* \"#utility.yul\":8387:8392   */\n      dup2\n        /* \"#utility.yul\":8380:8392   */\n      swap1\n      pop\n        /* \"#utility.yul\":8338:8398   */\n      swap2\n      swap1\n      pop\n      jump\t// out\n        /* \"#utility.yul\":8404:8546   */\n    tag_148:\n        /* \"#utility.yul\":8454:8463   */\n      0x00\n        /* \"#utility.yul\":8487:8540   */\n      tag_277\n        /* \"#utility.yul\":8505:8539   */\n      tag_278\n        /* \"#utility.yul\":8514:8538   */\n      tag_279\n        /* \"#utility.yul\":8532:8537   */\n      dup5\n        /* \"#utility.yul\":8514:8538   */\n      tag_120\n      jump\t// in\n    tag_279:\n        /* \"#utility.yul\":8505:8539   */\n      tag_147\n      jump\t// in\n    tag_278:\n        /* \"#utility.yul\":8487:8540   */\n      tag_120\n      jump\t// in\n    tag_277:\n        /* \"#utility.yul\":8474:8540   */\n      swap1\n      pop\n        /* \"#utility.yul\":8404:8546   */\n      swap2\n      swap1\n      pop\n      jump\t// out\n        /* \"#utility.yul\":8552:8678   */\n    tag_149:\n        /* \"#utility.yul\":8602:8611   */\n      0x00\n        /* \"#utility.yul\":8635:8672   */\n      tag_281\n        /* \"#utility.yul\":8666:8671   */\n      dup3\n        /* \"#utility.yul\":8635:8672   */\n      tag_148\n      jump\t// in\n    tag_281:\n        /* \"#utility.yul\":8622:8672   */\n      swap1\n      pop\n        /* \"#utility.yul\":8552:8678   */\n      swap2\n      swap1\n      pop\n      jump\t// out\n        /* \"#utility.yul\":8684:8823   */\n    tag_150:\n        /* \"#utility.yul\":8747:8756   */\n      0x00\n        /* \"#utility.yul\":8780:8817   */\n      tag_283\n        /* \"#utility.yul\":8811:8816   */\n      dup3\n        /* \"#utility.yul\":8780:8817   */\n      tag_149\n      jump\t// in\n    tag_283:\n        /* \"#utility.yul\":8767:8817   */\n      swap1\n      pop\n        /* \"#utility.yul\":8684:8823   */\n      swap2\n      swap1\n      pop\n      jump\t// out\n        /* \"#utility.yul\":8829:8986   */\n    tag_151:\n        /* \"#utility.yul\":8929:8979   */\n      tag_285\n        /* \"#utility.yul\":8973:8978   */\n      dup2\n        /* \"#utility.yul\":8929:8979   */\n      tag_150\n      jump\t// in\n    tag_285:\n        /* \"#utility.yul\":8924:8927   */\n      dup3\n        /* \"#utility.yul\":8917:8980   */\n      mstore\n        /* \"#utility.yul\":8829:8986   */\n      pop\n      pop\n      jump\t// out\n        /* \"#utility.yul\":8992:9240   */\n    tag_58:\n        /* \"#utility.yul\":9098:9102   */\n      0x00\n        /* \"#utility.yul\":9136:9138   */\n      0x20\n        /* \"#utility.yul\":9125:9134   */\n      dup3\n        /* \"#utility.yul\":9121:9139   */\n      add\n        /* \"#utility.yul\":9113:9139   */\n      swap1\n      pop\n        /* \"#utility.yul\":9149:9233   */\n      tag_287\n        /* \"#utility.yul\":9230:9231   */\n      0x00\n        /* \"#utility.yul\":9219:9228   */\n      dup4\n        /* \"#utility.yul\":9215:9232   */\n      add\n        /* \"#utility.yul\":9206:9212   */\n      dup5\n        /* \"#utility.yul\":9149:9233   */\n      tag_151\n      jump\t// in\n    tag_287:\n        /* \"#utility.yul\":8992:9240   */\n      swap3\n      swap2\n      pop\n      pop\n      jump\t// out\n        /* \"#utility.yul\":9246:9426   */\n    tag_152:\n        /* \"#utility.yul\":9294:9371   */\n      0x4e487b7100000000000000000000000000000000000000000000000000000000\n        /* \"#utility.yul\":9291:9292   */\n      0x00\n        /* \"#utility.yul\":9284:9372   */\n      mstore\n        /* \"#utility.yul\":9391:9395   */\n      0x22\n        /* \"#utility.yul\":9388:9389   */\n      0x04\n        /* \"#utility.yul\":9381:9396   */\n      mstore\n        /* \"#utility.yul\":9415:9419   */\n      0x24\n        /* \"#utility.yul\":9412:9413   */\n      0x00\n        /* \"#utility.yul\":9405:9420   */\n      revert\n        /* \"#utility.yul\":9432:9752   */\n    tag_60:\n        /* \"#utility.yul\":9476:9482   */\n      0x00\n        /* \"#utility.yul\":9513:9514   */\n      0x02\n        /* \"#utility.yul\":9507:9511   */\n      dup3\n        /* \"#utility.yul\":9503:9515   */\n      div\n        /* \"#utility.yul\":9493:9515   */\n      swap1\n      pop\n        /* \"#utility.yul\":9560:9561   */\n      0x01\n        /* \"#utility.yul\":9554:9558   */\n      dup3\n        /* \"#utility.yul\":9550:9562   */\n      and\n        /* \"#utility.yul\":9581:9599   */\n      dup1\n        /* \"#utility.yul\":9571:9652   */\n      tag_290\n      jumpi\n        /* \"#utility.yul\":9637:9641   */\n      0x7f\n        /* \"#utility.yul\":9629:9635   */\n      dup3\n        /* \"#utility.yul\":9625:9642   */\n      and\n        /* \"#utility.yul\":9615:9642   */\n      swap2\n      pop\n        /* \"#utility.yul\":9571:9652   */\n    tag_290:\n        /* \"#utility.yul\":9699:9701   */\n      0x20\n        /* \"#utility.yul\":9691:9697   */\n      dup3\n        /* \"#utility.yul\":9688:9702   */\n      lt\n        /* \"#utility.yul\":9668:9686   */\n      dup2\n        /* \"#utility.yul\":9665:9703   */\n      sub\n        /* \"#utility.yul\":9662:9746   */\n      tag_291\n      jumpi\n        /* \"#utility.yul\":9718:9736   */\n      tag_292\n      tag_152\n      jump\t// in\n    tag_292:\n        /* \"#utility.yul\":9662:9746   */\n    tag_291:\n        /* \"#utility.yul\":9483:9752   */\n      pop\n        /* \"#utility.yul\":9432:9752   */\n      swap2\n      swap1\n      pop\n      jump\t// out\n        /* \"#utility.yul\":9758:9936   */\n    tag_153:\n        /* \"#utility.yul\":9898:9928   */\n      0x4465706f73697420616d6f756e7420697320746f6f20736d616c6c2e00000000\n        /* \"#utility.yul\":9894:9895   */\n      0x00\n        /* \"#utility.yul\":9886:9892   */\n      dup3\n        /* \"#utility.yul\":9882:9896   */\n      add\n        /* \"#utility.yul\":9875:9929   */\n      mstore\n        /* \"#utility.yul\":9758:9936   */\n      pop\n      jump\t// out\n        /* \"#utility.yul\":9942:10308   */\n    tag_154:\n        /* \"#utility.yul\":10084:10087   */\n      0x00\n        /* \"#utility.yul\":10105:10172   */\n      tag_295\n        /* \"#utility.yul\":10169:10171   */\n      0x1c\n        /* \"#utility.yul\":10164:10167   */\n      dup4\n        /* \"#utility.yul\":10105:10172   */\n      tag_125\n      jump\t// in\n    tag_295:\n        /* \"#utility.yul\":10098:10172   */\n      swap2\n      pop\n        /* \"#utility.yul\":10181:10274   */\n      tag_296\n        /* \"#utility.yul\":10270:10273   */\n      dup3\n        /* \"#utility.yul\":10181:10274   */\n      tag_153\n      jump\t// in\n    tag_296:\n        /* \"#utility.yul\":10299:10301   */\n      0x20\n        /* \"#utility.yul\":10294:10297   */\n      dup3\n        /* \"#utility.yul\":10290:10302   */\n      add\n        /* \"#utility.yul\":10283:10302   */\n      swap1\n      pop\n        /* \"#utility.yul\":9942:10308   */\n      swap2\n      swap1\n      pop\n      jump\t// out\n        /* \"#utility.yul\":10314:10733   */\n    tag_80:\n        /* \"#utility.yul\":10480:10484   */\n      0x00\n        /* \"#utility.yul\":10518:10520   */\n      0x20\n        /* \"#utility.yul\":10507:10516   */\n      dup3\n        /* \"#utility.yul\":10503:10521   */\n      add\n        /* \"#utility.yul\":10495:10521   */\n      swap1\n      pop\n        /* \"#utility.yul\":10567:10576   */\n      dup2\n        /* \"#utility.yul\":10561:10565   */\n      dup2\n        /* \"#utility.yul\":10557:10577   */\n      sub\n        /* \"#utility.yul\":10553:10554   */\n      0x00\n        /* \"#utility.yul\":10542:10551   */\n      dup4\n        /* \"#utility.yul\":10538:10555   */\n      add\n        /* \"#utility.yul\":10531:10578   */\n      mstore\n        /* \"#utility.yul\":10595:10726   */\n      tag_298\n        /* \"#utility.yul\":10721:10725   */\n      dup2\n        /* \"#utility.yul\":10595:10726   */\n      tag_154\n      jump\t// in\n    tag_298:\n        /* \"#utility.yul\":10587:10726   */\n      swap1\n      pop\n        /* \"#utility.yul\":10314:10733   */\n      swap2\n      swap1\n      pop\n      jump\t// out\n        /* \"#utility.yul\":10739:11181   */\n    tag_82:\n        /* \"#utility.yul\":10888:10892   */\n      0x00\n        /* \"#utility.yul\":10926:10928   */\n      0x60\n        /* \"#utility.yul\":10915:10924   */\n      dup3\n        /* \"#utility.yul\":10911:10929   */\n      add\n        /* \"#utility.yul\":10903:10929   */\n      swap1\n      pop\n        /* \"#utility.yul\":10939:11010   */\n      tag_300\n        /* \"#utility.yul\":11007:11008   */\n      0x00\n        /* \"#utility.yul\":10996:11005   */\n      dup4\n        /* \"#utility.yul\":10992:11009   */\n      add\n        /* \"#utility.yul\":10983:10989   */\n      dup7\n        /* \"#utility.yul\":10939:11010   */\n      tag_129\n      jump\t// in\n    tag_300:\n        /* \"#utility.yul\":11020:11092   */\n      tag_301\n        /* \"#utility.yul\":11088:11090   */\n      0x20\n        /* \"#utility.yul\":11077:11086   */\n      dup4\n        /* \"#utility.yul\":11073:11091   */\n      add\n        /* \"#utility.yul\":11064:11070   */\n      dup6\n        /* \"#utility.yul\":11020:11092   */\n      tag_129\n      jump\t// in\n    tag_301:\n        /* \"#utility.yul\":11102:11174   */\n      tag_302\n        /* \"#utility.yul\":11170:11172   */\n      0x40\n        /* \"#utility.yul\":11159:11168   */\n      dup4\n        /* \"#utility.yul\":11155:11173   */\n      add\n        /* \"#utility.yul\":11146:11152   */\n      dup5\n        /* \"#utility.yul\":11102:11174   */\n      tag_131\n      jump\t// in\n    tag_302:\n        /* \"#utility.yul\":10739:11181   */\n      swap5\n      swap4\n      pop\n      pop\n      pop\n      pop\n      jump\t// out\n        /* \"#utility.yul\":11187:11277   */\n    tag_155:\n        /* \"#utility.yul\":11221:11228   */\n      0x00\n        /* \"#utility.yul\":11264:11269   */\n      dup2\n        /* \"#utility.yul\":11257:11270   */\n      iszero\n        /* \"#utility.yul\":11250:11271   */\n      iszero\n        /* \"#utility.yul\":11239:11271   */\n      swap1\n      pop\n        /* \"#utility.yul\":11187:11277   */\n      swap2\n      swap1\n      pop\n      jump\t// out\n        /* \"#utility.yul\":11283:11399   */\n    tag_156:\n        /* \"#utility.yul\":11353:11374   */\n      tag_305\n        /* \"#utility.yul\":11368:11373   */\n      dup2\n        /* \"#utility.yul\":11353:11374   */\n      tag_155\n      jump\t// in\n    tag_305:\n        /* \"#utility.yul\":11346:11351   */\n      dup2\n        /* \"#utility.yul\":11343:11375   */\n      eq\n        /* \"#utility.yul\":11333:11393   */\n      tag_306\n      jumpi\n        /* \"#utility.yul\":11389:11390   */\n      0x00\n        /* \"#utility.yul\":11386:11387   */\n      dup1\n        /* \"#utility.yul\":11379:11391   */\n      revert\n        /* \"#utility.yul\":11333:11393   */\n    tag_306:\n        /* \"#utility.yul\":11283:11399   */\n      pop\n      jump\t// out\n        /* \"#utility.yul\":11405:11542   */\n    tag_157:\n        /* \"#utility.yul\":11459:11464   */\n      0x00\n        /* \"#utility.yul\":11490:11496   */\n      dup2\n        /* \"#utility.yul\":11484:11497   */\n      mload\n        /* \"#utility.yul\":11475:11497   */\n      swap1\n      pop\n        /* \"#utility.yul\":11506:11536   */\n      tag_308\n        /* \"#utility.yul\":11530:11535   */\n      dup2\n        /* \"#utility.yul\":11506:11536   */\n      tag_156\n      jump\t// in\n    tag_308:\n        /* \"#utility.yul\":11405:11542   */\n      swap3\n      swap2\n      pop\n      pop\n      jump\t// out\n        /* \"#utility.yul\":11548:11893   */\n    tag_86:\n        /* \"#utility.yul\":11615:11621   */\n      0x00\n        /* \"#utility.yul\":11664:11666   */\n      0x20\n        /* \"#utility.yul\":11652:11661   */\n      dup3\n        /* \"#utility.yul\":11643:11650   */\n      dup5\n        /* \"#utility.yul\":11639:11662   */\n      sub\n        /* \"#utility.yul\":11635:11667   */\n      slt\n        /* \"#utility.yul\":11632:11751   */\n      iszero\n      tag_310\n      jumpi\n        /* \"#utility.yul\":11670:11749   */\n      tag_311\n      tag_118\n      jump\t// in\n    tag_311:\n        /* \"#utility.yul\":11632:11751   */\n    tag_310:\n        /* \"#utility.yul\":11790:11791   */\n      0x00\n        /* \"#utility.yul\":11815:11876   */\n      tag_312\n        /* \"#utility.yul\":11868:11875   */\n      dup5\n        /* \"#utility.yul\":11859:11865   */\n      dup3\n        /* \"#utility.yul\":11848:11857   */\n      dup6\n        /* \"#utility.yul\":11844:11866   */\n      add\n        /* \"#utility.yul\":11815:11876   */\n      tag_157\n      jump\t// in\n    tag_312:\n        /* \"#utility.yul\":11805:11876   */\n      swap2\n      pop\n        /* \"#utility.yul\":11761:11886   */\n      pop\n        /* \"#utility.yul\":11548:11893   */\n      swap3\n      swap2\n      pop\n      pop\n      jump\t// out\n        /* \"#utility.yul\":11899:12079   */\n    tag_158:\n        /* \"#utility.yul\":11947:12024   */\n      0x4e487b7100000000000000000000000000000000000000000000000000000000\n        /* \"#utility.yul\":11944:11945   */\n      0x00\n        /* \"#utility.yul\":11937:12025   */\n      mstore\n        /* \"#utility.yul\":12044:12048   */\n      0x11\n        /* \"#utility.yul\":12041:12042   */\n      0x04\n        /* \"#utility.yul\":12034:12049   */\n      mstore\n        /* \"#utility.yul\":12068:12072   */\n      0x24\n        /* \"#utility.yul\":12065:12066   */\n      0x00\n        /* \"#utility.yul\":12058:12073   */\n      revert\n        /* \"#utility.yul\":12085:12276   */\n    tag_88:\n        /* \"#utility.yul\":12125:12128   */\n      0x00\n        /* \"#utility.yul\":12144:12164   */\n      tag_315\n        /* \"#utility.yul\":12162:12163   */\n      dup3\n        /* \"#utility.yul\":12144:12164   */\n      tag_130\n      jump\t// in\n    tag_315:\n        /* \"#utility.yul\":12139:12164   */\n      swap2\n      pop\n        /* \"#utility.yul\":12178:12198   */\n      tag_316\n        /* \"#utility.yul\":12196:12197   */\n      dup4\n        /* \"#utility.yul\":12178:12198   */\n      tag_130\n      jump\t// in\n    tag_316:\n        /* \"#utility.yul\":12173:12198   */\n      swap3\n      pop\n        /* \"#utility.yul\":12221:12222   */\n      dup3\n        /* \"#utility.yul\":12218:12219   */\n      dup3\n        /* \"#utility.yul\":12214:12223   */\n      add\n        /* \"#utility.yul\":12207:12223   */\n      swap1\n      pop\n        /* \"#utility.yul\":12242:12245   */\n      dup1\n        /* \"#utility.yul\":12239:12240   */\n      dup3\n        /* \"#utility.yul\":12236:12246   */\n      gt\n        /* \"#utility.yul\":12233:12269   */\n      iszero\n      tag_317\n      jumpi\n        /* \"#utility.yul\":12249:12267   */\n      tag_318\n      tag_158\n      jump\t// in\n    tag_318:\n        /* \"#utility.yul\":12233:12269   */\n    tag_317:\n        /* \"#utility.yul\":12085:12276   */\n      swap3\n      swap2\n      pop\n      pop\n      jump\t// out\n        /* \"#utility.yul\":12282:12423   */\n    tag_159:\n        /* \"#utility.yul\":12331:12335   */\n      0x00\n        /* \"#utility.yul\":12354:12357   */\n      dup2\n        /* \"#utility.yul\":12346:12357   */\n      swap1\n      pop\n        /* \"#utility.yul\":12377:12380   */\n      dup2\n        /* \"#utility.yul\":12374:12375   */\n      0x00\n        /* \"#utility.yul\":12367:12381   */\n      mstore\n        /* \"#utility.yul\":12411:12415   */\n      0x20\n        /* \"#utility.yul\":12408:12409   */\n      0x00\n        /* \"#utility.yul\":12398:12416   */\n      keccak256\n        /* \"#utility.yul\":12390:12416   */\n      swap1\n      pop\n        /* \"#utility.yul\":12282:12423   */\n      swap2\n      swap1\n      pop\n      jump\t// out\n        /* \"#utility.yul\":12429:12522   */\n    tag_160:\n        /* \"#utility.yul\":12466:12472   */\n      0x00\n        /* \"#utility.yul\":12513:12515   */\n      0x20\n        /* \"#utility.yul\":12508:12510   */\n      0x1f\n        /* \"#utility.yul\":12501:12506   */\n      dup4\n        /* \"#utility.yul\":12497:12511   */\n      add\n        /* \"#utility.yul\":12493:12516   */\n      div\n        /* \"#utility.yul\":12483:12516   */\n      swap1\n      pop\n        /* \"#utility.yul\":12429:12522   */\n      swap2\n      swap1\n      pop\n      jump\t// out\n        /* \"#utility.yul\":12528:12635   */\n    tag_161:\n        /* \"#utility.yul\":12572:12580   */\n      0x00\n        /* \"#utility.yul\":12622:12627   */\n      dup3\n        /* \"#utility.yul\":12616:12620   */\n      dup3\n        /* \"#utility.yul\":12612:12628   */\n      shl\n        /* \"#utility.yul\":12591:12628   */\n      swap1\n      pop\n        /* \"#utility.yul\":12528:12635   */\n      swap3\n      swap2\n      pop\n      pop\n      jump\t// out\n        /* \"#utility.yul\":12641:13034   */\n    tag_162:\n        /* \"#utility.yul\":12710:12716   */\n      0x00\n        /* \"#utility.yul\":12760:12761   */\n      0x08\n        /* \"#utility.yul\":12748:12758   */\n      dup4\n        /* \"#utility.yul\":12744:12762   */\n      mul\n        /* \"#utility.yul\":12783:12880   */\n      tag_323\n        /* \"#utility.yul\":12813:12879   */\n      0xffffffffffffffffffffffffffffffffffffffffffffffffffffffffffffffff\n        /* \"#utility.yul\":12802:12811   */\n      dup3\n        /* \"#utility.yul\":12783:12880   */\n      tag_161\n      jump\t// in\n    tag_323:\n        /* \"#utility.yul\":12901:12940   */\n      tag_324\n        /* \"#utility.yul\":12931:12939   */\n      dup7\n        /* \"#utility.yul\":12920:12929   */\n      dup4\n        /* \"#utility.yul\":12901:12940   */\n      tag_161\n      jump\t// in\n    tag_324:\n        /* \"#utility.yul\":12889:12940   */\n      swap6\n      pop\n        /* \"#utility.yul\":12973:12977   */\n      dup1\n        /* \"#utility.yul\":12969:12978   */\n      not\n        /* \"#utility.yul\":12962:12967   */\n      dup5\n        /* \"#utility.yul\":12958:12979   */\n      and\n        /* \"#utility.yul\":12949:12979   */\n      swap4\n      pop\n        /* \"#utility.yul\":13022:13026   */\n      dup1\n        /* \"#utility.yul\":13012:13020   */\n      dup7\n        /* \"#utility.yul\":13008:13027   */\n      and\n        /* \"#utility.yul\":13001:13006   */\n      dup5\n        /* \"#utility.yul\":12998:13028   */\n      or\n        /* \"#utility.yul\":12988:13028   */\n      swap3\n      pop\n        /* \"#utility.yul\":12717:13034   */\n      pop\n      pop\n        /* \"#utility.yul\":12641:13034   */\n      swap4\n      swap3\n      pop\n      pop\n      pop\n      jump\t// out\n        /* \"#utility.yul\":13040:13182   */\n    tag_163:\n        /* \"#utility.yul\":13090:13099   */\n      0x00\n        /* \"#utility.yul\":13123:13176   */\n      tag_326\n        /* \"#utility.yul\":13141:13175   */\n      tag_327\n        /* \"#utility.yul\":13150:13174   */\n      tag_328\n        /* \"#utility.yul\":13168:13173   */\n      dup5\n        /* \"#utility.yul\":13150:13174   */\n      tag_130\n      jump\t// in\n    tag_328:\n        /* \"#utility.yul\":13141:13175   */\n      tag_147\n      jump\t// in\n    tag_327:\n        /* \"#utility.yul\":13123:13176   */\n      tag_130\n      jump\t// in\n    tag_326:\n        /* \"#utility.yul\":13110:13176   */\n      swap1\n      pop\n        /* \"#utility.yul\":13040:13182   */\n      swap2\n      swap1\n      pop\n      jump\t// out\n        /* \"#utility.yul\":13188:13263   */\n    tag_164:\n        /* \"#utility.yul\":13231:13234   */\n      0x00\n        /* \"#utility.yul\":13252:13257   */\n      dup2\n        /* \"#utility.yul\":13245:13257   */\n      swap1\n      pop\n        /* \"#utility.yul\":13188:13263   */\n      swap2\n      swap1\n      pop\n      jump\t// out\n        /* \"#utility.yul\":13269:13538   */\n    tag_165:\n        /* \"#utility.yul\":13379:13418   */\n      tag_331\n        /* \"#utility.yul\":13410:13417   */\n      dup4\n        /* \"#utility.yul\":13379:13418   */\n      tag_163\n      jump\t// in\n    tag_331:\n        /* \"#utility.yul\":13440:13531   */\n      tag_332\n        /* \"#utility.yul\":13489:13530   */\n      tag_333\n        /* \"#utility.yul\":13513:13529   */\n      dup3\n        /* \"#utility.yul\":13489:13530   */\n      tag_164\n      jump\t// in\n    tag_333:\n        /* \"#utility.yul\":13481:13487   */\n      dup5\n        /* \"#utility.yul\":13474:13478   */\n      dup5\n        /* \"#utility.yul\":13468:13479   */\n      sload\n        /* \"#utility.yul\":13440:13531   */\n      tag_162\n      jump\t// in\n    tag_332:\n        /* \"#utility.yul\":13434:13438   */\n      dup3\n        /* \"#utility.yul\":13427:13532   */\n      sstore\n        /* \"#utility.yul\":13345:13538   */\n      pop\n        /* \"#utility.yul\":13269:13538   */\n      pop\n      pop\n      pop\n      jump\t// out\n        /* \"#utility.yul\":13544:13617   */\n    tag_166:\n        /* \"#utility.yul\":13589:13592   */\n      0x00\n        /* \"#utility.yul\":13544:13617   */\n      swap1\n      jump\t// out\n        /* \"#utility.yul\":13623:13812   */\n    tag_167:\n        /* \"#utility.yul\":13700:13732   */\n      tag_336\n      tag_166\n      jump\t// in\n    tag_336:\n        /* \"#utility.yul\":13741:13806   */\n      tag_337\n        /* \"#utility.yul\":13799:13805   */\n      dup2\n        /* \"#utility.yul\":13791:13797   */\n      dup5\n        /* \"#utility.yul\":13785:13789   */\n      dup5\n        /* \"#utility.yul\":13741:13806   */\n      tag_165\n      jump\t// in\n    tag_337:\n        /* \"#utility.yul\":13676:13812   */\n      pop\n        /* \"#utility.yul\":13623:13812   */\n      pop\n      pop\n      jump\t// out\n        /* \"#utility.yul\":13818:14004   */\n    tag_168:\n        /* \"#utility.yul\":13878:13998   */\n    tag_339:\n        /* \"#utility.yul\":13895:13898   */\n      dup2\n        /* \"#utility.yul\":13888:13893   */\n      dup2\n        /* \"#utility.yul\":13885:13899   */\n      lt\n        /* \"#utility.yul\":13878:13998   */\n      iszero\n      tag_341\n      jumpi\n        /* \"#utility.yul\":13949:13988   */\n      tag_342\n        /* \"#utility.yul\":13986:13987   */\n      0x00\n        /* \"#utility.yul\":13979:13984   */\n      dup3\n        /* \"#utility.yul\":13949:13988   */\n      tag_167\n      jump\t// in\n    tag_342:\n        /* \"#utility.yul\":13922:13923   */\n      0x01\n        /* \"#utility.yul\":13915:13920   */\n      dup2\n        /* \"#utility.yul\":13911:13924   */\n      add\n        /* \"#utility.yul\":13902:13924   */\n      swap1\n      pop\n        /* \"#utility.yul\":13878:13998   */\n      jump(tag_339)\n    tag_341:\n        /* \"#utility.yul\":13818:14004   */\n      pop\n      pop\n      jump\t// out\n        /* \"#utility.yul\":14010:14553   */\n    tag_169:\n        /* \"#utility.yul\":14111:14113   */\n      0x1f\n        /* \"#utility.yul\":14106:14109   */\n      dup3\n        /* \"#utility.yul\":14103:14114   */\n      gt\n        /* \"#utility.yul\":14100:14546   */\n      iszero\n      tag_344\n      jumpi\n        /* \"#utility.yul\":14145:14183   */\n      tag_345\n        /* \"#utility.yul\":14177:14182   */\n      dup2\n        /* \"#utility.yul\":14145:14183   */\n      tag_159\n      jump\t// in\n    tag_345:\n        /* \"#utility.yul\":14229:14258   */\n      tag_346\n        /* \"#utility.yul\":14247:14257   */\n      dup5\n        /* \"#utility.yul\":14229:14258   */\n      tag_160\n      jump\t// in\n    tag_346:\n        /* \"#utility.yul\":14219:14227   */\n      dup2\n        /* \"#utility.yul\":14215:14259   */\n      add\n        /* \"#utility.yul\":14412:14414   */\n      0x20\n        /* \"#utility.yul\":14400:14410   */\n      dup6\n        /* \"#utility.yul\":14397:14415   */\n      lt\n        /* \"#utility.yul\":14394:14443   */\n      iszero\n      tag_347\n      jumpi\n        /* \"#utility.yul\":14433:14441   */\n      dup2\n        /* \"#utility.yul\":14418:14441   */\n      swap1\n      pop\n        /* \"#utility.yul\":14394:14443   */\n    tag_347:\n        /* \"#utility.yul\":14456:14536   */\n      tag_348\n        /* \"#utility.yul\":14512:14534   */\n      tag_349\n        /* \"#utility.yul\":14530:14533   */\n      dup6\n        /* \"#utility.yul\":14512:14534   */\n      tag_160\n      jump\t// in\n    tag_349:\n        /* \"#utility.yul\":14502:14510   */\n      dup4\n        /* \"#utility.yul\":14498:14535   */\n      add\n        /* \"#utility.yul\":14485:14496   */\n      dup3\n        /* \"#utility.yul\":14456:14536   */\n      tag_168\n      jump\t// in\n    tag_348:\n        /* \"#utility.yul\":14115:14546   */\n      pop\n      pop\n        /* \"#utility.yul\":14100:14546   */\n    tag_344:\n        /* \"#utility.yul\":14010:14553   */\n      pop\n      pop\n      pop\n      jump\t// out\n        /* \"#utility.yul\":14559:14676   */\n    tag_170:\n        /* \"#utility.yul\":14613:14621   */\n      0x00\n        /* \"#utility.yul\":14663:14668   */\n      dup3\n        /* \"#utility.yul\":14657:14661   */\n      dup3\n        /* \"#utility.yul\":14653:14669   */\n      shr\n        /* \"#utility.yul\":14632:14669   */\n      swap1\n      pop\n        /* \"#utility.yul\":14559:14676   */\n      swap3\n      swap2\n      pop\n      pop\n      jump\t// out\n        /* \"#utility.yul\":14682:14851   */\n    tag_171:\n        /* \"#utility.yul\":14726:14732   */\n      0x00\n        /* \"#utility.yul\":14759:14810   */\n      tag_352\n        /* \"#utility.yul\":14807:14808   */\n      0x00\n        /* \"#utility.yul\":14803:14809   */\n      not\n        /* \"#utility.yul\":14795:14800   */\n      dup5\n        /* \"#utility.yul\":14792:14793   */\n      0x08\n        /* \"#utility.yul\":14788:14801   */\n      mul\n        /* \"#utility.yul\":14759:14810   */\n      tag_170\n      jump\t// in\n    tag_352:\n        /* \"#utility.yul\":14755:14811   */\n      not\n        /* \"#utility.yul\":14840:14844   */\n      dup1\n        /* \"#utility.yul\":14834:14838   */\n      dup4\n        /* \"#utility.yul\":14830:14845   */\n      and\n        /* \"#utility.yul\":14820:14845   */\n      swap2\n      pop\n        /* \"#utility.yul\":14733:14851   */\n      pop\n        /* \"#utility.yul\":14682:14851   */\n      swap3\n      swap2\n      pop\n      pop\n      jump\t// out\n        /* \"#utility.yul\":14856:15151   */\n    tag_172:\n        /* \"#utility.yul\":14932:14936   */\n      0x00\n        /* \"#utility.yul\":15078:15107   */\n      tag_354\n        /* \"#utility.yul\":15103:15106   */\n      dup4\n        /* \"#utility.yul\":15097:15101   */\n      dup4\n        /* \"#utility.yul\":15078:15107   */\n      tag_171\n      jump\t// in\n    tag_354:\n        /* \"#utility.yul\":15070:15107   */\n      swap2\n      pop\n        /* \"#utility.yul\":15140:15143   */\n      dup3\n        /* \"#utility.yul\":15137:15138   */\n      0x02\n        /* \"#utility.yul\":15133:15144   */\n      mul\n        /* \"#utility.yul\":15127:15131   */\n      dup3\n        /* \"#utility.yul\":15124:15145   */\n      or\n        /* \"#utility.yul\":15116:15145   */\n      swap1\n      pop\n        /* \"#utility.yul\":14856:15151   */\n      swap3\n      swap2\n      pop\n      pop\n      jump\t// out\n        /* \"#utility.yul\":15156:16551   */\n    tag_93:\n        /* \"#utility.yul\":15273:15310   */\n      tag_356\n        /* \"#utility.yul\":15306:15309   */\n      dup3\n        /* \"#utility.yul\":15273:15310   */\n      tag_124\n      jump\t// in\n    tag_356:\n        /* \"#utility.yul\":15375:15393   */\n      0xffffffffffffffff\n        /* \"#utility.yul\":15367:15373   */\n      dup2\n        /* \"#utility.yul\":15364:15394   */\n      gt\n        /* \"#utility.yul\":15361:15417   */\n      iszero\n      tag_357\n      jumpi\n        /* \"#utility.yul\":15397:15415   */\n      tag_358\n      tag_140\n      jump\t// in\n    tag_358:\n        /* \"#utility.yul\":15361:15417   */\n    tag_357:\n        /* \"#utility.yul\":15441:15479   */\n      tag_359\n        /* \"#utility.yul\":15473:15477   */\n      dup3\n        /* \"#utility.yul\":15467:15478   */\n      sload\n        /* \"#utility.yul\":15441:15479   */\n      tag_60\n      jump\t// in\n    tag_359:\n        /* \"#utility.yul\":15526:15593   */\n      tag_360\n        /* \"#utility.yul\":15586:15592   */\n      dup3\n        /* \"#utility.yul\":15578:15584   */\n      dup3\n        /* \"#utility.yul\":15572:15576   */\n      dup6\n        /* \"#utility.yul\":15526:15593   */\n      tag_169\n      jump\t// in\n    tag_360:\n        /* \"#utility.yul\":15620:15621   */\n      0x00\n        /* \"#utility.yul\":15644:15648   */\n      0x20\n        /* \"#utility.yul\":15631:15648   */\n      swap1\n      pop\n        /* \"#utility.yul\":15676:15678   */\n      0x1f\n        /* \"#utility.yul\":15668:15674   */\n      dup4\n        /* \"#utility.yul\":15665:15679   */\n      gt\n        /* \"#utility.yul\":15693:15694   */\n      0x01\n        /* \"#utility.yul\":15688:16306   */\n      dup2\n      eq\n      tag_362\n      jumpi\n        /* \"#utility.yul\":16350:16351   */\n      0x00\n        /* \"#utility.yul\":16367:16373   */\n      dup5\n        /* \"#utility.yul\":16364:16441   */\n      iszero\n      tag_363\n      jumpi\n        /* \"#utility.yul\":16416:16425   */\n      dup3\n        /* \"#utility.yul\":16411:16414   */\n      dup8\n        /* \"#utility.yul\":16407:16426   */\n      add\n        /* \"#utility.yul\":16401:16427   */\n      mload\n        /* \"#utility.yul\":16392:16427   */\n      swap1\n      pop\n        /* \"#utility.yul\":16364:16441   */\n    tag_363:\n        /* \"#utility.yul\":16467:16534   */\n      tag_364\n        /* \"#utility.yul\":16527:16533   */\n      dup6\n        /* \"#utility.yul\":16520:16525   */\n      dup3\n        /* \"#utility.yul\":16467:16534   */\n      tag_172\n      jump\t// in\n    tag_364:\n        /* \"#utility.yul\":16461:16465   */\n      dup7\n        /* \"#utility.yul\":16454:16535   */\n      sstore\n        /* \"#utility.yul\":16323:16545   */\n      pop\n        /* \"#utility.yul\":15658:16545   */\n      jump(tag_361)\n        /* \"#utility.yul\":15688:16306   */\n    tag_362:\n        /* \"#utility.yul\":15740:15744   */\n      0x1f\n        /* \"#utility.yul\":15736:15745   */\n      not\n        /* \"#utility.yul\":15728:15734   */\n      dup5\n        /* \"#utility.yul\":15724:15746   */\n      and\n        /* \"#utility.yul\":15774:15811   */\n      tag_365\n        /* \"#utility.yul\":15806:15810   */\n      dup7\n        /* \"#utility.yul\":15774:15811   */\n      tag_159\n      jump\t// in\n    tag_365:\n        /* \"#utility.yul\":15833:15834   */\n      0x00\n        /* \"#utility.yul\":15847:16055   */\n    tag_366:\n        /* \"#utility.yul\":15861:15868   */\n      dup3\n        /* \"#utility.yul\":15858:15859   */\n      dup2\n        /* \"#utility.yul\":15855:15869   */\n      lt\n        /* \"#utility.yul\":15847:16055   */\n      iszero\n      tag_368\n      jumpi\n        /* \"#utility.yul\":15940:15949   */\n      dup5\n        /* \"#utility.yul\":15935:15938   */\n      dup10\n        /* \"#utility.yul\":15931:15950   */\n      add\n        /* \"#utility.yul\":15925:15951   */\n      mload\n        /* \"#utility.yul\":15917:15923   */\n      dup3\n        /* \"#utility.yul\":15910:15952   */\n      sstore\n        /* \"#utility.yul\":15991:15992   */\n      0x01\n        /* \"#utility.yul\":15983:15989   */\n      dup3\n        /* \"#utility.yul\":15979:15993   */\n      add\n        /* \"#utility.yul\":15969:15993   */\n      swap2\n      pop\n        /* \"#utility.yul\":16038:16040   */\n      0x20\n        /* \"#utility.yul\":16027:16036   */\n      dup6\n        /* \"#utility.yul\":16023:16041   */\n      add\n        /* \"#utility.yul\":16010:16041   */\n      swap5\n      pop\n        /* \"#utility.yul\":15884:15888   */\n      0x20\n        /* \"#utility.yul\":15881:15882   */\n      dup2\n        /* \"#utility.yul\":15877:15889   */\n      add\n        /* \"#utility.yul\":15872:15889   */\n      swap1\n      pop\n        /* \"#utility.yul\":15847:16055   */\n      jump(tag_366)\n    tag_368:\n        /* \"#utility.yul\":16083:16089   */\n      dup7\n        /* \"#utility.yul\":16074:16081   */\n      dup4\n        /* \"#utility.yul\":16071:16090   */\n      lt\n        /* \"#utility.yul\":16068:16247   */\n      iszero\n      tag_369\n      jumpi\n        /* \"#utility.yul\":16141:16150   */\n      dup5\n        /* \"#utility.yul\":16136:16139   */\n      dup10\n        /* \"#utility.yul\":16132:16151   */\n      add\n        /* \"#utility.yul\":16126:16152   */\n      mload\n        /* \"#utility.yul\":16184:16232   */\n      tag_370\n        /* \"#utility.yul\":16226:16230   */\n      0x1f\n        /* \"#utility.yul\":16218:16224   */\n      dup10\n        /* \"#utility.yul\":16214:16231   */\n      and\n        /* \"#utility.yul\":16203:16212   */\n      dup3\n        /* \"#utility.yul\":16184:16232   */\n      tag_171\n      jump\t// in\n    tag_370:\n        /* \"#utility.yul\":16176:16182   */\n      dup4\n        /* \"#utility.yul\":16169:16233   */\n      sstore\n        /* \"#utility.yul\":16091:16247   */\n      pop\n        /* \"#utility.yul\":16068:16247   */\n    tag_369:\n        /* \"#utility.yul\":16293:16294   */\n      0x01\n        /* \"#utility.yul\":16289:16290   */\n      0x02\n        /* \"#utility.yul\":16281:16287   */\n      dup9\n        /* \"#utility.yul\":16277:16291   */\n      mul\n        /* \"#utility.yul\":16273:16295   */\n      add\n        /* \"#utility.yul\":16267:16271   */\n      dup9\n        /* \"#utility.yul\":16260:16296   */\n      sstore\n        /* \"#utility.yul\":15695:16306   */\n      pop\n      pop\n      pop\n        /* \"#utility.yul\":15658:16545   */\n    tag_361:\n      pop\n        /* \"#utility.yul\":15248:16551   */\n      pop\n      pop\n      pop\n        /* \"#utility.yul\":15156:16551   */\n      pop\n      pop\n      jump\t// out\n        /* \"#utility.yul\":16557:16788   */\n    tag_173:\n        /* \"#utility.yul\":16697:16731   */\n      0x5769746864726177616c20616d6f756e74206578636565647320746865206d61\n        /* \"#utility.yul\":16693:16694   */\n      0x00\n        /* \"#utility.yul\":16685:16691   */\n      dup3\n        /* \"#utility.yul\":16681:16695   */\n      add\n        /* \"#utility.yul\":16674:16732   */\n      mstore\n        /* \"#utility.yul\":16766:16780   */\n      0x78696d756d206c696d69742e0000000000000000000000000000000000000000\n        /* \"#utility.yul\":16761:16763   */\n      0x20\n        /* \"#utility.yul\":16753:16759   */\n      dup3\n        /* \"#utility.yul\":16749:16764   */\n      add\n        /* \"#utility.yul\":16742:16781   */\n      mstore\n        /* \"#utility.yul\":16557:16788   */\n      pop\n      jump\t// out\n        /* \"#utility.yul\":16794:17160   */\n    tag_174:\n        /* \"#utility.yul\":16936:16939   */\n      0x00\n        /* \"#utility.yul\":16957:17024   */\n      tag_373\n        /* \"#utility.yul\":17021:17023   */\n      0x2c\n        /* \"#utility.yul\":17016:17019   */\n      dup4\n        /* \"#utility.yul\":16957:17024   */\n      tag_125\n      jump\t// in\n    tag_373:\n        /* \"#utility.yul\":16950:17024   */\n      swap2\n      pop\n        /* \"#utility.yul\":17033:17126   */\n      tag_374\n        /* \"#utility.yul\":17122:17125   */\n      dup3\n        /* \"#utility.yul\":17033:17126   */\n      tag_173\n      jump\t// in\n    tag_374:\n        /* \"#utility.yul\":17151:17153   */\n      0x40\n        /* \"#utility.yul\":17146:17149   */\n      dup3\n        /* \"#utility.yul\":17142:17154   */\n      add\n        /* \"#utility.yul\":17135:17154   */\n      swap1\n      pop\n        /* \"#utility.yul\":16794:17160   */\n      swap2\n      swap1\n      pop\n      jump\t// out\n        /* \"#utility.yul\":17166:17585   */\n    tag_103:\n        /* \"#utility.yul\":17332:17336   */\n      0x00\n        /* \"#utility.yul\":17370:17372   */\n      0x20\n        /* \"#utility.yul\":17359:17368   */\n      dup3\n        /* \"#utility.yul\":17355:17373   */\n      add\n        /* \"#utility.yul\":17347:17373   */\n      swap1\n      pop\n        /* \"#utility.yul\":17419:17428   */\n      dup2\n        /* \"#utility.yul\":17413:17417   */\n      dup2\n        /* \"#utility.yul\":17409:17429   */\n      sub\n        /* \"#utility.yul\":17405:17406   */\n      0x00\n        /* \"#utility.yul\":17394:17403   */\n      dup4\n        /* \"#utility.yul\":17390:17407   */\n      add\n        /* \"#utility.yul\":17383:17430   */\n      mstore\n        /* \"#utility.yul\":17447:17578   */\n      tag_376\n        /* \"#utility.yul\":17573:17577   */\n      dup2\n        /* \"#utility.yul\":17447:17578   */\n      tag_174\n      jump\t// in\n    tag_376:\n        /* \"#utility.yul\":17439:17578   */\n      swap1\n      pop\n        /* \"#utility.yul\":17166:17585   */\n      swap2\n      swap1\n      pop\n      jump\t// out\n        /* \"#utility.yul\":17591:17762   */\n    tag_175:\n        /* \"#utility.yul\":17731:17754   */\n      0x496e73756666696369656e742062616c616e63652e0000000000000000000000\n        /* \"#utility.yul\":17727:17728   */\n      0x00\n        /* \"#utility.yul\":17719:17725   */\n      dup3\n        /* \"#utility.yul\":17715:17729   */\n      add\n        /* \"#utility.yul\":17708:17755   */\n      mstore\n        /* \"#utility.yul\":17591:17762   */\n      pop\n      jump\t// out\n        /* \"#utility.yul\":17768:18134   */\n    tag_176:\n        /* \"#utility.yul\":17910:17913   */\n      0x00\n        /* \"#utility.yul\":17931:17998   */\n      tag_379\n        /* \"#utility.yul\":17995:17997   */\n      0x15\n        /* \"#utility.yul\":17990:17993   */\n      dup4\n        /* \"#utility.yul\":17931:17998   */\n      tag_125\n      jump\t// in\n    tag_379:\n        /* \"#utility.yul\":17924:17998   */\n      swap2\n      pop\n        /* \"#utility.yul\":18007:18100   */\n      tag_380\n        /* \"#utility.yul\":18096:18099   */\n      dup3\n        /* \"#utility.yul\":18007:18100   */\n      tag_175\n      jump\t// in\n    tag_380:\n        /* \"#utility.yul\":18125:18127   */\n      0x20\n        /* \"#utility.yul\":18120:18123   */\n      dup3\n        /* \"#utility.yul\":18116:18128   */\n      add\n        /* \"#utility.yul\":18109:18128   */\n      swap1\n      pop\n        /* \"#utility.yul\":17768:18134   */\n      swap2\n      swap1\n      pop\n      jump\t// out\n        /* \"#utility.yul\":18140:18559   */\n    tag_106:\n        /* \"#utility.yul\":18306:18310   */\n      0x00\n        /* \"#utility.yul\":18344:18346   */\n      0x20\n        /* \"#utility.yul\":18333:18342   */\n      dup3\n        /* \"#utility.yul\":18329:18347   */\n      add\n        /* \"#utility.yul\":18321:18347   */\n      swap1\n      pop\n        /* \"#utility.yul\":18393:18402   */\n      dup2\n        /* \"#utility.yul\":18387:18391   */\n      dup2\n        /* \"#utility.yul\":18383:18403   */\n      sub\n        /* \"#utility.yul\":18379:18380   */\n      0x00\n        /* \"#utility.yul\":18368:18377   */\n      dup4\n        /* \"#utility.yul\":18364:18381   */\n      add\n        /* \"#utility.yul\":18357:18404   */\n      mstore\n        /* \"#utility.yul\":18421:18552   */\n      tag_382\n        /* \"#utility.yul\":18547:18551   */\n      dup2\n        /* \"#utility.yul\":18421:18552   */\n      tag_176\n      jump\t// in\n    tag_382:\n        /* \"#utility.yul\":18413:18552   */\n      swap1\n      pop\n        /* \"#utility.yul\":18140:18559   */\n      swap2\n      swap1\n      pop\n      jump\t// out\n        /* \"#utility.yul\":18565:18759   */\n    tag_108:\n        /* \"#utility.yul\":18605:18609   */\n      0x00\n        /* \"#utility.yul\":18625:18645   */\n      tag_384\n        /* \"#utility.yul\":18643:18644   */\n      dup3\n        /* \"#utility.yul\":18625:18645   */\n      tag_130\n      jump\t// in\n    tag_384:\n        /* \"#utility.yul\":18620:18645   */\n      swap2\n      pop\n        /* \"#utility.yul\":18659:18679   */\n      tag_385\n        /* \"#utility.yul\":18677:18678   */\n      dup4\n        /* \"#utility.yul\":18659:18679   */\n      tag_130\n      jump\t// in\n    tag_385:\n        /* \"#utility.yul\":18654:18679   */\n      swap3\n      pop\n        /* \"#utility.yul\":18703:18704   */\n      dup3\n        /* \"#utility.yul\":18700:18701   */\n      dup3\n        /* \"#utility.yul\":18696:18705   */\n      sub\n        /* \"#utility.yul\":18688:18705   */\n      swap1\n      pop\n        /* \"#utility.yul\":18727:18728   */\n      dup2\n        /* \"#utility.yul\":18721:18725   */\n      dup2\n        /* \"#utility.yul\":18718:18729   */\n      gt\n        /* \"#utility.yul\":18715:18752   */\n      iszero\n      tag_386\n      jumpi\n        /* \"#utility.yul\":18732:18750   */\n      tag_387\n      tag_158\n      jump\t// in\n    tag_387:\n        /* \"#utility.yul\":18715:18752   */\n    tag_386:\n        /* \"#utility.yul\":18565:18759   */\n      swap3\n      swap2\n      pop\n      pop\n      jump\t// out\n        /* \"#utility.yul\":18765:19097   */\n    tag_110:\n        /* \"#utility.yul\":18886:18890   */\n      0x00\n        /* \"#utility.yul\":18924:18926   */\n      0x40\n        /* \"#utility.yul\":18913:18922   */\n      dup3\n        /* \"#utility.yul\":18909:18927   */\n      add\n        /* \"#utility.yul\":18901:18927   */\n      swap1\n      pop\n        /* \"#utility.yul\":18937:19008   */\n      tag_389\n        /* \"#utility.yul\":19005:19006   */\n      0x00\n        /* \"#utility.yul\":18994:19003   */\n      dup4\n        /* \"#utility.yul\":18990:19007   */\n      add\n        /* \"#utility.yul\":18981:18987   */\n      dup6\n        /* \"#utility.yul\":18937:19008   */\n      tag_129\n      jump\t// in\n    tag_389:\n        /* \"#utility.yul\":19018:19090   */\n      tag_390\n        /* \"#utility.yul\":19086:19088   */\n      0x20\n        /* \"#utility.yul\":19075:19084   */\n      dup4\n        /* \"#utility.yul\":19071:19089   */\n      add\n        /* \"#utility.yul\":19062:19068   */\n      dup5\n        /* \"#utility.yul\":19018:19090   */\n      tag_131\n      jump\t// in\n    tag_390:\n        /* \"#utility.yul\":18765:19097   */\n      swap4\n      swap3\n      pop\n      pop\n      pop\n      jump\t// out\n        /* \"#utility.yul\":19103:19275   */\n    tag_177:\n        /* \"#utility.yul\":19243:19267   */\n      0x546f6b656e207472616e73666572206661696c65642e00000000000000000000\n        /* \"#utility.yul\":19239:19240   */\n      0x00\n        /* \"#utility.yul\":19231:19237   */\n      dup3\n        /* \"#utility.yul\":19227:19241   */\n      add\n        /* \"#utility.yul\":19220:19268   */\n      mstore\n        /* \"#utility.yul\":19103:19275   */\n      pop\n      jump\t// out\n        /* \"#utility.yul\":19281:19647   */\n    tag_178:\n        /* \"#utility.yul\":19423:19426   */\n      0x00\n        /* \"#utility.yul\":19444:19511   */\n      tag_393\n        /* \"#utility.yul\":19508:19510   */\n      0x16\n        /* \"#utility.yul\":19503:19506   */\n      dup4\n        /* \"#utility.yul\":19444:19511   */\n      tag_125\n      jump\t// in\n    tag_393:\n        /* \"#utility.yul\":19437:19511   */\n      swap2\n      pop\n        /* \"#utility.yul\":19520:19613   */\n      tag_394\n        /* \"#utility.yul\":19609:19612   */\n      dup3\n        /* \"#utility.yul\":19520:19613   */\n      tag_177\n      jump\t// in\n    tag_394:\n        /* \"#utility.yul\":19638:19640   */\n      0x20\n        /* \"#utility.yul\":19633:19636   */\n      dup3\n        /* \"#utility.yul\":19629:19641   */\n      add\n        /* \"#utility.yul\":19622:19641   */\n      swap1\n      pop\n        /* \"#utility.yul\":19281:19647   */\n      swap2\n      swap1\n      pop\n      jump\t// out\n        /* \"#utility.yul\":19653:20072   */\n    tag_116:\n        /* \"#utility.yul\":19819:19823   */\n      0x00\n        /* \"#utility.yul\":19857:19859   */\n      0x20\n        /* \"#utility.yul\":19846:19855   */\n      dup3\n        /* \"#utility.yul\":19842:19860   */\n      add\n        /* \"#utility.yul\":19834:19860   */\n      swap1\n      pop\n        /* \"#utility.yul\":19906:19915   */\n      dup2\n        /* \"#utility.yul\":19900:19904   */\n      dup2\n        /* \"#utility.yul\":19896:19916   */\n      sub\n        /* \"#utility.yul\":19892:19893   */\n      0x00\n        /* \"#utility.yul\":19881:19890   */\n      dup4\n        /* \"#utility.yul\":19877:19894   */\n      add\n        /* \"#utility.yul\":19870:19917   */\n      mstore\n        /* \"#utility.yul\":19934:20065   */\n      tag_396\n        /* \"#utility.yul\":20060:20064   */\n      dup2\n        /* \"#utility.yul\":19934:20065   */\n      tag_178\n      jump\t// in\n    tag_396:\n        /* \"#utility.yul\":19926:20065   */\n      swap1\n      pop\n        /* \"#utility.yul\":19653:20072   */\n      swap2\n      swap1\n      pop\n      jump\t// out\n\n    auxdata: 0xa264697066735822122021653d5b034832f021b531290a3fa8ebbe3de04dc0176c8cb574cf1126a5a54164736f6c634300081a0033\n}\n",
				"bytecode": {
					"linkReferences": {},
					"object": "608060405234801561000f575f80fd5b5060405161154a38038061154a833981810160405281019061003191906100d5565b8060025f6101000a81548173ffffffffffffffffffffffffffffffffffffffff021916908373ffffffffffffffffffffffffffffffffffffffff16021790555050610100565b5f80fd5b5f73ffffffffffffffffffffffffffffffffffffffff82169050919050565b5f6100a48261007b565b9050919050565b6100b48161009a565b81146100be575f80fd5b50565b5f815190506100cf816100ab565b92915050565b5f602082840312156100ea576100e9610077565b5b5f6100f7848285016100c1565b91505092915050565b61143d8061010d5f395ff3fe608060405234801561000f575f80fd5b50600436106100a7575f3560e01c8063b7d38f581161006f578063b7d38f5814610167578063c1cfb99a14610185578063c2da9d0d146101a3578063e1e158a5146101bf578063f3fef3a3146101dd578063fc0c546a146101f9576100a7565b8063332d56d7146100ab578063428669ba146100dd57806397ec642c146100fb578063987ee15614610119578063b6b55f251461014b575b5f80fd5b6100c560048036038101906100c091906109e9565b610217565b6040516100d493929190610aab565b60405180910390f35b6100e56102e2565b6040516100f29190610b5a565b60405180910390f35b6101036102f2565b6040516101109190610b73565b60405180910390f35b610133600480360381019061012e91906109e9565b6102ff565b60405161014293929190610aab565b60405180910390f35b61016560048036038101906101609190610bb6565b610458565b005b61016f6105dd565b60405161017c9190610be1565b60405180910390f35b61018d6105e4565b60405161019a9190610b73565b60405180910390f35b6101bd60048036038101906101b89190610d26565b6105eb565b005b6101c76106ba565b6040516101d49190610b73565b60405180910390f35b6101f760048036038101906101f29190610d80565b6106c6565b005b610201610959565b60405161020e9190610e19565b60405180910390f35b6001602052805f5260405f205f91509050805f01805461023690610e5f565b80601f016020809104026020016040519081016040528092919081815260200182805461026290610e5f565b80156102ad5780601f10610284576101008083540402835291602001916102ad565b820191905f5260205f20905b81548152906001019060200180831161029057829003601f168201915b505050505090806001015f9054906101000a900473ffffffffffffffffffffffffffffffffffffffff16908060020154905083565b5f8054906101000a900460ff1681565b681b1ae4d6e2ef50000081565b60605f805f60015f8673ffffffffffffffffffffffffffffffffffffffff1673ffffffffffffffffffffffffffffffffffffffff1681526020019081526020015f206040518060600160405290815f8201805461035b90610e5f565b80601f016020809104026020016040519081016040528092919081815260200182805461038790610e5f565b80156103d25780601f106103a9576101008083540402835291602001916103d2565b820191905f5260205f20905b8154815290600101906020018083116103b557829003601f168201915b50505050508152602001600182015f9054906101000a900473ffffffffffffffffffffffffffffffffffffffff1673ffffffffffffffffffffffffffffffffffffffff1673ffffffffffffffffffffffffffffffffffffffff1681526020016002820154815250509050805f015181602001518260400151935093509350509193909250565b678ac7230489e800008110158061046f575f610472565b60015b5f806101000a81548160ff0219169083600181111561049457610493610ae7565b5b0217905550678ac7230489e800008210156104e4576040517f08c379a00000000000000000000000000000000000000000000000000000000081526004016104db90610ed9565b60405180910390fd5b60025f9054906101000a900473ffffffffffffffffffffffffffffffffffffffff1673ffffffffffffffffffffffffffffffffffffffff166323b872dd3330856040518463ffffffff1660e01b815260040161054293929190610ef7565b6020604051808303815f875af115801561055e573d5f803e3d5ffd5b505050506040513d601f19601f820116820180604052508101906105829190610f61565b508160015f3373ffffffffffffffffffffffffffffffffffffffff1673ffffffffffffffffffffffffffffffffffffffff1681526020019081526020015f206002015f8282546105d29190610fb9565b925050819055505050565b5f33905090565b5f47905090565b8160015f8373ffffffffffffffffffffffffffffffffffffffff1673ffffffffffffffffffffffffffffffffffffffff1681526020019081526020015f205f0190816106379190611180565b508060015f8373ffffffffffffffffffffffffffffffffffffffff1673ffffffffffffffffffffffffffffffffffffffff1681526020019081526020015f206001015f6101000a81548173ffffffffffffffffffffffffffffffffffffffff021916908373ffffffffffffffffffffffffffffffffffffffff1602179055505050565b678ac7230489e8000081565b681b1ae4d6e2ef500000811115801561071f57508060015f8473ffffffffffffffffffffffffffffffffffffffff1673ffffffffffffffffffffffffffffffffffffffff1681526020019081526020015f206002015410155b8061072a575f61072d565b60015b5f806101000a81548160ff0219169083600181111561074f5761074e610ae7565b5b0217905550681b1ae4d6e2ef5000008211156107a0576040517f08c379a0000000000000000000000000000000000000000000000000000000008152600401610797906112bf565b60405180910390fd5b8160015f8573ffffffffffffffffffffffffffffffffffffffff1673ffffffffffffffffffffffffffffffffffffffff1681526020019081526020015f20600201541015610823576040517f08c379a000000000000000000000000000000000000000000000000000000000815260040161081a90611327565b60405180910390fd5b8160015f8573ffffffffffffffffffffffffffffffffffffffff1673ffffffffffffffffffffffffffffffffffffffff1681526020019081526020015f206002015f8282546108729190611345565b9250508190555060025f9054906101000a900473ffffffffffffffffffffffffffffffffffffffff1673ffffffffffffffffffffffffffffffffffffffff1663a9059cbb84846040518363ffffffff1660e01b81526004016108d5929190611378565b6020604051808303815f875af11580156108f1573d5f803e3d5ffd5b505050506040513d601f19601f820116820180604052508101906109159190610f61565b610954576040517f08c379a000000000000000000000000000000000000000000000000000000000815260040161094b906113e9565b60405180910390fd5b505050565b60025f9054906101000a900473ffffffffffffffffffffffffffffffffffffffff1681565b5f604051905090565b5f80fd5b5f80fd5b5f73ffffffffffffffffffffffffffffffffffffffff82169050919050565b5f6109b88261098f565b9050919050565b6109c8816109ae565b81146109d2575f80fd5b50565b5f813590506109e3816109bf565b92915050565b5f602082840312156109fe576109fd610987565b5b5f610a0b848285016109d5565b91505092915050565b5f81519050919050565b5f82825260208201905092915050565b8281835e5f83830152505050565b5f601f19601f8301169050919050565b5f610a5682610a14565b610a608185610a1e565b9350610a70818560208601610a2e565b610a7981610a3c565b840191505092915050565b610a8d816109ae565b82525050565b5f819050919050565b610aa581610a93565b82525050565b5f6060820190508181035f830152610ac38186610a4c565b9050610ad26020830185610a84565b610adf6040830184610a9c565b949350505050565b7f4e487b71000000000000000000000000000000000000000000000000000000005f52602160045260245ffd5b60028110610b2557610b24610ae7565b5b50565b5f819050610b3582610b14565b919050565b5f610b4482610b28565b9050919050565b610b5481610b3a565b82525050565b5f602082019050610b6d5f830184610b4b565b92915050565b5f602082019050610b865f830184610a9c565b92915050565b610b9581610a93565b8114610b9f575f80fd5b50565b5f81359050610bb081610b8c565b92915050565b5f60208284031215610bcb57610bca610987565b5b5f610bd884828501610ba2565b91505092915050565b5f602082019050610bf45f830184610a84565b92915050565b5f80fd5b5f80fd5b7f4e487b71000000000000000000000000000000000000000000000000000000005f52604160045260245ffd5b610c3882610a3c565b810181811067ffffffffffffffff82111715610c5757610c56610c02565b5b80604052505050565b5f610c6961097e565b9050610c758282610c2f565b919050565b5f67ffffffffffffffff821115610c9457610c93610c02565b5b610c9d82610a3c565b9050602081019050919050565b828183375f83830152505050565b5f610cca610cc584610c7a565b610c60565b905082815260208101848484011115610ce657610ce5610bfe565b5b610cf1848285610caa565b509392505050565b5f82601f830112610d0d57610d0c610bfa565b5b8135610d1d848260208601610cb8565b91505092915050565b5f8060408385031215610d3c57610d3b610987565b5b5f83013567ffffffffffffffff811115610d5957610d5861098b565b5b610d6585828601610cf9565b9250506020610d76858286016109d5565b9150509250929050565b5f8060408385031215610d9657610d95610987565b5b5f610da3858286016109d5565b9250506020610db485828601610ba2565b9150509250929050565b5f819050919050565b5f610de1610ddc610dd78461098f565b610dbe565b61098f565b9050919050565b5f610df282610dc7565b9050919050565b5f610e0382610de8565b9050919050565b610e1381610df9565b82525050565b5f602082019050610e2c5f830184610e0a565b92915050565b7f4e487b71000000000000000000000000000000000000000000000000000000005f52602260045260245ffd5b5f6002820490506001821680610e7657607f821691505b602082108103610e8957610e88610e32565b5b50919050565b7f4465706f73697420616d6f756e7420697320746f6f20736d616c6c2e000000005f82015250565b5f610ec3601c83610a1e565b9150610ece82610e8f565b602082019050919050565b5f6020820190508181035f830152610ef081610eb7565b9050919050565b5f606082019050610f0a5f830186610a84565b610f176020830185610a84565b610f246040830184610a9c565b949350505050565b5f8115159050919050565b610f4081610f2c565b8114610f4a575f80fd5b50565b5f81519050610f5b81610f37565b92915050565b5f60208284031215610f7657610f75610987565b5b5f610f8384828501610f4d565b91505092915050565b7f4e487b71000000000000000000000000000000000000000000000000000000005f52601160045260245ffd5b5f610fc382610a93565b9150610fce83610a93565b9250828201905080821115610fe657610fe5610f8c565b5b92915050565b5f819050815f5260205f209050919050565b5f6020601f8301049050919050565b5f82821b905092915050565b5f600883026110487fffffffffffffffffffffffffffffffffffffffffffffffffffffffffffffffff8261100d565b611052868361100d565b95508019841693508086168417925050509392505050565b5f61108461107f61107a84610a93565b610dbe565b610a93565b9050919050565b5f819050919050565b61109d8361106a565b6110b16110a98261108b565b848454611019565b825550505050565b5f90565b6110c56110b9565b6110d0818484611094565b505050565b5b818110156110f3576110e85f826110bd565b6001810190506110d6565b5050565b601f8211156111385761110981610fec565b61111284610ffe565b81016020851015611121578190505b61113561112d85610ffe565b8301826110d5565b50505b505050565b5f82821c905092915050565b5f6111585f198460080261113d565b1980831691505092915050565b5f6111708383611149565b9150826002028217905092915050565b61118982610a14565b67ffffffffffffffff8111156111a2576111a1610c02565b5b6111ac8254610e5f565b6111b78282856110f7565b5f60209050601f8311600181146111e8575f84156111d6578287015190505b6111e08582611165565b865550611247565b601f1984166111f686610fec565b5f5b8281101561121d578489015182556001820191506020850194506020810190506111f8565b8683101561123a5784890151611236601f891682611149565b8355505b6001600288020188555050505b505050505050565b7f5769746864726177616c20616d6f756e74206578636565647320746865206d615f8201527f78696d756d206c696d69742e0000000000000000000000000000000000000000602082015250565b5f6112a9602c83610a1e565b91506112b48261124f565b604082019050919050565b5f6020820190508181035f8301526112d68161129d565b9050919050565b7f496e73756666696369656e742062616c616e63652e00000000000000000000005f82015250565b5f611311601583610a1e565b915061131c826112dd565b602082019050919050565b5f6020820190508181035f83015261133e81611305565b9050919050565b5f61134f82610a93565b915061135a83610a93565b925082820390508181111561137257611371610f8c565b5b92915050565b5f60408201905061138b5f830185610a84565b6113986020830184610a9c565b9392505050565b7f546f6b656e207472616e73666572206661696c65642e000000000000000000005f82015250565b5f6113d3601683610a1e565b91506113de8261139f565b602082019050919050565b5f6020820190508181035f830152611400816113c7565b905091905056fea264697066735822122021653d5b034832f021b531290a3fa8ebbe3de04dc0176c8cb574cf1126a5a54164736f6c634300081a0033",
					"opcodes": "PUSH1 0x80 PUSH1 0x40 MSTORE CALLVALUE DUP1 ISZERO PUSH2 0xF JUMPI PUSH0 DUP1 REVERT JUMPDEST POP PUSH1 0x40 MLOAD PUSH2 0x154A CODESIZE SUB DUP1 PUSH2 0x154A DUP4 CODECOPY DUP2 DUP2 ADD PUSH1 0x40 MSTORE DUP2 ADD SWAP1 PUSH2 0x31 SWAP2 SWAP1 PUSH2 0xD5 JUMP JUMPDEST DUP1 PUSH1 0x2 PUSH0 PUSH2 0x100 EXP DUP2 SLOAD DUP2 PUSH20 0xFFFFFFFFFFFFFFFFFFFFFFFFFFFFFFFFFFFFFFFF MUL NOT AND SWAP1 DUP4 PUSH20 0xFFFFFFFFFFFFFFFFFFFFFFFFFFFFFFFFFFFFFFFF AND MUL OR SWAP1 SSTORE POP POP PUSH2 0x100 JUMP JUMPDEST PUSH0 DUP1 REVERT JUMPDEST PUSH0 PUSH20 0xFFFFFFFFFFFFFFFFFFFFFFFFFFFFFFFFFFFFFFFF DUP3 AND SWAP1 POP SWAP2 SWAP1 POP JUMP JUMPDEST PUSH0 PUSH2 0xA4 DUP3 PUSH2 0x7B JUMP JUMPDEST SWAP1 POP SWAP2 SWAP1 POP JUMP JUMPDEST PUSH2 0xB4 DUP2 PUSH2 0x9A JUMP JUMPDEST DUP2 EQ PUSH2 0xBE JUMPI PUSH0 DUP1 REVERT JUMPDEST POP JUMP JUMPDEST PUSH0 DUP2 MLOAD SWAP1 POP PUSH2 0xCF DUP2 PUSH2 0xAB JUMP JUMPDEST SWAP3 SWAP2 POP POP JUMP JUMPDEST PUSH0 PUSH1 0x20 DUP3 DUP5 SUB SLT ISZERO PUSH2 0xEA JUMPI PUSH2 0xE9 PUSH2 0x77 JUMP JUMPDEST JUMPDEST PUSH0 PUSH2 0xF7 DUP5 DUP3 DUP6 ADD PUSH2 0xC1 JUMP JUMPDEST SWAP2 POP POP SWAP3 SWAP2 POP POP JUMP JUMPDEST PUSH2 0x143D DUP1 PUSH2 0x10D PUSH0 CODECOPY PUSH0 RETURN INVALID PUSH1 0x80 PUSH1 0x40 MSTORE CALLVALUE DUP1 ISZERO PUSH2 0xF JUMPI PUSH0 DUP1 REVERT JUMPDEST POP PUSH1 0x4 CALLDATASIZE LT PUSH2 0xA7 JUMPI PUSH0 CALLDATALOAD PUSH1 0xE0 SHR DUP1 PUSH4 0xB7D38F58 GT PUSH2 0x6F JUMPI DUP1 PUSH4 0xB7D38F58 EQ PUSH2 0x167 JUMPI DUP1 PUSH4 0xC1CFB99A EQ PUSH2 0x185 JUMPI DUP1 PUSH4 0xC2DA9D0D EQ PUSH2 0x1A3 JUMPI DUP1 PUSH4 0xE1E158A5 EQ PUSH2 0x1BF JUMPI DUP1 PUSH4 0xF3FEF3A3 EQ PUSH2 0x1DD JUMPI DUP1 PUSH4 0xFC0C546A EQ PUSH2 0x1F9 JUMPI PUSH2 0xA7 JUMP JUMPDEST DUP1 PUSH4 0x332D56D7 EQ PUSH2 0xAB JUMPI DUP1 PUSH4 0x428669BA EQ PUSH2 0xDD JUMPI DUP1 PUSH4 0x97EC642C EQ PUSH2 0xFB JUMPI DUP1 PUSH4 0x987EE156 EQ PUSH2 0x119 JUMPI DUP1 PUSH4 0xB6B55F25 EQ PUSH2 0x14B JUMPI JUMPDEST PUSH0 DUP1 REVERT JUMPDEST PUSH2 0xC5 PUSH1 0x4 DUP1 CALLDATASIZE SUB DUP2 ADD SWAP1 PUSH2 0xC0 SWAP2 SWAP1 PUSH2 0x9E9 JUMP JUMPDEST PUSH2 0x217 JUMP JUMPDEST PUSH1 0x40 MLOAD PUSH2 0xD4 SWAP4 SWAP3 SWAP2 SWAP1 PUSH2 0xAAB JUMP JUMPDEST PUSH1 0x40 MLOAD DUP1 SWAP2 SUB SWAP1 RETURN JUMPDEST PUSH2 0xE5 PUSH2 0x2E2 JUMP JUMPDEST PUSH1 0x40 MLOAD PUSH2 0xF2 SWAP2 SWAP1 PUSH2 0xB5A JUMP JUMPDEST PUSH1 0x40 MLOAD DUP1 SWAP2 SUB SWAP1 RETURN JUMPDEST PUSH2 0x103 PUSH2 0x2F2 JUMP JUMPDEST PUSH1 0x40 MLOAD PUSH2 0x110 SWAP2 SWAP1 PUSH2 0xB73 JUMP JUMPDEST PUSH1 0x40 MLOAD DUP1 SWAP2 SUB SWAP1 RETURN JUMPDEST PUSH2 0x133 PUSH1 0x4 DUP1 CALLDATASIZE SUB DUP2 ADD SWAP1 PUSH2 0x12E SWAP2 SWAP1 PUSH2 0x9E9 JUMP JUMPDEST PUSH2 0x2FF JUMP JUMPDEST PUSH1 0x40 MLOAD PUSH2 0x142 SWAP4 SWAP3 SWAP2 SWAP1 PUSH2 0xAAB JUMP JUMPDEST PUSH1 0x40 MLOAD DUP1 SWAP2 SUB SWAP1 RETURN JUMPDEST PUSH2 0x165 PUSH1 0x4 DUP1 CALLDATASIZE SUB DUP2 ADD SWAP1 PUSH2 0x160 SWAP2 SWAP1 PUSH2 0xBB6 JUMP JUMPDEST PUSH2 0x458 JUMP JUMPDEST STOP JUMPDEST PUSH2 0x16F PUSH2 0x5DD JUMP JUMPDEST PUSH1 0x40 MLOAD PUSH2 0x17C SWAP2 SWAP1 PUSH2 0xBE1 JUMP JUMPDEST PUSH1 0x40 MLOAD DUP1 SWAP2 SUB SWAP1 RETURN JUMPDEST PUSH2 0x18D PUSH2 0x5E4 JUMP JUMPDEST PUSH1 0x40 MLOAD PUSH2 0x19A SWAP2 SWAP1 PUSH2 0xB73 JUMP JUMPDEST PUSH1 0x40 MLOAD DUP1 SWAP2 SUB SWAP1 RETURN JUMPDEST PUSH2 0x1BD PUSH1 0x4 DUP1 CALLDATASIZE SUB DUP2 ADD SWAP1 PUSH2 0x1B8 SWAP2 SWAP1 PUSH2 0xD26 JUMP JUMPDEST PUSH2 0x5EB JUMP JUMPDEST STOP JUMPDEST PUSH2 0x1C7 PUSH2 0x6BA JUMP JUMPDEST PUSH1 0x40 MLOAD PUSH2 0x1D4 SWAP2 SWAP1 PUSH2 0xB73 JUMP JUMPDEST PUSH1 0x40 MLOAD DUP1 SWAP2 SUB SWAP1 RETURN JUMPDEST PUSH2 0x1F7 PUSH1 0x4 DUP1 CALLDATASIZE SUB DUP2 ADD SWAP1 PUSH2 0x1F2 SWAP2 SWAP1 PUSH2 0xD80 JUMP JUMPDEST PUSH2 0x6C6 JUMP JUMPDEST STOP JUMPDEST PUSH2 0x201 PUSH2 0x959 JUMP JUMPDEST PUSH1 0x40 MLOAD PUSH2 0x20E SWAP2 SWAP1 PUSH2 0xE19 JUMP JUMPDEST PUSH1 0x40 MLOAD DUP1 SWAP2 SUB SWAP1 RETURN JUMPDEST PUSH1 0x1 PUSH1 0x20 MSTORE DUP1 PUSH0 MSTORE PUSH1 0x40 PUSH0 KECCAK256 PUSH0 SWAP2 POP SWAP1 POP DUP1 PUSH0 ADD DUP1 SLOAD PUSH2 0x236 SWAP1 PUSH2 0xE5F JUMP JUMPDEST DUP1 PUSH1 0x1F ADD PUSH1 0x20 DUP1 SWAP2 DIV MUL PUSH1 0x20 ADD PUSH1 0x40 MLOAD SWAP1 DUP2 ADD PUSH1 0x40 MSTORE DUP1 SWAP3 SWAP2 SWAP1 DUP2 DUP2 MSTORE PUSH1 0x20 ADD DUP3 DUP1 SLOAD PUSH2 0x262 SWAP1 PUSH2 0xE5F JUMP JUMPDEST DUP1 ISZERO PUSH2 0x2AD JUMPI DUP1 PUSH1 0x1F LT PUSH2 0x284 JUMPI PUSH2 0x100 DUP1 DUP4 SLOAD DIV MUL DUP4 MSTORE SWAP2 PUSH1 0x20 ADD SWAP2 PUSH2 0x2AD JUMP JUMPDEST DUP3 ADD SWAP2 SWAP1 PUSH0 MSTORE PUSH1 0x20 PUSH0 KECCAK256 SWAP1 JUMPDEST DUP2 SLOAD DUP2 MSTORE SWAP1 PUSH1 0x1 ADD SWAP1 PUSH1 0x20 ADD DUP1 DUP4 GT PUSH2 0x290 JUMPI DUP3 SWAP1 SUB PUSH1 0x1F AND DUP3 ADD SWAP2 JUMPDEST POP POP POP POP POP SWAP1 DUP1 PUSH1 0x1 ADD PUSH0 SWAP1 SLOAD SWAP1 PUSH2 0x100 EXP SWAP1 DIV PUSH20 0xFFFFFFFFFFFFFFFFFFFFFFFFFFFFFFFFFFFFFFFF AND SWAP1 DUP1 PUSH1 0x2 ADD SLOAD SWAP1 POP DUP4 JUMP JUMPDEST PUSH0 DUP1 SLOAD SWAP1 PUSH2 0x100 EXP SWAP1 DIV PUSH1 0xFF AND DUP2 JUMP JUMPDEST PUSH9 0x1B1AE4D6E2EF500000 DUP2 JUMP JUMPDEST PUSH1 0x60 PUSH0 DUP1 PUSH0 PUSH1 0x1 PUSH0 DUP7 PUSH20 0xFFFFFFFFFFFFFFFFFFFFFFFFFFFFFFFFFFFFFFFF AND PUSH20 0xFFFFFFFFFFFFFFFFFFFFFFFFFFFFFFFFFFFFFFFF AND DUP2 MSTORE PUSH1 0x20 ADD SWAP1 DUP2 MSTORE PUSH1 0x20 ADD PUSH0 KECCAK256 PUSH1 0x40 MLOAD DUP1 PUSH1 0x60 ADD PUSH1 0x40 MSTORE SWAP1 DUP2 PUSH0 DUP3 ADD DUP1 SLOAD PUSH2 0x35B SWAP1 PUSH2 0xE5F JUMP JUMPDEST DUP1 PUSH1 0x1F ADD PUSH1 0x20 DUP1 SWAP2 DIV MUL PUSH1 0x20 ADD PUSH1 0x40 MLOAD SWAP1 DUP2 ADD PUSH1 0x40 MSTORE DUP1 SWAP3 SWAP2 SWAP1 DUP2 DUP2 MSTORE PUSH1 0x20 ADD DUP3 DUP1 SLOAD PUSH2 0x387 SWAP1 PUSH2 0xE5F JUMP JUMPDEST DUP1 ISZERO PUSH2 0x3D2 JUMPI DUP1 PUSH1 0x1F LT PUSH2 0x3A9 JUMPI PUSH2 0x100 DUP1 DUP4 SLOAD DIV MUL DUP4 MSTORE SWAP2 PUSH1 0x20 ADD SWAP2 PUSH2 0x3D2 JUMP JUMPDEST DUP3 ADD SWAP2 SWAP1 PUSH0 MSTORE PUSH1 0x20 PUSH0 KECCAK256 SWAP1 JUMPDEST DUP2 SLOAD DUP2 MSTORE SWAP1 PUSH1 0x1 ADD SWAP1 PUSH1 0x20 ADD DUP1 DUP4 GT PUSH2 0x3B5 JUMPI DUP3 SWAP1 SUB PUSH1 0x1F AND DUP3 ADD SWAP2 JUMPDEST POP POP POP POP POP DUP2 MSTORE PUSH1 0x20 ADD PUSH1 0x1 DUP3 ADD PUSH0 SWAP1 SLOAD SWAP1 PUSH2 0x100 EXP SWAP1 DIV PUSH20 0xFFFFFFFFFFFFFFFFFFFFFFFFFFFFFFFFFFFFFFFF AND PUSH20 0xFFFFFFFFFFFFFFFFFFFFFFFFFFFFFFFFFFFFFFFF AND PUSH20 0xFFFFFFFFFFFFFFFFFFFFFFFFFFFFFFFFFFFFFFFF AND DUP2 MSTORE PUSH1 0x20 ADD PUSH1 0x2 DUP3 ADD SLOAD DUP2 MSTORE POP POP SWAP1 POP DUP1 PUSH0 ADD MLOAD DUP2 PUSH1 0x20 ADD MLOAD DUP3 PUSH1 0x40 ADD MLOAD SWAP4 POP SWAP4 POP SWAP4 POP POP SWAP2 SWAP4 SWAP1 SWAP3 POP JUMP JUMPDEST PUSH8 0x8AC7230489E80000 DUP2 LT ISZERO DUP1 PUSH2 0x46F JUMPI PUSH0 PUSH2 0x472 JUMP JUMPDEST PUSH1 0x1 JUMPDEST PUSH0 DUP1 PUSH2 0x100 EXP DUP2 SLOAD DUP2 PUSH1 0xFF MUL NOT AND SWAP1 DUP4 PUSH1 0x1 DUP2 GT ISZERO PUSH2 0x494 JUMPI PUSH2 0x493 PUSH2 0xAE7 JUMP JUMPDEST JUMPDEST MUL OR SWAP1 SSTORE POP PUSH8 0x8AC7230489E80000 DUP3 LT ISZERO PUSH2 0x4E4 JUMPI PUSH1 0x40 MLOAD PUSH32 0x8C379A000000000000000000000000000000000000000000000000000000000 DUP2 MSTORE PUSH1 0x4 ADD PUSH2 0x4DB SWAP1 PUSH2 0xED9 JUMP JUMPDEST PUSH1 0x40 MLOAD DUP1 SWAP2 SUB SWAP1 REVERT JUMPDEST PUSH1 0x2 PUSH0 SWAP1 SLOAD SWAP1 PUSH2 0x100 EXP SWAP1 DIV PUSH20 0xFFFFFFFFFFFFFFFFFFFFFFFFFFFFFFFFFFFFFFFF AND PUSH20 0xFFFFFFFFFFFFFFFFFFFFFFFFFFFFFFFFFFFFFFFF AND PUSH4 0x23B872DD CALLER ADDRESS DUP6 PUSH1 0x40 MLOAD DUP5 PUSH4 0xFFFFFFFF AND PUSH1 0xE0 SHL DUP2 MSTORE PUSH1 0x4 ADD PUSH2 0x542 SWAP4 SWAP3 SWAP2 SWAP1 PUSH2 0xEF7 JUMP JUMPDEST PUSH1 0x20 PUSH1 0x40 MLOAD DUP1 DUP4 SUB DUP2 PUSH0 DUP8 GAS CALL ISZERO DUP1 ISZERO PUSH2 0x55E JUMPI RETURNDATASIZE PUSH0 DUP1 RETURNDATACOPY RETURNDATASIZE PUSH0 REVERT JUMPDEST POP POP POP POP PUSH1 0x40 MLOAD RETURNDATASIZE PUSH1 0x1F NOT PUSH1 0x1F DUP3 ADD AND DUP3 ADD DUP1 PUSH1 0x40 MSTORE POP DUP2 ADD SWAP1 PUSH2 0x582 SWAP2 SWAP1 PUSH2 0xF61 JUMP JUMPDEST POP DUP2 PUSH1 0x1 PUSH0 CALLER PUSH20 0xFFFFFFFFFFFFFFFFFFFFFFFFFFFFFFFFFFFFFFFF AND PUSH20 0xFFFFFFFFFFFFFFFFFFFFFFFFFFFFFFFFFFFFFFFF AND DUP2 MSTORE PUSH1 0x20 ADD SWAP1 DUP2 MSTORE PUSH1 0x20 ADD PUSH0 KECCAK256 PUSH1 0x2 ADD PUSH0 DUP3 DUP3 SLOAD PUSH2 0x5D2 SWAP2 SWAP1 PUSH2 0xFB9 JUMP JUMPDEST SWAP3 POP POP DUP2 SWAP1 SSTORE POP POP POP JUMP JUMPDEST PUSH0 CALLER SWAP1 POP SWAP1 JUMP JUMPDEST PUSH0 SELFBALANCE SWAP1 POP SWAP1 JUMP JUMPDEST DUP2 PUSH1 0x1 PUSH0 DUP4 PUSH20 0xFFFFFFFFFFFFFFFFFFFFFFFFFFFFFFFFFFFFFFFF AND PUSH20 0xFFFFFFFFFFFFFFFFFFFFFFFFFFFFFFFFFFFFFFFF AND DUP2 MSTORE PUSH1 0x20 ADD SWAP1 DUP2 MSTORE PUSH1 0x20 ADD PUSH0 KECCAK256 PUSH0 ADD SWAP1 DUP2 PUSH2 0x637 SWAP2 SWAP1 PUSH2 0x1180 JUMP JUMPDEST POP DUP1 PUSH1 0x1 PUSH0 DUP4 PUSH20 0xFFFFFFFFFFFFFFFFFFFFFFFFFFFFFFFFFFFFFFFF AND PUSH20 0xFFFFFFFFFFFFFFFFFFFFFFFFFFFFFFFFFFFFFFFF AND DUP2 MSTORE PUSH1 0x20 ADD SWAP1 DUP2 MSTORE PUSH1 0x20 ADD PUSH0 KECCAK256 PUSH1 0x1 ADD PUSH0 PUSH2 0x100 EXP DUP2 SLOAD DUP2 PUSH20 0xFFFFFFFFFFFFFFFFFFFFFFFFFFFFFFFFFFFFFFFF MUL NOT AND SWAP1 DUP4 PUSH20 0xFFFFFFFFFFFFFFFFFFFFFFFFFFFFFFFFFFFFFFFF AND MUL OR SWAP1 SSTORE POP POP POP JUMP JUMPDEST PUSH8 0x8AC7230489E80000 DUP2 JUMP JUMPDEST PUSH9 0x1B1AE4D6E2EF500000 DUP2 GT ISZERO DUP1 ISZERO PUSH2 0x71F JUMPI POP DUP1 PUSH1 0x1 PUSH0 DUP5 PUSH20 0xFFFFFFFFFFFFFFFFFFFFFFFFFFFFFFFFFFFFFFFF AND PUSH20 0xFFFFFFFFFFFFFFFFFFFFFFFFFFFFFFFFFFFFFFFF AND DUP2 MSTORE PUSH1 0x20 ADD SWAP1 DUP2 MSTORE PUSH1 0x20 ADD PUSH0 KECCAK256 PUSH1 0x2 ADD SLOAD LT ISZERO JUMPDEST DUP1 PUSH2 0x72A JUMPI PUSH0 PUSH2 0x72D JUMP JUMPDEST PUSH1 0x1 JUMPDEST PUSH0 DUP1 PUSH2 0x100 EXP DUP2 SLOAD DUP2 PUSH1 0xFF MUL NOT AND SWAP1 DUP4 PUSH1 0x1 DUP2 GT ISZERO PUSH2 0x74F JUMPI PUSH2 0x74E PUSH2 0xAE7 JUMP JUMPDEST JUMPDEST MUL OR SWAP1 SSTORE POP PUSH9 0x1B1AE4D6E2EF500000 DUP3 GT ISZERO PUSH2 0x7A0 JUMPI PUSH1 0x40 MLOAD PUSH32 0x8C379A000000000000000000000000000000000000000000000000000000000 DUP2 MSTORE PUSH1 0x4 ADD PUSH2 0x797 SWAP1 PUSH2 0x12BF JUMP JUMPDEST PUSH1 0x40 MLOAD DUP1 SWAP2 SUB SWAP1 REVERT JUMPDEST DUP2 PUSH1 0x1 PUSH0 DUP6 PUSH20 0xFFFFFFFFFFFFFFFFFFFFFFFFFFFFFFFFFFFFFFFF AND PUSH20 0xFFFFFFFFFFFFFFFFFFFFFFFFFFFFFFFFFFFFFFFF AND DUP2 MSTORE PUSH1 0x20 ADD SWAP1 DUP2 MSTORE PUSH1 0x20 ADD PUSH0 KECCAK256 PUSH1 0x2 ADD SLOAD LT ISZERO PUSH2 0x823 JUMPI PUSH1 0x40 MLOAD PUSH32 0x8C379A000000000000000000000000000000000000000000000000000000000 DUP2 MSTORE PUSH1 0x4 ADD PUSH2 0x81A SWAP1 PUSH2 0x1327 JUMP JUMPDEST PUSH1 0x40 MLOAD DUP1 SWAP2 SUB SWAP1 REVERT JUMPDEST DUP2 PUSH1 0x1 PUSH0 DUP6 PUSH20 0xFFFFFFFFFFFFFFFFFFFFFFFFFFFFFFFFFFFFFFFF AND PUSH20 0xFFFFFFFFFFFFFFFFFFFFFFFFFFFFFFFFFFFFFFFF AND DUP2 MSTORE PUSH1 0x20 ADD SWAP1 DUP2 MSTORE PUSH1 0x20 ADD PUSH0 KECCAK256 PUSH1 0x2 ADD PUSH0 DUP3 DUP3 SLOAD PUSH2 0x872 SWAP2 SWAP1 PUSH2 0x1345 JUMP JUMPDEST SWAP3 POP POP DUP2 SWAP1 SSTORE POP PUSH1 0x2 PUSH0 SWAP1 SLOAD SWAP1 PUSH2 0x100 EXP SWAP1 DIV PUSH20 0xFFFFFFFFFFFFFFFFFFFFFFFFFFFFFFFFFFFFFFFF AND PUSH20 0xFFFFFFFFFFFFFFFFFFFFFFFFFFFFFFFFFFFFFFFF AND PUSH4 0xA9059CBB DUP5 DUP5 PUSH1 0x40 MLOAD DUP4 PUSH4 0xFFFFFFFF AND PUSH1 0xE0 SHL DUP2 MSTORE PUSH1 0x4 ADD PUSH2 0x8D5 SWAP3 SWAP2 SWAP1 PUSH2 0x1378 JUMP JUMPDEST PUSH1 0x20 PUSH1 0x40 MLOAD DUP1 DUP4 SUB DUP2 PUSH0 DUP8 GAS CALL ISZERO DUP1 ISZERO PUSH2 0x8F1 JUMPI RETURNDATASIZE PUSH0 DUP1 RETURNDATACOPY RETURNDATASIZE PUSH0 REVERT JUMPDEST POP POP POP POP PUSH1 0x40 MLOAD RETURNDATASIZE PUSH1 0x1F NOT PUSH1 0x1F DUP3 ADD AND DUP3 ADD DUP1 PUSH1 0x40 MSTORE POP DUP2 ADD SWAP1 PUSH2 0x915 SWAP2 SWAP1 PUSH2 0xF61 JUMP JUMPDEST PUSH2 0x954 JUMPI PUSH1 0x40 MLOAD PUSH32 0x8C379A000000000000000000000000000000000000000000000000000000000 DUP2 MSTORE PUSH1 0x4 ADD PUSH2 0x94B SWAP1 PUSH2 0x13E9 JUMP JUMPDEST PUSH1 0x40 MLOAD DUP1 SWAP2 SUB SWAP1 REVERT JUMPDEST POP POP POP JUMP JUMPDEST PUSH1 0x2 PUSH0 SWAP1 SLOAD SWAP1 PUSH2 0x100 EXP SWAP1 DIV PUSH20 0xFFFFFFFFFFFFFFFFFFFFFFFFFFFFFFFFFFFFFFFF AND DUP2 JUMP JUMPDEST PUSH0 PUSH1 0x40 MLOAD SWAP1 POP SWAP1 JUMP JUMPDEST PUSH0 DUP1 REVERT JUMPDEST PUSH0 DUP1 REVERT JUMPDEST PUSH0 PUSH20 0xFFFFFFFFFFFFFFFFFFFFFFFFFFFFFFFFFFFFFFFF DUP3 AND SWAP1 POP SWAP2 SWAP1 POP JUMP JUMPDEST PUSH0 PUSH2 0x9B8 DUP3 PUSH2 0x98F JUMP JUMPDEST SWAP1 POP SWAP2 SWAP1 POP JUMP JUMPDEST PUSH2 0x9C8 DUP2 PUSH2 0x9AE JUMP JUMPDEST DUP2 EQ PUSH2 0x9D2 JUMPI PUSH0 DUP1 REVERT JUMPDEST POP JUMP JUMPDEST PUSH0 DUP2 CALLDATALOAD SWAP1 POP PUSH2 0x9E3 DUP2 PUSH2 0x9BF JUMP JUMPDEST SWAP3 SWAP2 POP POP JUMP JUMPDEST PUSH0 PUSH1 0x20 DUP3 DUP5 SUB SLT ISZERO PUSH2 0x9FE JUMPI PUSH2 0x9FD PUSH2 0x987 JUMP JUMPDEST JUMPDEST PUSH0 PUSH2 0xA0B DUP5 DUP3 DUP6 ADD PUSH2 0x9D5 JUMP JUMPDEST SWAP2 POP POP SWAP3 SWAP2 POP POP JUMP JUMPDEST PUSH0 DUP2 MLOAD SWAP1 POP SWAP2 SWAP1 POP JUMP JUMPDEST PUSH0 DUP3 DUP3 MSTORE PUSH1 0x20 DUP3 ADD SWAP1 POP SWAP3 SWAP2 POP POP JUMP JUMPDEST DUP3 DUP2 DUP4 MCOPY PUSH0 DUP4 DUP4 ADD MSTORE POP POP POP JUMP JUMPDEST PUSH0 PUSH1 0x1F NOT PUSH1 0x1F DUP4 ADD AND SWAP1 POP SWAP2 SWAP1 POP JUMP JUMPDEST PUSH0 PUSH2 0xA56 DUP3 PUSH2 0xA14 JUMP JUMPDEST PUSH2 0xA60 DUP2 DUP6 PUSH2 0xA1E JUMP JUMPDEST SWAP4 POP PUSH2 0xA70 DUP2 DUP6 PUSH1 0x20 DUP7 ADD PUSH2 0xA2E JUMP JUMPDEST PUSH2 0xA79 DUP2 PUSH2 0xA3C JUMP JUMPDEST DUP5 ADD SWAP2 POP POP SWAP3 SWAP2 POP POP JUMP JUMPDEST PUSH2 0xA8D DUP2 PUSH2 0x9AE JUMP JUMPDEST DUP3 MSTORE POP POP JUMP JUMPDEST PUSH0 DUP2 SWAP1 POP SWAP2 SWAP1 POP JUMP JUMPDEST PUSH2 0xAA5 DUP2 PUSH2 0xA93 JUMP JUMPDEST DUP3 MSTORE POP POP JUMP JUMPDEST PUSH0 PUSH1 0x60 DUP3 ADD SWAP1 POP DUP2 DUP2 SUB PUSH0 DUP4 ADD MSTORE PUSH2 0xAC3 DUP2 DUP7 PUSH2 0xA4C JUMP JUMPDEST SWAP1 POP PUSH2 0xAD2 PUSH1 0x20 DUP4 ADD DUP6 PUSH2 0xA84 JUMP JUMPDEST PUSH2 0xADF PUSH1 0x40 DUP4 ADD DUP5 PUSH2 0xA9C JUMP JUMPDEST SWAP5 SWAP4 POP POP POP POP JUMP JUMPDEST PUSH32 0x4E487B7100000000000000000000000000000000000000000000000000000000 PUSH0 MSTORE PUSH1 0x21 PUSH1 0x4 MSTORE PUSH1 0x24 PUSH0 REVERT JUMPDEST PUSH1 0x2 DUP2 LT PUSH2 0xB25 JUMPI PUSH2 0xB24 PUSH2 0xAE7 JUMP JUMPDEST JUMPDEST POP JUMP JUMPDEST PUSH0 DUP2 SWAP1 POP PUSH2 0xB35 DUP3 PUSH2 0xB14 JUMP JUMPDEST SWAP2 SWAP1 POP JUMP JUMPDEST PUSH0 PUSH2 0xB44 DUP3 PUSH2 0xB28 JUMP JUMPDEST SWAP1 POP SWAP2 SWAP1 POP JUMP JUMPDEST PUSH2 0xB54 DUP2 PUSH2 0xB3A JUMP JUMPDEST DUP3 MSTORE POP POP JUMP JUMPDEST PUSH0 PUSH1 0x20 DUP3 ADD SWAP1 POP PUSH2 0xB6D PUSH0 DUP4 ADD DUP5 PUSH2 0xB4B JUMP JUMPDEST SWAP3 SWAP2 POP POP JUMP JUMPDEST PUSH0 PUSH1 0x20 DUP3 ADD SWAP1 POP PUSH2 0xB86 PUSH0 DUP4 ADD DUP5 PUSH2 0xA9C JUMP JUMPDEST SWAP3 SWAP2 POP POP JUMP JUMPDEST PUSH2 0xB95 DUP2 PUSH2 0xA93 JUMP JUMPDEST DUP2 EQ PUSH2 0xB9F JUMPI PUSH0 DUP1 REVERT JUMPDEST POP JUMP JUMPDEST PUSH0 DUP2 CALLDATALOAD SWAP1 POP PUSH2 0xBB0 DUP2 PUSH2 0xB8C JUMP JUMPDEST SWAP3 SWAP2 POP POP JUMP JUMPDEST PUSH0 PUSH1 0x20 DUP3 DUP5 SUB SLT ISZERO PUSH2 0xBCB JUMPI PUSH2 0xBCA PUSH2 0x987 JUMP JUMPDEST JUMPDEST PUSH0 PUSH2 0xBD8 DUP5 DUP3 DUP6 ADD PUSH2 0xBA2 JUMP JUMPDEST SWAP2 POP POP SWAP3 SWAP2 POP POP JUMP JUMPDEST PUSH0 PUSH1 0x20 DUP3 ADD SWAP1 POP PUSH2 0xBF4 PUSH0 DUP4 ADD DUP5 PUSH2 0xA84 JUMP JUMPDEST SWAP3 SWAP2 POP POP JUMP JUMPDEST PUSH0 DUP1 REVERT JUMPDEST PUSH0 DUP1 REVERT JUMPDEST PUSH32 0x4E487B7100000000000000000000000000000000000000000000000000000000 PUSH0 MSTORE PUSH1 0x41 PUSH1 0x4 MSTORE PUSH1 0x24 PUSH0 REVERT JUMPDEST PUSH2 0xC38 DUP3 PUSH2 0xA3C JUMP JUMPDEST DUP2 ADD DUP2 DUP2 LT PUSH8 0xFFFFFFFFFFFFFFFF DUP3 GT OR ISZERO PUSH2 0xC57 JUMPI PUSH2 0xC56 PUSH2 0xC02 JUMP JUMPDEST JUMPDEST DUP1 PUSH1 0x40 MSTORE POP POP POP JUMP JUMPDEST PUSH0 PUSH2 0xC69 PUSH2 0x97E JUMP JUMPDEST SWAP1 POP PUSH2 0xC75 DUP3 DUP3 PUSH2 0xC2F JUMP JUMPDEST SWAP2 SWAP1 POP JUMP JUMPDEST PUSH0 PUSH8 0xFFFFFFFFFFFFFFFF DUP3 GT ISZERO PUSH2 0xC94 JUMPI PUSH2 0xC93 PUSH2 0xC02 JUMP JUMPDEST JUMPDEST PUSH2 0xC9D DUP3 PUSH2 0xA3C JUMP JUMPDEST SWAP1 POP PUSH1 0x20 DUP2 ADD SWAP1 POP SWAP2 SWAP1 POP JUMP JUMPDEST DUP3 DUP2 DUP4 CALLDATACOPY PUSH0 DUP4 DUP4 ADD MSTORE POP POP POP JUMP JUMPDEST PUSH0 PUSH2 0xCCA PUSH2 0xCC5 DUP5 PUSH2 0xC7A JUMP JUMPDEST PUSH2 0xC60 JUMP JUMPDEST SWAP1 POP DUP3 DUP2 MSTORE PUSH1 0x20 DUP2 ADD DUP5 DUP5 DUP5 ADD GT ISZERO PUSH2 0xCE6 JUMPI PUSH2 0xCE5 PUSH2 0xBFE JUMP JUMPDEST JUMPDEST PUSH2 0xCF1 DUP5 DUP3 DUP6 PUSH2 0xCAA JUMP JUMPDEST POP SWAP4 SWAP3 POP POP POP JUMP JUMPDEST PUSH0 DUP3 PUSH1 0x1F DUP4 ADD SLT PUSH2 0xD0D JUMPI PUSH2 0xD0C PUSH2 0xBFA JUMP JUMPDEST JUMPDEST DUP2 CALLDATALOAD PUSH2 0xD1D DUP5 DUP3 PUSH1 0x20 DUP7 ADD PUSH2 0xCB8 JUMP JUMPDEST SWAP2 POP POP SWAP3 SWAP2 POP POP JUMP JUMPDEST PUSH0 DUP1 PUSH1 0x40 DUP4 DUP6 SUB SLT ISZERO PUSH2 0xD3C JUMPI PUSH2 0xD3B PUSH2 0x987 JUMP JUMPDEST JUMPDEST PUSH0 DUP4 ADD CALLDATALOAD PUSH8 0xFFFFFFFFFFFFFFFF DUP2 GT ISZERO PUSH2 0xD59 JUMPI PUSH2 0xD58 PUSH2 0x98B JUMP JUMPDEST JUMPDEST PUSH2 0xD65 DUP6 DUP3 DUP7 ADD PUSH2 0xCF9 JUMP JUMPDEST SWAP3 POP POP PUSH1 0x20 PUSH2 0xD76 DUP6 DUP3 DUP7 ADD PUSH2 0x9D5 JUMP JUMPDEST SWAP2 POP POP SWAP3 POP SWAP3 SWAP1 POP JUMP JUMPDEST PUSH0 DUP1 PUSH1 0x40 DUP4 DUP6 SUB SLT ISZERO PUSH2 0xD96 JUMPI PUSH2 0xD95 PUSH2 0x987 JUMP JUMPDEST JUMPDEST PUSH0 PUSH2 0xDA3 DUP6 DUP3 DUP7 ADD PUSH2 0x9D5 JUMP JUMPDEST SWAP3 POP POP PUSH1 0x20 PUSH2 0xDB4 DUP6 DUP3 DUP7 ADD PUSH2 0xBA2 JUMP JUMPDEST SWAP2 POP POP SWAP3 POP SWAP3 SWAP1 POP JUMP JUMPDEST PUSH0 DUP2 SWAP1 POP SWAP2 SWAP1 POP JUMP JUMPDEST PUSH0 PUSH2 0xDE1 PUSH2 0xDDC PUSH2 0xDD7 DUP5 PUSH2 0x98F JUMP JUMPDEST PUSH2 0xDBE JUMP JUMPDEST PUSH2 0x98F JUMP JUMPDEST SWAP1 POP SWAP2 SWAP1 POP JUMP JUMPDEST PUSH0 PUSH2 0xDF2 DUP3 PUSH2 0xDC7 JUMP JUMPDEST SWAP1 POP SWAP2 SWAP1 POP JUMP JUMPDEST PUSH0 PUSH2 0xE03 DUP3 PUSH2 0xDE8 JUMP JUMPDEST SWAP1 POP SWAP2 SWAP1 POP JUMP JUMPDEST PUSH2 0xE13 DUP2 PUSH2 0xDF9 JUMP JUMPDEST DUP3 MSTORE POP POP JUMP JUMPDEST PUSH0 PUSH1 0x20 DUP3 ADD SWAP1 POP PUSH2 0xE2C PUSH0 DUP4 ADD DUP5 PUSH2 0xE0A JUMP JUMPDEST SWAP3 SWAP2 POP POP JUMP JUMPDEST PUSH32 0x4E487B7100000000000000000000000000000000000000000000000000000000 PUSH0 MSTORE PUSH1 0x22 PUSH1 0x4 MSTORE PUSH1 0x24 PUSH0 REVERT JUMPDEST PUSH0 PUSH1 0x2 DUP3 DIV SWAP1 POP PUSH1 0x1 DUP3 AND DUP1 PUSH2 0xE76 JUMPI PUSH1 0x7F DUP3 AND SWAP2 POP JUMPDEST PUSH1 0x20 DUP3 LT DUP2 SUB PUSH2 0xE89 JUMPI PUSH2 0xE88 PUSH2 0xE32 JUMP JUMPDEST JUMPDEST POP SWAP2 SWAP1 POP JUMP JUMPDEST PUSH32 0x4465706F73697420616D6F756E7420697320746F6F20736D616C6C2E00000000 PUSH0 DUP3 ADD MSTORE POP JUMP JUMPDEST PUSH0 PUSH2 0xEC3 PUSH1 0x1C DUP4 PUSH2 0xA1E JUMP JUMPDEST SWAP2 POP PUSH2 0xECE DUP3 PUSH2 0xE8F JUMP JUMPDEST PUSH1 0x20 DUP3 ADD SWAP1 POP SWAP2 SWAP1 POP JUMP JUMPDEST PUSH0 PUSH1 0x20 DUP3 ADD SWAP1 POP DUP2 DUP2 SUB PUSH0 DUP4 ADD MSTORE PUSH2 0xEF0 DUP2 PUSH2 0xEB7 JUMP JUMPDEST SWAP1 POP SWAP2 SWAP1 POP JUMP JUMPDEST PUSH0 PUSH1 0x60 DUP3 ADD SWAP1 POP PUSH2 0xF0A PUSH0 DUP4 ADD DUP7 PUSH2 0xA84 JUMP JUMPDEST PUSH2 0xF17 PUSH1 0x20 DUP4 ADD DUP6 PUSH2 0xA84 JUMP JUMPDEST PUSH2 0xF24 PUSH1 0x40 DUP4 ADD DUP5 PUSH2 0xA9C JUMP JUMPDEST SWAP5 SWAP4 POP POP POP POP JUMP JUMPDEST PUSH0 DUP2 ISZERO ISZERO SWAP1 POP SWAP2 SWAP1 POP JUMP JUMPDEST PUSH2 0xF40 DUP2 PUSH2 0xF2C JUMP JUMPDEST DUP2 EQ PUSH2 0xF4A JUMPI PUSH0 DUP1 REVERT JUMPDEST POP JUMP JUMPDEST PUSH0 DUP2 MLOAD SWAP1 POP PUSH2 0xF5B DUP2 PUSH2 0xF37 JUMP JUMPDEST SWAP3 SWAP2 POP POP JUMP JUMPDEST PUSH0 PUSH1 0x20 DUP3 DUP5 SUB SLT ISZERO PUSH2 0xF76 JUMPI PUSH2 0xF75 PUSH2 0x987 JUMP JUMPDEST JUMPDEST PUSH0 PUSH2 0xF83 DUP5 DUP3 DUP6 ADD PUSH2 0xF4D JUMP JUMPDEST SWAP2 POP POP SWAP3 SWAP2 POP POP JUMP JUMPDEST PUSH32 0x4E487B7100000000000000000000000000000000000000000000000000000000 PUSH0 MSTORE PUSH1 0x11 PUSH1 0x4 MSTORE PUSH1 0x24 PUSH0 REVERT JUMPDEST PUSH0 PUSH2 0xFC3 DUP3 PUSH2 0xA93 JUMP JUMPDEST SWAP2 POP PUSH2 0xFCE DUP4 PUSH2 0xA93 JUMP JUMPDEST SWAP3 POP DUP3 DUP3 ADD SWAP1 POP DUP1 DUP3 GT ISZERO PUSH2 0xFE6 JUMPI PUSH2 0xFE5 PUSH2 0xF8C JUMP JUMPDEST JUMPDEST SWAP3 SWAP2 POP POP JUMP JUMPDEST PUSH0 DUP2 SWAP1 POP DUP2 PUSH0 MSTORE PUSH1 0x20 PUSH0 KECCAK256 SWAP1 POP SWAP2 SWAP1 POP JUMP JUMPDEST PUSH0 PUSH1 0x20 PUSH1 0x1F DUP4 ADD DIV SWAP1 POP SWAP2 SWAP1 POP JUMP JUMPDEST PUSH0 DUP3 DUP3 SHL SWAP1 POP SWAP3 SWAP2 POP POP JUMP JUMPDEST PUSH0 PUSH1 0x8 DUP4 MUL PUSH2 0x1048 PUSH32 0xFFFFFFFFFFFFFFFFFFFFFFFFFFFFFFFFFFFFFFFFFFFFFFFFFFFFFFFFFFFFFFFF DUP3 PUSH2 0x100D JUMP JUMPDEST PUSH2 0x1052 DUP7 DUP4 PUSH2 0x100D JUMP JUMPDEST SWAP6 POP DUP1 NOT DUP5 AND SWAP4 POP DUP1 DUP7 AND DUP5 OR SWAP3 POP POP POP SWAP4 SWAP3 POP POP POP JUMP JUMPDEST PUSH0 PUSH2 0x1084 PUSH2 0x107F PUSH2 0x107A DUP5 PUSH2 0xA93 JUMP JUMPDEST PUSH2 0xDBE JUMP JUMPDEST PUSH2 0xA93 JUMP JUMPDEST SWAP1 POP SWAP2 SWAP1 POP JUMP JUMPDEST PUSH0 DUP2 SWAP1 POP SWAP2 SWAP1 POP JUMP JUMPDEST PUSH2 0x109D DUP4 PUSH2 0x106A JUMP JUMPDEST PUSH2 0x10B1 PUSH2 0x10A9 DUP3 PUSH2 0x108B JUMP JUMPDEST DUP5 DUP5 SLOAD PUSH2 0x1019 JUMP JUMPDEST DUP3 SSTORE POP POP POP POP JUMP JUMPDEST PUSH0 SWAP1 JUMP JUMPDEST PUSH2 0x10C5 PUSH2 0x10B9 JUMP JUMPDEST PUSH2 0x10D0 DUP2 DUP5 DUP5 PUSH2 0x1094 JUMP JUMPDEST POP POP POP JUMP JUMPDEST JUMPDEST DUP2 DUP2 LT ISZERO PUSH2 0x10F3 JUMPI PUSH2 0x10E8 PUSH0 DUP3 PUSH2 0x10BD JUMP JUMPDEST PUSH1 0x1 DUP2 ADD SWAP1 POP PUSH2 0x10D6 JUMP JUMPDEST POP POP JUMP JUMPDEST PUSH1 0x1F DUP3 GT ISZERO PUSH2 0x1138 JUMPI PUSH2 0x1109 DUP2 PUSH2 0xFEC JUMP JUMPDEST PUSH2 0x1112 DUP5 PUSH2 0xFFE JUMP JUMPDEST DUP2 ADD PUSH1 0x20 DUP6 LT ISZERO PUSH2 0x1121 JUMPI DUP2 SWAP1 POP JUMPDEST PUSH2 0x1135 PUSH2 0x112D DUP6 PUSH2 0xFFE JUMP JUMPDEST DUP4 ADD DUP3 PUSH2 0x10D5 JUMP JUMPDEST POP POP JUMPDEST POP POP POP JUMP JUMPDEST PUSH0 DUP3 DUP3 SHR SWAP1 POP SWAP3 SWAP2 POP POP JUMP JUMPDEST PUSH0 PUSH2 0x1158 PUSH0 NOT DUP5 PUSH1 0x8 MUL PUSH2 0x113D JUMP JUMPDEST NOT DUP1 DUP4 AND SWAP2 POP POP SWAP3 SWAP2 POP POP JUMP JUMPDEST PUSH0 PUSH2 0x1170 DUP4 DUP4 PUSH2 0x1149 JUMP JUMPDEST SWAP2 POP DUP3 PUSH1 0x2 MUL DUP3 OR SWAP1 POP SWAP3 SWAP2 POP POP JUMP JUMPDEST PUSH2 0x1189 DUP3 PUSH2 0xA14 JUMP JUMPDEST PUSH8 0xFFFFFFFFFFFFFFFF DUP2 GT ISZERO PUSH2 0x11A2 JUMPI PUSH2 0x11A1 PUSH2 0xC02 JUMP JUMPDEST JUMPDEST PUSH2 0x11AC DUP3 SLOAD PUSH2 0xE5F JUMP JUMPDEST PUSH2 0x11B7 DUP3 DUP3 DUP6 PUSH2 0x10F7 JUMP JUMPDEST PUSH0 PUSH1 0x20 SWAP1 POP PUSH1 0x1F DUP4 GT PUSH1 0x1 DUP2 EQ PUSH2 0x11E8 JUMPI PUSH0 DUP5 ISZERO PUSH2 0x11D6 JUMPI DUP3 DUP8 ADD MLOAD SWAP1 POP JUMPDEST PUSH2 0x11E0 DUP6 DUP3 PUSH2 0x1165 JUMP JUMPDEST DUP7 SSTORE POP PUSH2 0x1247 JUMP JUMPDEST PUSH1 0x1F NOT DUP5 AND PUSH2 0x11F6 DUP7 PUSH2 0xFEC JUMP JUMPDEST PUSH0 JUMPDEST DUP3 DUP2 LT ISZERO PUSH2 0x121D JUMPI DUP5 DUP10 ADD MLOAD DUP3 SSTORE PUSH1 0x1 DUP3 ADD SWAP2 POP PUSH1 0x20 DUP6 ADD SWAP5 POP PUSH1 0x20 DUP2 ADD SWAP1 POP PUSH2 0x11F8 JUMP JUMPDEST DUP7 DUP4 LT ISZERO PUSH2 0x123A JUMPI DUP5 DUP10 ADD MLOAD PUSH2 0x1236 PUSH1 0x1F DUP10 AND DUP3 PUSH2 0x1149 JUMP JUMPDEST DUP4 SSTORE POP JUMPDEST PUSH1 0x1 PUSH1 0x2 DUP9 MUL ADD DUP9 SSTORE POP POP POP JUMPDEST POP POP POP POP POP POP JUMP JUMPDEST PUSH32 0x5769746864726177616C20616D6F756E74206578636565647320746865206D61 PUSH0 DUP3 ADD MSTORE PUSH32 0x78696D756D206C696D69742E0000000000000000000000000000000000000000 PUSH1 0x20 DUP3 ADD MSTORE POP JUMP JUMPDEST PUSH0 PUSH2 0x12A9 PUSH1 0x2C DUP4 PUSH2 0xA1E JUMP JUMPDEST SWAP2 POP PUSH2 0x12B4 DUP3 PUSH2 0x124F JUMP JUMPDEST PUSH1 0x40 DUP3 ADD SWAP1 POP SWAP2 SWAP1 POP JUMP JUMPDEST PUSH0 PUSH1 0x20 DUP3 ADD SWAP1 POP DUP2 DUP2 SUB PUSH0 DUP4 ADD MSTORE PUSH2 0x12D6 DUP2 PUSH2 0x129D JUMP JUMPDEST SWAP1 POP SWAP2 SWAP1 POP JUMP JUMPDEST PUSH32 0x496E73756666696369656E742062616C616E63652E0000000000000000000000 PUSH0 DUP3 ADD MSTORE POP JUMP JUMPDEST PUSH0 PUSH2 0x1311 PUSH1 0x15 DUP4 PUSH2 0xA1E JUMP JUMPDEST SWAP2 POP PUSH2 0x131C DUP3 PUSH2 0x12DD JUMP JUMPDEST PUSH1 0x20 DUP3 ADD SWAP1 POP SWAP2 SWAP1 POP JUMP JUMPDEST PUSH0 PUSH1 0x20 DUP3 ADD SWAP1 POP DUP2 DUP2 SUB PUSH0 DUP4 ADD MSTORE PUSH2 0x133E DUP2 PUSH2 0x1305 JUMP JUMPDEST SWAP1 POP SWAP2 SWAP1 POP JUMP JUMPDEST PUSH0 PUSH2 0x134F DUP3 PUSH2 0xA93 JUMP JUMPDEST SWAP2 POP PUSH2 0x135A DUP4 PUSH2 0xA93 JUMP JUMPDEST SWAP3 POP DUP3 DUP3 SUB SWAP1 POP DUP2 DUP2 GT ISZERO PUSH2 0x1372 JUMPI PUSH2 0x1371 PUSH2 0xF8C JUMP JUMPDEST JUMPDEST SWAP3 SWAP2 POP POP JUMP JUMPDEST PUSH0 PUSH1 0x40 DUP3 ADD SWAP1 POP PUSH2 0x138B PUSH0 DUP4 ADD DUP6 PUSH2 0xA84 JUMP JUMPDEST PUSH2 0x1398 PUSH1 0x20 DUP4 ADD DUP5 PUSH2 0xA9C JUMP JUMPDEST SWAP4 SWAP3 POP POP POP JUMP JUMPDEST PUSH32 0x546F6B656E207472616E73666572206661696C65642E00000000000000000000 PUSH0 DUP3 ADD MSTORE POP JUMP JUMPDEST PUSH0 PUSH2 0x13D3 PUSH1 0x16 DUP4 PUSH2 0xA1E JUMP JUMPDEST SWAP2 POP PUSH2 0x13DE DUP3 PUSH2 0x139F JUMP JUMPDEST PUSH1 0x20 DUP3 ADD SWAP1 POP SWAP2 SWAP1 POP JUMP JUMPDEST PUSH0 PUSH1 0x20 DUP3 ADD SWAP1 POP DUP2 DUP2 SUB PUSH0 DUP4 ADD MSTORE PUSH2 0x1400 DUP2 PUSH2 0x13C7 JUMP JUMPDEST SWAP1 POP SWAP2 SWAP1 POP JUMP INVALID LOG2 PUSH5 0x6970667358 0x22 SLT KECCAK256 0x21 PUSH6 0x3D5B034832F0 0x21 0xB5 BALANCE 0x29 EXP EXTCODEHASH 0xA8 0xEB 0xBE RETURNDATASIZE 0xE0 0x4D 0xC0 OR PUSH13 0x8CB574CF1126A5A54164736F6C PUSH4 0x4300081A STOP CALLER "
				},
				"gasEstimates": {
					"creation": {
						"codeDepositCost": "1036200",
						"executionCost": "infinite",
						"totalCost": "infinite"
					},
					"external": {
						"MAX_WITHDRAWAL()": "370",
						"MIN_DEPOSIT()": "391",
						"deposit(uint256)": "infinite",
						"getUserProfile(address)": "infinite",
						"get_balance()": "356",
						"ret_own()": "379",
						"setUserProfile(string,address)": "infinite",
						"token()": "infinite",
						"transactionState()": "2574",
						"userProfiles(address)": "infinite",
						"withdraw(address,uint256)": "infinite"
					}
				},
				"methodIdentifiers": {
					"MAX_WITHDRAWAL()": "97ec642c",
					"MIN_DEPOSIT()": "e1e158a5",
					"deposit(uint256)": "b6b55f25",
					"getUserProfile(address)": "987ee156",
					"get_balance()": "c1cfb99a",
					"ret_own()": "b7d38f58",
					"setUserProfile(string,address)": "c2da9d0d",
					"token()": "fc0c546a",
					"transactionState()": "428669ba",
					"userProfiles(address)": "332d56d7",
					"withdraw(address,uint256)": "f3fef3a3"
				}
			},
			"storageLayout": {
				"storage": [
					{
						"astId": 15,
						"contract": "contracts/Bank_Token.sol:Bank_Token",
						"label": "transactionState",
						"offset": 0,
						"slot": "0",
						"type": "t_enum(TransactionState)12"
					},
					{
						"astId": 20,
						"contract": "contracts/Bank_Token.sol:Bank_Token",
						"label": "userProfiles",
						"offset": 0,
						"slot": "1",
						"type": "t_mapping(t_address,t_struct(UserProfile)9_storage)"
					},
					{
						"astId": 23,
						"contract": "contracts/Bank_Token.sol:Bank_Token",
						"label": "token",
						"offset": 0,
						"slot": "2",
						"type": "t_contract(ERC20)469"
					}
				],
				"types": {
					"t_address": {
						"encoding": "inplace",
						"label": "address",
						"numberOfBytes": "20"
					},
					"t_contract(ERC20)469": {
						"encoding": "inplace",
						"label": "contract ERC20",
						"numberOfBytes": "20"
					},
					"t_enum(TransactionState)12": {
						"encoding": "inplace",
						"label": "enum Bank_Token.TransactionState",
						"numberOfBytes": "1"
					},
					"t_mapping(t_address,t_struct(UserProfile)9_storage)": {
						"encoding": "mapping",
						"key": "t_address",
						"label": "mapping(address => struct Bank_Token.UserProfile)",
						"numberOfBytes": "32",
						"value": "t_struct(UserProfile)9_storage"
					},
					"t_string_storage": {
						"encoding": "bytes",
						"label": "string",
						"numberOfBytes": "32"
					},
					"t_struct(UserProfile)9_storage": {
						"encoding": "inplace",
						"label": "struct Bank_Token.UserProfile",
						"members": [
							{
								"astId": 4,
								"contract": "contracts/Bank_Token.sol:Bank_Token",
								"label": "name",
								"offset": 0,
								"slot": "0",
								"type": "t_string_storage"
							},
							{
								"astId": 6,
								"contract": "contracts/Bank_Token.sol:Bank_Token",
								"label": "userAddress",
								"offset": 0,
								"slot": "1",
								"type": "t_address"
							},
							{
								"astId": 8,
								"contract": "contracts/Bank_Token.sol:Bank_Token",
								"label": "balance",
								"offset": 0,
								"slot": "2",
								"type": "t_uint256"
							}
						],
						"numberOfBytes": "96"
					},
					"t_uint256": {
						"encoding": "inplace",
						"label": "uint256",
						"numberOfBytes": "32"
					}
				}
			},
			"userdoc": {
				"kind": "user",
				"methods": {},
				"version": 1
			}
		}
	}
}